{
	"data": {
		"bytecode": {
			"linkReferences": {
				"remix_accounts.sol": {
					"TestsAccounts": [
						{
							"length": 20,
							"start": 10177
						},
						{
							"length": 20,
							"start": 10362
						},
						{
							"length": 20,
							"start": 10547
						},
						{
							"length": 20,
							"start": 10732
						},
						{
							"length": 20,
							"start": 10917
						},
						{
							"length": 20,
							"start": 11102
						}
					]
				},
				"remix_tests.sol": {
					"Assert": [
						{
							"length": 20,
							"start": 2746
						},
						{
							"length": 20,
							"start": 2902
						},
						{
							"length": 20,
							"start": 3080
						},
						{
							"length": 20,
							"start": 3209
						},
						{
							"length": 20,
							"start": 3337
						},
						{
							"length": 20,
							"start": 3463
						},
						{
							"length": 20,
							"start": 3683
						},
						{
							"length": 20,
							"start": 4002
						},
						{
							"length": 20,
							"start": 4158
						},
						{
							"length": 20,
							"start": 4336
						},
						{
							"length": 20,
							"start": 4465
						},
						{
							"length": 20,
							"start": 5378
						},
						{
							"length": 20,
							"start": 5563
						},
						{
							"length": 20,
							"start": 5935
						},
						{
							"length": 20,
							"start": 6473
						},
						{
							"length": 20,
							"start": 6608
						},
						{
							"length": 20,
							"start": 7486
						},
						{
							"length": 20,
							"start": 7642
						},
						{
							"length": 20,
							"start": 7820
						},
						{
							"length": 20,
							"start": 7949
						},
						{
							"length": 20,
							"start": 8415
						},
						{
							"length": 20,
							"start": 8545
						},
						{
							"length": 20,
							"start": 8679
						},
						{
							"length": 20,
							"start": 9567
						},
						{
							"length": 20,
							"start": 9723
						},
						{
							"length": 20,
							"start": 9901
						},
						{
							"length": 20,
							"start": 10030
						},
						{
							"length": 20,
							"start": 11289
						},
						{
							"length": 20,
							"start": 11509
						},
						{
							"length": 20,
							"start": 11729
						},
						{
							"length": 20,
							"start": 11949
						},
						{
							"length": 20,
							"start": 12171
						},
						{
							"length": 20,
							"start": 12313
						},
						{
							"length": 20,
							"start": 12440
						},
						{
							"length": 20,
							"start": 12633
						},
						{
							"length": 20,
							"start": 12763
						},
						{
							"length": 20,
							"start": 13058
						},
						{
							"length": 20,
							"start": 13214
						},
						{
							"length": 20,
							"start": 13392
						},
						{
							"length": 20,
							"start": 13521
						},
						{
							"length": 20,
							"start": 13649
						},
						{
							"length": 20,
							"start": 13773
						},
						{
							"length": 20,
							"start": 13906
						},
						{
							"length": 20,
							"start": 14200
						},
						{
							"length": 20,
							"start": 14546
						},
						{
							"length": 20,
							"start": 14690
						},
						{
							"length": 20,
							"start": 15056
						}
					]
				}
			},
			"object": "6080604052600060025560006003556000600455604051806020016040528060008152506006908162000033919062000359565b506001600960006101000a81548160ff0219169083151502179055506000600a556000600b60006101000a81548160ff0219169083151502179055503480156200007c57600080fd5b5033600560006101000a81548173ffffffffffffffffffffffffffffffffffffffff021916908373ffffffffffffffffffffffffffffffffffffffff1602179055506001600d60006101000a81548160ff02191690831515021790555062000440565b600081519050919050565b7f4e487b7100000000000000000000000000000000000000000000000000000000600052604160045260246000fd5b7f4e487b7100000000000000000000000000000000000000000000000000000000600052602260045260246000fd5b600060028204905060018216806200016157607f821691505b60208210810362000177576200017662000119565b5b50919050565b60008190508160005260206000209050919050565b60006020601f8301049050919050565b600082821b905092915050565b600060088302620001e17fffffffffffffffffffffffffffffffffffffffffffffffffffffffffffffffff82620001a2565b620001ed8683620001a2565b95508019841693508086168417925050509392505050565b6000819050919050565b6000819050919050565b60006200023a620002346200022e8462000205565b6200020f565b62000205565b9050919050565b6000819050919050565b620002568362000219565b6200026e620002658262000241565b848454620001af565b825550505050565b600090565b6200028562000276565b620002928184846200024b565b505050565b5b81811015620002ba57620002ae6000826200027b565b60018101905062000298565b5050565b601f8211156200030957620002d3816200017d565b620002de8462000192565b81016020851015620002ee578190505b62000306620002fd8562000192565b83018262000297565b50505b505050565b600082821c905092915050565b60006200032e600019846008026200030e565b1980831691505092915050565b60006200034983836200031b565b9150826002028217905092915050565b6200036482620000df565b67ffffffffffffffff81111562000380576200037f620000ea565b5b6200038c825462000148565b62000399828285620002be565b600060209050601f831160018114620003d15760008415620003bc578287015190505b620003c885826200033b565b86555062000438565b601f198416620003e1866200017d565b60005b828110156200040b57848901518255600182019150602085019450602081019050620003e4565b868310156200042b578489015162000427601f8916826200031b565b8355505b6001600288020188555050505b505050505050565b615d0280620004506000396000f3fe608060405234801561001057600080fd5b506004361061025e5760003560e01c8063788d385111610146578063a9a4070c116100c3578063bd97a26411610087578063bd97a2641461054f578063be8db3cf14610559578063bf1cf58914610577578063c1c16efc14610581578063e289fcb61461059f578063fcab6d75146105bd5761025e565b8063a9a4070c146104e3578063ad5461d8146104ed578063b798867f1461051d578063bbb97ded1461053b578063bca353be146105455761025e565b8063947aea861161010a578063947aea861461049d578063a24a4e88146104a7578063a3bef4d7146104b1578063a5627cf0146104cf578063a8267245146104d95761025e565b8063788d3851146104575780637fea0d4b14610475578063848b44271461047f57806388f4f9d9146104895780638fd19a13146104935761025e565b806347098f36116101df578063632a9a52116101a3578063632a9a52146103cd57806366597e5a146103d75780636a9fe400146103f55780636d77bd3e146103ff57806372181ae91461042f57806377440e061461044d5761025e565b806347098f361461033a578063481c6a7514610358578063512a6fbb146103765780635df81330146103805780635f2ba6b2146103b15761025e565b80631ddabf7a116102265780631ddabf7a146102bb5780632955fea3146102ec578063312d2924146102f657806331de1e50146103005780633b9f708d1461030a5761025e565b806302df553a1461026357806307d7bb551461026d5780630a8a1c4914610277578063124258c61461028157806312a4591a146102b1575b600080fd5b61026b6105c7565b005b6102756108b7565b005b61027f610acc565b005b61029b600480360381019061029691906138c6565b610d9c565b6040516102a8919061390e565b60405180910390f35b6102b96110b0565b005b6102d560048036038101906102d09190613987565b611224565b6040516102e3929190613a44565b60405180910390f35b6102f46112dd565b005b6102fe611361565b005b610308611576565b005b610324600480360381019061031f9190613ba9565b61160b565b6040516103319190613c14565b60405180910390f35b610342611822565b60405161034f9190613c14565b60405180910390f35b610360611828565b60405161036d9190613c3e565b60405180910390f35b61037e61184e565b005b61039a600480360381019061039591906138c6565b611b3b565b6040516103a8929190613c59565b60405180910390f35b6103cb60048036038101906103c691906138c6565b611b7f565b005b6103d5611c8d565b005b6103df611d8f565b6040516103ec9190613c14565b60405180910390f35b6103fd611d95565b005b61041960048036038101906104149190613c82565b611e15565b6040516104269190613c14565b60405180910390f35b610437612038565b604051610444919061390e565b60405180910390f35b61045561204b565b005b61045f61235c565b60405161046c919061390e565b60405180910390f35b61047d61236f565b005b6104876127c7565b005b610491612b39565b005b61049b612bb9565b005b6104a5612c46565b005b6104af612d07565b005b6104b9612e09565b6040516104c69190613c14565b60405180910390f35b6104d7612e0f565b005b6104e16130ff565b005b6104eb61317b565b005b610507600480360381019061050291906138c6565b613280565b6040516105149190613ccb565b60405180910390f35b610525613320565b6040516105329190613c14565b60405180910390f35b610543613326565b005b61054d6133b3565b005b610557613460565b005b610561613500565b60405161056e9190613c14565b60405180910390f35b61057f613506565b005b610589613590565b6040516105969190613ccb565b60405180910390f35b6105a761361e565b6040516105b4919061390e565b60405180910390f35b6105c5613631565b005b3073ffffffffffffffffffffffffffffffffffffffff1663124258c660016040518263ffffffff1660e01b81526004016106019190613d32565b6020604051808303816000875af192505050801561063d57506040513d601f19601f8201168201806040525081019061063a9190613d79565b60015b61083757610649613db3565b806308c379a0036106e7575061065d613dd5565b806106685750610784565b73__$acbfb1c35000d78352310b16a054a6b106$__63e8c2cb16826040518263ffffffff1660e01b815260040161069f9190613f47565b602060405180830381865af41580156106bc573d6000803e3d6000fd5b505050506040513d601f19601f820116820180604052508101906106e09190613d79565b5050610832565b634e487b7103610784576106f9613f8f565b906107045750610784565b73__$acbfb1c35000d78352310b16a054a6b106$__6339df137f60006040518263ffffffff1660e01b815260040161073c9190614031565b602060405180830381865af4158015610759573d6000803e3d6000fd5b505050506040513d601f19601f8201168201806040525081019061077d9190613d79565b5050610832565b3d80600081146107b0576040519150601f19603f3d011682016040523d82523d6000602084013e6107b5565b606091505b5073__$acbfb1c35000d78352310b16a054a6b106$__6339df137f60006040518263ffffffff1660e01b81526004016107ee91906140ab565b602060405180830381865af415801561080b573d6000803e3d6000fd5b505050506040513d601f19601f8201168201806040525081019061082f9190613d79565b50505b6108b5565b73__$acbfb1c35000d78352310b16a054a6b106$__63767392b38260006040518363ffffffff1660e01b815260040161087192919061414b565b602060405180830381865af415801561088e573d6000803e3d6000fd5b505050506040513d601f19601f820116820180604052508101906108b29190613d79565b50505b565b73__$acbfb1c35000d78352310b16a054a6b106$__63abcd7960600a5460026040518363ffffffff1660e01b81526004016108f392919061421d565b602060405180830381865af4158015610910573d6000803e3d6000fd5b505050506040513d601f19601f820116820180604052508101906109349190613d79565b5073__$acbfb1c35000d78352310b16a054a6b106$__63abcd79606109b0601160009054906101000a900473ffffffffffffffffffffffffffffffffffffffff166040518060400160405280600381526020017f546f6d000000000000000000000000000000000000000000000000000000000081525061160b565b60056040518363ffffffff1660e01b81526004016109cf9291906142e0565b602060405180830381865af41580156109ec573d6000803e3d6000fd5b505050506040513d601f19601f82011682018060405250810190610a109190613d79565b5073__$acbfb1c35000d78352310b16a054a6b106$__63abcd7960610a696040518060400160405280600681526020017f5375627761790000000000000000000000000000000000000000000000000000815250611e15565b60026040518363ffffffff1660e01b8152600401610a88929190614368565b602060405180830381865af4158015610aa5573d6000803e3d6000fd5b505050506040513d601f19601f82011682018060405250810190610ac99190613d79565b50565b3073ffffffffffffffffffffffffffffffffffffffff1663bca353be6040518163ffffffff1660e01b8152600401600060405180830381600087803b158015610b1457600080fd5b505af1925050508015610b25575060015b610d1f57610b31613db3565b806308c379a003610bcf5750610b45613dd5565b80610b505750610c6c565b73__$acbfb1c35000d78352310b16a054a6b106$__63e8c2cb16826040518263ffffffff1660e01b8152600401610b879190614416565b602060405180830381865af4158015610ba4573d6000803e3d6000fd5b505050506040513d601f19601f82011682018060405250810190610bc89190613d79565b5050610d1a565b634e487b7103610c6c57610be1613f8f565b90610bec5750610c6c565b73__$acbfb1c35000d78352310b16a054a6b106$__6339df137f60006040518263ffffffff1660e01b8152600401610c2491906144d0565b602060405180830381865af4158015610c41573d6000803e3d6000fd5b505050506040513d601f19601f82011682018060405250810190610c659190613d79565b5050610d1a565b3d8060008114610c98576040519150601f19603f3d011682016040523d82523d6000602084013e610c9d565b606091505b5073__$acbfb1c35000d78352310b16a054a6b106$__6339df137f60006040518263ffffffff1660e01b8152600401610cd6919061454a565b602060405180830381865af4158015610cf3573d6000803e3d6000fd5b505050506040513d601f19601f82011682018060405250810190610d179190613d79565b50505b610d9a565b73__$acbfb1c35000d78352310b16a054a6b106$__6339df137f60006040518263ffffffff1660e01b8152600401610d5791906145c4565b602060405180830381865af4158015610d74573d6000803e3d6000fd5b505050506040513d601f19601f82011682018060405250810190610d989190613d79565b505b565b600060011515600960009054906101000a900460ff16151514610df4576040517f08c379a0000000000000000000000000000000000000000000000000000000008152600401610deb90614664565b60405180910390fd5b60011515600d60009054906101000a900460ff16151514610e4a576040517f08c379a0000000000000000000000000000000000000000000000000000000008152600401610e41906146d0565b60405180910390fd5b600090506000600160003373ffffffffffffffffffffffffffffffffffffffff1673ffffffffffffffffffffffffffffffffffffffff1681526020019081526020016000206000018054610e9d9061471f565b905014158015610efa5750600160003373ffffffffffffffffffffffffffffffffffffffff1673ffffffffffffffffffffffffffffffffffffffff16815260200190815260200160002060010160009054906101000a900460ff16155b8015610f0857506001600a54145b1561107f5760008060008481526020019081526020016000208054610f2c9061471f565b90501461107e57600c54431161106c576001905060018060003373ffffffffffffffffffffffffffffffffffffffff1673ffffffffffffffffffffffffffffffffffffffff16815260200190815260200160002060010160006101000a81548160ff021916908315150217905550610fa2613830565b33816000019073ffffffffffffffffffffffffffffffffffffffff16908173ffffffffffffffffffffffffffffffffffffffff16815250508281602001818152505060046000815480929190610ff79061477f565b91905055508060076000600454815260200190815260200160002060008201518160000160006101000a81548173ffffffffffffffffffffffffffffffffffffffff021916908373ffffffffffffffffffffffffffffffffffffffff160217905550602082015181600101559050505061107d565b6002600a8190555061107c6136fd565b5b5b5b6001600260035461109091906147f6565b61109a9190614827565b600454106110ab576110aa6136fd565b5b919050565b73__$acbfb1c35000d78352310b16a054a6b106$__63abcd79606111086040518060400160405280600e81526020017f436f757274796172642043616665000000000000000000000000000000000000815250611e15565b60016040518363ffffffff1660e01b81526004016111279291906148b6565b602060405180830381865af4158015611144573d6000803e3d6000fd5b505050506040513d601f19601f820116820180604052508101906111689190613d79565b5073__$acbfb1c35000d78352310b16a054a6b106$__63abcd79606111c16040518060400160405280600881526020017f556e692043616665000000000000000000000000000000000000000000000000815250611e15565b60026040518363ffffffff1660e01b81526004016111e092919061493e565b602060405180830381865af41580156111fd573d6000803e3d6000fd5b505050506040513d601f19601f820116820180604052508101906112219190613d79565b50565b60016020528060005260406000206000915090508060000180546112479061471f565b80601f01602080910402602001604051908101604052809291908181526020018280546112739061471f565b80156112c05780601f10611295576101008083540402835291602001916112c0565b820191906000526020600020905b8154815290600101906020018083116112a357829003601f168201915b5050505050908060010160009054906101000a900460ff16905082565b73__$acbfb1c35000d78352310b16a054a6b106$__6339df137f6113016002610d9c565b6040518263ffffffff1660e01b815260040161131d91906149c6565b602060405180830381865af415801561133a573d6000803e3d6000fd5b505050506040513d601f19601f8201168201806040525081019061135e9190613d79565b50565b6113c2601260009054906101000a900473ffffffffffffffffffffffffffffffffffffffff166040518060400160405280600781526020017f44616e69656c730000000000000000000000000000000000000000000000000081525061160b565b506000600354905061142b601260009054906101000a900473ffffffffffffffffffffffffffffffffffffffff166040518060400160405280600781526020017f44616e69656c730000000000000000000000000000000000000000000000000081525061160b565b5061148d601060009054906101000a900473ffffffffffffffffffffffffffffffffffffffff166040518060400160405280600481526020017f457269630000000000000000000000000000000000000000000000000000000081525061160b565b506114ef600f60009054906101000a900473ffffffffffffffffffffffffffffffffffffffff166040518060400160405280600481526020017f4572696b0000000000000000000000000000000000000000000000000000000081525061160b565b506000600354905073__$acbfb1c35000d78352310b16a054a6b106$__63abcd796083836040518363ffffffff1660e01b8152600401611530929190614a8c565b602060405180830381865af415801561154d573d6000803e3d6000fd5b505050506040513d601f19601f820116820180604052508101906115719190613d79565b505050565b61157e6133b3565b73__$acbfb1c35000d78352310b16a054a6b106$__63767392b3600d60009054906101000a900460ff1660006040518363ffffffff1660e01b81526004016115c7929190614b3a565b602060405180830381865af41580156115e4573d6000803e3d6000fd5b505050506040513d601f19601f820116820180604052508101906116089190613d79565b50565b6000600560009054906101000a900473ffffffffffffffffffffffffffffffffffffffff1673ffffffffffffffffffffffffffffffffffffffff163373ffffffffffffffffffffffffffffffffffffffff161461169d576040517f08c379a000000000000000000000000000000000000000000000000000000000815260040161169490614b99565b60405180910390fd5b60011515600d60009054906101000a900460ff161515146116f3576040517f08c379a00000000000000000000000000000000000000000000000000000000081526004016116ea906146d0565b60405180910390fd5b6000600160008573ffffffffffffffffffffffffffffffffffffffff1673ffffffffffffffffffffffffffffffffffffffff16815260200190815260200160002060000180546117429061471f565b905014801561175357506000600a54145b1561181657611760613860565b828160000181905250600081602001901515908115158152505080600160008673ffffffffffffffffffffffffffffffffffffffff1673ffffffffffffffffffffffffffffffffffffffff16815260200190815260200160002060008201518160000190816117cf9190614d5b565b5060208201518160010160006101000a81548160ff021916908315150217905550905050600360008154809291906118069061477f565b919050555060035491505061181c565b60035490505b92915050565b60035481565b600560009054906101000a900473ffffffffffffffffffffffffffffffffffffffff1681565b3073ffffffffffffffffffffffffffffffffffffffff16636d77bd3e6040518163ffffffff1660e01b815260040161188590614e79565b6020604051808303816000875af19250505080156118c157506040513d601f19601f820116820180604052508101906118be9190614eae565b60015b611abb576118cd613db3565b806308c379a00361196b57506118e1613dd5565b806118ec5750611a08565b73__$acbfb1c35000d78352310b16a054a6b106$__63e8c2cb16826040518263ffffffff1660e01b81526004016119239190614416565b602060405180830381865af4158015611940573d6000803e3d6000fd5b505050506040513d601f19601f820116820180604052508101906119649190613d79565b5050611ab6565b634e487b7103611a085761197d613f8f565b906119885750611a08565b73__$acbfb1c35000d78352310b16a054a6b106$__6339df137f60006040518263ffffffff1660e01b81526004016119c091906144d0565b602060405180830381865af41580156119dd573d6000803e3d6000fd5b505050506040513d601f19601f82011682018060405250810190611a019190613d79565b5050611ab6565b3d8060008114611a34576040519150601f19603f3d011682016040523d82523d6000602084013e611a39565b606091505b5073__$acbfb1c35000d78352310b16a054a6b106$__6339df137f60006040518263ffffffff1660e01b8152600401611a72919061454a565b602060405180830381865af4158015611a8f573d6000803e3d6000fd5b505050506040513d601f19601f82011682018060405250810190611ab39190613d79565b50505b611b39565b73__$acbfb1c35000d78352310b16a054a6b106$__63561015e28260036040518363ffffffff1660e01b8152600401611af5929190614f16565b602060405180830381865af4158015611b12573d6000803e3d6000fd5b505050506040513d601f19601f82011682018060405250810190611b369190613d79565b50505b565b60076020528060005260406000206000915090508060000160009054906101000a900473ffffffffffffffffffffffffffffffffffffffff16908060010154905082565b600560009054906101000a900473ffffffffffffffffffffffffffffffffffffffff1673ffffffffffffffffffffffffffffffffffffffff163373ffffffffffffffffffffffffffffffffffffffff1614611c0f576040517f08c379a0000000000000000000000000000000000000000000000000000000008152600401611c0690614b99565b60405180910390fd5b60011515600d60009054906101000a900460ff16151514611c65576040517f08c379a0000000000000000000000000000000000000000000000000000000008152600401611c5c906146d0565b60405180910390fd5b6000600a5403611c8a576001600a819055508043611c839190614827565b600c819055505b50565b73__$acbfb1c35000d78352310b16a054a6b106$__6339df137f611cb16002610d9c565b6040518263ffffffff1660e01b8152600401611ccd91906149c6565b602060405180830381865af4158015611cea573d6000803e3d6000fd5b505050506040513d601f19601f82011682018060405250810190611d0e9190613d79565b5073__$acbfb1c35000d78352310b16a054a6b106$__63abcd7960600a5460016040518363ffffffff1660e01b8152600401611d4b929190614fc4565b602060405180830381865af4158015611d68573d6000803e3d6000fd5b505050506040513d601f19601f82011682018060405250810190611d8c9190613d79565b50565b600a5481565b73__$acbfb1c35000d78352310b16a054a6b106$__63abcd7960600a5460026040518363ffffffff1660e01b8152600401611dd192919061421d565b602060405180830381865af4158015611dee573d6000803e3d6000fd5b505050506040513d601f19601f82011682018060405250810190611e129190613d79565b50565b6000600560009054906101000a900473ffffffffffffffffffffffffffffffffffffffff1673ffffffffffffffffffffffffffffffffffffffff163373ffffffffffffffffffffffffffffffffffffffff1614611ea7576040517f08c379a0000000000000000000000000000000000000000000000000000000008152600401611e9e90614b99565b60405180910390fd5b60011515600d60009054906101000a900460ff16151514611efd576040517f08c379a0000000000000000000000000000000000000000000000000000000008152600401611ef4906146d0565b60405180910390fd5b6000600190505b6002548111611fa05782604051602001611f1e919061503c565b60405160208183030381529060405280519060200120600080838152602001908152602001600020604051602001611f5691906150d6565b6040516020818303038152906040528051906020012003611f8d576001600b60006101000a81548160ff0219169083151502179055505b8080611f989061477f565b915050611f04565b5060001515600b60009054906101000a900460ff161515148015611fc657506000600a54145b8015611fd3575060008251115b156120135760026000815480929190611feb9061477f565b919050555081600080600254815260200190815260200160002090816120119190614d5b565b505b6000600b60006101000a81548160ff0219169083151502179055506002549050919050565b600b60009054906101000a900460ff1681565b3073ffffffffffffffffffffffffffffffffffffffff16633b9f708d601160009054906101000a900473ffffffffffffffffffffffffffffffffffffffff166040518263ffffffff1660e01b81526004016120a69190615139565b6020604051808303816000875af19250505080156120e257506040513d601f19601f820116820180604052508101906120df9190614eae565b60015b6122dc576120ee613db3565b806308c379a00361218c5750612102613dd5565b8061210d5750612229565b73__$acbfb1c35000d78352310b16a054a6b106$__63e8c2cb16826040518263ffffffff1660e01b815260040161214491906151b3565b602060405180830381865af4158015612161573d6000803e3d6000fd5b505050506040513d601f19601f820116820180604052508101906121859190613d79565b50506122d7565b634e487b71036122295761219e613f8f565b906121a95750612229565b73__$acbfb1c35000d78352310b16a054a6b106$__6339df137f60006040518263ffffffff1660e01b81526004016121e191906144d0565b602060405180830381865af41580156121fe573d6000803e3d6000fd5b505050506040513d601f19601f820116820180604052508101906122229190613d79565b50506122d7565b3d8060008114612255576040519150601f19603f3d011682016040523d82523d6000602084013e61225a565b606091505b5073__$acbfb1c35000d78352310b16a054a6b106$__6339df137f60006040518263ffffffff1660e01b8152600401612293919061454a565b602060405180830381865af41580156122b0573d6000803e3d6000fd5b505050506040513d601f19601f820116820180604052508101906122d49190613d79565b50505b61235a565b73__$acbfb1c35000d78352310b16a054a6b106$__63561015e28260056040518363ffffffff1660e01b81526004016123169291906151fb565b602060405180830381865af4158015612333573d6000803e3d6000fd5b505050506040513d601f19601f820116820180604052508101906123579190613d79565b50505b565b600960009054906101000a900460ff1681565b73__$1068a87eb54ed04c4e435de35b2ebf536f$__63ce88b14560006040518263ffffffff1660e01b81526004016123a79190615272565b602060405180830381865af41580156123c4573d6000803e3d6000fd5b505050506040513d601f19601f820116820180604052508101906123e891906152a2565b600d60016101000a81548173ffffffffffffffffffffffffffffffffffffffff021916908373ffffffffffffffffffffffffffffffffffffffff16021790555073__$1068a87eb54ed04c4e435de35b2ebf536f$__63ce88b14560016040518263ffffffff1660e01b815260040161246091906152cf565b602060405180830381865af415801561247d573d6000803e3d6000fd5b505050506040513d601f19601f820116820180604052508101906124a191906152a2565b600e60006101000a81548173ffffffffffffffffffffffffffffffffffffffff021916908373ffffffffffffffffffffffffffffffffffffffff16021790555073__$1068a87eb54ed04c4e435de35b2ebf536f$__63ce88b14560026040518263ffffffff1660e01b815260040161251991906152ea565b602060405180830381865af4158015612536573d6000803e3d6000fd5b505050506040513d601f19601f8201168201806040525081019061255a91906152a2565b600f60006101000a81548173ffffffffffffffffffffffffffffffffffffffff021916908373ffffffffffffffffffffffffffffffffffffffff16021790555073__$1068a87eb54ed04c4e435de35b2ebf536f$__63ce88b14560036040518263ffffffff1660e01b81526004016125d29190615305565b602060405180830381865af41580156125ef573d6000803e3d6000fd5b505050506040513d601f19601f8201168201806040525081019061261391906152a2565b601060006101000a81548173ffffffffffffffffffffffffffffffffffffffff021916908373ffffffffffffffffffffffffffffffffffffffff16021790555073__$1068a87eb54ed04c4e435de35b2ebf536f$__63ce88b14560046040518263ffffffff1660e01b815260040161268b919061535b565b602060405180830381865af41580156126a8573d6000803e3d6000fd5b505050506040513d601f19601f820116820180604052508101906126cc91906152a2565b601160006101000a81548173ffffffffffffffffffffffffffffffffffffffff021916908373ffffffffffffffffffffffffffffffffffffffff16021790555073__$1068a87eb54ed04c4e435de35b2ebf536f$__63ce88b14560056040518263ffffffff1660e01b81526004016127449190615376565b602060405180830381865af4158015612761573d6000803e3d6000fd5b505050506040513d601f19601f8201168201806040525081019061278591906152a2565b601260006101000a81548173ffffffffffffffffffffffffffffffffffffffff021916908373ffffffffffffffffffffffffffffffffffffffff160217905550565b73__$acbfb1c35000d78352310b16a054a6b106$__63abcd7960612842600d60019054906101000a900473ffffffffffffffffffffffffffffffffffffffff166040518060400160405280600581526020017f416c69636500000000000000000000000000000000000000000000000000000081525061160b565b60016040518363ffffffff1660e01b81526004016128619291906148b6565b602060405180830381865af415801561287e573d6000803e3d6000fd5b505050506040513d601f19601f820116820180604052508101906128a29190613d79565b5073__$acbfb1c35000d78352310b16a054a6b106$__63abcd796061291e600e60009054906101000a900473ffffffffffffffffffffffffffffffffffffffff166040518060400160405280600381526020017f426f62000000000000000000000000000000000000000000000000000000000081525061160b565b60026040518363ffffffff1660e01b815260040161293d92919061493e565b602060405180830381865af415801561295a573d6000803e3d6000fd5b505050506040513d601f19601f8201168201806040525081019061297e9190613d79565b5073__$acbfb1c35000d78352310b16a054a6b106$__63abcd79606129fa600f60009054906101000a900473ffffffffffffffffffffffffffffffffffffffff166040518060400160405280600781526020017f436861726c69650000000000000000000000000000000000000000000000000081525061160b565b60036040518363ffffffff1660e01b8152600401612a199291906153dd565b602060405180830381865af4158015612a36573d6000803e3d6000fd5b505050506040513d601f19601f82011682018060405250810190612a5a9190613d79565b5073__$acbfb1c35000d78352310b16a054a6b106$__63abcd7960612ad6601060009054906101000a900473ffffffffffffffffffffffffffffffffffffffff166040518060400160405280600381526020017f457665000000000000000000000000000000000000000000000000000000000081525061160b565b60046040518363ffffffff1660e01b8152600401612af5929190615465565b602060405180830381865af4158015612b12573d6000803e3d6000fd5b505050506040513d601f19601f82011682018060405250810190612b369190613d79565b50565b73__$acbfb1c35000d78352310b16a054a6b106$__63abcd7960600a5460006040518363ffffffff1660e01b8152600401612b759291906154ed565b602060405180830381865af4158015612b92573d6000803e3d6000fd5b505050506040513d601f19601f82011682018060405250810190612bb69190613d79565b50565b6000612bc56002610d9c565b905073__$acbfb1c35000d78352310b16a054a6b106$__63767392b38260006040518363ffffffff1660e01b8152600401612c0192919061559b565b602060405180830381865af4158015612c1e573d6000803e3d6000fd5b505050506040513d601f19601f82011682018060405250810190612c429190613d79565b5050565b73__$acbfb1c35000d78352310b16a054a6b106$__63bfba5dd6600560009054906101000a900473ffffffffffffffffffffffffffffffffffffffff16600d60019054906101000a900473ffffffffffffffffffffffffffffffffffffffff166040518363ffffffff1660e01b8152600401612cc3929190615632565b602060405180830381865af4158015612ce0573d6000803e3d6000fd5b505050506040513d601f19601f82011682018060405250810190612d049190613d79565b50565b73__$acbfb1c35000d78352310b16a054a6b106$__6339df137f612d2b6001610d9c565b6040518263ffffffff1660e01b8152600401612d4791906149c6565b602060405180830381865af4158015612d64573d6000803e3d6000fd5b505050506040513d601f19601f82011682018060405250810190612d889190613d79565b5073__$acbfb1c35000d78352310b16a054a6b106$__63abcd7960600a5460016040518363ffffffff1660e01b8152600401612dc5929190614fc4565b602060405180830381865af4158015612de2573d6000803e3d6000fd5b505050506040513d601f19601f82011682018060405250810190612e069190613d79565b50565b60045481565b3073ffffffffffffffffffffffffffffffffffffffff1663124258c660016040518263ffffffff1660e01b8152600401612e499190613d32565b6020604051808303816000875af1925050508015612e8557506040513d601f19601f82011682018060405250810190612e829190613d79565b60015b61307f57612e91613db3565b806308c379a003612f2f5750612ea5613dd5565b80612eb05750612fcc565b73__$acbfb1c35000d78352310b16a054a6b106$__63e8c2cb16826040518263ffffffff1660e01b8152600401612ee79190615691565b602060405180830381865af4158015612f04573d6000803e3d6000fd5b505050506040513d601f19601f82011682018060405250810190612f289190613d79565b505061307a565b634e487b7103612fcc57612f41613f8f565b90612f4c5750612fcc565b73__$acbfb1c35000d78352310b16a054a6b106$__6339df137f60006040518263ffffffff1660e01b8152600401612f8491906144d0565b602060405180830381865af4158015612fa1573d6000803e3d6000fd5b505050506040513d601f19601f82011682018060405250810190612fc59190613d79565b505061307a565b3d8060008114612ff8576040519150601f19603f3d011682016040523d82523d6000602084013e612ffd565b606091505b5073__$acbfb1c35000d78352310b16a054a6b106$__6339df137f60006040518263ffffffff1660e01b815260040161303691906140ab565b602060405180830381865af4158015613053573d6000803e3d6000fd5b505050506040513d601f19601f820116820180604052508101906130779190613d79565b50505b6130fd565b73__$acbfb1c35000d78352310b16a054a6b106$__63767392b38260016040518363ffffffff1660e01b81526004016130b99291906156d9565b602060405180830381865af41580156130d6573d6000803e3d6000fd5b505050506040513d601f19601f820116820180604052508101906130fa9190613d79565b50505b565b73__$acbfb1c35000d78352310b16a054a6b106$__63e8c2cb1660066040518263ffffffff1660e01b81526004016131379190615857565b602060405180830381865af4158015613154573d6000803e3d6000fd5b505050506040513d601f19601f820116820180604052508101906131789190613d79565b50565b73__$acbfb1c35000d78352310b16a054a6b106$__63767392b361319f6001610d9c565b60006040518363ffffffff1660e01b81526004016131be9291906158eb565b602060405180830381865af41580156131db573d6000803e3d6000fd5b505050506040513d601f19601f820116820180604052508101906131ff9190613d79565b5073__$acbfb1c35000d78352310b16a054a6b106$__63abcd7960600a5460016040518363ffffffff1660e01b815260040161323c929190615973565b602060405180830381865af4158015613259573d6000803e3d6000fd5b505050506040513d601f19601f8201168201806040525081019061327d9190613d79565b50565b6000602052806000526040600020600091509050805461329f9061471f565b80601f01602080910402602001604051908101604052809291908181526020018280546132cb9061471f565b80156133185780601f106132ed57610100808354040283529160200191613318565b820191906000526020600020905b8154815290600101906020018083116132fb57829003601f168201915b505050505081565b60025481565b73__$acbfb1c35000d78352310b16a054a6b106$__63767392b3600960009054906101000a900460ff1660006040518363ffffffff1660e01b815260040161336f9291906159fb565b602060405180830381865af415801561338c573d6000803e3d6000fd5b505050506040513d601f19601f820116820180604052508101906133b09190613d79565b50565b600560009054906101000a900473ffffffffffffffffffffffffffffffffffffffff1673ffffffffffffffffffffffffffffffffffffffff163373ffffffffffffffffffffffffffffffffffffffff1614613443576040517f08c379a000000000000000000000000000000000000000000000000000000000815260040161343a90614b99565b60405180910390fd5b6000600d60006101000a81548160ff021916908315150217905550565b600060016002546134719190614827565b9050600061347e82610d9c565b905073__$acbfb1c35000d78352310b16a054a6b106$__63767392b38260006040518363ffffffff1660e01b81526004016134ba929190615aa9565b602060405180830381865af41580156134d7573d6000803e3d6000fd5b505050506040513d601f19601f820116820180604052508101906134fb9190613d79565b505050565b600c5481565b6135106064611b7f565b73__$acbfb1c35000d78352310b16a054a6b106$__63abcd7960600a5460016040518363ffffffff1660e01b815260040161354c929190615973565b602060405180830381865af4158015613569573d6000803e3d6000fd5b505050506040513d601f19601f8201168201806040525081019061358d9190613d79565b50565b6006805461359d9061471f565b80601f01602080910402602001604051908101604052809291908181526020018280546135c99061471f565b80156136165780601f106135eb57610100808354040283529160200191613616565b820191906000526020600020905b8154815290600101906020018083116135f957829003601f168201915b505050505081565b600d60009054906101000a900460ff1681565b600060025490506136766040518060400160405280600e81526020017f436f757274796172642043616665000000000000000000000000000000000000815250611e15565b506000600254905073__$acbfb1c35000d78352310b16a054a6b106$__63abcd796083836040518363ffffffff1660e01b81526004016136b7929190615b7d565b602060405180830381865af41580156136d4573d6000803e3d6000fd5b505050506040513d601f19601f820116820180604052508101906136f89190613d79565b505050565b6000806002600a819055506000600190505b60045481116137ef576000600190506000600860006007600086815260200190815260200160002060010154815260200190815260200160002054111561378857600860006007600085815260200190815260200160002060010154815260200190815260200160002054816137859190614827565b90505b80600860006007600086815260200190815260200160002060010154815260200190815260200160002081905550838111156137db57809350600760008381526020019081526020016000206001015492505b5080806137e79061477f565b91505061370f565b50600080828152602001908152602001600020600690816138109190615be4565b506000600960006101000a81548160ff0219169083151502179055505050565b6040518060400160405280600073ffffffffffffffffffffffffffffffffffffffff168152602001600081525090565b6040518060400160405280606081526020016000151581525090565b6000604051905090565b600080fd5b600080fd5b6000819050919050565b6138a381613890565b81146138ae57600080fd5b50565b6000813590506138c08161389a565b92915050565b6000602082840312156138dc576138db613886565b5b60006138ea848285016138b1565b91505092915050565b60008115159050919050565b613908816138f3565b82525050565b600060208201905061392360008301846138ff565b92915050565b600073ffffffffffffffffffffffffffffffffffffffff82169050919050565b600061395482613929565b9050919050565b61396481613949565b811461396f57600080fd5b50565b6000813590506139818161395b565b92915050565b60006020828403121561399d5761399c613886565b5b60006139ab84828501613972565b91505092915050565b600081519050919050565b600082825260208201905092915050565b60005b838110156139ee5780820151818401526020810190506139d3565b60008484015250505050565b6000601f19601f8301169050919050565b6000613a16826139b4565b613a2081856139bf565b9350613a308185602086016139d0565b613a39816139fa565b840191505092915050565b60006040820190508181036000830152613a5e8185613a0b565b9050613a6d60208301846138ff565b9392505050565b600080fd5b600080fd5b7f4e487b7100000000000000000000000000000000000000000000000000000000600052604160045260246000fd5b613ab6826139fa565b810181811067ffffffffffffffff82111715613ad557613ad4613a7e565b5b80604052505050565b6000613ae861387c565b9050613af48282613aad565b919050565b600067ffffffffffffffff821115613b1457613b13613a7e565b5b613b1d826139fa565b9050602081019050919050565b82818337600083830152505050565b6000613b4c613b4784613af9565b613ade565b905082815260208101848484011115613b6857613b67613a79565b5b613b73848285613b2a565b509392505050565b600082601f830112613b9057613b8f613a74565b5b8135613ba0848260208601613b39565b91505092915050565b60008060408385031215613bc057613bbf613886565b5b6000613bce85828601613972565b925050602083013567ffffffffffffffff811115613bef57613bee61388b565b5b613bfb85828601613b7b565b9150509250929050565b613c0e81613890565b82525050565b6000602082019050613c296000830184613c05565b92915050565b613c3881613949565b82525050565b6000602082019050613c536000830184613c2f565b92915050565b6000604082019050613c6e6000830185613c2f565b613c7b6020830184613c05565b9392505050565b600060208284031215613c9857613c97613886565b5b600082013567ffffffffffffffff811115613cb657613cb561388b565b5b613cc284828501613b7b565b91505092915050565b60006020820190508181036000830152613ce58184613a0b565b905092915050565b6000819050919050565b6000819050919050565b6000613d1c613d17613d1284613ced565b613cf7565b613890565b9050919050565b613d2c81613d01565b82525050565b6000602082019050613d476000830184613d23565b92915050565b613d56816138f3565b8114613d6157600080fd5b50565b600081519050613d7381613d4d565b92915050565b600060208284031215613d8f57613d8e613886565b5b6000613d9d84828501613d64565b91505092915050565b60008160e01c9050919050565b600060033d1115613dd25760046000803e613dcf600051613da6565b90505b90565b600060443d10613e6257613de761387c565b60043d036004823e80513d602482011167ffffffffffffffff82111715613e0f575050613e62565b808201805167ffffffffffffffff811115613e2d5750505050613e62565b80602083010160043d038501811115613e4a575050505050613e62565b613e5982602001850186613aad565b82955050505050505b90565b600082825260208201905092915050565b6000613e81826139b4565b613e8b8185613e65565b9350613e9b8185602086016139d0565b613ea4816139fa565b840191505092915050565b7f596f75206861766520616c726561647920766f7465642e000000000000000000600082015250565b6000613ee5601783613e65565b9150613ef082613eaf565b602082019050919050565b7f4661696c6564207769746820756e657870656374656420726561736f6e000000600082015250565b6000613f31601d83613e65565b9150613f3c82613efb565b602082019050919050565b60006060820190508181036000830152613f618184613e76565b90508181036020830152613f7481613ed8565b90508181036040830152613f8781613f24565b905092915050565b60008060233d1115613fac576020600460003e6001915060005190505b9091565b613fb9816138f3565b82525050565b7f4661696c656420756e65787065637465646c792077697468206572726f72206360008201527f6f64650000000000000000000000000000000000000000000000000000000000602082015250565b600061401b602383613e65565b915061402682613fbf565b604082019050919050565b60006040820190506140466000830184613fb0565b81810360208301526140578161400e565b905092915050565b7f4661696c656420756e65787065637465646c7900000000000000000000000000600082015250565b6000614095601383613e65565b91506140a08261405f565b602082019050919050565b60006040820190506140c06000830184613fb0565b81810360208301526140d181614088565b905092915050565b7f5365636f6e6420766f74652073686f756c64206e6f742062652073756363657360008201527f7366756c00000000000000000000000000000000000000000000000000000000602082015250565b6000614135602483613e65565b9150614140826140d9565b604082019050919050565b60006060820190506141606000830185613fb0565b61416d6020830184613fb0565b818103604083015261417e81614128565b90509392505050565b61419081613890565b82525050565b6000819050919050565b60006141bb6141b66141b184614196565b613cf7565b613890565b9050919050565b6141cb816141a0565b82525050565b7f53686f756c6420626520696e20766f746520636c6f7365207068617365000000600082015250565b6000614207601d83613e65565b9150614212826141d1565b602082019050919050565b60006060820190506142326000830185614187565b61423f60208301846141c2565b8181036040830152614250816141fa565b90509392505050565b6000819050919050565b600061427e61427961427484614259565b613cf7565b613890565b9050919050565b61428e81614263565b82525050565b7f53686f756c64207374696c6c20626520657175616c20746f2035000000000000600082015250565b60006142ca601a83613e65565b91506142d582614294565b602082019050919050565b60006060820190506142f56000830185614187565b6143026020830184614285565b8181036040830152614313816142bd565b90509392505050565b7f53686f756c64207374696c6c20626520657175616c20746f2032000000000000600082015250565b6000614352601a83613e65565b915061435d8261431c565b602082019050919050565b600060608201905061437d6000830185614187565b61438a60208301846141c2565b818103604083015261439b81614345565b90509392505050565b7f43616e206f6e6c7920626520657865637574656420627920746865206d616e6160008201527f6765720000000000000000000000000000000000000000000000000000000000602082015250565b6000614400602383613e65565b915061440b826143a4565b604082019050919050565b600060608201905081810360008301526144308184613e76565b90508181036020830152614443816143f3565b9050818103604083015261445681613f24565b905092915050565b7f4661696c656420756e65787065637465642077697468206572726f7220636f6460008201527f6500000000000000000000000000000000000000000000000000000000000000602082015250565b60006144ba602183613e65565b91506144c58261445e565b604082019050919050565b60006040820190506144e56000830184613fb0565b81810360208301526144f6816144ad565b905092915050565b7f4661696c656420756e6578706563746564000000000000000000000000000000600082015250565b6000614534601183613e65565b915061453f826144fe565b602082019050919050565b600060408201905061455f6000830184613fb0565b818103602083015261457081614527565b905092915050565b7f4d6574686f6420657865637574696f6e20646964206e6f74206661696c000000600082015250565b60006145ae601d83613e65565b91506145b982614578565b602082019050919050565b60006040820190506145d96000830184613fb0565b81810360208301526145ea816145a1565b905092915050565b7f43616e20766f7465206f6e6c79207768696c6520766f74696e67206973206f7060008201527f656e2e0000000000000000000000000000000000000000000000000000000000602082015250565b600061464e6023836139bf565b9150614659826145f2565b604082019050919050565b6000602082019050818103600083015261467d81614641565b9050919050565b7f54686520636f6e7472616374206e6565647320746f206265206163746976652e600082015250565b60006146ba6020836139bf565b91506146c582614684565b602082019050919050565b600060208201905081810360008301526146e9816146ad565b9050919050565b7f4e487b7100000000000000000000000000000000000000000000000000000000600052602260045260246000fd5b6000600282049050600182168061473757607f821691505b60208210810361474a576147496146f0565b5b50919050565b7f4e487b7100000000000000000000000000000000000000000000000000000000600052601160045260246000fd5b600061478a82613890565b91507fffffffffffffffffffffffffffffffffffffffffffffffffffffffffffffffff82036147bc576147bb614750565b5b600182019050919050565b7f4e487b7100000000000000000000000000000000000000000000000000000000600052601260045260246000fd5b600061480182613890565b915061480c83613890565b92508261481c5761481b6147c7565b5b828204905092915050565b600061483282613890565b915061483d83613890565b925082820190508082111561485557614854614750565b5b92915050565b61486481613d01565b82525050565b7f53686f756c6420626520657175616c20746f2031000000000000000000000000600082015250565b60006148a0601483613e65565b91506148ab8261486a565b602082019050919050565b60006060820190506148cb6000830185614187565b6148d8602083018461485b565b81810360408301526148e981614893565b90509392505050565b7f53686f756c6420626520657175616c20746f2032000000000000000000000000600082015250565b6000614928601483613e65565b9150614933826148f2565b602082019050919050565b60006060820190506149536000830185614187565b61496060208301846141c2565b81810360408301526149718161491b565b90509392505050565b7f566f74696e6720726573756c742073686f756c64206265207472756500000000600082015250565b60006149b0601c83613e65565b91506149bb8261497a565b602082019050919050565b60006040820190506149db6000830184613fb0565b81810360208301526149ec816149a3565b905092915050565b7f54686520636f756e74206f6620667269656e64732073686f756c642072656d6160008201527f696e207468652073616d6520616674657220616464696e67207468652073616d60208201527f6520667269656e6420616761696e2e0000000000000000000000000000000000604082015250565b6000614a76604f83613e65565b9150614a81826149f4565b606082019050919050565b6000606082019050614aa16000830185614187565b614aae6020830184614187565b8181036040830152614abf81614a69565b90509392505050565b7f436f6e74726163742073686f756c6420626520696e616374697665206166746560008201527f7220646561637469766174696f6e206279206d616e6167657200000000000000602082015250565b6000614b24603983613e65565b9150614b2f82614ac8565b604082019050919050565b6000606082019050614b4f6000830185613fb0565b614b5c6020830184613fb0565b8181036040830152614b6d81614b17565b90509392505050565b6000614b836023836139bf565b9150614b8e826143a4565b604082019050919050565b60006020820190508181036000830152614bb281614b76565b9050919050565b60008190508160005260206000209050919050565b60006020601f8301049050919050565b600082821b905092915050565b600060088302614c1b7fffffffffffffffffffffffffffffffffffffffffffffffffffffffffffffffff82614bde565b614c258683614bde565b95508019841693508086168417925050509392505050565b6000614c58614c53614c4e84613890565b613cf7565b613890565b9050919050565b6000819050919050565b614c7283614c3d565b614c86614c7e82614c5f565b848454614beb565b825550505050565b600090565b614c9b614c8e565b614ca6818484614c69565b505050565b5b81811015614cca57614cbf600082614c93565b600181019050614cac565b5050565b601f821115614d0f57614ce081614bb9565b614ce984614bce565b81016020851015614cf8578190505b614d0c614d0485614bce565b830182614cab565b50505b505050565b600082821c905092915050565b6000614d3260001984600802614d14565b1980831691505092915050565b6000614d4b8383614d21565b9150826002028217905092915050565b614d64826139b4565b67ffffffffffffffff811115614d7d57614d7c613a7e565b5b614d87825461471f565b614d92828285614cce565b600060209050601f831160018114614dc55760008415614db3578287015190505b614dbd8582614d3f565b865550614e25565b601f198416614dd386614bb9565b60005b82811015614dfb57848901518255600182019150602085019450602081019050614dd6565b86831015614e185784890151614e14601f891682614d21565b8355505b6001600288020188555050505b505050505050565b7f41746f6d69632043616665000000000000000000000000000000000000000000600082015250565b6000614e63600b836139bf565b9150614e6e82614e2d565b602082019050919050565b60006020820190508181036000830152614e9281614e56565b9050919050565b600081519050614ea88161389a565b92915050565b600060208284031215614ec457614ec3613886565b5b6000614ed284828501614e99565b91505092915050565b6000819050919050565b6000614f00614efb614ef684614edb565b613cf7565b613890565b9050919050565b614f1081614ee5565b82525050565b6000606082019050614f2b6000830185614187565b614f386020830184614f07565b8181036040830152614f49816145a1565b90509392505050565b7f53686f756c64207374696c6c20626520696e20766f74696e67206f70656e207060008201527f6861736500000000000000000000000000000000000000000000000000000000602082015250565b6000614fae602483613e65565b9150614fb982614f52565b604082019050919050565b6000606082019050614fd96000830185614187565b614fe6602083018461485b565b8181036040830152614ff781614fa1565b90509392505050565b600081905092915050565b6000615016826139b4565b6150208185615000565b93506150308185602086016139d0565b80840191505092915050565b6000615048828461500b565b915081905092915050565b600081546150608161471f565b61506a8186615000565b94506001821660008114615085576001811461509a576150cd565b60ff19831686528115158202860193506150cd565b6150a385614bb9565b60005b838110156150c5578154818901526001820191506020810190506150a6565b838801955050505b50505092915050565b60006150e28284615053565b915081905092915050565b7f44616e69656c7300000000000000000000000000000000000000000000000000600082015250565b60006151236007836139bf565b915061512e826150ed565b602082019050919050565b600060408201905061514e6000830184613c2f565b818103602083015261515f81615116565b905092915050565b7f4661696c65642077697468756e657870656374656420726561736f6e00000000600082015250565b600061519d601c83613e65565b91506151a882615167565b602082019050919050565b600060608201905081810360008301526151cd8184613e76565b905081810360208301526151e0816143f3565b905081810360408301526151f381615190565b905092915050565b60006060820190506152106000830185614187565b61521d6020830184614285565b818103604083015261522e816145a1565b90509392505050565b6000819050919050565b600061525c61525761525284615237565b613cf7565b613890565b9050919050565b61526c81615241565b82525050565b60006020820190506152876000830184615263565b92915050565b60008151905061529c8161395b565b92915050565b6000602082840312156152b8576152b7613886565b5b60006152c68482850161528d565b91505092915050565b60006020820190506152e4600083018461485b565b92915050565b60006020820190506152ff60008301846141c2565b92915050565b600060208201905061531a6000830184614f07565b92915050565b6000819050919050565b600061534561534061533b84615320565b613cf7565b613890565b9050919050565b6153558161532a565b82525050565b6000602082019050615370600083018461534c565b92915050565b600060208201905061538b6000830184614285565b92915050565b7f53686f756c6420626520657175616c20746f2033000000000000000000000000600082015250565b60006153c7601483613e65565b91506153d282615391565b602082019050919050565b60006060820190506153f26000830185614187565b6153ff6020830184614f07565b8181036040830152615410816153ba565b90509392505050565b7f53686f756c6420626520657175616c20746f2034000000000000000000000000600082015250565b600061544f601483613e65565b915061545a82615419565b602082019050919050565b600060608201905061547a6000830185614187565b615487602083018461534c565b818103604083015261549881615442565b90509392505050565b7f53686f756c6420626520696e2063726561746520706861736500000000000000600082015250565b60006154d7601983613e65565b91506154e2826154a1565b602082019050919050565b60006060820190506155026000830185614187565b61550f6020830184615263565b8181036040830152615520816154ca565b90509392505050565b7f566f74696e672073686f756c64206e6f7420626520616c6c6f7765642064757260008201527f696e67206372656174696f6e2070686173650000000000000000000000000000602082015250565b6000615585603283613e65565b915061559082615529565b604082019050919050565b60006060820190506155b06000830185613fb0565b6155bd6020830184613fb0565b81810360408301526155ce81615578565b90509392505050565b6155e081613949565b82525050565b7f4d616e616765722073686f756c64206265206163633000000000000000000000600082015250565b600061561c601683613e65565b9150615627826155e6565b602082019050919050565b600060608201905061564760008301856155d7565b61565460208301846155d7565b81810360408301526156658161560f565b90509392505050565b600061567b602383613e65565b9150615686826145f2565b604082019050919050565b600060608201905081810360008301526156ab8184613e76565b905081810360208301526156be8161566e565b905081810360408301526156d181613f24565b905092915050565b60006060820190506156ee6000830185613fb0565b6156fb6020830184613fb0565b818103604083015261570c816145a1565b90509392505050565b600081546157228161471f565b61572c8186613e65565b94506001821660008114615747576001811461575d57615790565b60ff198316865281151560200286019350615790565b61576685614bb9565b60005b8381101561578857815481890152600182019150602081019050615769565b808801955050505b50505092915050565b7f556e692043616665000000000000000000000000000000000000000000000000600082015250565b60006157cf600883613e65565b91506157da82615799565b602082019050919050565b7f53656c65637465642072657374617572616e742073686f756c6420626520556e60008201527f6920436166650000000000000000000000000000000000000000000000000000602082015250565b6000615841602683613e65565b915061584c826157e5565b604082019050919050565b600060608201905081810360008301526158718184615715565b90508181036020830152615884816157c2565b9050818103604083015261589781615834565b905092915050565b7f566f74696e6720726573756c742073686f756c642062652066616c7365000000600082015250565b60006158d5601d83613e65565b91506158e08261589f565b602082019050919050565b60006060820190506159006000830185613fb0565b61590d6020830184613fb0565b818103604083015261591e816158c8565b90509392505050565b7f53686f756c6420626520696e20766f74696e67206f70656e2070686173650000600082015250565b600061595d601e83613e65565b915061596882615927565b602082019050919050565b60006060820190506159886000830185614187565b615995602083018461485b565b81810360408301526159a681615950565b90509392505050565b7f566f74696e672073686f756c6420626520636c6f736564000000000000000000600082015250565b60006159e5601783613e65565b91506159f0826159af565b602082019050919050565b6000606082019050615a106000830185613fb0565b615a1d6020830184613fb0565b8181036040830152615a2e816159d8565b90509392505050565b7f566f74696e6720666f722061206e6f6e2d6578697374656e742072657374617560008201527f72616e742073686f756c64206661696c00000000000000000000000000000000602082015250565b6000615a93603083613e65565b9150615a9e82615a37565b604082019050919050565b6000606082019050615abe6000830185613fb0565b615acb6020830184613fb0565b8181036040830152615adc81615a86565b90509392505050565b7f54686520636f756e74206f662072657374617572616e74732073686f756c642060008201527f72656d61696e207468652073616d6520616674657220616464696e672074686560208201527f2073616d652072657374617572616e7420616761696e2e000000000000000000604082015250565b6000615b67605783613e65565b9150615b7282615ae5565b606082019050919050565b6000606082019050615b926000830185614187565b615b9f6020830184614187565b8181036040830152615bb081615b5a565b90509392505050565b600081549050615bc88161471f565b9050919050565b60008190508160005260206000209050919050565b818103615bf2575050615cca565b615bfb82615bb9565b67ffffffffffffffff811115615c1457615c13613a7e565b5b615c1e825461471f565b615c29828285614cce565b6000601f831160018114615c585760008415615c46578287015490505b615c508582614d3f565b865550615cc3565b601f198416615c6687615bcf565b9650615c7186614bb9565b60005b82811015615c9957848901548255600182019150600185019450602081019050615c74565b86831015615cb65784890154615cb2601f891682614d21565b8355505b6001600288020188555050505b5050505050505b56fea26469706673582212206594ff63323ab96ad6db4e6bd00721b25ef9d0142e3dc2175781627160614f5364736f6c63430008120033",
			"opcodes": "PUSH1 0x80 PUSH1 0x40 MSTORE PUSH1 0x0 PUSH1 0x2 SSTORE PUSH1 0x0 PUSH1 0x3 SSTORE PUSH1 0x0 PUSH1 0x4 SSTORE PUSH1 0x40 MLOAD DUP1 PUSH1 0x20 ADD PUSH1 0x40 MSTORE DUP1 PUSH1 0x0 DUP2 MSTORE POP PUSH1 0x6 SWAP1 DUP2 PUSH3 0x33 SWAP2 SWAP1 PUSH3 0x359 JUMP JUMPDEST POP PUSH1 0x1 PUSH1 0x9 PUSH1 0x0 PUSH2 0x100 EXP DUP2 SLOAD DUP2 PUSH1 0xFF MUL NOT AND SWAP1 DUP4 ISZERO ISZERO MUL OR SWAP1 SSTORE POP PUSH1 0x0 PUSH1 0xA SSTORE PUSH1 0x0 PUSH1 0xB PUSH1 0x0 PUSH2 0x100 EXP DUP2 SLOAD DUP2 PUSH1 0xFF MUL NOT AND SWAP1 DUP4 ISZERO ISZERO MUL OR SWAP1 SSTORE POP CALLVALUE DUP1 ISZERO PUSH3 0x7C JUMPI PUSH1 0x0 DUP1 REVERT JUMPDEST POP CALLER PUSH1 0x5 PUSH1 0x0 PUSH2 0x100 EXP DUP2 SLOAD DUP2 PUSH20 0xFFFFFFFFFFFFFFFFFFFFFFFFFFFFFFFFFFFFFFFF MUL NOT AND SWAP1 DUP4 PUSH20 0xFFFFFFFFFFFFFFFFFFFFFFFFFFFFFFFFFFFFFFFF AND MUL OR SWAP1 SSTORE POP PUSH1 0x1 PUSH1 0xD PUSH1 0x0 PUSH2 0x100 EXP DUP2 SLOAD DUP2 PUSH1 0xFF MUL NOT AND SWAP1 DUP4 ISZERO ISZERO MUL OR SWAP1 SSTORE POP PUSH3 0x440 JUMP JUMPDEST PUSH1 0x0 DUP2 MLOAD SWAP1 POP SWAP2 SWAP1 POP JUMP JUMPDEST PUSH32 0x4E487B7100000000000000000000000000000000000000000000000000000000 PUSH1 0x0 MSTORE PUSH1 0x41 PUSH1 0x4 MSTORE PUSH1 0x24 PUSH1 0x0 REVERT JUMPDEST PUSH32 0x4E487B7100000000000000000000000000000000000000000000000000000000 PUSH1 0x0 MSTORE PUSH1 0x22 PUSH1 0x4 MSTORE PUSH1 0x24 PUSH1 0x0 REVERT JUMPDEST PUSH1 0x0 PUSH1 0x2 DUP3 DIV SWAP1 POP PUSH1 0x1 DUP3 AND DUP1 PUSH3 0x161 JUMPI PUSH1 0x7F DUP3 AND SWAP2 POP JUMPDEST PUSH1 0x20 DUP3 LT DUP2 SUB PUSH3 0x177 JUMPI PUSH3 0x176 PUSH3 0x119 JUMP JUMPDEST JUMPDEST POP SWAP2 SWAP1 POP JUMP JUMPDEST PUSH1 0x0 DUP2 SWAP1 POP DUP2 PUSH1 0x0 MSTORE PUSH1 0x20 PUSH1 0x0 KECCAK256 SWAP1 POP SWAP2 SWAP1 POP JUMP JUMPDEST PUSH1 0x0 PUSH1 0x20 PUSH1 0x1F DUP4 ADD DIV SWAP1 POP SWAP2 SWAP1 POP JUMP JUMPDEST PUSH1 0x0 DUP3 DUP3 SHL SWAP1 POP SWAP3 SWAP2 POP POP JUMP JUMPDEST PUSH1 0x0 PUSH1 0x8 DUP4 MUL PUSH3 0x1E1 PUSH32 0xFFFFFFFFFFFFFFFFFFFFFFFFFFFFFFFFFFFFFFFFFFFFFFFFFFFFFFFFFFFFFFFF DUP3 PUSH3 0x1A2 JUMP JUMPDEST PUSH3 0x1ED DUP7 DUP4 PUSH3 0x1A2 JUMP JUMPDEST SWAP6 POP DUP1 NOT DUP5 AND SWAP4 POP DUP1 DUP7 AND DUP5 OR SWAP3 POP POP POP SWAP4 SWAP3 POP POP POP JUMP JUMPDEST PUSH1 0x0 DUP2 SWAP1 POP SWAP2 SWAP1 POP JUMP JUMPDEST PUSH1 0x0 DUP2 SWAP1 POP SWAP2 SWAP1 POP JUMP JUMPDEST PUSH1 0x0 PUSH3 0x23A PUSH3 0x234 PUSH3 0x22E DUP5 PUSH3 0x205 JUMP JUMPDEST PUSH3 0x20F JUMP JUMPDEST PUSH3 0x205 JUMP JUMPDEST SWAP1 POP SWAP2 SWAP1 POP JUMP JUMPDEST PUSH1 0x0 DUP2 SWAP1 POP SWAP2 SWAP1 POP JUMP JUMPDEST PUSH3 0x256 DUP4 PUSH3 0x219 JUMP JUMPDEST PUSH3 0x26E PUSH3 0x265 DUP3 PUSH3 0x241 JUMP JUMPDEST DUP5 DUP5 SLOAD PUSH3 0x1AF JUMP JUMPDEST DUP3 SSTORE POP POP POP POP JUMP JUMPDEST PUSH1 0x0 SWAP1 JUMP JUMPDEST PUSH3 0x285 PUSH3 0x276 JUMP JUMPDEST PUSH3 0x292 DUP2 DUP5 DUP5 PUSH3 0x24B JUMP JUMPDEST POP POP POP JUMP JUMPDEST JUMPDEST DUP2 DUP2 LT ISZERO PUSH3 0x2BA JUMPI PUSH3 0x2AE PUSH1 0x0 DUP3 PUSH3 0x27B JUMP JUMPDEST PUSH1 0x1 DUP2 ADD SWAP1 POP PUSH3 0x298 JUMP JUMPDEST POP POP JUMP JUMPDEST PUSH1 0x1F DUP3 GT ISZERO PUSH3 0x309 JUMPI PUSH3 0x2D3 DUP2 PUSH3 0x17D JUMP JUMPDEST PUSH3 0x2DE DUP5 PUSH3 0x192 JUMP JUMPDEST DUP2 ADD PUSH1 0x20 DUP6 LT ISZERO PUSH3 0x2EE JUMPI DUP2 SWAP1 POP JUMPDEST PUSH3 0x306 PUSH3 0x2FD DUP6 PUSH3 0x192 JUMP JUMPDEST DUP4 ADD DUP3 PUSH3 0x297 JUMP JUMPDEST POP POP JUMPDEST POP POP POP JUMP JUMPDEST PUSH1 0x0 DUP3 DUP3 SHR SWAP1 POP SWAP3 SWAP2 POP POP JUMP JUMPDEST PUSH1 0x0 PUSH3 0x32E PUSH1 0x0 NOT DUP5 PUSH1 0x8 MUL PUSH3 0x30E JUMP JUMPDEST NOT DUP1 DUP4 AND SWAP2 POP POP SWAP3 SWAP2 POP POP JUMP JUMPDEST PUSH1 0x0 PUSH3 0x349 DUP4 DUP4 PUSH3 0x31B JUMP JUMPDEST SWAP2 POP DUP3 PUSH1 0x2 MUL DUP3 OR SWAP1 POP SWAP3 SWAP2 POP POP JUMP JUMPDEST PUSH3 0x364 DUP3 PUSH3 0xDF JUMP JUMPDEST PUSH8 0xFFFFFFFFFFFFFFFF DUP2 GT ISZERO PUSH3 0x380 JUMPI PUSH3 0x37F PUSH3 0xEA JUMP JUMPDEST JUMPDEST PUSH3 0x38C DUP3 SLOAD PUSH3 0x148 JUMP JUMPDEST PUSH3 0x399 DUP3 DUP3 DUP6 PUSH3 0x2BE JUMP JUMPDEST PUSH1 0x0 PUSH1 0x20 SWAP1 POP PUSH1 0x1F DUP4 GT PUSH1 0x1 DUP2 EQ PUSH3 0x3D1 JUMPI PUSH1 0x0 DUP5 ISZERO PUSH3 0x3BC JUMPI DUP3 DUP8 ADD MLOAD SWAP1 POP JUMPDEST PUSH3 0x3C8 DUP6 DUP3 PUSH3 0x33B JUMP JUMPDEST DUP7 SSTORE POP PUSH3 0x438 JUMP JUMPDEST PUSH1 0x1F NOT DUP5 AND PUSH3 0x3E1 DUP7 PUSH3 0x17D JUMP JUMPDEST PUSH1 0x0 JUMPDEST DUP3 DUP2 LT ISZERO PUSH3 0x40B JUMPI DUP5 DUP10 ADD MLOAD DUP3 SSTORE PUSH1 0x1 DUP3 ADD SWAP2 POP PUSH1 0x20 DUP6 ADD SWAP5 POP PUSH1 0x20 DUP2 ADD SWAP1 POP PUSH3 0x3E4 JUMP JUMPDEST DUP7 DUP4 LT ISZERO PUSH3 0x42B JUMPI DUP5 DUP10 ADD MLOAD PUSH3 0x427 PUSH1 0x1F DUP10 AND DUP3 PUSH3 0x31B JUMP JUMPDEST DUP4 SSTORE POP JUMPDEST PUSH1 0x1 PUSH1 0x2 DUP9 MUL ADD DUP9 SSTORE POP POP POP JUMPDEST POP POP POP POP POP POP JUMP JUMPDEST PUSH2 0x5D02 DUP1 PUSH3 0x450 PUSH1 0x0 CODECOPY PUSH1 0x0 RETURN INVALID PUSH1 0x80 PUSH1 0x40 MSTORE CALLVALUE DUP1 ISZERO PUSH2 0x10 JUMPI PUSH1 0x0 DUP1 REVERT JUMPDEST POP PUSH1 0x4 CALLDATASIZE LT PUSH2 0x25E JUMPI PUSH1 0x0 CALLDATALOAD PUSH1 0xE0 SHR DUP1 PUSH4 0x788D3851 GT PUSH2 0x146 JUMPI DUP1 PUSH4 0xA9A4070C GT PUSH2 0xC3 JUMPI DUP1 PUSH4 0xBD97A264 GT PUSH2 0x87 JUMPI DUP1 PUSH4 0xBD97A264 EQ PUSH2 0x54F JUMPI DUP1 PUSH4 0xBE8DB3CF EQ PUSH2 0x559 JUMPI DUP1 PUSH4 0xBF1CF589 EQ PUSH2 0x577 JUMPI DUP1 PUSH4 0xC1C16EFC EQ PUSH2 0x581 JUMPI DUP1 PUSH4 0xE289FCB6 EQ PUSH2 0x59F JUMPI DUP1 PUSH4 0xFCAB6D75 EQ PUSH2 0x5BD JUMPI PUSH2 0x25E JUMP JUMPDEST DUP1 PUSH4 0xA9A4070C EQ PUSH2 0x4E3 JUMPI DUP1 PUSH4 0xAD5461D8 EQ PUSH2 0x4ED JUMPI DUP1 PUSH4 0xB798867F EQ PUSH2 0x51D JUMPI DUP1 PUSH4 0xBBB97DED EQ PUSH2 0x53B JUMPI DUP1 PUSH4 0xBCA353BE EQ PUSH2 0x545 JUMPI PUSH2 0x25E JUMP JUMPDEST DUP1 PUSH4 0x947AEA86 GT PUSH2 0x10A JUMPI DUP1 PUSH4 0x947AEA86 EQ PUSH2 0x49D JUMPI DUP1 PUSH4 0xA24A4E88 EQ PUSH2 0x4A7 JUMPI DUP1 PUSH4 0xA3BEF4D7 EQ PUSH2 0x4B1 JUMPI DUP1 PUSH4 0xA5627CF0 EQ PUSH2 0x4CF JUMPI DUP1 PUSH4 0xA8267245 EQ PUSH2 0x4D9 JUMPI PUSH2 0x25E JUMP JUMPDEST DUP1 PUSH4 0x788D3851 EQ PUSH2 0x457 JUMPI DUP1 PUSH4 0x7FEA0D4B EQ PUSH2 0x475 JUMPI DUP1 PUSH4 0x848B4427 EQ PUSH2 0x47F JUMPI DUP1 PUSH4 0x88F4F9D9 EQ PUSH2 0x489 JUMPI DUP1 PUSH4 0x8FD19A13 EQ PUSH2 0x493 JUMPI PUSH2 0x25E JUMP JUMPDEST DUP1 PUSH4 0x47098F36 GT PUSH2 0x1DF JUMPI DUP1 PUSH4 0x632A9A52 GT PUSH2 0x1A3 JUMPI DUP1 PUSH4 0x632A9A52 EQ PUSH2 0x3CD JUMPI DUP1 PUSH4 0x66597E5A EQ PUSH2 0x3D7 JUMPI DUP1 PUSH4 0x6A9FE400 EQ PUSH2 0x3F5 JUMPI DUP1 PUSH4 0x6D77BD3E EQ PUSH2 0x3FF JUMPI DUP1 PUSH4 0x72181AE9 EQ PUSH2 0x42F JUMPI DUP1 PUSH4 0x77440E06 EQ PUSH2 0x44D JUMPI PUSH2 0x25E JUMP JUMPDEST DUP1 PUSH4 0x47098F36 EQ PUSH2 0x33A JUMPI DUP1 PUSH4 0x481C6A75 EQ PUSH2 0x358 JUMPI DUP1 PUSH4 0x512A6FBB EQ PUSH2 0x376 JUMPI DUP1 PUSH4 0x5DF81330 EQ PUSH2 0x380 JUMPI DUP1 PUSH4 0x5F2BA6B2 EQ PUSH2 0x3B1 JUMPI PUSH2 0x25E JUMP JUMPDEST DUP1 PUSH4 0x1DDABF7A GT PUSH2 0x226 JUMPI DUP1 PUSH4 0x1DDABF7A EQ PUSH2 0x2BB JUMPI DUP1 PUSH4 0x2955FEA3 EQ PUSH2 0x2EC JUMPI DUP1 PUSH4 0x312D2924 EQ PUSH2 0x2F6 JUMPI DUP1 PUSH4 0x31DE1E50 EQ PUSH2 0x300 JUMPI DUP1 PUSH4 0x3B9F708D EQ PUSH2 0x30A JUMPI PUSH2 0x25E JUMP JUMPDEST DUP1 PUSH4 0x2DF553A EQ PUSH2 0x263 JUMPI DUP1 PUSH4 0x7D7BB55 EQ PUSH2 0x26D JUMPI DUP1 PUSH4 0xA8A1C49 EQ PUSH2 0x277 JUMPI DUP1 PUSH4 0x124258C6 EQ PUSH2 0x281 JUMPI DUP1 PUSH4 0x12A4591A EQ PUSH2 0x2B1 JUMPI JUMPDEST PUSH1 0x0 DUP1 REVERT JUMPDEST PUSH2 0x26B PUSH2 0x5C7 JUMP JUMPDEST STOP JUMPDEST PUSH2 0x275 PUSH2 0x8B7 JUMP JUMPDEST STOP JUMPDEST PUSH2 0x27F PUSH2 0xACC JUMP JUMPDEST STOP JUMPDEST PUSH2 0x29B PUSH1 0x4 DUP1 CALLDATASIZE SUB DUP2 ADD SWAP1 PUSH2 0x296 SWAP2 SWAP1 PUSH2 0x38C6 JUMP JUMPDEST PUSH2 0xD9C JUMP JUMPDEST PUSH1 0x40 MLOAD PUSH2 0x2A8 SWAP2 SWAP1 PUSH2 0x390E JUMP JUMPDEST PUSH1 0x40 MLOAD DUP1 SWAP2 SUB SWAP1 RETURN JUMPDEST PUSH2 0x2B9 PUSH2 0x10B0 JUMP JUMPDEST STOP JUMPDEST PUSH2 0x2D5 PUSH1 0x4 DUP1 CALLDATASIZE SUB DUP2 ADD SWAP1 PUSH2 0x2D0 SWAP2 SWAP1 PUSH2 0x3987 JUMP JUMPDEST PUSH2 0x1224 JUMP JUMPDEST PUSH1 0x40 MLOAD PUSH2 0x2E3 SWAP3 SWAP2 SWAP1 PUSH2 0x3A44 JUMP JUMPDEST PUSH1 0x40 MLOAD DUP1 SWAP2 SUB SWAP1 RETURN JUMPDEST PUSH2 0x2F4 PUSH2 0x12DD JUMP JUMPDEST STOP JUMPDEST PUSH2 0x2FE PUSH2 0x1361 JUMP JUMPDEST STOP JUMPDEST PUSH2 0x308 PUSH2 0x1576 JUMP JUMPDEST STOP JUMPDEST PUSH2 0x324 PUSH1 0x4 DUP1 CALLDATASIZE SUB DUP2 ADD SWAP1 PUSH2 0x31F SWAP2 SWAP1 PUSH2 0x3BA9 JUMP JUMPDEST PUSH2 0x160B JUMP JUMPDEST PUSH1 0x40 MLOAD PUSH2 0x331 SWAP2 SWAP1 PUSH2 0x3C14 JUMP JUMPDEST PUSH1 0x40 MLOAD DUP1 SWAP2 SUB SWAP1 RETURN JUMPDEST PUSH2 0x342 PUSH2 0x1822 JUMP JUMPDEST PUSH1 0x40 MLOAD PUSH2 0x34F SWAP2 SWAP1 PUSH2 0x3C14 JUMP JUMPDEST PUSH1 0x40 MLOAD DUP1 SWAP2 SUB SWAP1 RETURN JUMPDEST PUSH2 0x360 PUSH2 0x1828 JUMP JUMPDEST PUSH1 0x40 MLOAD PUSH2 0x36D SWAP2 SWAP1 PUSH2 0x3C3E JUMP JUMPDEST PUSH1 0x40 MLOAD DUP1 SWAP2 SUB SWAP1 RETURN JUMPDEST PUSH2 0x37E PUSH2 0x184E JUMP JUMPDEST STOP JUMPDEST PUSH2 0x39A PUSH1 0x4 DUP1 CALLDATASIZE SUB DUP2 ADD SWAP1 PUSH2 0x395 SWAP2 SWAP1 PUSH2 0x38C6 JUMP JUMPDEST PUSH2 0x1B3B JUMP JUMPDEST PUSH1 0x40 MLOAD PUSH2 0x3A8 SWAP3 SWAP2 SWAP1 PUSH2 0x3C59 JUMP JUMPDEST PUSH1 0x40 MLOAD DUP1 SWAP2 SUB SWAP1 RETURN JUMPDEST PUSH2 0x3CB PUSH1 0x4 DUP1 CALLDATASIZE SUB DUP2 ADD SWAP1 PUSH2 0x3C6 SWAP2 SWAP1 PUSH2 0x38C6 JUMP JUMPDEST PUSH2 0x1B7F JUMP JUMPDEST STOP JUMPDEST PUSH2 0x3D5 PUSH2 0x1C8D JUMP JUMPDEST STOP JUMPDEST PUSH2 0x3DF PUSH2 0x1D8F JUMP JUMPDEST PUSH1 0x40 MLOAD PUSH2 0x3EC SWAP2 SWAP1 PUSH2 0x3C14 JUMP JUMPDEST PUSH1 0x40 MLOAD DUP1 SWAP2 SUB SWAP1 RETURN JUMPDEST PUSH2 0x3FD PUSH2 0x1D95 JUMP JUMPDEST STOP JUMPDEST PUSH2 0x419 PUSH1 0x4 DUP1 CALLDATASIZE SUB DUP2 ADD SWAP1 PUSH2 0x414 SWAP2 SWAP1 PUSH2 0x3C82 JUMP JUMPDEST PUSH2 0x1E15 JUMP JUMPDEST PUSH1 0x40 MLOAD PUSH2 0x426 SWAP2 SWAP1 PUSH2 0x3C14 JUMP JUMPDEST PUSH1 0x40 MLOAD DUP1 SWAP2 SUB SWAP1 RETURN JUMPDEST PUSH2 0x437 PUSH2 0x2038 JUMP JUMPDEST PUSH1 0x40 MLOAD PUSH2 0x444 SWAP2 SWAP1 PUSH2 0x390E JUMP JUMPDEST PUSH1 0x40 MLOAD DUP1 SWAP2 SUB SWAP1 RETURN JUMPDEST PUSH2 0x455 PUSH2 0x204B JUMP JUMPDEST STOP JUMPDEST PUSH2 0x45F PUSH2 0x235C JUMP JUMPDEST PUSH1 0x40 MLOAD PUSH2 0x46C SWAP2 SWAP1 PUSH2 0x390E JUMP JUMPDEST PUSH1 0x40 MLOAD DUP1 SWAP2 SUB SWAP1 RETURN JUMPDEST PUSH2 0x47D PUSH2 0x236F JUMP JUMPDEST STOP JUMPDEST PUSH2 0x487 PUSH2 0x27C7 JUMP JUMPDEST STOP JUMPDEST PUSH2 0x491 PUSH2 0x2B39 JUMP JUMPDEST STOP JUMPDEST PUSH2 0x49B PUSH2 0x2BB9 JUMP JUMPDEST STOP JUMPDEST PUSH2 0x4A5 PUSH2 0x2C46 JUMP JUMPDEST STOP JUMPDEST PUSH2 0x4AF PUSH2 0x2D07 JUMP JUMPDEST STOP JUMPDEST PUSH2 0x4B9 PUSH2 0x2E09 JUMP JUMPDEST PUSH1 0x40 MLOAD PUSH2 0x4C6 SWAP2 SWAP1 PUSH2 0x3C14 JUMP JUMPDEST PUSH1 0x40 MLOAD DUP1 SWAP2 SUB SWAP1 RETURN JUMPDEST PUSH2 0x4D7 PUSH2 0x2E0F JUMP JUMPDEST STOP JUMPDEST PUSH2 0x4E1 PUSH2 0x30FF JUMP JUMPDEST STOP JUMPDEST PUSH2 0x4EB PUSH2 0x317B JUMP JUMPDEST STOP JUMPDEST PUSH2 0x507 PUSH1 0x4 DUP1 CALLDATASIZE SUB DUP2 ADD SWAP1 PUSH2 0x502 SWAP2 SWAP1 PUSH2 0x38C6 JUMP JUMPDEST PUSH2 0x3280 JUMP JUMPDEST PUSH1 0x40 MLOAD PUSH2 0x514 SWAP2 SWAP1 PUSH2 0x3CCB JUMP JUMPDEST PUSH1 0x40 MLOAD DUP1 SWAP2 SUB SWAP1 RETURN JUMPDEST PUSH2 0x525 PUSH2 0x3320 JUMP JUMPDEST PUSH1 0x40 MLOAD PUSH2 0x532 SWAP2 SWAP1 PUSH2 0x3C14 JUMP JUMPDEST PUSH1 0x40 MLOAD DUP1 SWAP2 SUB SWAP1 RETURN JUMPDEST PUSH2 0x543 PUSH2 0x3326 JUMP JUMPDEST STOP JUMPDEST PUSH2 0x54D PUSH2 0x33B3 JUMP JUMPDEST STOP JUMPDEST PUSH2 0x557 PUSH2 0x3460 JUMP JUMPDEST STOP JUMPDEST PUSH2 0x561 PUSH2 0x3500 JUMP JUMPDEST PUSH1 0x40 MLOAD PUSH2 0x56E SWAP2 SWAP1 PUSH2 0x3C14 JUMP JUMPDEST PUSH1 0x40 MLOAD DUP1 SWAP2 SUB SWAP1 RETURN JUMPDEST PUSH2 0x57F PUSH2 0x3506 JUMP JUMPDEST STOP JUMPDEST PUSH2 0x589 PUSH2 0x3590 JUMP JUMPDEST PUSH1 0x40 MLOAD PUSH2 0x596 SWAP2 SWAP1 PUSH2 0x3CCB JUMP JUMPDEST PUSH1 0x40 MLOAD DUP1 SWAP2 SUB SWAP1 RETURN JUMPDEST PUSH2 0x5A7 PUSH2 0x361E JUMP JUMPDEST PUSH1 0x40 MLOAD PUSH2 0x5B4 SWAP2 SWAP1 PUSH2 0x390E JUMP JUMPDEST PUSH1 0x40 MLOAD DUP1 SWAP2 SUB SWAP1 RETURN JUMPDEST PUSH2 0x5C5 PUSH2 0x3631 JUMP JUMPDEST STOP JUMPDEST ADDRESS PUSH20 0xFFFFFFFFFFFFFFFFFFFFFFFFFFFFFFFFFFFFFFFF AND PUSH4 0x124258C6 PUSH1 0x1 PUSH1 0x40 MLOAD DUP3 PUSH4 0xFFFFFFFF AND PUSH1 0xE0 SHL DUP2 MSTORE PUSH1 0x4 ADD PUSH2 0x601 SWAP2 SWAP1 PUSH2 0x3D32 JUMP JUMPDEST PUSH1 0x20 PUSH1 0x40 MLOAD DUP1 DUP4 SUB DUP2 PUSH1 0x0 DUP8 GAS CALL SWAP3 POP POP POP DUP1 ISZERO PUSH2 0x63D JUMPI POP PUSH1 0x40 MLOAD RETURNDATASIZE PUSH1 0x1F NOT PUSH1 0x1F DUP3 ADD AND DUP3 ADD DUP1 PUSH1 0x40 MSTORE POP DUP2 ADD SWAP1 PUSH2 0x63A SWAP2 SWAP1 PUSH2 0x3D79 JUMP JUMPDEST PUSH1 0x1 JUMPDEST PUSH2 0x837 JUMPI PUSH2 0x649 PUSH2 0x3DB3 JUMP JUMPDEST DUP1 PUSH4 0x8C379A0 SUB PUSH2 0x6E7 JUMPI POP PUSH2 0x65D PUSH2 0x3DD5 JUMP JUMPDEST DUP1 PUSH2 0x668 JUMPI POP PUSH2 0x784 JUMP JUMPDEST PUSH20 0x0 PUSH4 0xE8C2CB16 DUP3 PUSH1 0x40 MLOAD DUP3 PUSH4 0xFFFFFFFF AND PUSH1 0xE0 SHL DUP2 MSTORE PUSH1 0x4 ADD PUSH2 0x69F SWAP2 SWAP1 PUSH2 0x3F47 JUMP JUMPDEST PUSH1 0x20 PUSH1 0x40 MLOAD DUP1 DUP4 SUB DUP2 DUP7 GAS DELEGATECALL ISZERO DUP1 ISZERO PUSH2 0x6BC JUMPI RETURNDATASIZE PUSH1 0x0 DUP1 RETURNDATACOPY RETURNDATASIZE PUSH1 0x0 REVERT JUMPDEST POP POP POP POP PUSH1 0x40 MLOAD RETURNDATASIZE PUSH1 0x1F NOT PUSH1 0x1F DUP3 ADD AND DUP3 ADD DUP1 PUSH1 0x40 MSTORE POP DUP2 ADD SWAP1 PUSH2 0x6E0 SWAP2 SWAP1 PUSH2 0x3D79 JUMP JUMPDEST POP POP PUSH2 0x832 JUMP JUMPDEST PUSH4 0x4E487B71 SUB PUSH2 0x784 JUMPI PUSH2 0x6F9 PUSH2 0x3F8F JUMP JUMPDEST SWAP1 PUSH2 0x704 JUMPI POP PUSH2 0x784 JUMP JUMPDEST PUSH20 0x0 PUSH4 0x39DF137F PUSH1 0x0 PUSH1 0x40 MLOAD DUP3 PUSH4 0xFFFFFFFF AND PUSH1 0xE0 SHL DUP2 MSTORE PUSH1 0x4 ADD PUSH2 0x73C SWAP2 SWAP1 PUSH2 0x4031 JUMP JUMPDEST PUSH1 0x20 PUSH1 0x40 MLOAD DUP1 DUP4 SUB DUP2 DUP7 GAS DELEGATECALL ISZERO DUP1 ISZERO PUSH2 0x759 JUMPI RETURNDATASIZE PUSH1 0x0 DUP1 RETURNDATACOPY RETURNDATASIZE PUSH1 0x0 REVERT JUMPDEST POP POP POP POP PUSH1 0x40 MLOAD RETURNDATASIZE PUSH1 0x1F NOT PUSH1 0x1F DUP3 ADD AND DUP3 ADD DUP1 PUSH1 0x40 MSTORE POP DUP2 ADD SWAP1 PUSH2 0x77D SWAP2 SWAP1 PUSH2 0x3D79 JUMP JUMPDEST POP POP PUSH2 0x832 JUMP JUMPDEST RETURNDATASIZE DUP1 PUSH1 0x0 DUP2 EQ PUSH2 0x7B0 JUMPI PUSH1 0x40 MLOAD SWAP2 POP PUSH1 0x1F NOT PUSH1 0x3F RETURNDATASIZE ADD AND DUP3 ADD PUSH1 0x40 MSTORE RETURNDATASIZE DUP3 MSTORE RETURNDATASIZE PUSH1 0x0 PUSH1 0x20 DUP5 ADD RETURNDATACOPY PUSH2 0x7B5 JUMP JUMPDEST PUSH1 0x60 SWAP2 POP JUMPDEST POP PUSH20 0x0 PUSH4 0x39DF137F PUSH1 0x0 PUSH1 0x40 MLOAD DUP3 PUSH4 0xFFFFFFFF AND PUSH1 0xE0 SHL DUP2 MSTORE PUSH1 0x4 ADD PUSH2 0x7EE SWAP2 SWAP1 PUSH2 0x40AB JUMP JUMPDEST PUSH1 0x20 PUSH1 0x40 MLOAD DUP1 DUP4 SUB DUP2 DUP7 GAS DELEGATECALL ISZERO DUP1 ISZERO PUSH2 0x80B JUMPI RETURNDATASIZE PUSH1 0x0 DUP1 RETURNDATACOPY RETURNDATASIZE PUSH1 0x0 REVERT JUMPDEST POP POP POP POP PUSH1 0x40 MLOAD RETURNDATASIZE PUSH1 0x1F NOT PUSH1 0x1F DUP3 ADD AND DUP3 ADD DUP1 PUSH1 0x40 MSTORE POP DUP2 ADD SWAP1 PUSH2 0x82F SWAP2 SWAP1 PUSH2 0x3D79 JUMP JUMPDEST POP POP JUMPDEST PUSH2 0x8B5 JUMP JUMPDEST PUSH20 0x0 PUSH4 0x767392B3 DUP3 PUSH1 0x0 PUSH1 0x40 MLOAD DUP4 PUSH4 0xFFFFFFFF AND PUSH1 0xE0 SHL DUP2 MSTORE PUSH1 0x4 ADD PUSH2 0x871 SWAP3 SWAP2 SWAP1 PUSH2 0x414B JUMP JUMPDEST PUSH1 0x20 PUSH1 0x40 MLOAD DUP1 DUP4 SUB DUP2 DUP7 GAS DELEGATECALL ISZERO DUP1 ISZERO PUSH2 0x88E JUMPI RETURNDATASIZE PUSH1 0x0 DUP1 RETURNDATACOPY RETURNDATASIZE PUSH1 0x0 REVERT JUMPDEST POP POP POP POP PUSH1 0x40 MLOAD RETURNDATASIZE PUSH1 0x1F NOT PUSH1 0x1F DUP3 ADD AND DUP3 ADD DUP1 PUSH1 0x40 MSTORE POP DUP2 ADD SWAP1 PUSH2 0x8B2 SWAP2 SWAP1 PUSH2 0x3D79 JUMP JUMPDEST POP POP JUMPDEST JUMP JUMPDEST PUSH20 0x0 PUSH4 0xABCD7960 PUSH1 0xA SLOAD PUSH1 0x2 PUSH1 0x40 MLOAD DUP4 PUSH4 0xFFFFFFFF AND PUSH1 0xE0 SHL DUP2 MSTORE PUSH1 0x4 ADD PUSH2 0x8F3 SWAP3 SWAP2 SWAP1 PUSH2 0x421D JUMP JUMPDEST PUSH1 0x20 PUSH1 0x40 MLOAD DUP1 DUP4 SUB DUP2 DUP7 GAS DELEGATECALL ISZERO DUP1 ISZERO PUSH2 0x910 JUMPI RETURNDATASIZE PUSH1 0x0 DUP1 RETURNDATACOPY RETURNDATASIZE PUSH1 0x0 REVERT JUMPDEST POP POP POP POP PUSH1 0x40 MLOAD RETURNDATASIZE PUSH1 0x1F NOT PUSH1 0x1F DUP3 ADD AND DUP3 ADD DUP1 PUSH1 0x40 MSTORE POP DUP2 ADD SWAP1 PUSH2 0x934 SWAP2 SWAP1 PUSH2 0x3D79 JUMP JUMPDEST POP PUSH20 0x0 PUSH4 0xABCD7960 PUSH2 0x9B0 PUSH1 0x11 PUSH1 0x0 SWAP1 SLOAD SWAP1 PUSH2 0x100 EXP SWAP1 DIV PUSH20 0xFFFFFFFFFFFFFFFFFFFFFFFFFFFFFFFFFFFFFFFF AND PUSH1 0x40 MLOAD DUP1 PUSH1 0x40 ADD PUSH1 0x40 MSTORE DUP1 PUSH1 0x3 DUP2 MSTORE PUSH1 0x20 ADD PUSH32 0x546F6D0000000000000000000000000000000000000000000000000000000000 DUP2 MSTORE POP PUSH2 0x160B JUMP JUMPDEST PUSH1 0x5 PUSH1 0x40 MLOAD DUP4 PUSH4 0xFFFFFFFF AND PUSH1 0xE0 SHL DUP2 MSTORE PUSH1 0x4 ADD PUSH2 0x9CF SWAP3 SWAP2 SWAP1 PUSH2 0x42E0 JUMP JUMPDEST PUSH1 0x20 PUSH1 0x40 MLOAD DUP1 DUP4 SUB DUP2 DUP7 GAS DELEGATECALL ISZERO DUP1 ISZERO PUSH2 0x9EC JUMPI RETURNDATASIZE PUSH1 0x0 DUP1 RETURNDATACOPY RETURNDATASIZE PUSH1 0x0 REVERT JUMPDEST POP POP POP POP PUSH1 0x40 MLOAD RETURNDATASIZE PUSH1 0x1F NOT PUSH1 0x1F DUP3 ADD AND DUP3 ADD DUP1 PUSH1 0x40 MSTORE POP DUP2 ADD SWAP1 PUSH2 0xA10 SWAP2 SWAP1 PUSH2 0x3D79 JUMP JUMPDEST POP PUSH20 0x0 PUSH4 0xABCD7960 PUSH2 0xA69 PUSH1 0x40 MLOAD DUP1 PUSH1 0x40 ADD PUSH1 0x40 MSTORE DUP1 PUSH1 0x6 DUP2 MSTORE PUSH1 0x20 ADD PUSH32 0x5375627761790000000000000000000000000000000000000000000000000000 DUP2 MSTORE POP PUSH2 0x1E15 JUMP JUMPDEST PUSH1 0x2 PUSH1 0x40 MLOAD DUP4 PUSH4 0xFFFFFFFF AND PUSH1 0xE0 SHL DUP2 MSTORE PUSH1 0x4 ADD PUSH2 0xA88 SWAP3 SWAP2 SWAP1 PUSH2 0x4368 JUMP JUMPDEST PUSH1 0x20 PUSH1 0x40 MLOAD DUP1 DUP4 SUB DUP2 DUP7 GAS DELEGATECALL ISZERO DUP1 ISZERO PUSH2 0xAA5 JUMPI RETURNDATASIZE PUSH1 0x0 DUP1 RETURNDATACOPY RETURNDATASIZE PUSH1 0x0 REVERT JUMPDEST POP POP POP POP PUSH1 0x40 MLOAD RETURNDATASIZE PUSH1 0x1F NOT PUSH1 0x1F DUP3 ADD AND DUP3 ADD DUP1 PUSH1 0x40 MSTORE POP DUP2 ADD SWAP1 PUSH2 0xAC9 SWAP2 SWAP1 PUSH2 0x3D79 JUMP JUMPDEST POP JUMP JUMPDEST ADDRESS PUSH20 0xFFFFFFFFFFFFFFFFFFFFFFFFFFFFFFFFFFFFFFFF AND PUSH4 0xBCA353BE PUSH1 0x40 MLOAD DUP2 PUSH4 0xFFFFFFFF AND PUSH1 0xE0 SHL DUP2 MSTORE PUSH1 0x4 ADD PUSH1 0x0 PUSH1 0x40 MLOAD DUP1 DUP4 SUB DUP2 PUSH1 0x0 DUP8 DUP1 EXTCODESIZE ISZERO DUP1 ISZERO PUSH2 0xB14 JUMPI PUSH1 0x0 DUP1 REVERT JUMPDEST POP GAS CALL SWAP3 POP POP POP DUP1 ISZERO PUSH2 0xB25 JUMPI POP PUSH1 0x1 JUMPDEST PUSH2 0xD1F JUMPI PUSH2 0xB31 PUSH2 0x3DB3 JUMP JUMPDEST DUP1 PUSH4 0x8C379A0 SUB PUSH2 0xBCF JUMPI POP PUSH2 0xB45 PUSH2 0x3DD5 JUMP JUMPDEST DUP1 PUSH2 0xB50 JUMPI POP PUSH2 0xC6C JUMP JUMPDEST PUSH20 0x0 PUSH4 0xE8C2CB16 DUP3 PUSH1 0x40 MLOAD DUP3 PUSH4 0xFFFFFFFF AND PUSH1 0xE0 SHL DUP2 MSTORE PUSH1 0x4 ADD PUSH2 0xB87 SWAP2 SWAP1 PUSH2 0x4416 JUMP JUMPDEST PUSH1 0x20 PUSH1 0x40 MLOAD DUP1 DUP4 SUB DUP2 DUP7 GAS DELEGATECALL ISZERO DUP1 ISZERO PUSH2 0xBA4 JUMPI RETURNDATASIZE PUSH1 0x0 DUP1 RETURNDATACOPY RETURNDATASIZE PUSH1 0x0 REVERT JUMPDEST POP POP POP POP PUSH1 0x40 MLOAD RETURNDATASIZE PUSH1 0x1F NOT PUSH1 0x1F DUP3 ADD AND DUP3 ADD DUP1 PUSH1 0x40 MSTORE POP DUP2 ADD SWAP1 PUSH2 0xBC8 SWAP2 SWAP1 PUSH2 0x3D79 JUMP JUMPDEST POP POP PUSH2 0xD1A JUMP JUMPDEST PUSH4 0x4E487B71 SUB PUSH2 0xC6C JUMPI PUSH2 0xBE1 PUSH2 0x3F8F JUMP JUMPDEST SWAP1 PUSH2 0xBEC JUMPI POP PUSH2 0xC6C JUMP JUMPDEST PUSH20 0x0 PUSH4 0x39DF137F PUSH1 0x0 PUSH1 0x40 MLOAD DUP3 PUSH4 0xFFFFFFFF AND PUSH1 0xE0 SHL DUP2 MSTORE PUSH1 0x4 ADD PUSH2 0xC24 SWAP2 SWAP1 PUSH2 0x44D0 JUMP JUMPDEST PUSH1 0x20 PUSH1 0x40 MLOAD DUP1 DUP4 SUB DUP2 DUP7 GAS DELEGATECALL ISZERO DUP1 ISZERO PUSH2 0xC41 JUMPI RETURNDATASIZE PUSH1 0x0 DUP1 RETURNDATACOPY RETURNDATASIZE PUSH1 0x0 REVERT JUMPDEST POP POP POP POP PUSH1 0x40 MLOAD RETURNDATASIZE PUSH1 0x1F NOT PUSH1 0x1F DUP3 ADD AND DUP3 ADD DUP1 PUSH1 0x40 MSTORE POP DUP2 ADD SWAP1 PUSH2 0xC65 SWAP2 SWAP1 PUSH2 0x3D79 JUMP JUMPDEST POP POP PUSH2 0xD1A JUMP JUMPDEST RETURNDATASIZE DUP1 PUSH1 0x0 DUP2 EQ PUSH2 0xC98 JUMPI PUSH1 0x40 MLOAD SWAP2 POP PUSH1 0x1F NOT PUSH1 0x3F RETURNDATASIZE ADD AND DUP3 ADD PUSH1 0x40 MSTORE RETURNDATASIZE DUP3 MSTORE RETURNDATASIZE PUSH1 0x0 PUSH1 0x20 DUP5 ADD RETURNDATACOPY PUSH2 0xC9D JUMP JUMPDEST PUSH1 0x60 SWAP2 POP JUMPDEST POP PUSH20 0x0 PUSH4 0x39DF137F PUSH1 0x0 PUSH1 0x40 MLOAD DUP3 PUSH4 0xFFFFFFFF AND PUSH1 0xE0 SHL DUP2 MSTORE PUSH1 0x4 ADD PUSH2 0xCD6 SWAP2 SWAP1 PUSH2 0x454A JUMP JUMPDEST PUSH1 0x20 PUSH1 0x40 MLOAD DUP1 DUP4 SUB DUP2 DUP7 GAS DELEGATECALL ISZERO DUP1 ISZERO PUSH2 0xCF3 JUMPI RETURNDATASIZE PUSH1 0x0 DUP1 RETURNDATACOPY RETURNDATASIZE PUSH1 0x0 REVERT JUMPDEST POP POP POP POP PUSH1 0x40 MLOAD RETURNDATASIZE PUSH1 0x1F NOT PUSH1 0x1F DUP3 ADD AND DUP3 ADD DUP1 PUSH1 0x40 MSTORE POP DUP2 ADD SWAP1 PUSH2 0xD17 SWAP2 SWAP1 PUSH2 0x3D79 JUMP JUMPDEST POP POP JUMPDEST PUSH2 0xD9A JUMP JUMPDEST PUSH20 0x0 PUSH4 0x39DF137F PUSH1 0x0 PUSH1 0x40 MLOAD DUP3 PUSH4 0xFFFFFFFF AND PUSH1 0xE0 SHL DUP2 MSTORE PUSH1 0x4 ADD PUSH2 0xD57 SWAP2 SWAP1 PUSH2 0x45C4 JUMP JUMPDEST PUSH1 0x20 PUSH1 0x40 MLOAD DUP1 DUP4 SUB DUP2 DUP7 GAS DELEGATECALL ISZERO DUP1 ISZERO PUSH2 0xD74 JUMPI RETURNDATASIZE PUSH1 0x0 DUP1 RETURNDATACOPY RETURNDATASIZE PUSH1 0x0 REVERT JUMPDEST POP POP POP POP PUSH1 0x40 MLOAD RETURNDATASIZE PUSH1 0x1F NOT PUSH1 0x1F DUP3 ADD AND DUP3 ADD DUP1 PUSH1 0x40 MSTORE POP DUP2 ADD SWAP1 PUSH2 0xD98 SWAP2 SWAP1 PUSH2 0x3D79 JUMP JUMPDEST POP JUMPDEST JUMP JUMPDEST PUSH1 0x0 PUSH1 0x1 ISZERO ISZERO PUSH1 0x9 PUSH1 0x0 SWAP1 SLOAD SWAP1 PUSH2 0x100 EXP SWAP1 DIV PUSH1 0xFF AND ISZERO ISZERO EQ PUSH2 0xDF4 JUMPI PUSH1 0x40 MLOAD PUSH32 0x8C379A000000000000000000000000000000000000000000000000000000000 DUP2 MSTORE PUSH1 0x4 ADD PUSH2 0xDEB SWAP1 PUSH2 0x4664 JUMP JUMPDEST PUSH1 0x40 MLOAD DUP1 SWAP2 SUB SWAP1 REVERT JUMPDEST PUSH1 0x1 ISZERO ISZERO PUSH1 0xD PUSH1 0x0 SWAP1 SLOAD SWAP1 PUSH2 0x100 EXP SWAP1 DIV PUSH1 0xFF AND ISZERO ISZERO EQ PUSH2 0xE4A JUMPI PUSH1 0x40 MLOAD PUSH32 0x8C379A000000000000000000000000000000000000000000000000000000000 DUP2 MSTORE PUSH1 0x4 ADD PUSH2 0xE41 SWAP1 PUSH2 0x46D0 JUMP JUMPDEST PUSH1 0x40 MLOAD DUP1 SWAP2 SUB SWAP1 REVERT JUMPDEST PUSH1 0x0 SWAP1 POP PUSH1 0x0 PUSH1 0x1 PUSH1 0x0 CALLER PUSH20 0xFFFFFFFFFFFFFFFFFFFFFFFFFFFFFFFFFFFFFFFF AND PUSH20 0xFFFFFFFFFFFFFFFFFFFFFFFFFFFFFFFFFFFFFFFF AND DUP2 MSTORE PUSH1 0x20 ADD SWAP1 DUP2 MSTORE PUSH1 0x20 ADD PUSH1 0x0 KECCAK256 PUSH1 0x0 ADD DUP1 SLOAD PUSH2 0xE9D SWAP1 PUSH2 0x471F JUMP JUMPDEST SWAP1 POP EQ ISZERO DUP1 ISZERO PUSH2 0xEFA JUMPI POP PUSH1 0x1 PUSH1 0x0 CALLER PUSH20 0xFFFFFFFFFFFFFFFFFFFFFFFFFFFFFFFFFFFFFFFF AND PUSH20 0xFFFFFFFFFFFFFFFFFFFFFFFFFFFFFFFFFFFFFFFF AND DUP2 MSTORE PUSH1 0x20 ADD SWAP1 DUP2 MSTORE PUSH1 0x20 ADD PUSH1 0x0 KECCAK256 PUSH1 0x1 ADD PUSH1 0x0 SWAP1 SLOAD SWAP1 PUSH2 0x100 EXP SWAP1 DIV PUSH1 0xFF AND ISZERO JUMPDEST DUP1 ISZERO PUSH2 0xF08 JUMPI POP PUSH1 0x1 PUSH1 0xA SLOAD EQ JUMPDEST ISZERO PUSH2 0x107F JUMPI PUSH1 0x0 DUP1 PUSH1 0x0 DUP5 DUP2 MSTORE PUSH1 0x20 ADD SWAP1 DUP2 MSTORE PUSH1 0x20 ADD PUSH1 0x0 KECCAK256 DUP1 SLOAD PUSH2 0xF2C SWAP1 PUSH2 0x471F JUMP JUMPDEST SWAP1 POP EQ PUSH2 0x107E JUMPI PUSH1 0xC SLOAD NUMBER GT PUSH2 0x106C JUMPI PUSH1 0x1 SWAP1 POP PUSH1 0x1 DUP1 PUSH1 0x0 CALLER PUSH20 0xFFFFFFFFFFFFFFFFFFFFFFFFFFFFFFFFFFFFFFFF AND PUSH20 0xFFFFFFFFFFFFFFFFFFFFFFFFFFFFFFFFFFFFFFFF AND DUP2 MSTORE PUSH1 0x20 ADD SWAP1 DUP2 MSTORE PUSH1 0x20 ADD PUSH1 0x0 KECCAK256 PUSH1 0x1 ADD PUSH1 0x0 PUSH2 0x100 EXP DUP2 SLOAD DUP2 PUSH1 0xFF MUL NOT AND SWAP1 DUP4 ISZERO ISZERO MUL OR SWAP1 SSTORE POP PUSH2 0xFA2 PUSH2 0x3830 JUMP JUMPDEST CALLER DUP2 PUSH1 0x0 ADD SWAP1 PUSH20 0xFFFFFFFFFFFFFFFFFFFFFFFFFFFFFFFFFFFFFFFF AND SWAP1 DUP2 PUSH20 0xFFFFFFFFFFFFFFFFFFFFFFFFFFFFFFFFFFFFFFFF AND DUP2 MSTORE POP POP DUP3 DUP2 PUSH1 0x20 ADD DUP2 DUP2 MSTORE POP POP PUSH1 0x4 PUSH1 0x0 DUP2 SLOAD DUP1 SWAP3 SWAP2 SWAP1 PUSH2 0xFF7 SWAP1 PUSH2 0x477F JUMP JUMPDEST SWAP2 SWAP1 POP SSTORE POP DUP1 PUSH1 0x7 PUSH1 0x0 PUSH1 0x4 SLOAD DUP2 MSTORE PUSH1 0x20 ADD SWAP1 DUP2 MSTORE PUSH1 0x20 ADD PUSH1 0x0 KECCAK256 PUSH1 0x0 DUP3 ADD MLOAD DUP2 PUSH1 0x0 ADD PUSH1 0x0 PUSH2 0x100 EXP DUP2 SLOAD DUP2 PUSH20 0xFFFFFFFFFFFFFFFFFFFFFFFFFFFFFFFFFFFFFFFF MUL NOT AND SWAP1 DUP4 PUSH20 0xFFFFFFFFFFFFFFFFFFFFFFFFFFFFFFFFFFFFFFFF AND MUL OR SWAP1 SSTORE POP PUSH1 0x20 DUP3 ADD MLOAD DUP2 PUSH1 0x1 ADD SSTORE SWAP1 POP POP POP PUSH2 0x107D JUMP JUMPDEST PUSH1 0x2 PUSH1 0xA DUP2 SWAP1 SSTORE POP PUSH2 0x107C PUSH2 0x36FD JUMP JUMPDEST JUMPDEST JUMPDEST JUMPDEST PUSH1 0x1 PUSH1 0x2 PUSH1 0x3 SLOAD PUSH2 0x1090 SWAP2 SWAP1 PUSH2 0x47F6 JUMP JUMPDEST PUSH2 0x109A SWAP2 SWAP1 PUSH2 0x4827 JUMP JUMPDEST PUSH1 0x4 SLOAD LT PUSH2 0x10AB JUMPI PUSH2 0x10AA PUSH2 0x36FD JUMP JUMPDEST JUMPDEST SWAP2 SWAP1 POP JUMP JUMPDEST PUSH20 0x0 PUSH4 0xABCD7960 PUSH2 0x1108 PUSH1 0x40 MLOAD DUP1 PUSH1 0x40 ADD PUSH1 0x40 MSTORE DUP1 PUSH1 0xE DUP2 MSTORE PUSH1 0x20 ADD PUSH32 0x436F757274796172642043616665000000000000000000000000000000000000 DUP2 MSTORE POP PUSH2 0x1E15 JUMP JUMPDEST PUSH1 0x1 PUSH1 0x40 MLOAD DUP4 PUSH4 0xFFFFFFFF AND PUSH1 0xE0 SHL DUP2 MSTORE PUSH1 0x4 ADD PUSH2 0x1127 SWAP3 SWAP2 SWAP1 PUSH2 0x48B6 JUMP JUMPDEST PUSH1 0x20 PUSH1 0x40 MLOAD DUP1 DUP4 SUB DUP2 DUP7 GAS DELEGATECALL ISZERO DUP1 ISZERO PUSH2 0x1144 JUMPI RETURNDATASIZE PUSH1 0x0 DUP1 RETURNDATACOPY RETURNDATASIZE PUSH1 0x0 REVERT JUMPDEST POP POP POP POP PUSH1 0x40 MLOAD RETURNDATASIZE PUSH1 0x1F NOT PUSH1 0x1F DUP3 ADD AND DUP3 ADD DUP1 PUSH1 0x40 MSTORE POP DUP2 ADD SWAP1 PUSH2 0x1168 SWAP2 SWAP1 PUSH2 0x3D79 JUMP JUMPDEST POP PUSH20 0x0 PUSH4 0xABCD7960 PUSH2 0x11C1 PUSH1 0x40 MLOAD DUP1 PUSH1 0x40 ADD PUSH1 0x40 MSTORE DUP1 PUSH1 0x8 DUP2 MSTORE PUSH1 0x20 ADD PUSH32 0x556E692043616665000000000000000000000000000000000000000000000000 DUP2 MSTORE POP PUSH2 0x1E15 JUMP JUMPDEST PUSH1 0x2 PUSH1 0x40 MLOAD DUP4 PUSH4 0xFFFFFFFF AND PUSH1 0xE0 SHL DUP2 MSTORE PUSH1 0x4 ADD PUSH2 0x11E0 SWAP3 SWAP2 SWAP1 PUSH2 0x493E JUMP JUMPDEST PUSH1 0x20 PUSH1 0x40 MLOAD DUP1 DUP4 SUB DUP2 DUP7 GAS DELEGATECALL ISZERO DUP1 ISZERO PUSH2 0x11FD JUMPI RETURNDATASIZE PUSH1 0x0 DUP1 RETURNDATACOPY RETURNDATASIZE PUSH1 0x0 REVERT JUMPDEST POP POP POP POP PUSH1 0x40 MLOAD RETURNDATASIZE PUSH1 0x1F NOT PUSH1 0x1F DUP3 ADD AND DUP3 ADD DUP1 PUSH1 0x40 MSTORE POP DUP2 ADD SWAP1 PUSH2 0x1221 SWAP2 SWAP1 PUSH2 0x3D79 JUMP JUMPDEST POP JUMP JUMPDEST PUSH1 0x1 PUSH1 0x20 MSTORE DUP1 PUSH1 0x0 MSTORE PUSH1 0x40 PUSH1 0x0 KECCAK256 PUSH1 0x0 SWAP2 POP SWAP1 POP DUP1 PUSH1 0x0 ADD DUP1 SLOAD PUSH2 0x1247 SWAP1 PUSH2 0x471F JUMP JUMPDEST DUP1 PUSH1 0x1F ADD PUSH1 0x20 DUP1 SWAP2 DIV MUL PUSH1 0x20 ADD PUSH1 0x40 MLOAD SWAP1 DUP2 ADD PUSH1 0x40 MSTORE DUP1 SWAP3 SWAP2 SWAP1 DUP2 DUP2 MSTORE PUSH1 0x20 ADD DUP3 DUP1 SLOAD PUSH2 0x1273 SWAP1 PUSH2 0x471F JUMP JUMPDEST DUP1 ISZERO PUSH2 0x12C0 JUMPI DUP1 PUSH1 0x1F LT PUSH2 0x1295 JUMPI PUSH2 0x100 DUP1 DUP4 SLOAD DIV MUL DUP4 MSTORE SWAP2 PUSH1 0x20 ADD SWAP2 PUSH2 0x12C0 JUMP JUMPDEST DUP3 ADD SWAP2 SWAP1 PUSH1 0x0 MSTORE PUSH1 0x20 PUSH1 0x0 KECCAK256 SWAP1 JUMPDEST DUP2 SLOAD DUP2 MSTORE SWAP1 PUSH1 0x1 ADD SWAP1 PUSH1 0x20 ADD DUP1 DUP4 GT PUSH2 0x12A3 JUMPI DUP3 SWAP1 SUB PUSH1 0x1F AND DUP3 ADD SWAP2 JUMPDEST POP POP POP POP POP SWAP1 DUP1 PUSH1 0x1 ADD PUSH1 0x0 SWAP1 SLOAD SWAP1 PUSH2 0x100 EXP SWAP1 DIV PUSH1 0xFF AND SWAP1 POP DUP3 JUMP JUMPDEST PUSH20 0x0 PUSH4 0x39DF137F PUSH2 0x1301 PUSH1 0x2 PUSH2 0xD9C JUMP JUMPDEST PUSH1 0x40 MLOAD DUP3 PUSH4 0xFFFFFFFF AND PUSH1 0xE0 SHL DUP2 MSTORE PUSH1 0x4 ADD PUSH2 0x131D SWAP2 SWAP1 PUSH2 0x49C6 JUMP JUMPDEST PUSH1 0x20 PUSH1 0x40 MLOAD DUP1 DUP4 SUB DUP2 DUP7 GAS DELEGATECALL ISZERO DUP1 ISZERO PUSH2 0x133A JUMPI RETURNDATASIZE PUSH1 0x0 DUP1 RETURNDATACOPY RETURNDATASIZE PUSH1 0x0 REVERT JUMPDEST POP POP POP POP PUSH1 0x40 MLOAD RETURNDATASIZE PUSH1 0x1F NOT PUSH1 0x1F DUP3 ADD AND DUP3 ADD DUP1 PUSH1 0x40 MSTORE POP DUP2 ADD SWAP1 PUSH2 0x135E SWAP2 SWAP1 PUSH2 0x3D79 JUMP JUMPDEST POP JUMP JUMPDEST PUSH2 0x13C2 PUSH1 0x12 PUSH1 0x0 SWAP1 SLOAD SWAP1 PUSH2 0x100 EXP SWAP1 DIV PUSH20 0xFFFFFFFFFFFFFFFFFFFFFFFFFFFFFFFFFFFFFFFF AND PUSH1 0x40 MLOAD DUP1 PUSH1 0x40 ADD PUSH1 0x40 MSTORE DUP1 PUSH1 0x7 DUP2 MSTORE PUSH1 0x20 ADD PUSH32 0x44616E69656C7300000000000000000000000000000000000000000000000000 DUP2 MSTORE POP PUSH2 0x160B JUMP JUMPDEST POP PUSH1 0x0 PUSH1 0x3 SLOAD SWAP1 POP PUSH2 0x142B PUSH1 0x12 PUSH1 0x0 SWAP1 SLOAD SWAP1 PUSH2 0x100 EXP SWAP1 DIV PUSH20 0xFFFFFFFFFFFFFFFFFFFFFFFFFFFFFFFFFFFFFFFF AND PUSH1 0x40 MLOAD DUP1 PUSH1 0x40 ADD PUSH1 0x40 MSTORE DUP1 PUSH1 0x7 DUP2 MSTORE PUSH1 0x20 ADD PUSH32 0x44616E69656C7300000000000000000000000000000000000000000000000000 DUP2 MSTORE POP PUSH2 0x160B JUMP JUMPDEST POP PUSH2 0x148D PUSH1 0x10 PUSH1 0x0 SWAP1 SLOAD SWAP1 PUSH2 0x100 EXP SWAP1 DIV PUSH20 0xFFFFFFFFFFFFFFFFFFFFFFFFFFFFFFFFFFFFFFFF AND PUSH1 0x40 MLOAD DUP1 PUSH1 0x40 ADD PUSH1 0x40 MSTORE DUP1 PUSH1 0x4 DUP2 MSTORE PUSH1 0x20 ADD PUSH32 0x4572696300000000000000000000000000000000000000000000000000000000 DUP2 MSTORE POP PUSH2 0x160B JUMP JUMPDEST POP PUSH2 0x14EF PUSH1 0xF PUSH1 0x0 SWAP1 SLOAD SWAP1 PUSH2 0x100 EXP SWAP1 DIV PUSH20 0xFFFFFFFFFFFFFFFFFFFFFFFFFFFFFFFFFFFFFFFF AND PUSH1 0x40 MLOAD DUP1 PUSH1 0x40 ADD PUSH1 0x40 MSTORE DUP1 PUSH1 0x4 DUP2 MSTORE PUSH1 0x20 ADD PUSH32 0x4572696B00000000000000000000000000000000000000000000000000000000 DUP2 MSTORE POP PUSH2 0x160B JUMP JUMPDEST POP PUSH1 0x0 PUSH1 0x3 SLOAD SWAP1 POP PUSH20 0x0 PUSH4 0xABCD7960 DUP4 DUP4 PUSH1 0x40 MLOAD DUP4 PUSH4 0xFFFFFFFF AND PUSH1 0xE0 SHL DUP2 MSTORE PUSH1 0x4 ADD PUSH2 0x1530 SWAP3 SWAP2 SWAP1 PUSH2 0x4A8C JUMP JUMPDEST PUSH1 0x20 PUSH1 0x40 MLOAD DUP1 DUP4 SUB DUP2 DUP7 GAS DELEGATECALL ISZERO DUP1 ISZERO PUSH2 0x154D JUMPI RETURNDATASIZE PUSH1 0x0 DUP1 RETURNDATACOPY RETURNDATASIZE PUSH1 0x0 REVERT JUMPDEST POP POP POP POP PUSH1 0x40 MLOAD RETURNDATASIZE PUSH1 0x1F NOT PUSH1 0x1F DUP3 ADD AND DUP3 ADD DUP1 PUSH1 0x40 MSTORE POP DUP2 ADD SWAP1 PUSH2 0x1571 SWAP2 SWAP1 PUSH2 0x3D79 JUMP JUMPDEST POP POP POP JUMP JUMPDEST PUSH2 0x157E PUSH2 0x33B3 JUMP JUMPDEST PUSH20 0x0 PUSH4 0x767392B3 PUSH1 0xD PUSH1 0x0 SWAP1 SLOAD SWAP1 PUSH2 0x100 EXP SWAP1 DIV PUSH1 0xFF AND PUSH1 0x0 PUSH1 0x40 MLOAD DUP4 PUSH4 0xFFFFFFFF AND PUSH1 0xE0 SHL DUP2 MSTORE PUSH1 0x4 ADD PUSH2 0x15C7 SWAP3 SWAP2 SWAP1 PUSH2 0x4B3A JUMP JUMPDEST PUSH1 0x20 PUSH1 0x40 MLOAD DUP1 DUP4 SUB DUP2 DUP7 GAS DELEGATECALL ISZERO DUP1 ISZERO PUSH2 0x15E4 JUMPI RETURNDATASIZE PUSH1 0x0 DUP1 RETURNDATACOPY RETURNDATASIZE PUSH1 0x0 REVERT JUMPDEST POP POP POP POP PUSH1 0x40 MLOAD RETURNDATASIZE PUSH1 0x1F NOT PUSH1 0x1F DUP3 ADD AND DUP3 ADD DUP1 PUSH1 0x40 MSTORE POP DUP2 ADD SWAP1 PUSH2 0x1608 SWAP2 SWAP1 PUSH2 0x3D79 JUMP JUMPDEST POP JUMP JUMPDEST PUSH1 0x0 PUSH1 0x5 PUSH1 0x0 SWAP1 SLOAD SWAP1 PUSH2 0x100 EXP SWAP1 DIV PUSH20 0xFFFFFFFFFFFFFFFFFFFFFFFFFFFFFFFFFFFFFFFF AND PUSH20 0xFFFFFFFFFFFFFFFFFFFFFFFFFFFFFFFFFFFFFFFF AND CALLER PUSH20 0xFFFFFFFFFFFFFFFFFFFFFFFFFFFFFFFFFFFFFFFF AND EQ PUSH2 0x169D JUMPI PUSH1 0x40 MLOAD PUSH32 0x8C379A000000000000000000000000000000000000000000000000000000000 DUP2 MSTORE PUSH1 0x4 ADD PUSH2 0x1694 SWAP1 PUSH2 0x4B99 JUMP JUMPDEST PUSH1 0x40 MLOAD DUP1 SWAP2 SUB SWAP1 REVERT JUMPDEST PUSH1 0x1 ISZERO ISZERO PUSH1 0xD PUSH1 0x0 SWAP1 SLOAD SWAP1 PUSH2 0x100 EXP SWAP1 DIV PUSH1 0xFF AND ISZERO ISZERO EQ PUSH2 0x16F3 JUMPI PUSH1 0x40 MLOAD PUSH32 0x8C379A000000000000000000000000000000000000000000000000000000000 DUP2 MSTORE PUSH1 0x4 ADD PUSH2 0x16EA SWAP1 PUSH2 0x46D0 JUMP JUMPDEST PUSH1 0x40 MLOAD DUP1 SWAP2 SUB SWAP1 REVERT JUMPDEST PUSH1 0x0 PUSH1 0x1 PUSH1 0x0 DUP6 PUSH20 0xFFFFFFFFFFFFFFFFFFFFFFFFFFFFFFFFFFFFFFFF AND PUSH20 0xFFFFFFFFFFFFFFFFFFFFFFFFFFFFFFFFFFFFFFFF AND DUP2 MSTORE PUSH1 0x20 ADD SWAP1 DUP2 MSTORE PUSH1 0x20 ADD PUSH1 0x0 KECCAK256 PUSH1 0x0 ADD DUP1 SLOAD PUSH2 0x1742 SWAP1 PUSH2 0x471F JUMP JUMPDEST SWAP1 POP EQ DUP1 ISZERO PUSH2 0x1753 JUMPI POP PUSH1 0x0 PUSH1 0xA SLOAD EQ JUMPDEST ISZERO PUSH2 0x1816 JUMPI PUSH2 0x1760 PUSH2 0x3860 JUMP JUMPDEST DUP3 DUP2 PUSH1 0x0 ADD DUP2 SWAP1 MSTORE POP PUSH1 0x0 DUP2 PUSH1 0x20 ADD SWAP1 ISZERO ISZERO SWAP1 DUP2 ISZERO ISZERO DUP2 MSTORE POP POP DUP1 PUSH1 0x1 PUSH1 0x0 DUP7 PUSH20 0xFFFFFFFFFFFFFFFFFFFFFFFFFFFFFFFFFFFFFFFF AND PUSH20 0xFFFFFFFFFFFFFFFFFFFFFFFFFFFFFFFFFFFFFFFF AND DUP2 MSTORE PUSH1 0x20 ADD SWAP1 DUP2 MSTORE PUSH1 0x20 ADD PUSH1 0x0 KECCAK256 PUSH1 0x0 DUP3 ADD MLOAD DUP2 PUSH1 0x0 ADD SWAP1 DUP2 PUSH2 0x17CF SWAP2 SWAP1 PUSH2 0x4D5B JUMP JUMPDEST POP PUSH1 0x20 DUP3 ADD MLOAD DUP2 PUSH1 0x1 ADD PUSH1 0x0 PUSH2 0x100 EXP DUP2 SLOAD DUP2 PUSH1 0xFF MUL NOT AND SWAP1 DUP4 ISZERO ISZERO MUL OR SWAP1 SSTORE POP SWAP1 POP POP PUSH1 0x3 PUSH1 0x0 DUP2 SLOAD DUP1 SWAP3 SWAP2 SWAP1 PUSH2 0x1806 SWAP1 PUSH2 0x477F JUMP JUMPDEST SWAP2 SWAP1 POP SSTORE POP PUSH1 0x3 SLOAD SWAP2 POP POP PUSH2 0x181C JUMP JUMPDEST PUSH1 0x3 SLOAD SWAP1 POP JUMPDEST SWAP3 SWAP2 POP POP JUMP JUMPDEST PUSH1 0x3 SLOAD DUP2 JUMP JUMPDEST PUSH1 0x5 PUSH1 0x0 SWAP1 SLOAD SWAP1 PUSH2 0x100 EXP SWAP1 DIV PUSH20 0xFFFFFFFFFFFFFFFFFFFFFFFFFFFFFFFFFFFFFFFF AND DUP2 JUMP JUMPDEST ADDRESS PUSH20 0xFFFFFFFFFFFFFFFFFFFFFFFFFFFFFFFFFFFFFFFF AND PUSH4 0x6D77BD3E PUSH1 0x40 MLOAD DUP2 PUSH4 0xFFFFFFFF AND PUSH1 0xE0 SHL DUP2 MSTORE PUSH1 0x4 ADD PUSH2 0x1885 SWAP1 PUSH2 0x4E79 JUMP JUMPDEST PUSH1 0x20 PUSH1 0x40 MLOAD DUP1 DUP4 SUB DUP2 PUSH1 0x0 DUP8 GAS CALL SWAP3 POP POP POP DUP1 ISZERO PUSH2 0x18C1 JUMPI POP PUSH1 0x40 MLOAD RETURNDATASIZE PUSH1 0x1F NOT PUSH1 0x1F DUP3 ADD AND DUP3 ADD DUP1 PUSH1 0x40 MSTORE POP DUP2 ADD SWAP1 PUSH2 0x18BE SWAP2 SWAP1 PUSH2 0x4EAE JUMP JUMPDEST PUSH1 0x1 JUMPDEST PUSH2 0x1ABB JUMPI PUSH2 0x18CD PUSH2 0x3DB3 JUMP JUMPDEST DUP1 PUSH4 0x8C379A0 SUB PUSH2 0x196B JUMPI POP PUSH2 0x18E1 PUSH2 0x3DD5 JUMP JUMPDEST DUP1 PUSH2 0x18EC JUMPI POP PUSH2 0x1A08 JUMP JUMPDEST PUSH20 0x0 PUSH4 0xE8C2CB16 DUP3 PUSH1 0x40 MLOAD DUP3 PUSH4 0xFFFFFFFF AND PUSH1 0xE0 SHL DUP2 MSTORE PUSH1 0x4 ADD PUSH2 0x1923 SWAP2 SWAP1 PUSH2 0x4416 JUMP JUMPDEST PUSH1 0x20 PUSH1 0x40 MLOAD DUP1 DUP4 SUB DUP2 DUP7 GAS DELEGATECALL ISZERO DUP1 ISZERO PUSH2 0x1940 JUMPI RETURNDATASIZE PUSH1 0x0 DUP1 RETURNDATACOPY RETURNDATASIZE PUSH1 0x0 REVERT JUMPDEST POP POP POP POP PUSH1 0x40 MLOAD RETURNDATASIZE PUSH1 0x1F NOT PUSH1 0x1F DUP3 ADD AND DUP3 ADD DUP1 PUSH1 0x40 MSTORE POP DUP2 ADD SWAP1 PUSH2 0x1964 SWAP2 SWAP1 PUSH2 0x3D79 JUMP JUMPDEST POP POP PUSH2 0x1AB6 JUMP JUMPDEST PUSH4 0x4E487B71 SUB PUSH2 0x1A08 JUMPI PUSH2 0x197D PUSH2 0x3F8F JUMP JUMPDEST SWAP1 PUSH2 0x1988 JUMPI POP PUSH2 0x1A08 JUMP JUMPDEST PUSH20 0x0 PUSH4 0x39DF137F PUSH1 0x0 PUSH1 0x40 MLOAD DUP3 PUSH4 0xFFFFFFFF AND PUSH1 0xE0 SHL DUP2 MSTORE PUSH1 0x4 ADD PUSH2 0x19C0 SWAP2 SWAP1 PUSH2 0x44D0 JUMP JUMPDEST PUSH1 0x20 PUSH1 0x40 MLOAD DUP1 DUP4 SUB DUP2 DUP7 GAS DELEGATECALL ISZERO DUP1 ISZERO PUSH2 0x19DD JUMPI RETURNDATASIZE PUSH1 0x0 DUP1 RETURNDATACOPY RETURNDATASIZE PUSH1 0x0 REVERT JUMPDEST POP POP POP POP PUSH1 0x40 MLOAD RETURNDATASIZE PUSH1 0x1F NOT PUSH1 0x1F DUP3 ADD AND DUP3 ADD DUP1 PUSH1 0x40 MSTORE POP DUP2 ADD SWAP1 PUSH2 0x1A01 SWAP2 SWAP1 PUSH2 0x3D79 JUMP JUMPDEST POP POP PUSH2 0x1AB6 JUMP JUMPDEST RETURNDATASIZE DUP1 PUSH1 0x0 DUP2 EQ PUSH2 0x1A34 JUMPI PUSH1 0x40 MLOAD SWAP2 POP PUSH1 0x1F NOT PUSH1 0x3F RETURNDATASIZE ADD AND DUP3 ADD PUSH1 0x40 MSTORE RETURNDATASIZE DUP3 MSTORE RETURNDATASIZE PUSH1 0x0 PUSH1 0x20 DUP5 ADD RETURNDATACOPY PUSH2 0x1A39 JUMP JUMPDEST PUSH1 0x60 SWAP2 POP JUMPDEST POP PUSH20 0x0 PUSH4 0x39DF137F PUSH1 0x0 PUSH1 0x40 MLOAD DUP3 PUSH4 0xFFFFFFFF AND PUSH1 0xE0 SHL DUP2 MSTORE PUSH1 0x4 ADD PUSH2 0x1A72 SWAP2 SWAP1 PUSH2 0x454A JUMP JUMPDEST PUSH1 0x20 PUSH1 0x40 MLOAD DUP1 DUP4 SUB DUP2 DUP7 GAS DELEGATECALL ISZERO DUP1 ISZERO PUSH2 0x1A8F JUMPI RETURNDATASIZE PUSH1 0x0 DUP1 RETURNDATACOPY RETURNDATASIZE PUSH1 0x0 REVERT JUMPDEST POP POP POP POP PUSH1 0x40 MLOAD RETURNDATASIZE PUSH1 0x1F NOT PUSH1 0x1F DUP3 ADD AND DUP3 ADD DUP1 PUSH1 0x40 MSTORE POP DUP2 ADD SWAP1 PUSH2 0x1AB3 SWAP2 SWAP1 PUSH2 0x3D79 JUMP JUMPDEST POP POP JUMPDEST PUSH2 0x1B39 JUMP JUMPDEST PUSH20 0x0 PUSH4 0x561015E2 DUP3 PUSH1 0x3 PUSH1 0x40 MLOAD DUP4 PUSH4 0xFFFFFFFF AND PUSH1 0xE0 SHL DUP2 MSTORE PUSH1 0x4 ADD PUSH2 0x1AF5 SWAP3 SWAP2 SWAP1 PUSH2 0x4F16 JUMP JUMPDEST PUSH1 0x20 PUSH1 0x40 MLOAD DUP1 DUP4 SUB DUP2 DUP7 GAS DELEGATECALL ISZERO DUP1 ISZERO PUSH2 0x1B12 JUMPI RETURNDATASIZE PUSH1 0x0 DUP1 RETURNDATACOPY RETURNDATASIZE PUSH1 0x0 REVERT JUMPDEST POP POP POP POP PUSH1 0x40 MLOAD RETURNDATASIZE PUSH1 0x1F NOT PUSH1 0x1F DUP3 ADD AND DUP3 ADD DUP1 PUSH1 0x40 MSTORE POP DUP2 ADD SWAP1 PUSH2 0x1B36 SWAP2 SWAP1 PUSH2 0x3D79 JUMP JUMPDEST POP POP JUMPDEST JUMP JUMPDEST PUSH1 0x7 PUSH1 0x20 MSTORE DUP1 PUSH1 0x0 MSTORE PUSH1 0x40 PUSH1 0x0 KECCAK256 PUSH1 0x0 SWAP2 POP SWAP1 POP DUP1 PUSH1 0x0 ADD PUSH1 0x0 SWAP1 SLOAD SWAP1 PUSH2 0x100 EXP SWAP1 DIV PUSH20 0xFFFFFFFFFFFFFFFFFFFFFFFFFFFFFFFFFFFFFFFF AND SWAP1 DUP1 PUSH1 0x1 ADD SLOAD SWAP1 POP DUP3 JUMP JUMPDEST PUSH1 0x5 PUSH1 0x0 SWAP1 SLOAD SWAP1 PUSH2 0x100 EXP SWAP1 DIV PUSH20 0xFFFFFFFFFFFFFFFFFFFFFFFFFFFFFFFFFFFFFFFF AND PUSH20 0xFFFFFFFFFFFFFFFFFFFFFFFFFFFFFFFFFFFFFFFF AND CALLER PUSH20 0xFFFFFFFFFFFFFFFFFFFFFFFFFFFFFFFFFFFFFFFF AND EQ PUSH2 0x1C0F JUMPI PUSH1 0x40 MLOAD PUSH32 0x8C379A000000000000000000000000000000000000000000000000000000000 DUP2 MSTORE PUSH1 0x4 ADD PUSH2 0x1C06 SWAP1 PUSH2 0x4B99 JUMP JUMPDEST PUSH1 0x40 MLOAD DUP1 SWAP2 SUB SWAP1 REVERT JUMPDEST PUSH1 0x1 ISZERO ISZERO PUSH1 0xD PUSH1 0x0 SWAP1 SLOAD SWAP1 PUSH2 0x100 EXP SWAP1 DIV PUSH1 0xFF AND ISZERO ISZERO EQ PUSH2 0x1C65 JUMPI PUSH1 0x40 MLOAD PUSH32 0x8C379A000000000000000000000000000000000000000000000000000000000 DUP2 MSTORE PUSH1 0x4 ADD PUSH2 0x1C5C SWAP1 PUSH2 0x46D0 JUMP JUMPDEST PUSH1 0x40 MLOAD DUP1 SWAP2 SUB SWAP1 REVERT JUMPDEST PUSH1 0x0 PUSH1 0xA SLOAD SUB PUSH2 0x1C8A JUMPI PUSH1 0x1 PUSH1 0xA DUP2 SWAP1 SSTORE POP DUP1 NUMBER PUSH2 0x1C83 SWAP2 SWAP1 PUSH2 0x4827 JUMP JUMPDEST PUSH1 0xC DUP2 SWAP1 SSTORE POP JUMPDEST POP JUMP JUMPDEST PUSH20 0x0 PUSH4 0x39DF137F PUSH2 0x1CB1 PUSH1 0x2 PUSH2 0xD9C JUMP JUMPDEST PUSH1 0x40 MLOAD DUP3 PUSH4 0xFFFFFFFF AND PUSH1 0xE0 SHL DUP2 MSTORE PUSH1 0x4 ADD PUSH2 0x1CCD SWAP2 SWAP1 PUSH2 0x49C6 JUMP JUMPDEST PUSH1 0x20 PUSH1 0x40 MLOAD DUP1 DUP4 SUB DUP2 DUP7 GAS DELEGATECALL ISZERO DUP1 ISZERO PUSH2 0x1CEA JUMPI RETURNDATASIZE PUSH1 0x0 DUP1 RETURNDATACOPY RETURNDATASIZE PUSH1 0x0 REVERT JUMPDEST POP POP POP POP PUSH1 0x40 MLOAD RETURNDATASIZE PUSH1 0x1F NOT PUSH1 0x1F DUP3 ADD AND DUP3 ADD DUP1 PUSH1 0x40 MSTORE POP DUP2 ADD SWAP1 PUSH2 0x1D0E SWAP2 SWAP1 PUSH2 0x3D79 JUMP JUMPDEST POP PUSH20 0x0 PUSH4 0xABCD7960 PUSH1 0xA SLOAD PUSH1 0x1 PUSH1 0x40 MLOAD DUP4 PUSH4 0xFFFFFFFF AND PUSH1 0xE0 SHL DUP2 MSTORE PUSH1 0x4 ADD PUSH2 0x1D4B SWAP3 SWAP2 SWAP1 PUSH2 0x4FC4 JUMP JUMPDEST PUSH1 0x20 PUSH1 0x40 MLOAD DUP1 DUP4 SUB DUP2 DUP7 GAS DELEGATECALL ISZERO DUP1 ISZERO PUSH2 0x1D68 JUMPI RETURNDATASIZE PUSH1 0x0 DUP1 RETURNDATACOPY RETURNDATASIZE PUSH1 0x0 REVERT JUMPDEST POP POP POP POP PUSH1 0x40 MLOAD RETURNDATASIZE PUSH1 0x1F NOT PUSH1 0x1F DUP3 ADD AND DUP3 ADD DUP1 PUSH1 0x40 MSTORE POP DUP2 ADD SWAP1 PUSH2 0x1D8C SWAP2 SWAP1 PUSH2 0x3D79 JUMP JUMPDEST POP JUMP JUMPDEST PUSH1 0xA SLOAD DUP2 JUMP JUMPDEST PUSH20 0x0 PUSH4 0xABCD7960 PUSH1 0xA SLOAD PUSH1 0x2 PUSH1 0x40 MLOAD DUP4 PUSH4 0xFFFFFFFF AND PUSH1 0xE0 SHL DUP2 MSTORE PUSH1 0x4 ADD PUSH2 0x1DD1 SWAP3 SWAP2 SWAP1 PUSH2 0x421D JUMP JUMPDEST PUSH1 0x20 PUSH1 0x40 MLOAD DUP1 DUP4 SUB DUP2 DUP7 GAS DELEGATECALL ISZERO DUP1 ISZERO PUSH2 0x1DEE JUMPI RETURNDATASIZE PUSH1 0x0 DUP1 RETURNDATACOPY RETURNDATASIZE PUSH1 0x0 REVERT JUMPDEST POP POP POP POP PUSH1 0x40 MLOAD RETURNDATASIZE PUSH1 0x1F NOT PUSH1 0x1F DUP3 ADD AND DUP3 ADD DUP1 PUSH1 0x40 MSTORE POP DUP2 ADD SWAP1 PUSH2 0x1E12 SWAP2 SWAP1 PUSH2 0x3D79 JUMP JUMPDEST POP JUMP JUMPDEST PUSH1 0x0 PUSH1 0x5 PUSH1 0x0 SWAP1 SLOAD SWAP1 PUSH2 0x100 EXP SWAP1 DIV PUSH20 0xFFFFFFFFFFFFFFFFFFFFFFFFFFFFFFFFFFFFFFFF AND PUSH20 0xFFFFFFFFFFFFFFFFFFFFFFFFFFFFFFFFFFFFFFFF AND CALLER PUSH20 0xFFFFFFFFFFFFFFFFFFFFFFFFFFFFFFFFFFFFFFFF AND EQ PUSH2 0x1EA7 JUMPI PUSH1 0x40 MLOAD PUSH32 0x8C379A000000000000000000000000000000000000000000000000000000000 DUP2 MSTORE PUSH1 0x4 ADD PUSH2 0x1E9E SWAP1 PUSH2 0x4B99 JUMP JUMPDEST PUSH1 0x40 MLOAD DUP1 SWAP2 SUB SWAP1 REVERT JUMPDEST PUSH1 0x1 ISZERO ISZERO PUSH1 0xD PUSH1 0x0 SWAP1 SLOAD SWAP1 PUSH2 0x100 EXP SWAP1 DIV PUSH1 0xFF AND ISZERO ISZERO EQ PUSH2 0x1EFD JUMPI PUSH1 0x40 MLOAD PUSH32 0x8C379A000000000000000000000000000000000000000000000000000000000 DUP2 MSTORE PUSH1 0x4 ADD PUSH2 0x1EF4 SWAP1 PUSH2 0x46D0 JUMP JUMPDEST PUSH1 0x40 MLOAD DUP1 SWAP2 SUB SWAP1 REVERT JUMPDEST PUSH1 0x0 PUSH1 0x1 SWAP1 POP JUMPDEST PUSH1 0x2 SLOAD DUP2 GT PUSH2 0x1FA0 JUMPI DUP3 PUSH1 0x40 MLOAD PUSH1 0x20 ADD PUSH2 0x1F1E SWAP2 SWAP1 PUSH2 0x503C JUMP JUMPDEST PUSH1 0x40 MLOAD PUSH1 0x20 DUP2 DUP4 SUB SUB DUP2 MSTORE SWAP1 PUSH1 0x40 MSTORE DUP1 MLOAD SWAP1 PUSH1 0x20 ADD KECCAK256 PUSH1 0x0 DUP1 DUP4 DUP2 MSTORE PUSH1 0x20 ADD SWAP1 DUP2 MSTORE PUSH1 0x20 ADD PUSH1 0x0 KECCAK256 PUSH1 0x40 MLOAD PUSH1 0x20 ADD PUSH2 0x1F56 SWAP2 SWAP1 PUSH2 0x50D6 JUMP JUMPDEST PUSH1 0x40 MLOAD PUSH1 0x20 DUP2 DUP4 SUB SUB DUP2 MSTORE SWAP1 PUSH1 0x40 MSTORE DUP1 MLOAD SWAP1 PUSH1 0x20 ADD KECCAK256 SUB PUSH2 0x1F8D JUMPI PUSH1 0x1 PUSH1 0xB PUSH1 0x0 PUSH2 0x100 EXP DUP2 SLOAD DUP2 PUSH1 0xFF MUL NOT AND SWAP1 DUP4 ISZERO ISZERO MUL OR SWAP1 SSTORE POP JUMPDEST DUP1 DUP1 PUSH2 0x1F98 SWAP1 PUSH2 0x477F JUMP JUMPDEST SWAP2 POP POP PUSH2 0x1F04 JUMP JUMPDEST POP PUSH1 0x0 ISZERO ISZERO PUSH1 0xB PUSH1 0x0 SWAP1 SLOAD SWAP1 PUSH2 0x100 EXP SWAP1 DIV PUSH1 0xFF AND ISZERO ISZERO EQ DUP1 ISZERO PUSH2 0x1FC6 JUMPI POP PUSH1 0x0 PUSH1 0xA SLOAD EQ JUMPDEST DUP1 ISZERO PUSH2 0x1FD3 JUMPI POP PUSH1 0x0 DUP3 MLOAD GT JUMPDEST ISZERO PUSH2 0x2013 JUMPI PUSH1 0x2 PUSH1 0x0 DUP2 SLOAD DUP1 SWAP3 SWAP2 SWAP1 PUSH2 0x1FEB SWAP1 PUSH2 0x477F JUMP JUMPDEST SWAP2 SWAP1 POP SSTORE POP DUP2 PUSH1 0x0 DUP1 PUSH1 0x2 SLOAD DUP2 MSTORE PUSH1 0x20 ADD SWAP1 DUP2 MSTORE PUSH1 0x20 ADD PUSH1 0x0 KECCAK256 SWAP1 DUP2 PUSH2 0x2011 SWAP2 SWAP1 PUSH2 0x4D5B JUMP JUMPDEST POP JUMPDEST PUSH1 0x0 PUSH1 0xB PUSH1 0x0 PUSH2 0x100 EXP DUP2 SLOAD DUP2 PUSH1 0xFF MUL NOT AND SWAP1 DUP4 ISZERO ISZERO MUL OR SWAP1 SSTORE POP PUSH1 0x2 SLOAD SWAP1 POP SWAP2 SWAP1 POP JUMP JUMPDEST PUSH1 0xB PUSH1 0x0 SWAP1 SLOAD SWAP1 PUSH2 0x100 EXP SWAP1 DIV PUSH1 0xFF AND DUP2 JUMP JUMPDEST ADDRESS PUSH20 0xFFFFFFFFFFFFFFFFFFFFFFFFFFFFFFFFFFFFFFFF AND PUSH4 0x3B9F708D PUSH1 0x11 PUSH1 0x0 SWAP1 SLOAD SWAP1 PUSH2 0x100 EXP SWAP1 DIV PUSH20 0xFFFFFFFFFFFFFFFFFFFFFFFFFFFFFFFFFFFFFFFF AND PUSH1 0x40 MLOAD DUP3 PUSH4 0xFFFFFFFF AND PUSH1 0xE0 SHL DUP2 MSTORE PUSH1 0x4 ADD PUSH2 0x20A6 SWAP2 SWAP1 PUSH2 0x5139 JUMP JUMPDEST PUSH1 0x20 PUSH1 0x40 MLOAD DUP1 DUP4 SUB DUP2 PUSH1 0x0 DUP8 GAS CALL SWAP3 POP POP POP DUP1 ISZERO PUSH2 0x20E2 JUMPI POP PUSH1 0x40 MLOAD RETURNDATASIZE PUSH1 0x1F NOT PUSH1 0x1F DUP3 ADD AND DUP3 ADD DUP1 PUSH1 0x40 MSTORE POP DUP2 ADD SWAP1 PUSH2 0x20DF SWAP2 SWAP1 PUSH2 0x4EAE JUMP JUMPDEST PUSH1 0x1 JUMPDEST PUSH2 0x22DC JUMPI PUSH2 0x20EE PUSH2 0x3DB3 JUMP JUMPDEST DUP1 PUSH4 0x8C379A0 SUB PUSH2 0x218C JUMPI POP PUSH2 0x2102 PUSH2 0x3DD5 JUMP JUMPDEST DUP1 PUSH2 0x210D JUMPI POP PUSH2 0x2229 JUMP JUMPDEST PUSH20 0x0 PUSH4 0xE8C2CB16 DUP3 PUSH1 0x40 MLOAD DUP3 PUSH4 0xFFFFFFFF AND PUSH1 0xE0 SHL DUP2 MSTORE PUSH1 0x4 ADD PUSH2 0x2144 SWAP2 SWAP1 PUSH2 0x51B3 JUMP JUMPDEST PUSH1 0x20 PUSH1 0x40 MLOAD DUP1 DUP4 SUB DUP2 DUP7 GAS DELEGATECALL ISZERO DUP1 ISZERO PUSH2 0x2161 JUMPI RETURNDATASIZE PUSH1 0x0 DUP1 RETURNDATACOPY RETURNDATASIZE PUSH1 0x0 REVERT JUMPDEST POP POP POP POP PUSH1 0x40 MLOAD RETURNDATASIZE PUSH1 0x1F NOT PUSH1 0x1F DUP3 ADD AND DUP3 ADD DUP1 PUSH1 0x40 MSTORE POP DUP2 ADD SWAP1 PUSH2 0x2185 SWAP2 SWAP1 PUSH2 0x3D79 JUMP JUMPDEST POP POP PUSH2 0x22D7 JUMP JUMPDEST PUSH4 0x4E487B71 SUB PUSH2 0x2229 JUMPI PUSH2 0x219E PUSH2 0x3F8F JUMP JUMPDEST SWAP1 PUSH2 0x21A9 JUMPI POP PUSH2 0x2229 JUMP JUMPDEST PUSH20 0x0 PUSH4 0x39DF137F PUSH1 0x0 PUSH1 0x40 MLOAD DUP3 PUSH4 0xFFFFFFFF AND PUSH1 0xE0 SHL DUP2 MSTORE PUSH1 0x4 ADD PUSH2 0x21E1 SWAP2 SWAP1 PUSH2 0x44D0 JUMP JUMPDEST PUSH1 0x20 PUSH1 0x40 MLOAD DUP1 DUP4 SUB DUP2 DUP7 GAS DELEGATECALL ISZERO DUP1 ISZERO PUSH2 0x21FE JUMPI RETURNDATASIZE PUSH1 0x0 DUP1 RETURNDATACOPY RETURNDATASIZE PUSH1 0x0 REVERT JUMPDEST POP POP POP POP PUSH1 0x40 MLOAD RETURNDATASIZE PUSH1 0x1F NOT PUSH1 0x1F DUP3 ADD AND DUP3 ADD DUP1 PUSH1 0x40 MSTORE POP DUP2 ADD SWAP1 PUSH2 0x2222 SWAP2 SWAP1 PUSH2 0x3D79 JUMP JUMPDEST POP POP PUSH2 0x22D7 JUMP JUMPDEST RETURNDATASIZE DUP1 PUSH1 0x0 DUP2 EQ PUSH2 0x2255 JUMPI PUSH1 0x40 MLOAD SWAP2 POP PUSH1 0x1F NOT PUSH1 0x3F RETURNDATASIZE ADD AND DUP3 ADD PUSH1 0x40 MSTORE RETURNDATASIZE DUP3 MSTORE RETURNDATASIZE PUSH1 0x0 PUSH1 0x20 DUP5 ADD RETURNDATACOPY PUSH2 0x225A JUMP JUMPDEST PUSH1 0x60 SWAP2 POP JUMPDEST POP PUSH20 0x0 PUSH4 0x39DF137F PUSH1 0x0 PUSH1 0x40 MLOAD DUP3 PUSH4 0xFFFFFFFF AND PUSH1 0xE0 SHL DUP2 MSTORE PUSH1 0x4 ADD PUSH2 0x2293 SWAP2 SWAP1 PUSH2 0x454A JUMP JUMPDEST PUSH1 0x20 PUSH1 0x40 MLOAD DUP1 DUP4 SUB DUP2 DUP7 GAS DELEGATECALL ISZERO DUP1 ISZERO PUSH2 0x22B0 JUMPI RETURNDATASIZE PUSH1 0x0 DUP1 RETURNDATACOPY RETURNDATASIZE PUSH1 0x0 REVERT JUMPDEST POP POP POP POP PUSH1 0x40 MLOAD RETURNDATASIZE PUSH1 0x1F NOT PUSH1 0x1F DUP3 ADD AND DUP3 ADD DUP1 PUSH1 0x40 MSTORE POP DUP2 ADD SWAP1 PUSH2 0x22D4 SWAP2 SWAP1 PUSH2 0x3D79 JUMP JUMPDEST POP POP JUMPDEST PUSH2 0x235A JUMP JUMPDEST PUSH20 0x0 PUSH4 0x561015E2 DUP3 PUSH1 0x5 PUSH1 0x40 MLOAD DUP4 PUSH4 0xFFFFFFFF AND PUSH1 0xE0 SHL DUP2 MSTORE PUSH1 0x4 ADD PUSH2 0x2316 SWAP3 SWAP2 SWAP1 PUSH2 0x51FB JUMP JUMPDEST PUSH1 0x20 PUSH1 0x40 MLOAD DUP1 DUP4 SUB DUP2 DUP7 GAS DELEGATECALL ISZERO DUP1 ISZERO PUSH2 0x2333 JUMPI RETURNDATASIZE PUSH1 0x0 DUP1 RETURNDATACOPY RETURNDATASIZE PUSH1 0x0 REVERT JUMPDEST POP POP POP POP PUSH1 0x40 MLOAD RETURNDATASIZE PUSH1 0x1F NOT PUSH1 0x1F DUP3 ADD AND DUP3 ADD DUP1 PUSH1 0x40 MSTORE POP DUP2 ADD SWAP1 PUSH2 0x2357 SWAP2 SWAP1 PUSH2 0x3D79 JUMP JUMPDEST POP POP JUMPDEST JUMP JUMPDEST PUSH1 0x9 PUSH1 0x0 SWAP1 SLOAD SWAP1 PUSH2 0x100 EXP SWAP1 DIV PUSH1 0xFF AND DUP2 JUMP JUMPDEST PUSH20 0x0 PUSH4 0xCE88B145 PUSH1 0x0 PUSH1 0x40 MLOAD DUP3 PUSH4 0xFFFFFFFF AND PUSH1 0xE0 SHL DUP2 MSTORE PUSH1 0x4 ADD PUSH2 0x23A7 SWAP2 SWAP1 PUSH2 0x5272 JUMP JUMPDEST PUSH1 0x20 PUSH1 0x40 MLOAD DUP1 DUP4 SUB DUP2 DUP7 GAS DELEGATECALL ISZERO DUP1 ISZERO PUSH2 0x23C4 JUMPI RETURNDATASIZE PUSH1 0x0 DUP1 RETURNDATACOPY RETURNDATASIZE PUSH1 0x0 REVERT JUMPDEST POP POP POP POP PUSH1 0x40 MLOAD RETURNDATASIZE PUSH1 0x1F NOT PUSH1 0x1F DUP3 ADD AND DUP3 ADD DUP1 PUSH1 0x40 MSTORE POP DUP2 ADD SWAP1 PUSH2 0x23E8 SWAP2 SWAP1 PUSH2 0x52A2 JUMP JUMPDEST PUSH1 0xD PUSH1 0x1 PUSH2 0x100 EXP DUP2 SLOAD DUP2 PUSH20 0xFFFFFFFFFFFFFFFFFFFFFFFFFFFFFFFFFFFFFFFF MUL NOT AND SWAP1 DUP4 PUSH20 0xFFFFFFFFFFFFFFFFFFFFFFFFFFFFFFFFFFFFFFFF AND MUL OR SWAP1 SSTORE POP PUSH20 0x0 PUSH4 0xCE88B145 PUSH1 0x1 PUSH1 0x40 MLOAD DUP3 PUSH4 0xFFFFFFFF AND PUSH1 0xE0 SHL DUP2 MSTORE PUSH1 0x4 ADD PUSH2 0x2460 SWAP2 SWAP1 PUSH2 0x52CF JUMP JUMPDEST PUSH1 0x20 PUSH1 0x40 MLOAD DUP1 DUP4 SUB DUP2 DUP7 GAS DELEGATECALL ISZERO DUP1 ISZERO PUSH2 0x247D JUMPI RETURNDATASIZE PUSH1 0x0 DUP1 RETURNDATACOPY RETURNDATASIZE PUSH1 0x0 REVERT JUMPDEST POP POP POP POP PUSH1 0x40 MLOAD RETURNDATASIZE PUSH1 0x1F NOT PUSH1 0x1F DUP3 ADD AND DUP3 ADD DUP1 PUSH1 0x40 MSTORE POP DUP2 ADD SWAP1 PUSH2 0x24A1 SWAP2 SWAP1 PUSH2 0x52A2 JUMP JUMPDEST PUSH1 0xE PUSH1 0x0 PUSH2 0x100 EXP DUP2 SLOAD DUP2 PUSH20 0xFFFFFFFFFFFFFFFFFFFFFFFFFFFFFFFFFFFFFFFF MUL NOT AND SWAP1 DUP4 PUSH20 0xFFFFFFFFFFFFFFFFFFFFFFFFFFFFFFFFFFFFFFFF AND MUL OR SWAP1 SSTORE POP PUSH20 0x0 PUSH4 0xCE88B145 PUSH1 0x2 PUSH1 0x40 MLOAD DUP3 PUSH4 0xFFFFFFFF AND PUSH1 0xE0 SHL DUP2 MSTORE PUSH1 0x4 ADD PUSH2 0x2519 SWAP2 SWAP1 PUSH2 0x52EA JUMP JUMPDEST PUSH1 0x20 PUSH1 0x40 MLOAD DUP1 DUP4 SUB DUP2 DUP7 GAS DELEGATECALL ISZERO DUP1 ISZERO PUSH2 0x2536 JUMPI RETURNDATASIZE PUSH1 0x0 DUP1 RETURNDATACOPY RETURNDATASIZE PUSH1 0x0 REVERT JUMPDEST POP POP POP POP PUSH1 0x40 MLOAD RETURNDATASIZE PUSH1 0x1F NOT PUSH1 0x1F DUP3 ADD AND DUP3 ADD DUP1 PUSH1 0x40 MSTORE POP DUP2 ADD SWAP1 PUSH2 0x255A SWAP2 SWAP1 PUSH2 0x52A2 JUMP JUMPDEST PUSH1 0xF PUSH1 0x0 PUSH2 0x100 EXP DUP2 SLOAD DUP2 PUSH20 0xFFFFFFFFFFFFFFFFFFFFFFFFFFFFFFFFFFFFFFFF MUL NOT AND SWAP1 DUP4 PUSH20 0xFFFFFFFFFFFFFFFFFFFFFFFFFFFFFFFFFFFFFFFF AND MUL OR SWAP1 SSTORE POP PUSH20 0x0 PUSH4 0xCE88B145 PUSH1 0x3 PUSH1 0x40 MLOAD DUP3 PUSH4 0xFFFFFFFF AND PUSH1 0xE0 SHL DUP2 MSTORE PUSH1 0x4 ADD PUSH2 0x25D2 SWAP2 SWAP1 PUSH2 0x5305 JUMP JUMPDEST PUSH1 0x20 PUSH1 0x40 MLOAD DUP1 DUP4 SUB DUP2 DUP7 GAS DELEGATECALL ISZERO DUP1 ISZERO PUSH2 0x25EF JUMPI RETURNDATASIZE PUSH1 0x0 DUP1 RETURNDATACOPY RETURNDATASIZE PUSH1 0x0 REVERT JUMPDEST POP POP POP POP PUSH1 0x40 MLOAD RETURNDATASIZE PUSH1 0x1F NOT PUSH1 0x1F DUP3 ADD AND DUP3 ADD DUP1 PUSH1 0x40 MSTORE POP DUP2 ADD SWAP1 PUSH2 0x2613 SWAP2 SWAP1 PUSH2 0x52A2 JUMP JUMPDEST PUSH1 0x10 PUSH1 0x0 PUSH2 0x100 EXP DUP2 SLOAD DUP2 PUSH20 0xFFFFFFFFFFFFFFFFFFFFFFFFFFFFFFFFFFFFFFFF MUL NOT AND SWAP1 DUP4 PUSH20 0xFFFFFFFFFFFFFFFFFFFFFFFFFFFFFFFFFFFFFFFF AND MUL OR SWAP1 SSTORE POP PUSH20 0x0 PUSH4 0xCE88B145 PUSH1 0x4 PUSH1 0x40 MLOAD DUP3 PUSH4 0xFFFFFFFF AND PUSH1 0xE0 SHL DUP2 MSTORE PUSH1 0x4 ADD PUSH2 0x268B SWAP2 SWAP1 PUSH2 0x535B JUMP JUMPDEST PUSH1 0x20 PUSH1 0x40 MLOAD DUP1 DUP4 SUB DUP2 DUP7 GAS DELEGATECALL ISZERO DUP1 ISZERO PUSH2 0x26A8 JUMPI RETURNDATASIZE PUSH1 0x0 DUP1 RETURNDATACOPY RETURNDATASIZE PUSH1 0x0 REVERT JUMPDEST POP POP POP POP PUSH1 0x40 MLOAD RETURNDATASIZE PUSH1 0x1F NOT PUSH1 0x1F DUP3 ADD AND DUP3 ADD DUP1 PUSH1 0x40 MSTORE POP DUP2 ADD SWAP1 PUSH2 0x26CC SWAP2 SWAP1 PUSH2 0x52A2 JUMP JUMPDEST PUSH1 0x11 PUSH1 0x0 PUSH2 0x100 EXP DUP2 SLOAD DUP2 PUSH20 0xFFFFFFFFFFFFFFFFFFFFFFFFFFFFFFFFFFFFFFFF MUL NOT AND SWAP1 DUP4 PUSH20 0xFFFFFFFFFFFFFFFFFFFFFFFFFFFFFFFFFFFFFFFF AND MUL OR SWAP1 SSTORE POP PUSH20 0x0 PUSH4 0xCE88B145 PUSH1 0x5 PUSH1 0x40 MLOAD DUP3 PUSH4 0xFFFFFFFF AND PUSH1 0xE0 SHL DUP2 MSTORE PUSH1 0x4 ADD PUSH2 0x2744 SWAP2 SWAP1 PUSH2 0x5376 JUMP JUMPDEST PUSH1 0x20 PUSH1 0x40 MLOAD DUP1 DUP4 SUB DUP2 DUP7 GAS DELEGATECALL ISZERO DUP1 ISZERO PUSH2 0x2761 JUMPI RETURNDATASIZE PUSH1 0x0 DUP1 RETURNDATACOPY RETURNDATASIZE PUSH1 0x0 REVERT JUMPDEST POP POP POP POP PUSH1 0x40 MLOAD RETURNDATASIZE PUSH1 0x1F NOT PUSH1 0x1F DUP3 ADD AND DUP3 ADD DUP1 PUSH1 0x40 MSTORE POP DUP2 ADD SWAP1 PUSH2 0x2785 SWAP2 SWAP1 PUSH2 0x52A2 JUMP JUMPDEST PUSH1 0x12 PUSH1 0x0 PUSH2 0x100 EXP DUP2 SLOAD DUP2 PUSH20 0xFFFFFFFFFFFFFFFFFFFFFFFFFFFFFFFFFFFFFFFF MUL NOT AND SWAP1 DUP4 PUSH20 0xFFFFFFFFFFFFFFFFFFFFFFFFFFFFFFFFFFFFFFFF AND MUL OR SWAP1 SSTORE POP JUMP JUMPDEST PUSH20 0x0 PUSH4 0xABCD7960 PUSH2 0x2842 PUSH1 0xD PUSH1 0x1 SWAP1 SLOAD SWAP1 PUSH2 0x100 EXP SWAP1 DIV PUSH20 0xFFFFFFFFFFFFFFFFFFFFFFFFFFFFFFFFFFFFFFFF AND PUSH1 0x40 MLOAD DUP1 PUSH1 0x40 ADD PUSH1 0x40 MSTORE DUP1 PUSH1 0x5 DUP2 MSTORE PUSH1 0x20 ADD PUSH32 0x416C696365000000000000000000000000000000000000000000000000000000 DUP2 MSTORE POP PUSH2 0x160B JUMP JUMPDEST PUSH1 0x1 PUSH1 0x40 MLOAD DUP4 PUSH4 0xFFFFFFFF AND PUSH1 0xE0 SHL DUP2 MSTORE PUSH1 0x4 ADD PUSH2 0x2861 SWAP3 SWAP2 SWAP1 PUSH2 0x48B6 JUMP JUMPDEST PUSH1 0x20 PUSH1 0x40 MLOAD DUP1 DUP4 SUB DUP2 DUP7 GAS DELEGATECALL ISZERO DUP1 ISZERO PUSH2 0x287E JUMPI RETURNDATASIZE PUSH1 0x0 DUP1 RETURNDATACOPY RETURNDATASIZE PUSH1 0x0 REVERT JUMPDEST POP POP POP POP PUSH1 0x40 MLOAD RETURNDATASIZE PUSH1 0x1F NOT PUSH1 0x1F DUP3 ADD AND DUP3 ADD DUP1 PUSH1 0x40 MSTORE POP DUP2 ADD SWAP1 PUSH2 0x28A2 SWAP2 SWAP1 PUSH2 0x3D79 JUMP JUMPDEST POP PUSH20 0x0 PUSH4 0xABCD7960 PUSH2 0x291E PUSH1 0xE PUSH1 0x0 SWAP1 SLOAD SWAP1 PUSH2 0x100 EXP SWAP1 DIV PUSH20 0xFFFFFFFFFFFFFFFFFFFFFFFFFFFFFFFFFFFFFFFF AND PUSH1 0x40 MLOAD DUP1 PUSH1 0x40 ADD PUSH1 0x40 MSTORE DUP1 PUSH1 0x3 DUP2 MSTORE PUSH1 0x20 ADD PUSH32 0x426F620000000000000000000000000000000000000000000000000000000000 DUP2 MSTORE POP PUSH2 0x160B JUMP JUMPDEST PUSH1 0x2 PUSH1 0x40 MLOAD DUP4 PUSH4 0xFFFFFFFF AND PUSH1 0xE0 SHL DUP2 MSTORE PUSH1 0x4 ADD PUSH2 0x293D SWAP3 SWAP2 SWAP1 PUSH2 0x493E JUMP JUMPDEST PUSH1 0x20 PUSH1 0x40 MLOAD DUP1 DUP4 SUB DUP2 DUP7 GAS DELEGATECALL ISZERO DUP1 ISZERO PUSH2 0x295A JUMPI RETURNDATASIZE PUSH1 0x0 DUP1 RETURNDATACOPY RETURNDATASIZE PUSH1 0x0 REVERT JUMPDEST POP POP POP POP PUSH1 0x40 MLOAD RETURNDATASIZE PUSH1 0x1F NOT PUSH1 0x1F DUP3 ADD AND DUP3 ADD DUP1 PUSH1 0x40 MSTORE POP DUP2 ADD SWAP1 PUSH2 0x297E SWAP2 SWAP1 PUSH2 0x3D79 JUMP JUMPDEST POP PUSH20 0x0 PUSH4 0xABCD7960 PUSH2 0x29FA PUSH1 0xF PUSH1 0x0 SWAP1 SLOAD SWAP1 PUSH2 0x100 EXP SWAP1 DIV PUSH20 0xFFFFFFFFFFFFFFFFFFFFFFFFFFFFFFFFFFFFFFFF AND PUSH1 0x40 MLOAD DUP1 PUSH1 0x40 ADD PUSH1 0x40 MSTORE DUP1 PUSH1 0x7 DUP2 MSTORE PUSH1 0x20 ADD PUSH32 0x436861726C696500000000000000000000000000000000000000000000000000 DUP2 MSTORE POP PUSH2 0x160B JUMP JUMPDEST PUSH1 0x3 PUSH1 0x40 MLOAD DUP4 PUSH4 0xFFFFFFFF AND PUSH1 0xE0 SHL DUP2 MSTORE PUSH1 0x4 ADD PUSH2 0x2A19 SWAP3 SWAP2 SWAP1 PUSH2 0x53DD JUMP JUMPDEST PUSH1 0x20 PUSH1 0x40 MLOAD DUP1 DUP4 SUB DUP2 DUP7 GAS DELEGATECALL ISZERO DUP1 ISZERO PUSH2 0x2A36 JUMPI RETURNDATASIZE PUSH1 0x0 DUP1 RETURNDATACOPY RETURNDATASIZE PUSH1 0x0 REVERT JUMPDEST POP POP POP POP PUSH1 0x40 MLOAD RETURNDATASIZE PUSH1 0x1F NOT PUSH1 0x1F DUP3 ADD AND DUP3 ADD DUP1 PUSH1 0x40 MSTORE POP DUP2 ADD SWAP1 PUSH2 0x2A5A SWAP2 SWAP1 PUSH2 0x3D79 JUMP JUMPDEST POP PUSH20 0x0 PUSH4 0xABCD7960 PUSH2 0x2AD6 PUSH1 0x10 PUSH1 0x0 SWAP1 SLOAD SWAP1 PUSH2 0x100 EXP SWAP1 DIV PUSH20 0xFFFFFFFFFFFFFFFFFFFFFFFFFFFFFFFFFFFFFFFF AND PUSH1 0x40 MLOAD DUP1 PUSH1 0x40 ADD PUSH1 0x40 MSTORE DUP1 PUSH1 0x3 DUP2 MSTORE PUSH1 0x20 ADD PUSH32 0x4576650000000000000000000000000000000000000000000000000000000000 DUP2 MSTORE POP PUSH2 0x160B JUMP JUMPDEST PUSH1 0x4 PUSH1 0x40 MLOAD DUP4 PUSH4 0xFFFFFFFF AND PUSH1 0xE0 SHL DUP2 MSTORE PUSH1 0x4 ADD PUSH2 0x2AF5 SWAP3 SWAP2 SWAP1 PUSH2 0x5465 JUMP JUMPDEST PUSH1 0x20 PUSH1 0x40 MLOAD DUP1 DUP4 SUB DUP2 DUP7 GAS DELEGATECALL ISZERO DUP1 ISZERO PUSH2 0x2B12 JUMPI RETURNDATASIZE PUSH1 0x0 DUP1 RETURNDATACOPY RETURNDATASIZE PUSH1 0x0 REVERT JUMPDEST POP POP POP POP PUSH1 0x40 MLOAD RETURNDATASIZE PUSH1 0x1F NOT PUSH1 0x1F DUP3 ADD AND DUP3 ADD DUP1 PUSH1 0x40 MSTORE POP DUP2 ADD SWAP1 PUSH2 0x2B36 SWAP2 SWAP1 PUSH2 0x3D79 JUMP JUMPDEST POP JUMP JUMPDEST PUSH20 0x0 PUSH4 0xABCD7960 PUSH1 0xA SLOAD PUSH1 0x0 PUSH1 0x40 MLOAD DUP4 PUSH4 0xFFFFFFFF AND PUSH1 0xE0 SHL DUP2 MSTORE PUSH1 0x4 ADD PUSH2 0x2B75 SWAP3 SWAP2 SWAP1 PUSH2 0x54ED JUMP JUMPDEST PUSH1 0x20 PUSH1 0x40 MLOAD DUP1 DUP4 SUB DUP2 DUP7 GAS DELEGATECALL ISZERO DUP1 ISZERO PUSH2 0x2B92 JUMPI RETURNDATASIZE PUSH1 0x0 DUP1 RETURNDATACOPY RETURNDATASIZE PUSH1 0x0 REVERT JUMPDEST POP POP POP POP PUSH1 0x40 MLOAD RETURNDATASIZE PUSH1 0x1F NOT PUSH1 0x1F DUP3 ADD AND DUP3 ADD DUP1 PUSH1 0x40 MSTORE POP DUP2 ADD SWAP1 PUSH2 0x2BB6 SWAP2 SWAP1 PUSH2 0x3D79 JUMP JUMPDEST POP JUMP JUMPDEST PUSH1 0x0 PUSH2 0x2BC5 PUSH1 0x2 PUSH2 0xD9C JUMP JUMPDEST SWAP1 POP PUSH20 0x0 PUSH4 0x767392B3 DUP3 PUSH1 0x0 PUSH1 0x40 MLOAD DUP4 PUSH4 0xFFFFFFFF AND PUSH1 0xE0 SHL DUP2 MSTORE PUSH1 0x4 ADD PUSH2 0x2C01 SWAP3 SWAP2 SWAP1 PUSH2 0x559B JUMP JUMPDEST PUSH1 0x20 PUSH1 0x40 MLOAD DUP1 DUP4 SUB DUP2 DUP7 GAS DELEGATECALL ISZERO DUP1 ISZERO PUSH2 0x2C1E JUMPI RETURNDATASIZE PUSH1 0x0 DUP1 RETURNDATACOPY RETURNDATASIZE PUSH1 0x0 REVERT JUMPDEST POP POP POP POP PUSH1 0x40 MLOAD RETURNDATASIZE PUSH1 0x1F NOT PUSH1 0x1F DUP3 ADD AND DUP3 ADD DUP1 PUSH1 0x40 MSTORE POP DUP2 ADD SWAP1 PUSH2 0x2C42 SWAP2 SWAP1 PUSH2 0x3D79 JUMP JUMPDEST POP POP JUMP JUMPDEST PUSH20 0x0 PUSH4 0xBFBA5DD6 PUSH1 0x5 PUSH1 0x0 SWAP1 SLOAD SWAP1 PUSH2 0x100 EXP SWAP1 DIV PUSH20 0xFFFFFFFFFFFFFFFFFFFFFFFFFFFFFFFFFFFFFFFF AND PUSH1 0xD PUSH1 0x1 SWAP1 SLOAD SWAP1 PUSH2 0x100 EXP SWAP1 DIV PUSH20 0xFFFFFFFFFFFFFFFFFFFFFFFFFFFFFFFFFFFFFFFF AND PUSH1 0x40 MLOAD DUP4 PUSH4 0xFFFFFFFF AND PUSH1 0xE0 SHL DUP2 MSTORE PUSH1 0x4 ADD PUSH2 0x2CC3 SWAP3 SWAP2 SWAP1 PUSH2 0x5632 JUMP JUMPDEST PUSH1 0x20 PUSH1 0x40 MLOAD DUP1 DUP4 SUB DUP2 DUP7 GAS DELEGATECALL ISZERO DUP1 ISZERO PUSH2 0x2CE0 JUMPI RETURNDATASIZE PUSH1 0x0 DUP1 RETURNDATACOPY RETURNDATASIZE PUSH1 0x0 REVERT JUMPDEST POP POP POP POP PUSH1 0x40 MLOAD RETURNDATASIZE PUSH1 0x1F NOT PUSH1 0x1F DUP3 ADD AND DUP3 ADD DUP1 PUSH1 0x40 MSTORE POP DUP2 ADD SWAP1 PUSH2 0x2D04 SWAP2 SWAP1 PUSH2 0x3D79 JUMP JUMPDEST POP JUMP JUMPDEST PUSH20 0x0 PUSH4 0x39DF137F PUSH2 0x2D2B PUSH1 0x1 PUSH2 0xD9C JUMP JUMPDEST PUSH1 0x40 MLOAD DUP3 PUSH4 0xFFFFFFFF AND PUSH1 0xE0 SHL DUP2 MSTORE PUSH1 0x4 ADD PUSH2 0x2D47 SWAP2 SWAP1 PUSH2 0x49C6 JUMP JUMPDEST PUSH1 0x20 PUSH1 0x40 MLOAD DUP1 DUP4 SUB DUP2 DUP7 GAS DELEGATECALL ISZERO DUP1 ISZERO PUSH2 0x2D64 JUMPI RETURNDATASIZE PUSH1 0x0 DUP1 RETURNDATACOPY RETURNDATASIZE PUSH1 0x0 REVERT JUMPDEST POP POP POP POP PUSH1 0x40 MLOAD RETURNDATASIZE PUSH1 0x1F NOT PUSH1 0x1F DUP3 ADD AND DUP3 ADD DUP1 PUSH1 0x40 MSTORE POP DUP2 ADD SWAP1 PUSH2 0x2D88 SWAP2 SWAP1 PUSH2 0x3D79 JUMP JUMPDEST POP PUSH20 0x0 PUSH4 0xABCD7960 PUSH1 0xA SLOAD PUSH1 0x1 PUSH1 0x40 MLOAD DUP4 PUSH4 0xFFFFFFFF AND PUSH1 0xE0 SHL DUP2 MSTORE PUSH1 0x4 ADD PUSH2 0x2DC5 SWAP3 SWAP2 SWAP1 PUSH2 0x4FC4 JUMP JUMPDEST PUSH1 0x20 PUSH1 0x40 MLOAD DUP1 DUP4 SUB DUP2 DUP7 GAS DELEGATECALL ISZERO DUP1 ISZERO PUSH2 0x2DE2 JUMPI RETURNDATASIZE PUSH1 0x0 DUP1 RETURNDATACOPY RETURNDATASIZE PUSH1 0x0 REVERT JUMPDEST POP POP POP POP PUSH1 0x40 MLOAD RETURNDATASIZE PUSH1 0x1F NOT PUSH1 0x1F DUP3 ADD AND DUP3 ADD DUP1 PUSH1 0x40 MSTORE POP DUP2 ADD SWAP1 PUSH2 0x2E06 SWAP2 SWAP1 PUSH2 0x3D79 JUMP JUMPDEST POP JUMP JUMPDEST PUSH1 0x4 SLOAD DUP2 JUMP JUMPDEST ADDRESS PUSH20 0xFFFFFFFFFFFFFFFFFFFFFFFFFFFFFFFFFFFFFFFF AND PUSH4 0x124258C6 PUSH1 0x1 PUSH1 0x40 MLOAD DUP3 PUSH4 0xFFFFFFFF AND PUSH1 0xE0 SHL DUP2 MSTORE PUSH1 0x4 ADD PUSH2 0x2E49 SWAP2 SWAP1 PUSH2 0x3D32 JUMP JUMPDEST PUSH1 0x20 PUSH1 0x40 MLOAD DUP1 DUP4 SUB DUP2 PUSH1 0x0 DUP8 GAS CALL SWAP3 POP POP POP DUP1 ISZERO PUSH2 0x2E85 JUMPI POP PUSH1 0x40 MLOAD RETURNDATASIZE PUSH1 0x1F NOT PUSH1 0x1F DUP3 ADD AND DUP3 ADD DUP1 PUSH1 0x40 MSTORE POP DUP2 ADD SWAP1 PUSH2 0x2E82 SWAP2 SWAP1 PUSH2 0x3D79 JUMP JUMPDEST PUSH1 0x1 JUMPDEST PUSH2 0x307F JUMPI PUSH2 0x2E91 PUSH2 0x3DB3 JUMP JUMPDEST DUP1 PUSH4 0x8C379A0 SUB PUSH2 0x2F2F JUMPI POP PUSH2 0x2EA5 PUSH2 0x3DD5 JUMP JUMPDEST DUP1 PUSH2 0x2EB0 JUMPI POP PUSH2 0x2FCC JUMP JUMPDEST PUSH20 0x0 PUSH4 0xE8C2CB16 DUP3 PUSH1 0x40 MLOAD DUP3 PUSH4 0xFFFFFFFF AND PUSH1 0xE0 SHL DUP2 MSTORE PUSH1 0x4 ADD PUSH2 0x2EE7 SWAP2 SWAP1 PUSH2 0x5691 JUMP JUMPDEST PUSH1 0x20 PUSH1 0x40 MLOAD DUP1 DUP4 SUB DUP2 DUP7 GAS DELEGATECALL ISZERO DUP1 ISZERO PUSH2 0x2F04 JUMPI RETURNDATASIZE PUSH1 0x0 DUP1 RETURNDATACOPY RETURNDATASIZE PUSH1 0x0 REVERT JUMPDEST POP POP POP POP PUSH1 0x40 MLOAD RETURNDATASIZE PUSH1 0x1F NOT PUSH1 0x1F DUP3 ADD AND DUP3 ADD DUP1 PUSH1 0x40 MSTORE POP DUP2 ADD SWAP1 PUSH2 0x2F28 SWAP2 SWAP1 PUSH2 0x3D79 JUMP JUMPDEST POP POP PUSH2 0x307A JUMP JUMPDEST PUSH4 0x4E487B71 SUB PUSH2 0x2FCC JUMPI PUSH2 0x2F41 PUSH2 0x3F8F JUMP JUMPDEST SWAP1 PUSH2 0x2F4C JUMPI POP PUSH2 0x2FCC JUMP JUMPDEST PUSH20 0x0 PUSH4 0x39DF137F PUSH1 0x0 PUSH1 0x40 MLOAD DUP3 PUSH4 0xFFFFFFFF AND PUSH1 0xE0 SHL DUP2 MSTORE PUSH1 0x4 ADD PUSH2 0x2F84 SWAP2 SWAP1 PUSH2 0x44D0 JUMP JUMPDEST PUSH1 0x20 PUSH1 0x40 MLOAD DUP1 DUP4 SUB DUP2 DUP7 GAS DELEGATECALL ISZERO DUP1 ISZERO PUSH2 0x2FA1 JUMPI RETURNDATASIZE PUSH1 0x0 DUP1 RETURNDATACOPY RETURNDATASIZE PUSH1 0x0 REVERT JUMPDEST POP POP POP POP PUSH1 0x40 MLOAD RETURNDATASIZE PUSH1 0x1F NOT PUSH1 0x1F DUP3 ADD AND DUP3 ADD DUP1 PUSH1 0x40 MSTORE POP DUP2 ADD SWAP1 PUSH2 0x2FC5 SWAP2 SWAP1 PUSH2 0x3D79 JUMP JUMPDEST POP POP PUSH2 0x307A JUMP JUMPDEST RETURNDATASIZE DUP1 PUSH1 0x0 DUP2 EQ PUSH2 0x2FF8 JUMPI PUSH1 0x40 MLOAD SWAP2 POP PUSH1 0x1F NOT PUSH1 0x3F RETURNDATASIZE ADD AND DUP3 ADD PUSH1 0x40 MSTORE RETURNDATASIZE DUP3 MSTORE RETURNDATASIZE PUSH1 0x0 PUSH1 0x20 DUP5 ADD RETURNDATACOPY PUSH2 0x2FFD JUMP JUMPDEST PUSH1 0x60 SWAP2 POP JUMPDEST POP PUSH20 0x0 PUSH4 0x39DF137F PUSH1 0x0 PUSH1 0x40 MLOAD DUP3 PUSH4 0xFFFFFFFF AND PUSH1 0xE0 SHL DUP2 MSTORE PUSH1 0x4 ADD PUSH2 0x3036 SWAP2 SWAP1 PUSH2 0x40AB JUMP JUMPDEST PUSH1 0x20 PUSH1 0x40 MLOAD DUP1 DUP4 SUB DUP2 DUP7 GAS DELEGATECALL ISZERO DUP1 ISZERO PUSH2 0x3053 JUMPI RETURNDATASIZE PUSH1 0x0 DUP1 RETURNDATACOPY RETURNDATASIZE PUSH1 0x0 REVERT JUMPDEST POP POP POP POP PUSH1 0x40 MLOAD RETURNDATASIZE PUSH1 0x1F NOT PUSH1 0x1F DUP3 ADD AND DUP3 ADD DUP1 PUSH1 0x40 MSTORE POP DUP2 ADD SWAP1 PUSH2 0x3077 SWAP2 SWAP1 PUSH2 0x3D79 JUMP JUMPDEST POP POP JUMPDEST PUSH2 0x30FD JUMP JUMPDEST PUSH20 0x0 PUSH4 0x767392B3 DUP3 PUSH1 0x1 PUSH1 0x40 MLOAD DUP4 PUSH4 0xFFFFFFFF AND PUSH1 0xE0 SHL DUP2 MSTORE PUSH1 0x4 ADD PUSH2 0x30B9 SWAP3 SWAP2 SWAP1 PUSH2 0x56D9 JUMP JUMPDEST PUSH1 0x20 PUSH1 0x40 MLOAD DUP1 DUP4 SUB DUP2 DUP7 GAS DELEGATECALL ISZERO DUP1 ISZERO PUSH2 0x30D6 JUMPI RETURNDATASIZE PUSH1 0x0 DUP1 RETURNDATACOPY RETURNDATASIZE PUSH1 0x0 REVERT JUMPDEST POP POP POP POP PUSH1 0x40 MLOAD RETURNDATASIZE PUSH1 0x1F NOT PUSH1 0x1F DUP3 ADD AND DUP3 ADD DUP1 PUSH1 0x40 MSTORE POP DUP2 ADD SWAP1 PUSH2 0x30FA SWAP2 SWAP1 PUSH2 0x3D79 JUMP JUMPDEST POP POP JUMPDEST JUMP JUMPDEST PUSH20 0x0 PUSH4 0xE8C2CB16 PUSH1 0x6 PUSH1 0x40 MLOAD DUP3 PUSH4 0xFFFFFFFF AND PUSH1 0xE0 SHL DUP2 MSTORE PUSH1 0x4 ADD PUSH2 0x3137 SWAP2 SWAP1 PUSH2 0x5857 JUMP JUMPDEST PUSH1 0x20 PUSH1 0x40 MLOAD DUP1 DUP4 SUB DUP2 DUP7 GAS DELEGATECALL ISZERO DUP1 ISZERO PUSH2 0x3154 JUMPI RETURNDATASIZE PUSH1 0x0 DUP1 RETURNDATACOPY RETURNDATASIZE PUSH1 0x0 REVERT JUMPDEST POP POP POP POP PUSH1 0x40 MLOAD RETURNDATASIZE PUSH1 0x1F NOT PUSH1 0x1F DUP3 ADD AND DUP3 ADD DUP1 PUSH1 0x40 MSTORE POP DUP2 ADD SWAP1 PUSH2 0x3178 SWAP2 SWAP1 PUSH2 0x3D79 JUMP JUMPDEST POP JUMP JUMPDEST PUSH20 0x0 PUSH4 0x767392B3 PUSH2 0x319F PUSH1 0x1 PUSH2 0xD9C JUMP JUMPDEST PUSH1 0x0 PUSH1 0x40 MLOAD DUP4 PUSH4 0xFFFFFFFF AND PUSH1 0xE0 SHL DUP2 MSTORE PUSH1 0x4 ADD PUSH2 0x31BE SWAP3 SWAP2 SWAP1 PUSH2 0x58EB JUMP JUMPDEST PUSH1 0x20 PUSH1 0x40 MLOAD DUP1 DUP4 SUB DUP2 DUP7 GAS DELEGATECALL ISZERO DUP1 ISZERO PUSH2 0x31DB JUMPI RETURNDATASIZE PUSH1 0x0 DUP1 RETURNDATACOPY RETURNDATASIZE PUSH1 0x0 REVERT JUMPDEST POP POP POP POP PUSH1 0x40 MLOAD RETURNDATASIZE PUSH1 0x1F NOT PUSH1 0x1F DUP3 ADD AND DUP3 ADD DUP1 PUSH1 0x40 MSTORE POP DUP2 ADD SWAP1 PUSH2 0x31FF SWAP2 SWAP1 PUSH2 0x3D79 JUMP JUMPDEST POP PUSH20 0x0 PUSH4 0xABCD7960 PUSH1 0xA SLOAD PUSH1 0x1 PUSH1 0x40 MLOAD DUP4 PUSH4 0xFFFFFFFF AND PUSH1 0xE0 SHL DUP2 MSTORE PUSH1 0x4 ADD PUSH2 0x323C SWAP3 SWAP2 SWAP1 PUSH2 0x5973 JUMP JUMPDEST PUSH1 0x20 PUSH1 0x40 MLOAD DUP1 DUP4 SUB DUP2 DUP7 GAS DELEGATECALL ISZERO DUP1 ISZERO PUSH2 0x3259 JUMPI RETURNDATASIZE PUSH1 0x0 DUP1 RETURNDATACOPY RETURNDATASIZE PUSH1 0x0 REVERT JUMPDEST POP POP POP POP PUSH1 0x40 MLOAD RETURNDATASIZE PUSH1 0x1F NOT PUSH1 0x1F DUP3 ADD AND DUP3 ADD DUP1 PUSH1 0x40 MSTORE POP DUP2 ADD SWAP1 PUSH2 0x327D SWAP2 SWAP1 PUSH2 0x3D79 JUMP JUMPDEST POP JUMP JUMPDEST PUSH1 0x0 PUSH1 0x20 MSTORE DUP1 PUSH1 0x0 MSTORE PUSH1 0x40 PUSH1 0x0 KECCAK256 PUSH1 0x0 SWAP2 POP SWAP1 POP DUP1 SLOAD PUSH2 0x329F SWAP1 PUSH2 0x471F JUMP JUMPDEST DUP1 PUSH1 0x1F ADD PUSH1 0x20 DUP1 SWAP2 DIV MUL PUSH1 0x20 ADD PUSH1 0x40 MLOAD SWAP1 DUP2 ADD PUSH1 0x40 MSTORE DUP1 SWAP3 SWAP2 SWAP1 DUP2 DUP2 MSTORE PUSH1 0x20 ADD DUP3 DUP1 SLOAD PUSH2 0x32CB SWAP1 PUSH2 0x471F JUMP JUMPDEST DUP1 ISZERO PUSH2 0x3318 JUMPI DUP1 PUSH1 0x1F LT PUSH2 0x32ED JUMPI PUSH2 0x100 DUP1 DUP4 SLOAD DIV MUL DUP4 MSTORE SWAP2 PUSH1 0x20 ADD SWAP2 PUSH2 0x3318 JUMP JUMPDEST DUP3 ADD SWAP2 SWAP1 PUSH1 0x0 MSTORE PUSH1 0x20 PUSH1 0x0 KECCAK256 SWAP1 JUMPDEST DUP2 SLOAD DUP2 MSTORE SWAP1 PUSH1 0x1 ADD SWAP1 PUSH1 0x20 ADD DUP1 DUP4 GT PUSH2 0x32FB JUMPI DUP3 SWAP1 SUB PUSH1 0x1F AND DUP3 ADD SWAP2 JUMPDEST POP POP POP POP POP DUP2 JUMP JUMPDEST PUSH1 0x2 SLOAD DUP2 JUMP JUMPDEST PUSH20 0x0 PUSH4 0x767392B3 PUSH1 0x9 PUSH1 0x0 SWAP1 SLOAD SWAP1 PUSH2 0x100 EXP SWAP1 DIV PUSH1 0xFF AND PUSH1 0x0 PUSH1 0x40 MLOAD DUP4 PUSH4 0xFFFFFFFF AND PUSH1 0xE0 SHL DUP2 MSTORE PUSH1 0x4 ADD PUSH2 0x336F SWAP3 SWAP2 SWAP1 PUSH2 0x59FB JUMP JUMPDEST PUSH1 0x20 PUSH1 0x40 MLOAD DUP1 DUP4 SUB DUP2 DUP7 GAS DELEGATECALL ISZERO DUP1 ISZERO PUSH2 0x338C JUMPI RETURNDATASIZE PUSH1 0x0 DUP1 RETURNDATACOPY RETURNDATASIZE PUSH1 0x0 REVERT JUMPDEST POP POP POP POP PUSH1 0x40 MLOAD RETURNDATASIZE PUSH1 0x1F NOT PUSH1 0x1F DUP3 ADD AND DUP3 ADD DUP1 PUSH1 0x40 MSTORE POP DUP2 ADD SWAP1 PUSH2 0x33B0 SWAP2 SWAP1 PUSH2 0x3D79 JUMP JUMPDEST POP JUMP JUMPDEST PUSH1 0x5 PUSH1 0x0 SWAP1 SLOAD SWAP1 PUSH2 0x100 EXP SWAP1 DIV PUSH20 0xFFFFFFFFFFFFFFFFFFFFFFFFFFFFFFFFFFFFFFFF AND PUSH20 0xFFFFFFFFFFFFFFFFFFFFFFFFFFFFFFFFFFFFFFFF AND CALLER PUSH20 0xFFFFFFFFFFFFFFFFFFFFFFFFFFFFFFFFFFFFFFFF AND EQ PUSH2 0x3443 JUMPI PUSH1 0x40 MLOAD PUSH32 0x8C379A000000000000000000000000000000000000000000000000000000000 DUP2 MSTORE PUSH1 0x4 ADD PUSH2 0x343A SWAP1 PUSH2 0x4B99 JUMP JUMPDEST PUSH1 0x40 MLOAD DUP1 SWAP2 SUB SWAP1 REVERT JUMPDEST PUSH1 0x0 PUSH1 0xD PUSH1 0x0 PUSH2 0x100 EXP DUP2 SLOAD DUP2 PUSH1 0xFF MUL NOT AND SWAP1 DUP4 ISZERO ISZERO MUL OR SWAP1 SSTORE POP JUMP JUMPDEST PUSH1 0x0 PUSH1 0x1 PUSH1 0x2 SLOAD PUSH2 0x3471 SWAP2 SWAP1 PUSH2 0x4827 JUMP JUMPDEST SWAP1 POP PUSH1 0x0 PUSH2 0x347E DUP3 PUSH2 0xD9C JUMP JUMPDEST SWAP1 POP PUSH20 0x0 PUSH4 0x767392B3 DUP3 PUSH1 0x0 PUSH1 0x40 MLOAD DUP4 PUSH4 0xFFFFFFFF AND PUSH1 0xE0 SHL DUP2 MSTORE PUSH1 0x4 ADD PUSH2 0x34BA SWAP3 SWAP2 SWAP1 PUSH2 0x5AA9 JUMP JUMPDEST PUSH1 0x20 PUSH1 0x40 MLOAD DUP1 DUP4 SUB DUP2 DUP7 GAS DELEGATECALL ISZERO DUP1 ISZERO PUSH2 0x34D7 JUMPI RETURNDATASIZE PUSH1 0x0 DUP1 RETURNDATACOPY RETURNDATASIZE PUSH1 0x0 REVERT JUMPDEST POP POP POP POP PUSH1 0x40 MLOAD RETURNDATASIZE PUSH1 0x1F NOT PUSH1 0x1F DUP3 ADD AND DUP3 ADD DUP1 PUSH1 0x40 MSTORE POP DUP2 ADD SWAP1 PUSH2 0x34FB SWAP2 SWAP1 PUSH2 0x3D79 JUMP JUMPDEST POP POP POP JUMP JUMPDEST PUSH1 0xC SLOAD DUP2 JUMP JUMPDEST PUSH2 0x3510 PUSH1 0x64 PUSH2 0x1B7F JUMP JUMPDEST PUSH20 0x0 PUSH4 0xABCD7960 PUSH1 0xA SLOAD PUSH1 0x1 PUSH1 0x40 MLOAD DUP4 PUSH4 0xFFFFFFFF AND PUSH1 0xE0 SHL DUP2 MSTORE PUSH1 0x4 ADD PUSH2 0x354C SWAP3 SWAP2 SWAP1 PUSH2 0x5973 JUMP JUMPDEST PUSH1 0x20 PUSH1 0x40 MLOAD DUP1 DUP4 SUB DUP2 DUP7 GAS DELEGATECALL ISZERO DUP1 ISZERO PUSH2 0x3569 JUMPI RETURNDATASIZE PUSH1 0x0 DUP1 RETURNDATACOPY RETURNDATASIZE PUSH1 0x0 REVERT JUMPDEST POP POP POP POP PUSH1 0x40 MLOAD RETURNDATASIZE PUSH1 0x1F NOT PUSH1 0x1F DUP3 ADD AND DUP3 ADD DUP1 PUSH1 0x40 MSTORE POP DUP2 ADD SWAP1 PUSH2 0x358D SWAP2 SWAP1 PUSH2 0x3D79 JUMP JUMPDEST POP JUMP JUMPDEST PUSH1 0x6 DUP1 SLOAD PUSH2 0x359D SWAP1 PUSH2 0x471F JUMP JUMPDEST DUP1 PUSH1 0x1F ADD PUSH1 0x20 DUP1 SWAP2 DIV MUL PUSH1 0x20 ADD PUSH1 0x40 MLOAD SWAP1 DUP2 ADD PUSH1 0x40 MSTORE DUP1 SWAP3 SWAP2 SWAP1 DUP2 DUP2 MSTORE PUSH1 0x20 ADD DUP3 DUP1 SLOAD PUSH2 0x35C9 SWAP1 PUSH2 0x471F JUMP JUMPDEST DUP1 ISZERO PUSH2 0x3616 JUMPI DUP1 PUSH1 0x1F LT PUSH2 0x35EB JUMPI PUSH2 0x100 DUP1 DUP4 SLOAD DIV MUL DUP4 MSTORE SWAP2 PUSH1 0x20 ADD SWAP2 PUSH2 0x3616 JUMP JUMPDEST DUP3 ADD SWAP2 SWAP1 PUSH1 0x0 MSTORE PUSH1 0x20 PUSH1 0x0 KECCAK256 SWAP1 JUMPDEST DUP2 SLOAD DUP2 MSTORE SWAP1 PUSH1 0x1 ADD SWAP1 PUSH1 0x20 ADD DUP1 DUP4 GT PUSH2 0x35F9 JUMPI DUP3 SWAP1 SUB PUSH1 0x1F AND DUP3 ADD SWAP2 JUMPDEST POP POP POP POP POP DUP2 JUMP JUMPDEST PUSH1 0xD PUSH1 0x0 SWAP1 SLOAD SWAP1 PUSH2 0x100 EXP SWAP1 DIV PUSH1 0xFF AND DUP2 JUMP JUMPDEST PUSH1 0x0 PUSH1 0x2 SLOAD SWAP1 POP PUSH2 0x3676 PUSH1 0x40 MLOAD DUP1 PUSH1 0x40 ADD PUSH1 0x40 MSTORE DUP1 PUSH1 0xE DUP2 MSTORE PUSH1 0x20 ADD PUSH32 0x436F757274796172642043616665000000000000000000000000000000000000 DUP2 MSTORE POP PUSH2 0x1E15 JUMP JUMPDEST POP PUSH1 0x0 PUSH1 0x2 SLOAD SWAP1 POP PUSH20 0x0 PUSH4 0xABCD7960 DUP4 DUP4 PUSH1 0x40 MLOAD DUP4 PUSH4 0xFFFFFFFF AND PUSH1 0xE0 SHL DUP2 MSTORE PUSH1 0x4 ADD PUSH2 0x36B7 SWAP3 SWAP2 SWAP1 PUSH2 0x5B7D JUMP JUMPDEST PUSH1 0x20 PUSH1 0x40 MLOAD DUP1 DUP4 SUB DUP2 DUP7 GAS DELEGATECALL ISZERO DUP1 ISZERO PUSH2 0x36D4 JUMPI RETURNDATASIZE PUSH1 0x0 DUP1 RETURNDATACOPY RETURNDATASIZE PUSH1 0x0 REVERT JUMPDEST POP POP POP POP PUSH1 0x40 MLOAD RETURNDATASIZE PUSH1 0x1F NOT PUSH1 0x1F DUP3 ADD AND DUP3 ADD DUP1 PUSH1 0x40 MSTORE POP DUP2 ADD SWAP1 PUSH2 0x36F8 SWAP2 SWAP1 PUSH2 0x3D79 JUMP JUMPDEST POP POP POP JUMP JUMPDEST PUSH1 0x0 DUP1 PUSH1 0x2 PUSH1 0xA DUP2 SWAP1 SSTORE POP PUSH1 0x0 PUSH1 0x1 SWAP1 POP JUMPDEST PUSH1 0x4 SLOAD DUP2 GT PUSH2 0x37EF JUMPI PUSH1 0x0 PUSH1 0x1 SWAP1 POP PUSH1 0x0 PUSH1 0x8 PUSH1 0x0 PUSH1 0x7 PUSH1 0x0 DUP7 DUP2 MSTORE PUSH1 0x20 ADD SWAP1 DUP2 MSTORE PUSH1 0x20 ADD PUSH1 0x0 KECCAK256 PUSH1 0x1 ADD SLOAD DUP2 MSTORE PUSH1 0x20 ADD SWAP1 DUP2 MSTORE PUSH1 0x20 ADD PUSH1 0x0 KECCAK256 SLOAD GT ISZERO PUSH2 0x3788 JUMPI PUSH1 0x8 PUSH1 0x0 PUSH1 0x7 PUSH1 0x0 DUP6 DUP2 MSTORE PUSH1 0x20 ADD SWAP1 DUP2 MSTORE PUSH1 0x20 ADD PUSH1 0x0 KECCAK256 PUSH1 0x1 ADD SLOAD DUP2 MSTORE PUSH1 0x20 ADD SWAP1 DUP2 MSTORE PUSH1 0x20 ADD PUSH1 0x0 KECCAK256 SLOAD DUP2 PUSH2 0x3785 SWAP2 SWAP1 PUSH2 0x4827 JUMP JUMPDEST SWAP1 POP JUMPDEST DUP1 PUSH1 0x8 PUSH1 0x0 PUSH1 0x7 PUSH1 0x0 DUP7 DUP2 MSTORE PUSH1 0x20 ADD SWAP1 DUP2 MSTORE PUSH1 0x20 ADD PUSH1 0x0 KECCAK256 PUSH1 0x1 ADD SLOAD DUP2 MSTORE PUSH1 0x20 ADD SWAP1 DUP2 MSTORE PUSH1 0x20 ADD PUSH1 0x0 KECCAK256 DUP2 SWAP1 SSTORE POP DUP4 DUP2 GT ISZERO PUSH2 0x37DB JUMPI DUP1 SWAP4 POP PUSH1 0x7 PUSH1 0x0 DUP4 DUP2 MSTORE PUSH1 0x20 ADD SWAP1 DUP2 MSTORE PUSH1 0x20 ADD PUSH1 0x0 KECCAK256 PUSH1 0x1 ADD SLOAD SWAP3 POP JUMPDEST POP DUP1 DUP1 PUSH2 0x37E7 SWAP1 PUSH2 0x477F JUMP JUMPDEST SWAP2 POP POP PUSH2 0x370F JUMP JUMPDEST POP PUSH1 0x0 DUP1 DUP3 DUP2 MSTORE PUSH1 0x20 ADD SWAP1 DUP2 MSTORE PUSH1 0x20 ADD PUSH1 0x0 KECCAK256 PUSH1 0x6 SWAP1 DUP2 PUSH2 0x3810 SWAP2 SWAP1 PUSH2 0x5BE4 JUMP JUMPDEST POP PUSH1 0x0 PUSH1 0x9 PUSH1 0x0 PUSH2 0x100 EXP DUP2 SLOAD DUP2 PUSH1 0xFF MUL NOT AND SWAP1 DUP4 ISZERO ISZERO MUL OR SWAP1 SSTORE POP POP POP JUMP JUMPDEST PUSH1 0x40 MLOAD DUP1 PUSH1 0x40 ADD PUSH1 0x40 MSTORE DUP1 PUSH1 0x0 PUSH20 0xFFFFFFFFFFFFFFFFFFFFFFFFFFFFFFFFFFFFFFFF AND DUP2 MSTORE PUSH1 0x20 ADD PUSH1 0x0 DUP2 MSTORE POP SWAP1 JUMP JUMPDEST PUSH1 0x40 MLOAD DUP1 PUSH1 0x40 ADD PUSH1 0x40 MSTORE DUP1 PUSH1 0x60 DUP2 MSTORE PUSH1 0x20 ADD PUSH1 0x0 ISZERO ISZERO DUP2 MSTORE POP SWAP1 JUMP JUMPDEST PUSH1 0x0 PUSH1 0x40 MLOAD SWAP1 POP SWAP1 JUMP JUMPDEST PUSH1 0x0 DUP1 REVERT JUMPDEST PUSH1 0x0 DUP1 REVERT JUMPDEST PUSH1 0x0 DUP2 SWAP1 POP SWAP2 SWAP1 POP JUMP JUMPDEST PUSH2 0x38A3 DUP2 PUSH2 0x3890 JUMP JUMPDEST DUP2 EQ PUSH2 0x38AE JUMPI PUSH1 0x0 DUP1 REVERT JUMPDEST POP JUMP JUMPDEST PUSH1 0x0 DUP2 CALLDATALOAD SWAP1 POP PUSH2 0x38C0 DUP2 PUSH2 0x389A JUMP JUMPDEST SWAP3 SWAP2 POP POP JUMP JUMPDEST PUSH1 0x0 PUSH1 0x20 DUP3 DUP5 SUB SLT ISZERO PUSH2 0x38DC JUMPI PUSH2 0x38DB PUSH2 0x3886 JUMP JUMPDEST JUMPDEST PUSH1 0x0 PUSH2 0x38EA DUP5 DUP3 DUP6 ADD PUSH2 0x38B1 JUMP JUMPDEST SWAP2 POP POP SWAP3 SWAP2 POP POP JUMP JUMPDEST PUSH1 0x0 DUP2 ISZERO ISZERO SWAP1 POP SWAP2 SWAP1 POP JUMP JUMPDEST PUSH2 0x3908 DUP2 PUSH2 0x38F3 JUMP JUMPDEST DUP3 MSTORE POP POP JUMP JUMPDEST PUSH1 0x0 PUSH1 0x20 DUP3 ADD SWAP1 POP PUSH2 0x3923 PUSH1 0x0 DUP4 ADD DUP5 PUSH2 0x38FF JUMP JUMPDEST SWAP3 SWAP2 POP POP JUMP JUMPDEST PUSH1 0x0 PUSH20 0xFFFFFFFFFFFFFFFFFFFFFFFFFFFFFFFFFFFFFFFF DUP3 AND SWAP1 POP SWAP2 SWAP1 POP JUMP JUMPDEST PUSH1 0x0 PUSH2 0x3954 DUP3 PUSH2 0x3929 JUMP JUMPDEST SWAP1 POP SWAP2 SWAP1 POP JUMP JUMPDEST PUSH2 0x3964 DUP2 PUSH2 0x3949 JUMP JUMPDEST DUP2 EQ PUSH2 0x396F JUMPI PUSH1 0x0 DUP1 REVERT JUMPDEST POP JUMP JUMPDEST PUSH1 0x0 DUP2 CALLDATALOAD SWAP1 POP PUSH2 0x3981 DUP2 PUSH2 0x395B JUMP JUMPDEST SWAP3 SWAP2 POP POP JUMP JUMPDEST PUSH1 0x0 PUSH1 0x20 DUP3 DUP5 SUB SLT ISZERO PUSH2 0x399D JUMPI PUSH2 0x399C PUSH2 0x3886 JUMP JUMPDEST JUMPDEST PUSH1 0x0 PUSH2 0x39AB DUP5 DUP3 DUP6 ADD PUSH2 0x3972 JUMP JUMPDEST SWAP2 POP POP SWAP3 SWAP2 POP POP JUMP JUMPDEST PUSH1 0x0 DUP2 MLOAD SWAP1 POP SWAP2 SWAP1 POP JUMP JUMPDEST PUSH1 0x0 DUP3 DUP3 MSTORE PUSH1 0x20 DUP3 ADD SWAP1 POP SWAP3 SWAP2 POP POP JUMP JUMPDEST PUSH1 0x0 JUMPDEST DUP4 DUP2 LT ISZERO PUSH2 0x39EE JUMPI DUP1 DUP3 ADD MLOAD DUP2 DUP5 ADD MSTORE PUSH1 0x20 DUP2 ADD SWAP1 POP PUSH2 0x39D3 JUMP JUMPDEST PUSH1 0x0 DUP5 DUP5 ADD MSTORE POP POP POP POP JUMP JUMPDEST PUSH1 0x0 PUSH1 0x1F NOT PUSH1 0x1F DUP4 ADD AND SWAP1 POP SWAP2 SWAP1 POP JUMP JUMPDEST PUSH1 0x0 PUSH2 0x3A16 DUP3 PUSH2 0x39B4 JUMP JUMPDEST PUSH2 0x3A20 DUP2 DUP6 PUSH2 0x39BF JUMP JUMPDEST SWAP4 POP PUSH2 0x3A30 DUP2 DUP6 PUSH1 0x20 DUP7 ADD PUSH2 0x39D0 JUMP JUMPDEST PUSH2 0x3A39 DUP2 PUSH2 0x39FA JUMP JUMPDEST DUP5 ADD SWAP2 POP POP SWAP3 SWAP2 POP POP JUMP JUMPDEST PUSH1 0x0 PUSH1 0x40 DUP3 ADD SWAP1 POP DUP2 DUP2 SUB PUSH1 0x0 DUP4 ADD MSTORE PUSH2 0x3A5E DUP2 DUP6 PUSH2 0x3A0B JUMP JUMPDEST SWAP1 POP PUSH2 0x3A6D PUSH1 0x20 DUP4 ADD DUP5 PUSH2 0x38FF JUMP JUMPDEST SWAP4 SWAP3 POP POP POP JUMP JUMPDEST PUSH1 0x0 DUP1 REVERT JUMPDEST PUSH1 0x0 DUP1 REVERT JUMPDEST PUSH32 0x4E487B7100000000000000000000000000000000000000000000000000000000 PUSH1 0x0 MSTORE PUSH1 0x41 PUSH1 0x4 MSTORE PUSH1 0x24 PUSH1 0x0 REVERT JUMPDEST PUSH2 0x3AB6 DUP3 PUSH2 0x39FA JUMP JUMPDEST DUP2 ADD DUP2 DUP2 LT PUSH8 0xFFFFFFFFFFFFFFFF DUP3 GT OR ISZERO PUSH2 0x3AD5 JUMPI PUSH2 0x3AD4 PUSH2 0x3A7E JUMP JUMPDEST JUMPDEST DUP1 PUSH1 0x40 MSTORE POP POP POP JUMP JUMPDEST PUSH1 0x0 PUSH2 0x3AE8 PUSH2 0x387C JUMP JUMPDEST SWAP1 POP PUSH2 0x3AF4 DUP3 DUP3 PUSH2 0x3AAD JUMP JUMPDEST SWAP2 SWAP1 POP JUMP JUMPDEST PUSH1 0x0 PUSH8 0xFFFFFFFFFFFFFFFF DUP3 GT ISZERO PUSH2 0x3B14 JUMPI PUSH2 0x3B13 PUSH2 0x3A7E JUMP JUMPDEST JUMPDEST PUSH2 0x3B1D DUP3 PUSH2 0x39FA JUMP JUMPDEST SWAP1 POP PUSH1 0x20 DUP2 ADD SWAP1 POP SWAP2 SWAP1 POP JUMP JUMPDEST DUP3 DUP2 DUP4 CALLDATACOPY PUSH1 0x0 DUP4 DUP4 ADD MSTORE POP POP POP JUMP JUMPDEST PUSH1 0x0 PUSH2 0x3B4C PUSH2 0x3B47 DUP5 PUSH2 0x3AF9 JUMP JUMPDEST PUSH2 0x3ADE JUMP JUMPDEST SWAP1 POP DUP3 DUP2 MSTORE PUSH1 0x20 DUP2 ADD DUP5 DUP5 DUP5 ADD GT ISZERO PUSH2 0x3B68 JUMPI PUSH2 0x3B67 PUSH2 0x3A79 JUMP JUMPDEST JUMPDEST PUSH2 0x3B73 DUP5 DUP3 DUP6 PUSH2 0x3B2A JUMP JUMPDEST POP SWAP4 SWAP3 POP POP POP JUMP JUMPDEST PUSH1 0x0 DUP3 PUSH1 0x1F DUP4 ADD SLT PUSH2 0x3B90 JUMPI PUSH2 0x3B8F PUSH2 0x3A74 JUMP JUMPDEST JUMPDEST DUP2 CALLDATALOAD PUSH2 0x3BA0 DUP5 DUP3 PUSH1 0x20 DUP7 ADD PUSH2 0x3B39 JUMP JUMPDEST SWAP2 POP POP SWAP3 SWAP2 POP POP JUMP JUMPDEST PUSH1 0x0 DUP1 PUSH1 0x40 DUP4 DUP6 SUB SLT ISZERO PUSH2 0x3BC0 JUMPI PUSH2 0x3BBF PUSH2 0x3886 JUMP JUMPDEST JUMPDEST PUSH1 0x0 PUSH2 0x3BCE DUP6 DUP3 DUP7 ADD PUSH2 0x3972 JUMP JUMPDEST SWAP3 POP POP PUSH1 0x20 DUP4 ADD CALLDATALOAD PUSH8 0xFFFFFFFFFFFFFFFF DUP2 GT ISZERO PUSH2 0x3BEF JUMPI PUSH2 0x3BEE PUSH2 0x388B JUMP JUMPDEST JUMPDEST PUSH2 0x3BFB DUP6 DUP3 DUP7 ADD PUSH2 0x3B7B JUMP JUMPDEST SWAP2 POP POP SWAP3 POP SWAP3 SWAP1 POP JUMP JUMPDEST PUSH2 0x3C0E DUP2 PUSH2 0x3890 JUMP JUMPDEST DUP3 MSTORE POP POP JUMP JUMPDEST PUSH1 0x0 PUSH1 0x20 DUP3 ADD SWAP1 POP PUSH2 0x3C29 PUSH1 0x0 DUP4 ADD DUP5 PUSH2 0x3C05 JUMP JUMPDEST SWAP3 SWAP2 POP POP JUMP JUMPDEST PUSH2 0x3C38 DUP2 PUSH2 0x3949 JUMP JUMPDEST DUP3 MSTORE POP POP JUMP JUMPDEST PUSH1 0x0 PUSH1 0x20 DUP3 ADD SWAP1 POP PUSH2 0x3C53 PUSH1 0x0 DUP4 ADD DUP5 PUSH2 0x3C2F JUMP JUMPDEST SWAP3 SWAP2 POP POP JUMP JUMPDEST PUSH1 0x0 PUSH1 0x40 DUP3 ADD SWAP1 POP PUSH2 0x3C6E PUSH1 0x0 DUP4 ADD DUP6 PUSH2 0x3C2F JUMP JUMPDEST PUSH2 0x3C7B PUSH1 0x20 DUP4 ADD DUP5 PUSH2 0x3C05 JUMP JUMPDEST SWAP4 SWAP3 POP POP POP JUMP JUMPDEST PUSH1 0x0 PUSH1 0x20 DUP3 DUP5 SUB SLT ISZERO PUSH2 0x3C98 JUMPI PUSH2 0x3C97 PUSH2 0x3886 JUMP JUMPDEST JUMPDEST PUSH1 0x0 DUP3 ADD CALLDATALOAD PUSH8 0xFFFFFFFFFFFFFFFF DUP2 GT ISZERO PUSH2 0x3CB6 JUMPI PUSH2 0x3CB5 PUSH2 0x388B JUMP JUMPDEST JUMPDEST PUSH2 0x3CC2 DUP5 DUP3 DUP6 ADD PUSH2 0x3B7B JUMP JUMPDEST SWAP2 POP POP SWAP3 SWAP2 POP POP JUMP JUMPDEST PUSH1 0x0 PUSH1 0x20 DUP3 ADD SWAP1 POP DUP2 DUP2 SUB PUSH1 0x0 DUP4 ADD MSTORE PUSH2 0x3CE5 DUP2 DUP5 PUSH2 0x3A0B JUMP JUMPDEST SWAP1 POP SWAP3 SWAP2 POP POP JUMP JUMPDEST PUSH1 0x0 DUP2 SWAP1 POP SWAP2 SWAP1 POP JUMP JUMPDEST PUSH1 0x0 DUP2 SWAP1 POP SWAP2 SWAP1 POP JUMP JUMPDEST PUSH1 0x0 PUSH2 0x3D1C PUSH2 0x3D17 PUSH2 0x3D12 DUP5 PUSH2 0x3CED JUMP JUMPDEST PUSH2 0x3CF7 JUMP JUMPDEST PUSH2 0x3890 JUMP JUMPDEST SWAP1 POP SWAP2 SWAP1 POP JUMP JUMPDEST PUSH2 0x3D2C DUP2 PUSH2 0x3D01 JUMP JUMPDEST DUP3 MSTORE POP POP JUMP JUMPDEST PUSH1 0x0 PUSH1 0x20 DUP3 ADD SWAP1 POP PUSH2 0x3D47 PUSH1 0x0 DUP4 ADD DUP5 PUSH2 0x3D23 JUMP JUMPDEST SWAP3 SWAP2 POP POP JUMP JUMPDEST PUSH2 0x3D56 DUP2 PUSH2 0x38F3 JUMP JUMPDEST DUP2 EQ PUSH2 0x3D61 JUMPI PUSH1 0x0 DUP1 REVERT JUMPDEST POP JUMP JUMPDEST PUSH1 0x0 DUP2 MLOAD SWAP1 POP PUSH2 0x3D73 DUP2 PUSH2 0x3D4D JUMP JUMPDEST SWAP3 SWAP2 POP POP JUMP JUMPDEST PUSH1 0x0 PUSH1 0x20 DUP3 DUP5 SUB SLT ISZERO PUSH2 0x3D8F JUMPI PUSH2 0x3D8E PUSH2 0x3886 JUMP JUMPDEST JUMPDEST PUSH1 0x0 PUSH2 0x3D9D DUP5 DUP3 DUP6 ADD PUSH2 0x3D64 JUMP JUMPDEST SWAP2 POP POP SWAP3 SWAP2 POP POP JUMP JUMPDEST PUSH1 0x0 DUP2 PUSH1 0xE0 SHR SWAP1 POP SWAP2 SWAP1 POP JUMP JUMPDEST PUSH1 0x0 PUSH1 0x3 RETURNDATASIZE GT ISZERO PUSH2 0x3DD2 JUMPI PUSH1 0x4 PUSH1 0x0 DUP1 RETURNDATACOPY PUSH2 0x3DCF PUSH1 0x0 MLOAD PUSH2 0x3DA6 JUMP JUMPDEST SWAP1 POP JUMPDEST SWAP1 JUMP JUMPDEST PUSH1 0x0 PUSH1 0x44 RETURNDATASIZE LT PUSH2 0x3E62 JUMPI PUSH2 0x3DE7 PUSH2 0x387C JUMP JUMPDEST PUSH1 0x4 RETURNDATASIZE SUB PUSH1 0x4 DUP3 RETURNDATACOPY DUP1 MLOAD RETURNDATASIZE PUSH1 0x24 DUP3 ADD GT PUSH8 0xFFFFFFFFFFFFFFFF DUP3 GT OR ISZERO PUSH2 0x3E0F JUMPI POP POP PUSH2 0x3E62 JUMP JUMPDEST DUP1 DUP3 ADD DUP1 MLOAD PUSH8 0xFFFFFFFFFFFFFFFF DUP2 GT ISZERO PUSH2 0x3E2D JUMPI POP POP POP POP PUSH2 0x3E62 JUMP JUMPDEST DUP1 PUSH1 0x20 DUP4 ADD ADD PUSH1 0x4 RETURNDATASIZE SUB DUP6 ADD DUP2 GT ISZERO PUSH2 0x3E4A JUMPI POP POP POP POP POP PUSH2 0x3E62 JUMP JUMPDEST PUSH2 0x3E59 DUP3 PUSH1 0x20 ADD DUP6 ADD DUP7 PUSH2 0x3AAD JUMP JUMPDEST DUP3 SWAP6 POP POP POP POP POP POP JUMPDEST SWAP1 JUMP JUMPDEST PUSH1 0x0 DUP3 DUP3 MSTORE PUSH1 0x20 DUP3 ADD SWAP1 POP SWAP3 SWAP2 POP POP JUMP JUMPDEST PUSH1 0x0 PUSH2 0x3E81 DUP3 PUSH2 0x39B4 JUMP JUMPDEST PUSH2 0x3E8B DUP2 DUP6 PUSH2 0x3E65 JUMP JUMPDEST SWAP4 POP PUSH2 0x3E9B DUP2 DUP6 PUSH1 0x20 DUP7 ADD PUSH2 0x39D0 JUMP JUMPDEST PUSH2 0x3EA4 DUP2 PUSH2 0x39FA JUMP JUMPDEST DUP5 ADD SWAP2 POP POP SWAP3 SWAP2 POP POP JUMP JUMPDEST PUSH32 0x596F75206861766520616C726561647920766F7465642E000000000000000000 PUSH1 0x0 DUP3 ADD MSTORE POP JUMP JUMPDEST PUSH1 0x0 PUSH2 0x3EE5 PUSH1 0x17 DUP4 PUSH2 0x3E65 JUMP JUMPDEST SWAP2 POP PUSH2 0x3EF0 DUP3 PUSH2 0x3EAF JUMP JUMPDEST PUSH1 0x20 DUP3 ADD SWAP1 POP SWAP2 SWAP1 POP JUMP JUMPDEST PUSH32 0x4661696C6564207769746820756E657870656374656420726561736F6E000000 PUSH1 0x0 DUP3 ADD MSTORE POP JUMP JUMPDEST PUSH1 0x0 PUSH2 0x3F31 PUSH1 0x1D DUP4 PUSH2 0x3E65 JUMP JUMPDEST SWAP2 POP PUSH2 0x3F3C DUP3 PUSH2 0x3EFB JUMP JUMPDEST PUSH1 0x20 DUP3 ADD SWAP1 POP SWAP2 SWAP1 POP JUMP JUMPDEST PUSH1 0x0 PUSH1 0x60 DUP3 ADD SWAP1 POP DUP2 DUP2 SUB PUSH1 0x0 DUP4 ADD MSTORE PUSH2 0x3F61 DUP2 DUP5 PUSH2 0x3E76 JUMP JUMPDEST SWAP1 POP DUP2 DUP2 SUB PUSH1 0x20 DUP4 ADD MSTORE PUSH2 0x3F74 DUP2 PUSH2 0x3ED8 JUMP JUMPDEST SWAP1 POP DUP2 DUP2 SUB PUSH1 0x40 DUP4 ADD MSTORE PUSH2 0x3F87 DUP2 PUSH2 0x3F24 JUMP JUMPDEST SWAP1 POP SWAP3 SWAP2 POP POP JUMP JUMPDEST PUSH1 0x0 DUP1 PUSH1 0x23 RETURNDATASIZE GT ISZERO PUSH2 0x3FAC JUMPI PUSH1 0x20 PUSH1 0x4 PUSH1 0x0 RETURNDATACOPY PUSH1 0x1 SWAP2 POP PUSH1 0x0 MLOAD SWAP1 POP JUMPDEST SWAP1 SWAP2 JUMP JUMPDEST PUSH2 0x3FB9 DUP2 PUSH2 0x38F3 JUMP JUMPDEST DUP3 MSTORE POP POP JUMP JUMPDEST PUSH32 0x4661696C656420756E65787065637465646C792077697468206572726F722063 PUSH1 0x0 DUP3 ADD MSTORE PUSH32 0x6F64650000000000000000000000000000000000000000000000000000000000 PUSH1 0x20 DUP3 ADD MSTORE POP JUMP JUMPDEST PUSH1 0x0 PUSH2 0x401B PUSH1 0x23 DUP4 PUSH2 0x3E65 JUMP JUMPDEST SWAP2 POP PUSH2 0x4026 DUP3 PUSH2 0x3FBF JUMP JUMPDEST PUSH1 0x40 DUP3 ADD SWAP1 POP SWAP2 SWAP1 POP JUMP JUMPDEST PUSH1 0x0 PUSH1 0x40 DUP3 ADD SWAP1 POP PUSH2 0x4046 PUSH1 0x0 DUP4 ADD DUP5 PUSH2 0x3FB0 JUMP JUMPDEST DUP2 DUP2 SUB PUSH1 0x20 DUP4 ADD MSTORE PUSH2 0x4057 DUP2 PUSH2 0x400E JUMP JUMPDEST SWAP1 POP SWAP3 SWAP2 POP POP JUMP JUMPDEST PUSH32 0x4661696C656420756E65787065637465646C7900000000000000000000000000 PUSH1 0x0 DUP3 ADD MSTORE POP JUMP JUMPDEST PUSH1 0x0 PUSH2 0x4095 PUSH1 0x13 DUP4 PUSH2 0x3E65 JUMP JUMPDEST SWAP2 POP PUSH2 0x40A0 DUP3 PUSH2 0x405F JUMP JUMPDEST PUSH1 0x20 DUP3 ADD SWAP1 POP SWAP2 SWAP1 POP JUMP JUMPDEST PUSH1 0x0 PUSH1 0x40 DUP3 ADD SWAP1 POP PUSH2 0x40C0 PUSH1 0x0 DUP4 ADD DUP5 PUSH2 0x3FB0 JUMP JUMPDEST DUP2 DUP2 SUB PUSH1 0x20 DUP4 ADD MSTORE PUSH2 0x40D1 DUP2 PUSH2 0x4088 JUMP JUMPDEST SWAP1 POP SWAP3 SWAP2 POP POP JUMP JUMPDEST PUSH32 0x5365636F6E6420766F74652073686F756C64206E6F7420626520737563636573 PUSH1 0x0 DUP3 ADD MSTORE PUSH32 0x7366756C00000000000000000000000000000000000000000000000000000000 PUSH1 0x20 DUP3 ADD MSTORE POP JUMP JUMPDEST PUSH1 0x0 PUSH2 0x4135 PUSH1 0x24 DUP4 PUSH2 0x3E65 JUMP JUMPDEST SWAP2 POP PUSH2 0x4140 DUP3 PUSH2 0x40D9 JUMP JUMPDEST PUSH1 0x40 DUP3 ADD SWAP1 POP SWAP2 SWAP1 POP JUMP JUMPDEST PUSH1 0x0 PUSH1 0x60 DUP3 ADD SWAP1 POP PUSH2 0x4160 PUSH1 0x0 DUP4 ADD DUP6 PUSH2 0x3FB0 JUMP JUMPDEST PUSH2 0x416D PUSH1 0x20 DUP4 ADD DUP5 PUSH2 0x3FB0 JUMP JUMPDEST DUP2 DUP2 SUB PUSH1 0x40 DUP4 ADD MSTORE PUSH2 0x417E DUP2 PUSH2 0x4128 JUMP JUMPDEST SWAP1 POP SWAP4 SWAP3 POP POP POP JUMP JUMPDEST PUSH2 0x4190 DUP2 PUSH2 0x3890 JUMP JUMPDEST DUP3 MSTORE POP POP JUMP JUMPDEST PUSH1 0x0 DUP2 SWAP1 POP SWAP2 SWAP1 POP JUMP JUMPDEST PUSH1 0x0 PUSH2 0x41BB PUSH2 0x41B6 PUSH2 0x41B1 DUP5 PUSH2 0x4196 JUMP JUMPDEST PUSH2 0x3CF7 JUMP JUMPDEST PUSH2 0x3890 JUMP JUMPDEST SWAP1 POP SWAP2 SWAP1 POP JUMP JUMPDEST PUSH2 0x41CB DUP2 PUSH2 0x41A0 JUMP JUMPDEST DUP3 MSTORE POP POP JUMP JUMPDEST PUSH32 0x53686F756C6420626520696E20766F746520636C6F7365207068617365000000 PUSH1 0x0 DUP3 ADD MSTORE POP JUMP JUMPDEST PUSH1 0x0 PUSH2 0x4207 PUSH1 0x1D DUP4 PUSH2 0x3E65 JUMP JUMPDEST SWAP2 POP PUSH2 0x4212 DUP3 PUSH2 0x41D1 JUMP JUMPDEST PUSH1 0x20 DUP3 ADD SWAP1 POP SWAP2 SWAP1 POP JUMP JUMPDEST PUSH1 0x0 PUSH1 0x60 DUP3 ADD SWAP1 POP PUSH2 0x4232 PUSH1 0x0 DUP4 ADD DUP6 PUSH2 0x4187 JUMP JUMPDEST PUSH2 0x423F PUSH1 0x20 DUP4 ADD DUP5 PUSH2 0x41C2 JUMP JUMPDEST DUP2 DUP2 SUB PUSH1 0x40 DUP4 ADD MSTORE PUSH2 0x4250 DUP2 PUSH2 0x41FA JUMP JUMPDEST SWAP1 POP SWAP4 SWAP3 POP POP POP JUMP JUMPDEST PUSH1 0x0 DUP2 SWAP1 POP SWAP2 SWAP1 POP JUMP JUMPDEST PUSH1 0x0 PUSH2 0x427E PUSH2 0x4279 PUSH2 0x4274 DUP5 PUSH2 0x4259 JUMP JUMPDEST PUSH2 0x3CF7 JUMP JUMPDEST PUSH2 0x3890 JUMP JUMPDEST SWAP1 POP SWAP2 SWAP1 POP JUMP JUMPDEST PUSH2 0x428E DUP2 PUSH2 0x4263 JUMP JUMPDEST DUP3 MSTORE POP POP JUMP JUMPDEST PUSH32 0x53686F756C64207374696C6C20626520657175616C20746F2035000000000000 PUSH1 0x0 DUP3 ADD MSTORE POP JUMP JUMPDEST PUSH1 0x0 PUSH2 0x42CA PUSH1 0x1A DUP4 PUSH2 0x3E65 JUMP JUMPDEST SWAP2 POP PUSH2 0x42D5 DUP3 PUSH2 0x4294 JUMP JUMPDEST PUSH1 0x20 DUP3 ADD SWAP1 POP SWAP2 SWAP1 POP JUMP JUMPDEST PUSH1 0x0 PUSH1 0x60 DUP3 ADD SWAP1 POP PUSH2 0x42F5 PUSH1 0x0 DUP4 ADD DUP6 PUSH2 0x4187 JUMP JUMPDEST PUSH2 0x4302 PUSH1 0x20 DUP4 ADD DUP5 PUSH2 0x4285 JUMP JUMPDEST DUP2 DUP2 SUB PUSH1 0x40 DUP4 ADD MSTORE PUSH2 0x4313 DUP2 PUSH2 0x42BD JUMP JUMPDEST SWAP1 POP SWAP4 SWAP3 POP POP POP JUMP JUMPDEST PUSH32 0x53686F756C64207374696C6C20626520657175616C20746F2032000000000000 PUSH1 0x0 DUP3 ADD MSTORE POP JUMP JUMPDEST PUSH1 0x0 PUSH2 0x4352 PUSH1 0x1A DUP4 PUSH2 0x3E65 JUMP JUMPDEST SWAP2 POP PUSH2 0x435D DUP3 PUSH2 0x431C JUMP JUMPDEST PUSH1 0x20 DUP3 ADD SWAP1 POP SWAP2 SWAP1 POP JUMP JUMPDEST PUSH1 0x0 PUSH1 0x60 DUP3 ADD SWAP1 POP PUSH2 0x437D PUSH1 0x0 DUP4 ADD DUP6 PUSH2 0x4187 JUMP JUMPDEST PUSH2 0x438A PUSH1 0x20 DUP4 ADD DUP5 PUSH2 0x41C2 JUMP JUMPDEST DUP2 DUP2 SUB PUSH1 0x40 DUP4 ADD MSTORE PUSH2 0x439B DUP2 PUSH2 0x4345 JUMP JUMPDEST SWAP1 POP SWAP4 SWAP3 POP POP POP JUMP JUMPDEST PUSH32 0x43616E206F6E6C7920626520657865637574656420627920746865206D616E61 PUSH1 0x0 DUP3 ADD MSTORE PUSH32 0x6765720000000000000000000000000000000000000000000000000000000000 PUSH1 0x20 DUP3 ADD MSTORE POP JUMP JUMPDEST PUSH1 0x0 PUSH2 0x4400 PUSH1 0x23 DUP4 PUSH2 0x3E65 JUMP JUMPDEST SWAP2 POP PUSH2 0x440B DUP3 PUSH2 0x43A4 JUMP JUMPDEST PUSH1 0x40 DUP3 ADD SWAP1 POP SWAP2 SWAP1 POP JUMP JUMPDEST PUSH1 0x0 PUSH1 0x60 DUP3 ADD SWAP1 POP DUP2 DUP2 SUB PUSH1 0x0 DUP4 ADD MSTORE PUSH2 0x4430 DUP2 DUP5 PUSH2 0x3E76 JUMP JUMPDEST SWAP1 POP DUP2 DUP2 SUB PUSH1 0x20 DUP4 ADD MSTORE PUSH2 0x4443 DUP2 PUSH2 0x43F3 JUMP JUMPDEST SWAP1 POP DUP2 DUP2 SUB PUSH1 0x40 DUP4 ADD MSTORE PUSH2 0x4456 DUP2 PUSH2 0x3F24 JUMP JUMPDEST SWAP1 POP SWAP3 SWAP2 POP POP JUMP JUMPDEST PUSH32 0x4661696C656420756E65787065637465642077697468206572726F7220636F64 PUSH1 0x0 DUP3 ADD MSTORE PUSH32 0x6500000000000000000000000000000000000000000000000000000000000000 PUSH1 0x20 DUP3 ADD MSTORE POP JUMP JUMPDEST PUSH1 0x0 PUSH2 0x44BA PUSH1 0x21 DUP4 PUSH2 0x3E65 JUMP JUMPDEST SWAP2 POP PUSH2 0x44C5 DUP3 PUSH2 0x445E JUMP JUMPDEST PUSH1 0x40 DUP3 ADD SWAP1 POP SWAP2 SWAP1 POP JUMP JUMPDEST PUSH1 0x0 PUSH1 0x40 DUP3 ADD SWAP1 POP PUSH2 0x44E5 PUSH1 0x0 DUP4 ADD DUP5 PUSH2 0x3FB0 JUMP JUMPDEST DUP2 DUP2 SUB PUSH1 0x20 DUP4 ADD MSTORE PUSH2 0x44F6 DUP2 PUSH2 0x44AD JUMP JUMPDEST SWAP1 POP SWAP3 SWAP2 POP POP JUMP JUMPDEST PUSH32 0x4661696C656420756E6578706563746564000000000000000000000000000000 PUSH1 0x0 DUP3 ADD MSTORE POP JUMP JUMPDEST PUSH1 0x0 PUSH2 0x4534 PUSH1 0x11 DUP4 PUSH2 0x3E65 JUMP JUMPDEST SWAP2 POP PUSH2 0x453F DUP3 PUSH2 0x44FE JUMP JUMPDEST PUSH1 0x20 DUP3 ADD SWAP1 POP SWAP2 SWAP1 POP JUMP JUMPDEST PUSH1 0x0 PUSH1 0x40 DUP3 ADD SWAP1 POP PUSH2 0x455F PUSH1 0x0 DUP4 ADD DUP5 PUSH2 0x3FB0 JUMP JUMPDEST DUP2 DUP2 SUB PUSH1 0x20 DUP4 ADD MSTORE PUSH2 0x4570 DUP2 PUSH2 0x4527 JUMP JUMPDEST SWAP1 POP SWAP3 SWAP2 POP POP JUMP JUMPDEST PUSH32 0x4D6574686F6420657865637574696F6E20646964206E6F74206661696C000000 PUSH1 0x0 DUP3 ADD MSTORE POP JUMP JUMPDEST PUSH1 0x0 PUSH2 0x45AE PUSH1 0x1D DUP4 PUSH2 0x3E65 JUMP JUMPDEST SWAP2 POP PUSH2 0x45B9 DUP3 PUSH2 0x4578 JUMP JUMPDEST PUSH1 0x20 DUP3 ADD SWAP1 POP SWAP2 SWAP1 POP JUMP JUMPDEST PUSH1 0x0 PUSH1 0x40 DUP3 ADD SWAP1 POP PUSH2 0x45D9 PUSH1 0x0 DUP4 ADD DUP5 PUSH2 0x3FB0 JUMP JUMPDEST DUP2 DUP2 SUB PUSH1 0x20 DUP4 ADD MSTORE PUSH2 0x45EA DUP2 PUSH2 0x45A1 JUMP JUMPDEST SWAP1 POP SWAP3 SWAP2 POP POP JUMP JUMPDEST PUSH32 0x43616E20766F7465206F6E6C79207768696C6520766F74696E67206973206F70 PUSH1 0x0 DUP3 ADD MSTORE PUSH32 0x656E2E0000000000000000000000000000000000000000000000000000000000 PUSH1 0x20 DUP3 ADD MSTORE POP JUMP JUMPDEST PUSH1 0x0 PUSH2 0x464E PUSH1 0x23 DUP4 PUSH2 0x39BF JUMP JUMPDEST SWAP2 POP PUSH2 0x4659 DUP3 PUSH2 0x45F2 JUMP JUMPDEST PUSH1 0x40 DUP3 ADD SWAP1 POP SWAP2 SWAP1 POP JUMP JUMPDEST PUSH1 0x0 PUSH1 0x20 DUP3 ADD SWAP1 POP DUP2 DUP2 SUB PUSH1 0x0 DUP4 ADD MSTORE PUSH2 0x467D DUP2 PUSH2 0x4641 JUMP JUMPDEST SWAP1 POP SWAP2 SWAP1 POP JUMP JUMPDEST PUSH32 0x54686520636F6E7472616374206E6565647320746F206265206163746976652E PUSH1 0x0 DUP3 ADD MSTORE POP JUMP JUMPDEST PUSH1 0x0 PUSH2 0x46BA PUSH1 0x20 DUP4 PUSH2 0x39BF JUMP JUMPDEST SWAP2 POP PUSH2 0x46C5 DUP3 PUSH2 0x4684 JUMP JUMPDEST PUSH1 0x20 DUP3 ADD SWAP1 POP SWAP2 SWAP1 POP JUMP JUMPDEST PUSH1 0x0 PUSH1 0x20 DUP3 ADD SWAP1 POP DUP2 DUP2 SUB PUSH1 0x0 DUP4 ADD MSTORE PUSH2 0x46E9 DUP2 PUSH2 0x46AD JUMP JUMPDEST SWAP1 POP SWAP2 SWAP1 POP JUMP JUMPDEST PUSH32 0x4E487B7100000000000000000000000000000000000000000000000000000000 PUSH1 0x0 MSTORE PUSH1 0x22 PUSH1 0x4 MSTORE PUSH1 0x24 PUSH1 0x0 REVERT JUMPDEST PUSH1 0x0 PUSH1 0x2 DUP3 DIV SWAP1 POP PUSH1 0x1 DUP3 AND DUP1 PUSH2 0x4737 JUMPI PUSH1 0x7F DUP3 AND SWAP2 POP JUMPDEST PUSH1 0x20 DUP3 LT DUP2 SUB PUSH2 0x474A JUMPI PUSH2 0x4749 PUSH2 0x46F0 JUMP JUMPDEST JUMPDEST POP SWAP2 SWAP1 POP JUMP JUMPDEST PUSH32 0x4E487B7100000000000000000000000000000000000000000000000000000000 PUSH1 0x0 MSTORE PUSH1 0x11 PUSH1 0x4 MSTORE PUSH1 0x24 PUSH1 0x0 REVERT JUMPDEST PUSH1 0x0 PUSH2 0x478A DUP3 PUSH2 0x3890 JUMP JUMPDEST SWAP2 POP PUSH32 0xFFFFFFFFFFFFFFFFFFFFFFFFFFFFFFFFFFFFFFFFFFFFFFFFFFFFFFFFFFFFFFFF DUP3 SUB PUSH2 0x47BC JUMPI PUSH2 0x47BB PUSH2 0x4750 JUMP JUMPDEST JUMPDEST PUSH1 0x1 DUP3 ADD SWAP1 POP SWAP2 SWAP1 POP JUMP JUMPDEST PUSH32 0x4E487B7100000000000000000000000000000000000000000000000000000000 PUSH1 0x0 MSTORE PUSH1 0x12 PUSH1 0x4 MSTORE PUSH1 0x24 PUSH1 0x0 REVERT JUMPDEST PUSH1 0x0 PUSH2 0x4801 DUP3 PUSH2 0x3890 JUMP JUMPDEST SWAP2 POP PUSH2 0x480C DUP4 PUSH2 0x3890 JUMP JUMPDEST SWAP3 POP DUP3 PUSH2 0x481C JUMPI PUSH2 0x481B PUSH2 0x47C7 JUMP JUMPDEST JUMPDEST DUP3 DUP3 DIV SWAP1 POP SWAP3 SWAP2 POP POP JUMP JUMPDEST PUSH1 0x0 PUSH2 0x4832 DUP3 PUSH2 0x3890 JUMP JUMPDEST SWAP2 POP PUSH2 0x483D DUP4 PUSH2 0x3890 JUMP JUMPDEST SWAP3 POP DUP3 DUP3 ADD SWAP1 POP DUP1 DUP3 GT ISZERO PUSH2 0x4855 JUMPI PUSH2 0x4854 PUSH2 0x4750 JUMP JUMPDEST JUMPDEST SWAP3 SWAP2 POP POP JUMP JUMPDEST PUSH2 0x4864 DUP2 PUSH2 0x3D01 JUMP JUMPDEST DUP3 MSTORE POP POP JUMP JUMPDEST PUSH32 0x53686F756C6420626520657175616C20746F2031000000000000000000000000 PUSH1 0x0 DUP3 ADD MSTORE POP JUMP JUMPDEST PUSH1 0x0 PUSH2 0x48A0 PUSH1 0x14 DUP4 PUSH2 0x3E65 JUMP JUMPDEST SWAP2 POP PUSH2 0x48AB DUP3 PUSH2 0x486A JUMP JUMPDEST PUSH1 0x20 DUP3 ADD SWAP1 POP SWAP2 SWAP1 POP JUMP JUMPDEST PUSH1 0x0 PUSH1 0x60 DUP3 ADD SWAP1 POP PUSH2 0x48CB PUSH1 0x0 DUP4 ADD DUP6 PUSH2 0x4187 JUMP JUMPDEST PUSH2 0x48D8 PUSH1 0x20 DUP4 ADD DUP5 PUSH2 0x485B JUMP JUMPDEST DUP2 DUP2 SUB PUSH1 0x40 DUP4 ADD MSTORE PUSH2 0x48E9 DUP2 PUSH2 0x4893 JUMP JUMPDEST SWAP1 POP SWAP4 SWAP3 POP POP POP JUMP JUMPDEST PUSH32 0x53686F756C6420626520657175616C20746F2032000000000000000000000000 PUSH1 0x0 DUP3 ADD MSTORE POP JUMP JUMPDEST PUSH1 0x0 PUSH2 0x4928 PUSH1 0x14 DUP4 PUSH2 0x3E65 JUMP JUMPDEST SWAP2 POP PUSH2 0x4933 DUP3 PUSH2 0x48F2 JUMP JUMPDEST PUSH1 0x20 DUP3 ADD SWAP1 POP SWAP2 SWAP1 POP JUMP JUMPDEST PUSH1 0x0 PUSH1 0x60 DUP3 ADD SWAP1 POP PUSH2 0x4953 PUSH1 0x0 DUP4 ADD DUP6 PUSH2 0x4187 JUMP JUMPDEST PUSH2 0x4960 PUSH1 0x20 DUP4 ADD DUP5 PUSH2 0x41C2 JUMP JUMPDEST DUP2 DUP2 SUB PUSH1 0x40 DUP4 ADD MSTORE PUSH2 0x4971 DUP2 PUSH2 0x491B JUMP JUMPDEST SWAP1 POP SWAP4 SWAP3 POP POP POP JUMP JUMPDEST PUSH32 0x566F74696E6720726573756C742073686F756C64206265207472756500000000 PUSH1 0x0 DUP3 ADD MSTORE POP JUMP JUMPDEST PUSH1 0x0 PUSH2 0x49B0 PUSH1 0x1C DUP4 PUSH2 0x3E65 JUMP JUMPDEST SWAP2 POP PUSH2 0x49BB DUP3 PUSH2 0x497A JUMP JUMPDEST PUSH1 0x20 DUP3 ADD SWAP1 POP SWAP2 SWAP1 POP JUMP JUMPDEST PUSH1 0x0 PUSH1 0x40 DUP3 ADD SWAP1 POP PUSH2 0x49DB PUSH1 0x0 DUP4 ADD DUP5 PUSH2 0x3FB0 JUMP JUMPDEST DUP2 DUP2 SUB PUSH1 0x20 DUP4 ADD MSTORE PUSH2 0x49EC DUP2 PUSH2 0x49A3 JUMP JUMPDEST SWAP1 POP SWAP3 SWAP2 POP POP JUMP JUMPDEST PUSH32 0x54686520636F756E74206F6620667269656E64732073686F756C642072656D61 PUSH1 0x0 DUP3 ADD MSTORE PUSH32 0x696E207468652073616D6520616674657220616464696E67207468652073616D PUSH1 0x20 DUP3 ADD MSTORE PUSH32 0x6520667269656E6420616761696E2E0000000000000000000000000000000000 PUSH1 0x40 DUP3 ADD MSTORE POP JUMP JUMPDEST PUSH1 0x0 PUSH2 0x4A76 PUSH1 0x4F DUP4 PUSH2 0x3E65 JUMP JUMPDEST SWAP2 POP PUSH2 0x4A81 DUP3 PUSH2 0x49F4 JUMP JUMPDEST PUSH1 0x60 DUP3 ADD SWAP1 POP SWAP2 SWAP1 POP JUMP JUMPDEST PUSH1 0x0 PUSH1 0x60 DUP3 ADD SWAP1 POP PUSH2 0x4AA1 PUSH1 0x0 DUP4 ADD DUP6 PUSH2 0x4187 JUMP JUMPDEST PUSH2 0x4AAE PUSH1 0x20 DUP4 ADD DUP5 PUSH2 0x4187 JUMP JUMPDEST DUP2 DUP2 SUB PUSH1 0x40 DUP4 ADD MSTORE PUSH2 0x4ABF DUP2 PUSH2 0x4A69 JUMP JUMPDEST SWAP1 POP SWAP4 SWAP3 POP POP POP JUMP JUMPDEST PUSH32 0x436F6E74726163742073686F756C6420626520696E6163746976652061667465 PUSH1 0x0 DUP3 ADD MSTORE PUSH32 0x7220646561637469766174696F6E206279206D616E6167657200000000000000 PUSH1 0x20 DUP3 ADD MSTORE POP JUMP JUMPDEST PUSH1 0x0 PUSH2 0x4B24 PUSH1 0x39 DUP4 PUSH2 0x3E65 JUMP JUMPDEST SWAP2 POP PUSH2 0x4B2F DUP3 PUSH2 0x4AC8 JUMP JUMPDEST PUSH1 0x40 DUP3 ADD SWAP1 POP SWAP2 SWAP1 POP JUMP JUMPDEST PUSH1 0x0 PUSH1 0x60 DUP3 ADD SWAP1 POP PUSH2 0x4B4F PUSH1 0x0 DUP4 ADD DUP6 PUSH2 0x3FB0 JUMP JUMPDEST PUSH2 0x4B5C PUSH1 0x20 DUP4 ADD DUP5 PUSH2 0x3FB0 JUMP JUMPDEST DUP2 DUP2 SUB PUSH1 0x40 DUP4 ADD MSTORE PUSH2 0x4B6D DUP2 PUSH2 0x4B17 JUMP JUMPDEST SWAP1 POP SWAP4 SWAP3 POP POP POP JUMP JUMPDEST PUSH1 0x0 PUSH2 0x4B83 PUSH1 0x23 DUP4 PUSH2 0x39BF JUMP JUMPDEST SWAP2 POP PUSH2 0x4B8E DUP3 PUSH2 0x43A4 JUMP JUMPDEST PUSH1 0x40 DUP3 ADD SWAP1 POP SWAP2 SWAP1 POP JUMP JUMPDEST PUSH1 0x0 PUSH1 0x20 DUP3 ADD SWAP1 POP DUP2 DUP2 SUB PUSH1 0x0 DUP4 ADD MSTORE PUSH2 0x4BB2 DUP2 PUSH2 0x4B76 JUMP JUMPDEST SWAP1 POP SWAP2 SWAP1 POP JUMP JUMPDEST PUSH1 0x0 DUP2 SWAP1 POP DUP2 PUSH1 0x0 MSTORE PUSH1 0x20 PUSH1 0x0 KECCAK256 SWAP1 POP SWAP2 SWAP1 POP JUMP JUMPDEST PUSH1 0x0 PUSH1 0x20 PUSH1 0x1F DUP4 ADD DIV SWAP1 POP SWAP2 SWAP1 POP JUMP JUMPDEST PUSH1 0x0 DUP3 DUP3 SHL SWAP1 POP SWAP3 SWAP2 POP POP JUMP JUMPDEST PUSH1 0x0 PUSH1 0x8 DUP4 MUL PUSH2 0x4C1B PUSH32 0xFFFFFFFFFFFFFFFFFFFFFFFFFFFFFFFFFFFFFFFFFFFFFFFFFFFFFFFFFFFFFFFF DUP3 PUSH2 0x4BDE JUMP JUMPDEST PUSH2 0x4C25 DUP7 DUP4 PUSH2 0x4BDE JUMP JUMPDEST SWAP6 POP DUP1 NOT DUP5 AND SWAP4 POP DUP1 DUP7 AND DUP5 OR SWAP3 POP POP POP SWAP4 SWAP3 POP POP POP JUMP JUMPDEST PUSH1 0x0 PUSH2 0x4C58 PUSH2 0x4C53 PUSH2 0x4C4E DUP5 PUSH2 0x3890 JUMP JUMPDEST PUSH2 0x3CF7 JUMP JUMPDEST PUSH2 0x3890 JUMP JUMPDEST SWAP1 POP SWAP2 SWAP1 POP JUMP JUMPDEST PUSH1 0x0 DUP2 SWAP1 POP SWAP2 SWAP1 POP JUMP JUMPDEST PUSH2 0x4C72 DUP4 PUSH2 0x4C3D JUMP JUMPDEST PUSH2 0x4C86 PUSH2 0x4C7E DUP3 PUSH2 0x4C5F JUMP JUMPDEST DUP5 DUP5 SLOAD PUSH2 0x4BEB JUMP JUMPDEST DUP3 SSTORE POP POP POP POP JUMP JUMPDEST PUSH1 0x0 SWAP1 JUMP JUMPDEST PUSH2 0x4C9B PUSH2 0x4C8E JUMP JUMPDEST PUSH2 0x4CA6 DUP2 DUP5 DUP5 PUSH2 0x4C69 JUMP JUMPDEST POP POP POP JUMP JUMPDEST JUMPDEST DUP2 DUP2 LT ISZERO PUSH2 0x4CCA JUMPI PUSH2 0x4CBF PUSH1 0x0 DUP3 PUSH2 0x4C93 JUMP JUMPDEST PUSH1 0x1 DUP2 ADD SWAP1 POP PUSH2 0x4CAC JUMP JUMPDEST POP POP JUMP JUMPDEST PUSH1 0x1F DUP3 GT ISZERO PUSH2 0x4D0F JUMPI PUSH2 0x4CE0 DUP2 PUSH2 0x4BB9 JUMP JUMPDEST PUSH2 0x4CE9 DUP5 PUSH2 0x4BCE JUMP JUMPDEST DUP2 ADD PUSH1 0x20 DUP6 LT ISZERO PUSH2 0x4CF8 JUMPI DUP2 SWAP1 POP JUMPDEST PUSH2 0x4D0C PUSH2 0x4D04 DUP6 PUSH2 0x4BCE JUMP JUMPDEST DUP4 ADD DUP3 PUSH2 0x4CAB JUMP JUMPDEST POP POP JUMPDEST POP POP POP JUMP JUMPDEST PUSH1 0x0 DUP3 DUP3 SHR SWAP1 POP SWAP3 SWAP2 POP POP JUMP JUMPDEST PUSH1 0x0 PUSH2 0x4D32 PUSH1 0x0 NOT DUP5 PUSH1 0x8 MUL PUSH2 0x4D14 JUMP JUMPDEST NOT DUP1 DUP4 AND SWAP2 POP POP SWAP3 SWAP2 POP POP JUMP JUMPDEST PUSH1 0x0 PUSH2 0x4D4B DUP4 DUP4 PUSH2 0x4D21 JUMP JUMPDEST SWAP2 POP DUP3 PUSH1 0x2 MUL DUP3 OR SWAP1 POP SWAP3 SWAP2 POP POP JUMP JUMPDEST PUSH2 0x4D64 DUP3 PUSH2 0x39B4 JUMP JUMPDEST PUSH8 0xFFFFFFFFFFFFFFFF DUP2 GT ISZERO PUSH2 0x4D7D JUMPI PUSH2 0x4D7C PUSH2 0x3A7E JUMP JUMPDEST JUMPDEST PUSH2 0x4D87 DUP3 SLOAD PUSH2 0x471F JUMP JUMPDEST PUSH2 0x4D92 DUP3 DUP3 DUP6 PUSH2 0x4CCE JUMP JUMPDEST PUSH1 0x0 PUSH1 0x20 SWAP1 POP PUSH1 0x1F DUP4 GT PUSH1 0x1 DUP2 EQ PUSH2 0x4DC5 JUMPI PUSH1 0x0 DUP5 ISZERO PUSH2 0x4DB3 JUMPI DUP3 DUP8 ADD MLOAD SWAP1 POP JUMPDEST PUSH2 0x4DBD DUP6 DUP3 PUSH2 0x4D3F JUMP JUMPDEST DUP7 SSTORE POP PUSH2 0x4E25 JUMP JUMPDEST PUSH1 0x1F NOT DUP5 AND PUSH2 0x4DD3 DUP7 PUSH2 0x4BB9 JUMP JUMPDEST PUSH1 0x0 JUMPDEST DUP3 DUP2 LT ISZERO PUSH2 0x4DFB JUMPI DUP5 DUP10 ADD MLOAD DUP3 SSTORE PUSH1 0x1 DUP3 ADD SWAP2 POP PUSH1 0x20 DUP6 ADD SWAP5 POP PUSH1 0x20 DUP2 ADD SWAP1 POP PUSH2 0x4DD6 JUMP JUMPDEST DUP7 DUP4 LT ISZERO PUSH2 0x4E18 JUMPI DUP5 DUP10 ADD MLOAD PUSH2 0x4E14 PUSH1 0x1F DUP10 AND DUP3 PUSH2 0x4D21 JUMP JUMPDEST DUP4 SSTORE POP JUMPDEST PUSH1 0x1 PUSH1 0x2 DUP9 MUL ADD DUP9 SSTORE POP POP POP JUMPDEST POP POP POP POP POP POP JUMP JUMPDEST PUSH32 0x41746F6D69632043616665000000000000000000000000000000000000000000 PUSH1 0x0 DUP3 ADD MSTORE POP JUMP JUMPDEST PUSH1 0x0 PUSH2 0x4E63 PUSH1 0xB DUP4 PUSH2 0x39BF JUMP JUMPDEST SWAP2 POP PUSH2 0x4E6E DUP3 PUSH2 0x4E2D JUMP JUMPDEST PUSH1 0x20 DUP3 ADD SWAP1 POP SWAP2 SWAP1 POP JUMP JUMPDEST PUSH1 0x0 PUSH1 0x20 DUP3 ADD SWAP1 POP DUP2 DUP2 SUB PUSH1 0x0 DUP4 ADD MSTORE PUSH2 0x4E92 DUP2 PUSH2 0x4E56 JUMP JUMPDEST SWAP1 POP SWAP2 SWAP1 POP JUMP JUMPDEST PUSH1 0x0 DUP2 MLOAD SWAP1 POP PUSH2 0x4EA8 DUP2 PUSH2 0x389A JUMP JUMPDEST SWAP3 SWAP2 POP POP JUMP JUMPDEST PUSH1 0x0 PUSH1 0x20 DUP3 DUP5 SUB SLT ISZERO PUSH2 0x4EC4 JUMPI PUSH2 0x4EC3 PUSH2 0x3886 JUMP JUMPDEST JUMPDEST PUSH1 0x0 PUSH2 0x4ED2 DUP5 DUP3 DUP6 ADD PUSH2 0x4E99 JUMP JUMPDEST SWAP2 POP POP SWAP3 SWAP2 POP POP JUMP JUMPDEST PUSH1 0x0 DUP2 SWAP1 POP SWAP2 SWAP1 POP JUMP JUMPDEST PUSH1 0x0 PUSH2 0x4F00 PUSH2 0x4EFB PUSH2 0x4EF6 DUP5 PUSH2 0x4EDB JUMP JUMPDEST PUSH2 0x3CF7 JUMP JUMPDEST PUSH2 0x3890 JUMP JUMPDEST SWAP1 POP SWAP2 SWAP1 POP JUMP JUMPDEST PUSH2 0x4F10 DUP2 PUSH2 0x4EE5 JUMP JUMPDEST DUP3 MSTORE POP POP JUMP JUMPDEST PUSH1 0x0 PUSH1 0x60 DUP3 ADD SWAP1 POP PUSH2 0x4F2B PUSH1 0x0 DUP4 ADD DUP6 PUSH2 0x4187 JUMP JUMPDEST PUSH2 0x4F38 PUSH1 0x20 DUP4 ADD DUP5 PUSH2 0x4F07 JUMP JUMPDEST DUP2 DUP2 SUB PUSH1 0x40 DUP4 ADD MSTORE PUSH2 0x4F49 DUP2 PUSH2 0x45A1 JUMP JUMPDEST SWAP1 POP SWAP4 SWAP3 POP POP POP JUMP JUMPDEST PUSH32 0x53686F756C64207374696C6C20626520696E20766F74696E67206F70656E2070 PUSH1 0x0 DUP3 ADD MSTORE PUSH32 0x6861736500000000000000000000000000000000000000000000000000000000 PUSH1 0x20 DUP3 ADD MSTORE POP JUMP JUMPDEST PUSH1 0x0 PUSH2 0x4FAE PUSH1 0x24 DUP4 PUSH2 0x3E65 JUMP JUMPDEST SWAP2 POP PUSH2 0x4FB9 DUP3 PUSH2 0x4F52 JUMP JUMPDEST PUSH1 0x40 DUP3 ADD SWAP1 POP SWAP2 SWAP1 POP JUMP JUMPDEST PUSH1 0x0 PUSH1 0x60 DUP3 ADD SWAP1 POP PUSH2 0x4FD9 PUSH1 0x0 DUP4 ADD DUP6 PUSH2 0x4187 JUMP JUMPDEST PUSH2 0x4FE6 PUSH1 0x20 DUP4 ADD DUP5 PUSH2 0x485B JUMP JUMPDEST DUP2 DUP2 SUB PUSH1 0x40 DUP4 ADD MSTORE PUSH2 0x4FF7 DUP2 PUSH2 0x4FA1 JUMP JUMPDEST SWAP1 POP SWAP4 SWAP3 POP POP POP JUMP JUMPDEST PUSH1 0x0 DUP2 SWAP1 POP SWAP3 SWAP2 POP POP JUMP JUMPDEST PUSH1 0x0 PUSH2 0x5016 DUP3 PUSH2 0x39B4 JUMP JUMPDEST PUSH2 0x5020 DUP2 DUP6 PUSH2 0x5000 JUMP JUMPDEST SWAP4 POP PUSH2 0x5030 DUP2 DUP6 PUSH1 0x20 DUP7 ADD PUSH2 0x39D0 JUMP JUMPDEST DUP1 DUP5 ADD SWAP2 POP POP SWAP3 SWAP2 POP POP JUMP JUMPDEST PUSH1 0x0 PUSH2 0x5048 DUP3 DUP5 PUSH2 0x500B JUMP JUMPDEST SWAP2 POP DUP2 SWAP1 POP SWAP3 SWAP2 POP POP JUMP JUMPDEST PUSH1 0x0 DUP2 SLOAD PUSH2 0x5060 DUP2 PUSH2 0x471F JUMP JUMPDEST PUSH2 0x506A DUP2 DUP7 PUSH2 0x5000 JUMP JUMPDEST SWAP5 POP PUSH1 0x1 DUP3 AND PUSH1 0x0 DUP2 EQ PUSH2 0x5085 JUMPI PUSH1 0x1 DUP2 EQ PUSH2 0x509A JUMPI PUSH2 0x50CD JUMP JUMPDEST PUSH1 0xFF NOT DUP4 AND DUP7 MSTORE DUP2 ISZERO ISZERO DUP3 MUL DUP7 ADD SWAP4 POP PUSH2 0x50CD JUMP JUMPDEST PUSH2 0x50A3 DUP6 PUSH2 0x4BB9 JUMP JUMPDEST PUSH1 0x0 JUMPDEST DUP4 DUP2 LT ISZERO PUSH2 0x50C5 JUMPI DUP2 SLOAD DUP2 DUP10 ADD MSTORE PUSH1 0x1 DUP3 ADD SWAP2 POP PUSH1 0x20 DUP2 ADD SWAP1 POP PUSH2 0x50A6 JUMP JUMPDEST DUP4 DUP9 ADD SWAP6 POP POP POP JUMPDEST POP POP POP SWAP3 SWAP2 POP POP JUMP JUMPDEST PUSH1 0x0 PUSH2 0x50E2 DUP3 DUP5 PUSH2 0x5053 JUMP JUMPDEST SWAP2 POP DUP2 SWAP1 POP SWAP3 SWAP2 POP POP JUMP JUMPDEST PUSH32 0x44616E69656C7300000000000000000000000000000000000000000000000000 PUSH1 0x0 DUP3 ADD MSTORE POP JUMP JUMPDEST PUSH1 0x0 PUSH2 0x5123 PUSH1 0x7 DUP4 PUSH2 0x39BF JUMP JUMPDEST SWAP2 POP PUSH2 0x512E DUP3 PUSH2 0x50ED JUMP JUMPDEST PUSH1 0x20 DUP3 ADD SWAP1 POP SWAP2 SWAP1 POP JUMP JUMPDEST PUSH1 0x0 PUSH1 0x40 DUP3 ADD SWAP1 POP PUSH2 0x514E PUSH1 0x0 DUP4 ADD DUP5 PUSH2 0x3C2F JUMP JUMPDEST DUP2 DUP2 SUB PUSH1 0x20 DUP4 ADD MSTORE PUSH2 0x515F DUP2 PUSH2 0x5116 JUMP JUMPDEST SWAP1 POP SWAP3 SWAP2 POP POP JUMP JUMPDEST PUSH32 0x4661696C65642077697468756E657870656374656420726561736F6E00000000 PUSH1 0x0 DUP3 ADD MSTORE POP JUMP JUMPDEST PUSH1 0x0 PUSH2 0x519D PUSH1 0x1C DUP4 PUSH2 0x3E65 JUMP JUMPDEST SWAP2 POP PUSH2 0x51A8 DUP3 PUSH2 0x5167 JUMP JUMPDEST PUSH1 0x20 DUP3 ADD SWAP1 POP SWAP2 SWAP1 POP JUMP JUMPDEST PUSH1 0x0 PUSH1 0x60 DUP3 ADD SWAP1 POP DUP2 DUP2 SUB PUSH1 0x0 DUP4 ADD MSTORE PUSH2 0x51CD DUP2 DUP5 PUSH2 0x3E76 JUMP JUMPDEST SWAP1 POP DUP2 DUP2 SUB PUSH1 0x20 DUP4 ADD MSTORE PUSH2 0x51E0 DUP2 PUSH2 0x43F3 JUMP JUMPDEST SWAP1 POP DUP2 DUP2 SUB PUSH1 0x40 DUP4 ADD MSTORE PUSH2 0x51F3 DUP2 PUSH2 0x5190 JUMP JUMPDEST SWAP1 POP SWAP3 SWAP2 POP POP JUMP JUMPDEST PUSH1 0x0 PUSH1 0x60 DUP3 ADD SWAP1 POP PUSH2 0x5210 PUSH1 0x0 DUP4 ADD DUP6 PUSH2 0x4187 JUMP JUMPDEST PUSH2 0x521D PUSH1 0x20 DUP4 ADD DUP5 PUSH2 0x4285 JUMP JUMPDEST DUP2 DUP2 SUB PUSH1 0x40 DUP4 ADD MSTORE PUSH2 0x522E DUP2 PUSH2 0x45A1 JUMP JUMPDEST SWAP1 POP SWAP4 SWAP3 POP POP POP JUMP JUMPDEST PUSH1 0x0 DUP2 SWAP1 POP SWAP2 SWAP1 POP JUMP JUMPDEST PUSH1 0x0 PUSH2 0x525C PUSH2 0x5257 PUSH2 0x5252 DUP5 PUSH2 0x5237 JUMP JUMPDEST PUSH2 0x3CF7 JUMP JUMPDEST PUSH2 0x3890 JUMP JUMPDEST SWAP1 POP SWAP2 SWAP1 POP JUMP JUMPDEST PUSH2 0x526C DUP2 PUSH2 0x5241 JUMP JUMPDEST DUP3 MSTORE POP POP JUMP JUMPDEST PUSH1 0x0 PUSH1 0x20 DUP3 ADD SWAP1 POP PUSH2 0x5287 PUSH1 0x0 DUP4 ADD DUP5 PUSH2 0x5263 JUMP JUMPDEST SWAP3 SWAP2 POP POP JUMP JUMPDEST PUSH1 0x0 DUP2 MLOAD SWAP1 POP PUSH2 0x529C DUP2 PUSH2 0x395B JUMP JUMPDEST SWAP3 SWAP2 POP POP JUMP JUMPDEST PUSH1 0x0 PUSH1 0x20 DUP3 DUP5 SUB SLT ISZERO PUSH2 0x52B8 JUMPI PUSH2 0x52B7 PUSH2 0x3886 JUMP JUMPDEST JUMPDEST PUSH1 0x0 PUSH2 0x52C6 DUP5 DUP3 DUP6 ADD PUSH2 0x528D JUMP JUMPDEST SWAP2 POP POP SWAP3 SWAP2 POP POP JUMP JUMPDEST PUSH1 0x0 PUSH1 0x20 DUP3 ADD SWAP1 POP PUSH2 0x52E4 PUSH1 0x0 DUP4 ADD DUP5 PUSH2 0x485B JUMP JUMPDEST SWAP3 SWAP2 POP POP JUMP JUMPDEST PUSH1 0x0 PUSH1 0x20 DUP3 ADD SWAP1 POP PUSH2 0x52FF PUSH1 0x0 DUP4 ADD DUP5 PUSH2 0x41C2 JUMP JUMPDEST SWAP3 SWAP2 POP POP JUMP JUMPDEST PUSH1 0x0 PUSH1 0x20 DUP3 ADD SWAP1 POP PUSH2 0x531A PUSH1 0x0 DUP4 ADD DUP5 PUSH2 0x4F07 JUMP JUMPDEST SWAP3 SWAP2 POP POP JUMP JUMPDEST PUSH1 0x0 DUP2 SWAP1 POP SWAP2 SWAP1 POP JUMP JUMPDEST PUSH1 0x0 PUSH2 0x5345 PUSH2 0x5340 PUSH2 0x533B DUP5 PUSH2 0x5320 JUMP JUMPDEST PUSH2 0x3CF7 JUMP JUMPDEST PUSH2 0x3890 JUMP JUMPDEST SWAP1 POP SWAP2 SWAP1 POP JUMP JUMPDEST PUSH2 0x5355 DUP2 PUSH2 0x532A JUMP JUMPDEST DUP3 MSTORE POP POP JUMP JUMPDEST PUSH1 0x0 PUSH1 0x20 DUP3 ADD SWAP1 POP PUSH2 0x5370 PUSH1 0x0 DUP4 ADD DUP5 PUSH2 0x534C JUMP JUMPDEST SWAP3 SWAP2 POP POP JUMP JUMPDEST PUSH1 0x0 PUSH1 0x20 DUP3 ADD SWAP1 POP PUSH2 0x538B PUSH1 0x0 DUP4 ADD DUP5 PUSH2 0x4285 JUMP JUMPDEST SWAP3 SWAP2 POP POP JUMP JUMPDEST PUSH32 0x53686F756C6420626520657175616C20746F2033000000000000000000000000 PUSH1 0x0 DUP3 ADD MSTORE POP JUMP JUMPDEST PUSH1 0x0 PUSH2 0x53C7 PUSH1 0x14 DUP4 PUSH2 0x3E65 JUMP JUMPDEST SWAP2 POP PUSH2 0x53D2 DUP3 PUSH2 0x5391 JUMP JUMPDEST PUSH1 0x20 DUP3 ADD SWAP1 POP SWAP2 SWAP1 POP JUMP JUMPDEST PUSH1 0x0 PUSH1 0x60 DUP3 ADD SWAP1 POP PUSH2 0x53F2 PUSH1 0x0 DUP4 ADD DUP6 PUSH2 0x4187 JUMP JUMPDEST PUSH2 0x53FF PUSH1 0x20 DUP4 ADD DUP5 PUSH2 0x4F07 JUMP JUMPDEST DUP2 DUP2 SUB PUSH1 0x40 DUP4 ADD MSTORE PUSH2 0x5410 DUP2 PUSH2 0x53BA JUMP JUMPDEST SWAP1 POP SWAP4 SWAP3 POP POP POP JUMP JUMPDEST PUSH32 0x53686F756C6420626520657175616C20746F2034000000000000000000000000 PUSH1 0x0 DUP3 ADD MSTORE POP JUMP JUMPDEST PUSH1 0x0 PUSH2 0x544F PUSH1 0x14 DUP4 PUSH2 0x3E65 JUMP JUMPDEST SWAP2 POP PUSH2 0x545A DUP3 PUSH2 0x5419 JUMP JUMPDEST PUSH1 0x20 DUP3 ADD SWAP1 POP SWAP2 SWAP1 POP JUMP JUMPDEST PUSH1 0x0 PUSH1 0x60 DUP3 ADD SWAP1 POP PUSH2 0x547A PUSH1 0x0 DUP4 ADD DUP6 PUSH2 0x4187 JUMP JUMPDEST PUSH2 0x5487 PUSH1 0x20 DUP4 ADD DUP5 PUSH2 0x534C JUMP JUMPDEST DUP2 DUP2 SUB PUSH1 0x40 DUP4 ADD MSTORE PUSH2 0x5498 DUP2 PUSH2 0x5442 JUMP JUMPDEST SWAP1 POP SWAP4 SWAP3 POP POP POP JUMP JUMPDEST PUSH32 0x53686F756C6420626520696E2063726561746520706861736500000000000000 PUSH1 0x0 DUP3 ADD MSTORE POP JUMP JUMPDEST PUSH1 0x0 PUSH2 0x54D7 PUSH1 0x19 DUP4 PUSH2 0x3E65 JUMP JUMPDEST SWAP2 POP PUSH2 0x54E2 DUP3 PUSH2 0x54A1 JUMP JUMPDEST PUSH1 0x20 DUP3 ADD SWAP1 POP SWAP2 SWAP1 POP JUMP JUMPDEST PUSH1 0x0 PUSH1 0x60 DUP3 ADD SWAP1 POP PUSH2 0x5502 PUSH1 0x0 DUP4 ADD DUP6 PUSH2 0x4187 JUMP JUMPDEST PUSH2 0x550F PUSH1 0x20 DUP4 ADD DUP5 PUSH2 0x5263 JUMP JUMPDEST DUP2 DUP2 SUB PUSH1 0x40 DUP4 ADD MSTORE PUSH2 0x5520 DUP2 PUSH2 0x54CA JUMP JUMPDEST SWAP1 POP SWAP4 SWAP3 POP POP POP JUMP JUMPDEST PUSH32 0x566F74696E672073686F756C64206E6F7420626520616C6C6F77656420647572 PUSH1 0x0 DUP3 ADD MSTORE PUSH32 0x696E67206372656174696F6E2070686173650000000000000000000000000000 PUSH1 0x20 DUP3 ADD MSTORE POP JUMP JUMPDEST PUSH1 0x0 PUSH2 0x5585 PUSH1 0x32 DUP4 PUSH2 0x3E65 JUMP JUMPDEST SWAP2 POP PUSH2 0x5590 DUP3 PUSH2 0x5529 JUMP JUMPDEST PUSH1 0x40 DUP3 ADD SWAP1 POP SWAP2 SWAP1 POP JUMP JUMPDEST PUSH1 0x0 PUSH1 0x60 DUP3 ADD SWAP1 POP PUSH2 0x55B0 PUSH1 0x0 DUP4 ADD DUP6 PUSH2 0x3FB0 JUMP JUMPDEST PUSH2 0x55BD PUSH1 0x20 DUP4 ADD DUP5 PUSH2 0x3FB0 JUMP JUMPDEST DUP2 DUP2 SUB PUSH1 0x40 DUP4 ADD MSTORE PUSH2 0x55CE DUP2 PUSH2 0x5578 JUMP JUMPDEST SWAP1 POP SWAP4 SWAP3 POP POP POP JUMP JUMPDEST PUSH2 0x55E0 DUP2 PUSH2 0x3949 JUMP JUMPDEST DUP3 MSTORE POP POP JUMP JUMPDEST PUSH32 0x4D616E616765722073686F756C64206265206163633000000000000000000000 PUSH1 0x0 DUP3 ADD MSTORE POP JUMP JUMPDEST PUSH1 0x0 PUSH2 0x561C PUSH1 0x16 DUP4 PUSH2 0x3E65 JUMP JUMPDEST SWAP2 POP PUSH2 0x5627 DUP3 PUSH2 0x55E6 JUMP JUMPDEST PUSH1 0x20 DUP3 ADD SWAP1 POP SWAP2 SWAP1 POP JUMP JUMPDEST PUSH1 0x0 PUSH1 0x60 DUP3 ADD SWAP1 POP PUSH2 0x5647 PUSH1 0x0 DUP4 ADD DUP6 PUSH2 0x55D7 JUMP JUMPDEST PUSH2 0x5654 PUSH1 0x20 DUP4 ADD DUP5 PUSH2 0x55D7 JUMP JUMPDEST DUP2 DUP2 SUB PUSH1 0x40 DUP4 ADD MSTORE PUSH2 0x5665 DUP2 PUSH2 0x560F JUMP JUMPDEST SWAP1 POP SWAP4 SWAP3 POP POP POP JUMP JUMPDEST PUSH1 0x0 PUSH2 0x567B PUSH1 0x23 DUP4 PUSH2 0x3E65 JUMP JUMPDEST SWAP2 POP PUSH2 0x5686 DUP3 PUSH2 0x45F2 JUMP JUMPDEST PUSH1 0x40 DUP3 ADD SWAP1 POP SWAP2 SWAP1 POP JUMP JUMPDEST PUSH1 0x0 PUSH1 0x60 DUP3 ADD SWAP1 POP DUP2 DUP2 SUB PUSH1 0x0 DUP4 ADD MSTORE PUSH2 0x56AB DUP2 DUP5 PUSH2 0x3E76 JUMP JUMPDEST SWAP1 POP DUP2 DUP2 SUB PUSH1 0x20 DUP4 ADD MSTORE PUSH2 0x56BE DUP2 PUSH2 0x566E JUMP JUMPDEST SWAP1 POP DUP2 DUP2 SUB PUSH1 0x40 DUP4 ADD MSTORE PUSH2 0x56D1 DUP2 PUSH2 0x3F24 JUMP JUMPDEST SWAP1 POP SWAP3 SWAP2 POP POP JUMP JUMPDEST PUSH1 0x0 PUSH1 0x60 DUP3 ADD SWAP1 POP PUSH2 0x56EE PUSH1 0x0 DUP4 ADD DUP6 PUSH2 0x3FB0 JUMP JUMPDEST PUSH2 0x56FB PUSH1 0x20 DUP4 ADD DUP5 PUSH2 0x3FB0 JUMP JUMPDEST DUP2 DUP2 SUB PUSH1 0x40 DUP4 ADD MSTORE PUSH2 0x570C DUP2 PUSH2 0x45A1 JUMP JUMPDEST SWAP1 POP SWAP4 SWAP3 POP POP POP JUMP JUMPDEST PUSH1 0x0 DUP2 SLOAD PUSH2 0x5722 DUP2 PUSH2 0x471F JUMP JUMPDEST PUSH2 0x572C DUP2 DUP7 PUSH2 0x3E65 JUMP JUMPDEST SWAP5 POP PUSH1 0x1 DUP3 AND PUSH1 0x0 DUP2 EQ PUSH2 0x5747 JUMPI PUSH1 0x1 DUP2 EQ PUSH2 0x575D JUMPI PUSH2 0x5790 JUMP JUMPDEST PUSH1 0xFF NOT DUP4 AND DUP7 MSTORE DUP2 ISZERO ISZERO PUSH1 0x20 MUL DUP7 ADD SWAP4 POP PUSH2 0x5790 JUMP JUMPDEST PUSH2 0x5766 DUP6 PUSH2 0x4BB9 JUMP JUMPDEST PUSH1 0x0 JUMPDEST DUP4 DUP2 LT ISZERO PUSH2 0x5788 JUMPI DUP2 SLOAD DUP2 DUP10 ADD MSTORE PUSH1 0x1 DUP3 ADD SWAP2 POP PUSH1 0x20 DUP2 ADD SWAP1 POP PUSH2 0x5769 JUMP JUMPDEST DUP1 DUP9 ADD SWAP6 POP POP POP JUMPDEST POP POP POP SWAP3 SWAP2 POP POP JUMP JUMPDEST PUSH32 0x556E692043616665000000000000000000000000000000000000000000000000 PUSH1 0x0 DUP3 ADD MSTORE POP JUMP JUMPDEST PUSH1 0x0 PUSH2 0x57CF PUSH1 0x8 DUP4 PUSH2 0x3E65 JUMP JUMPDEST SWAP2 POP PUSH2 0x57DA DUP3 PUSH2 0x5799 JUMP JUMPDEST PUSH1 0x20 DUP3 ADD SWAP1 POP SWAP2 SWAP1 POP JUMP JUMPDEST PUSH32 0x53656C65637465642072657374617572616E742073686F756C6420626520556E PUSH1 0x0 DUP3 ADD MSTORE PUSH32 0x6920436166650000000000000000000000000000000000000000000000000000 PUSH1 0x20 DUP3 ADD MSTORE POP JUMP JUMPDEST PUSH1 0x0 PUSH2 0x5841 PUSH1 0x26 DUP4 PUSH2 0x3E65 JUMP JUMPDEST SWAP2 POP PUSH2 0x584C DUP3 PUSH2 0x57E5 JUMP JUMPDEST PUSH1 0x40 DUP3 ADD SWAP1 POP SWAP2 SWAP1 POP JUMP JUMPDEST PUSH1 0x0 PUSH1 0x60 DUP3 ADD SWAP1 POP DUP2 DUP2 SUB PUSH1 0x0 DUP4 ADD MSTORE PUSH2 0x5871 DUP2 DUP5 PUSH2 0x5715 JUMP JUMPDEST SWAP1 POP DUP2 DUP2 SUB PUSH1 0x20 DUP4 ADD MSTORE PUSH2 0x5884 DUP2 PUSH2 0x57C2 JUMP JUMPDEST SWAP1 POP DUP2 DUP2 SUB PUSH1 0x40 DUP4 ADD MSTORE PUSH2 0x5897 DUP2 PUSH2 0x5834 JUMP JUMPDEST SWAP1 POP SWAP3 SWAP2 POP POP JUMP JUMPDEST PUSH32 0x566F74696E6720726573756C742073686F756C642062652066616C7365000000 PUSH1 0x0 DUP3 ADD MSTORE POP JUMP JUMPDEST PUSH1 0x0 PUSH2 0x58D5 PUSH1 0x1D DUP4 PUSH2 0x3E65 JUMP JUMPDEST SWAP2 POP PUSH2 0x58E0 DUP3 PUSH2 0x589F JUMP JUMPDEST PUSH1 0x20 DUP3 ADD SWAP1 POP SWAP2 SWAP1 POP JUMP JUMPDEST PUSH1 0x0 PUSH1 0x60 DUP3 ADD SWAP1 POP PUSH2 0x5900 PUSH1 0x0 DUP4 ADD DUP6 PUSH2 0x3FB0 JUMP JUMPDEST PUSH2 0x590D PUSH1 0x20 DUP4 ADD DUP5 PUSH2 0x3FB0 JUMP JUMPDEST DUP2 DUP2 SUB PUSH1 0x40 DUP4 ADD MSTORE PUSH2 0x591E DUP2 PUSH2 0x58C8 JUMP JUMPDEST SWAP1 POP SWAP4 SWAP3 POP POP POP JUMP JUMPDEST PUSH32 0x53686F756C6420626520696E20766F74696E67206F70656E2070686173650000 PUSH1 0x0 DUP3 ADD MSTORE POP JUMP JUMPDEST PUSH1 0x0 PUSH2 0x595D PUSH1 0x1E DUP4 PUSH2 0x3E65 JUMP JUMPDEST SWAP2 POP PUSH2 0x5968 DUP3 PUSH2 0x5927 JUMP JUMPDEST PUSH1 0x20 DUP3 ADD SWAP1 POP SWAP2 SWAP1 POP JUMP JUMPDEST PUSH1 0x0 PUSH1 0x60 DUP3 ADD SWAP1 POP PUSH2 0x5988 PUSH1 0x0 DUP4 ADD DUP6 PUSH2 0x4187 JUMP JUMPDEST PUSH2 0x5995 PUSH1 0x20 DUP4 ADD DUP5 PUSH2 0x485B JUMP JUMPDEST DUP2 DUP2 SUB PUSH1 0x40 DUP4 ADD MSTORE PUSH2 0x59A6 DUP2 PUSH2 0x5950 JUMP JUMPDEST SWAP1 POP SWAP4 SWAP3 POP POP POP JUMP JUMPDEST PUSH32 0x566F74696E672073686F756C6420626520636C6F736564000000000000000000 PUSH1 0x0 DUP3 ADD MSTORE POP JUMP JUMPDEST PUSH1 0x0 PUSH2 0x59E5 PUSH1 0x17 DUP4 PUSH2 0x3E65 JUMP JUMPDEST SWAP2 POP PUSH2 0x59F0 DUP3 PUSH2 0x59AF JUMP JUMPDEST PUSH1 0x20 DUP3 ADD SWAP1 POP SWAP2 SWAP1 POP JUMP JUMPDEST PUSH1 0x0 PUSH1 0x60 DUP3 ADD SWAP1 POP PUSH2 0x5A10 PUSH1 0x0 DUP4 ADD DUP6 PUSH2 0x3FB0 JUMP JUMPDEST PUSH2 0x5A1D PUSH1 0x20 DUP4 ADD DUP5 PUSH2 0x3FB0 JUMP JUMPDEST DUP2 DUP2 SUB PUSH1 0x40 DUP4 ADD MSTORE PUSH2 0x5A2E DUP2 PUSH2 0x59D8 JUMP JUMPDEST SWAP1 POP SWAP4 SWAP3 POP POP POP JUMP JUMPDEST PUSH32 0x566F74696E6720666F722061206E6F6E2D6578697374656E7420726573746175 PUSH1 0x0 DUP3 ADD MSTORE PUSH32 0x72616E742073686F756C64206661696C00000000000000000000000000000000 PUSH1 0x20 DUP3 ADD MSTORE POP JUMP JUMPDEST PUSH1 0x0 PUSH2 0x5A93 PUSH1 0x30 DUP4 PUSH2 0x3E65 JUMP JUMPDEST SWAP2 POP PUSH2 0x5A9E DUP3 PUSH2 0x5A37 JUMP JUMPDEST PUSH1 0x40 DUP3 ADD SWAP1 POP SWAP2 SWAP1 POP JUMP JUMPDEST PUSH1 0x0 PUSH1 0x60 DUP3 ADD SWAP1 POP PUSH2 0x5ABE PUSH1 0x0 DUP4 ADD DUP6 PUSH2 0x3FB0 JUMP JUMPDEST PUSH2 0x5ACB PUSH1 0x20 DUP4 ADD DUP5 PUSH2 0x3FB0 JUMP JUMPDEST DUP2 DUP2 SUB PUSH1 0x40 DUP4 ADD MSTORE PUSH2 0x5ADC DUP2 PUSH2 0x5A86 JUMP JUMPDEST SWAP1 POP SWAP4 SWAP3 POP POP POP JUMP JUMPDEST PUSH32 0x54686520636F756E74206F662072657374617572616E74732073686F756C6420 PUSH1 0x0 DUP3 ADD MSTORE PUSH32 0x72656D61696E207468652073616D6520616674657220616464696E6720746865 PUSH1 0x20 DUP3 ADD MSTORE PUSH32 0x2073616D652072657374617572616E7420616761696E2E000000000000000000 PUSH1 0x40 DUP3 ADD MSTORE POP JUMP JUMPDEST PUSH1 0x0 PUSH2 0x5B67 PUSH1 0x57 DUP4 PUSH2 0x3E65 JUMP JUMPDEST SWAP2 POP PUSH2 0x5B72 DUP3 PUSH2 0x5AE5 JUMP JUMPDEST PUSH1 0x60 DUP3 ADD SWAP1 POP SWAP2 SWAP1 POP JUMP JUMPDEST PUSH1 0x0 PUSH1 0x60 DUP3 ADD SWAP1 POP PUSH2 0x5B92 PUSH1 0x0 DUP4 ADD DUP6 PUSH2 0x4187 JUMP JUMPDEST PUSH2 0x5B9F PUSH1 0x20 DUP4 ADD DUP5 PUSH2 0x4187 JUMP JUMPDEST DUP2 DUP2 SUB PUSH1 0x40 DUP4 ADD MSTORE PUSH2 0x5BB0 DUP2 PUSH2 0x5B5A JUMP JUMPDEST SWAP1 POP SWAP4 SWAP3 POP POP POP JUMP JUMPDEST PUSH1 0x0 DUP2 SLOAD SWAP1 POP PUSH2 0x5BC8 DUP2 PUSH2 0x471F JUMP JUMPDEST SWAP1 POP SWAP2 SWAP1 POP JUMP JUMPDEST PUSH1 0x0 DUP2 SWAP1 POP DUP2 PUSH1 0x0 MSTORE PUSH1 0x20 PUSH1 0x0 KECCAK256 SWAP1 POP SWAP2 SWAP1 POP JUMP JUMPDEST DUP2 DUP2 SUB PUSH2 0x5BF2 JUMPI POP POP PUSH2 0x5CCA JUMP JUMPDEST PUSH2 0x5BFB DUP3 PUSH2 0x5BB9 JUMP JUMPDEST PUSH8 0xFFFFFFFFFFFFFFFF DUP2 GT ISZERO PUSH2 0x5C14 JUMPI PUSH2 0x5C13 PUSH2 0x3A7E JUMP JUMPDEST JUMPDEST PUSH2 0x5C1E DUP3 SLOAD PUSH2 0x471F JUMP JUMPDEST PUSH2 0x5C29 DUP3 DUP3 DUP6 PUSH2 0x4CCE JUMP JUMPDEST PUSH1 0x0 PUSH1 0x1F DUP4 GT PUSH1 0x1 DUP2 EQ PUSH2 0x5C58 JUMPI PUSH1 0x0 DUP5 ISZERO PUSH2 0x5C46 JUMPI DUP3 DUP8 ADD SLOAD SWAP1 POP JUMPDEST PUSH2 0x5C50 DUP6 DUP3 PUSH2 0x4D3F JUMP JUMPDEST DUP7 SSTORE POP PUSH2 0x5CC3 JUMP JUMPDEST PUSH1 0x1F NOT DUP5 AND PUSH2 0x5C66 DUP8 PUSH2 0x5BCF JUMP JUMPDEST SWAP7 POP PUSH2 0x5C71 DUP7 PUSH2 0x4BB9 JUMP JUMPDEST PUSH1 0x0 JUMPDEST DUP3 DUP2 LT ISZERO PUSH2 0x5C99 JUMPI DUP5 DUP10 ADD SLOAD DUP3 SSTORE PUSH1 0x1 DUP3 ADD SWAP2 POP PUSH1 0x1 DUP6 ADD SWAP5 POP PUSH1 0x20 DUP2 ADD SWAP1 POP PUSH2 0x5C74 JUMP JUMPDEST DUP7 DUP4 LT ISZERO PUSH2 0x5CB6 JUMPI DUP5 DUP10 ADD SLOAD PUSH2 0x5CB2 PUSH1 0x1F DUP10 AND DUP3 PUSH2 0x4D21 JUMP JUMPDEST DUP4 SSTORE POP JUMPDEST PUSH1 0x1 PUSH1 0x2 DUP9 MUL ADD DUP9 SSTORE POP POP POP JUMPDEST POP POP POP POP POP POP JUMPDEST JUMP INVALID LOG2 PUSH5 0x6970667358 0x22 SLT KECCAK256 PUSH6 0x94FF63323AB9 PUSH11 0xD6DB4E6BD00721B25EF9D0 EQ 0x2E RETURNDATASIZE 0xC2 OR JUMPI DUP2 PUSH3 0x716061 0x4F MSTORE8 PUSH5 0x736F6C6343 STOP ADDMOD SLT STOP CALLER "
		},
		"gasEstimates": {
			"creation": {
				"codeDepositCost": "4762000",
				"executionCost": "infinite",
				"totalCost": "infinite"
			},
			"external": {
				"addFriend(address,string)": "infinite",
				"addFriendTwiceFailure()": "infinite",
				"addRestaurant(string)": "infinite",
				"addRestaurantTwiceFailure()": "infinite",
				"beforeAll()": "infinite",
				"contractActive()": "2603",
				"createPhase()": "infinite",
				"deactivateContract()": "26714",
				"deactivateContractFailure()": "infinite",
				"deactivateContractTest()": "infinite",
				"deadlineBlockNumber()": "2495",
				"doVote(uint256)": "infinite",
				"friends(address)": "infinite",
				"invalidVote()": "infinite",
				"lunchVenueTest()": "infinite",
				"manager()": "2582",
				"managerTest()": "infinite",
				"numFriends()": "2475",
				"numRestaurants()": "2518",
				"numVotes()": "2518",
				"openVoting(uint256)": "infinite",
				"openVotingPhase()": "infinite",
				"restaurantExist()": "2604",
				"restaurants(uint256)": "infinite",
				"setFriend()": "infinite",
				"setFriendFailure()": "infinite",
				"setRestaurant()": "infinite",
				"setRestaurantFailure()": "infinite",
				"vote()": "infinite",
				"vote2()": "infinite",
				"vote3()": "infinite",
				"vote4()": "infinite",
				"voteAfterClosedFailure()": "infinite",
				"voteClosed()": "infinite",
				"voteFailure()": "infinite",
				"voteForInvalidRestaurant()": "infinite",
				"voteOpen()": "2517",
				"voteOpenTest()": "infinite",
				"voteState()": "2496",
				"voteTwiceFailure()": "infinite",
				"votedRestaurant()": "infinite",
				"votes(uint256)": "infinite"
			}
		},
		"methodIdentifiers": {
			"addFriend(address,string)": "3b9f708d",
			"addFriendTwiceFailure()": "312d2924",
			"addRestaurant(string)": "6d77bd3e",
			"addRestaurantTwiceFailure()": "fcab6d75",
			"beforeAll()": "7fea0d4b",
			"contractActive()": "e289fcb6",
			"createPhase()": "88f4f9d9",
			"deactivateContract()": "bca353be",
			"deactivateContractFailure()": "0a8a1c49",
			"deactivateContractTest()": "31de1e50",
			"deadlineBlockNumber()": "be8db3cf",
			"doVote(uint256)": "124258c6",
			"friends(address)": "1ddabf7a",
			"invalidVote()": "8fd19a13",
			"lunchVenueTest()": "a8267245",
			"manager()": "481c6a75",
			"managerTest()": "947aea86",
			"numFriends()": "47098f36",
			"numRestaurants()": "b798867f",
			"numVotes()": "a3bef4d7",
			"openVoting(uint256)": "5f2ba6b2",
			"openVotingPhase()": "bf1cf589",
			"restaurantExist()": "72181ae9",
			"restaurants(uint256)": "ad5461d8",
			"setFriend()": "848b4427",
			"setFriendFailure()": "77440e06",
			"setRestaurant()": "12a4591a",
			"setRestaurantFailure()": "512a6fbb",
			"vote()": "632a9a52",
			"vote2()": "a24a4e88",
			"vote3()": "2955fea3",
			"vote4()": "6a9fe400",
			"voteAfterClosedFailure()": "a5627cf0",
			"voteClosed()": "07d7bb55",
			"voteFailure()": "a9a4070c",
			"voteForInvalidRestaurant()": "bd97a264",
			"voteOpen()": "788d3851",
			"voteOpenTest()": "bbb97ded",
			"voteState()": "66597e5a",
			"voteTwiceFailure()": "02df553a",
			"votedRestaurant()": "c1c16efc",
			"votes(uint256)": "5df81330"
		}
	},
	"abi": [
		{
			"inputs": [
				{
					"internalType": "address",
					"name": "friendAddress",
					"type": "address"
				},
				{
					"internalType": "string",
					"name": "name",
					"type": "string"
				}
			],
			"name": "addFriend",
			"outputs": [
				{
					"internalType": "uint256",
					"name": "",
					"type": "uint256"
				}
			],
			"stateMutability": "nonpayable",
			"type": "function"
		},
		{
			"inputs": [],
			"name": "addFriendTwiceFailure",
			"outputs": [],
			"stateMutability": "nonpayable",
			"type": "function"
		},
		{
			"inputs": [
				{
					"internalType": "string",
					"name": "name",
					"type": "string"
				}
			],
			"name": "addRestaurant",
			"outputs": [
				{
					"internalType": "uint256",
					"name": "",
					"type": "uint256"
				}
			],
			"stateMutability": "nonpayable",
			"type": "function"
		},
		{
			"inputs": [],
			"name": "addRestaurantTwiceFailure",
			"outputs": [],
			"stateMutability": "nonpayable",
			"type": "function"
		},
		{
			"inputs": [],
			"name": "beforeAll",
			"outputs": [],
			"stateMutability": "nonpayable",
			"type": "function"
		},
		{
			"inputs": [],
			"name": "contractActive",
			"outputs": [
				{
					"internalType": "bool",
					"name": "",
					"type": "bool"
				}
			],
			"stateMutability": "view",
			"type": "function"
		},
		{
			"inputs": [],
			"name": "createPhase",
			"outputs": [],
			"stateMutability": "nonpayable",
			"type": "function"
		},
		{
			"inputs": [],
			"name": "deactivateContract",
			"outputs": [],
			"stateMutability": "nonpayable",
			"type": "function"
		},
		{
			"inputs": [],
			"name": "deactivateContractFailure",
			"outputs": [],
			"stateMutability": "nonpayable",
			"type": "function"
		},
		{
			"inputs": [],
			"name": "deactivateContractTest",
			"outputs": [],
			"stateMutability": "nonpayable",
			"type": "function"
		},
		{
			"inputs": [],
			"name": "deadlineBlockNumber",
			"outputs": [
				{
					"internalType": "uint256",
					"name": "",
					"type": "uint256"
				}
			],
			"stateMutability": "view",
			"type": "function"
		},
		{
			"inputs": [
				{
					"internalType": "uint256",
					"name": "restaurant",
					"type": "uint256"
				}
			],
			"name": "doVote",
			"outputs": [
				{
					"internalType": "bool",
					"name": "validVote",
					"type": "bool"
				}
			],
			"stateMutability": "nonpayable",
			"type": "function"
		},
		{
			"inputs": [
				{
					"internalType": "address",
					"name": "",
					"type": "address"
				}
			],
			"name": "friends",
			"outputs": [
				{
					"internalType": "string",
					"name": "name",
					"type": "string"
				},
				{
					"internalType": "bool",
					"name": "voted",
					"type": "bool"
				}
			],
			"stateMutability": "view",
			"type": "function"
		},
		{
			"inputs": [],
			"name": "invalidVote",
			"outputs": [],
			"stateMutability": "nonpayable",
			"type": "function"
		},
		{
			"inputs": [],
			"name": "lunchVenueTest",
			"outputs": [],
			"stateMutability": "nonpayable",
			"type": "function"
		},
		{
			"inputs": [],
			"name": "manager",
			"outputs": [
				{
					"internalType": "address",
					"name": "",
					"type": "address"
				}
			],
			"stateMutability": "view",
			"type": "function"
		},
		{
			"inputs": [],
			"name": "managerTest",
			"outputs": [],
			"stateMutability": "nonpayable",
			"type": "function"
		},
		{
			"inputs": [],
			"name": "numFriends",
			"outputs": [
				{
					"internalType": "uint256",
					"name": "",
					"type": "uint256"
				}
			],
			"stateMutability": "view",
			"type": "function"
		},
		{
			"inputs": [],
			"name": "numRestaurants",
			"outputs": [
				{
					"internalType": "uint256",
					"name": "",
					"type": "uint256"
				}
			],
			"stateMutability": "view",
			"type": "function"
		},
		{
			"inputs": [],
			"name": "numVotes",
			"outputs": [
				{
					"internalType": "uint256",
					"name": "",
					"type": "uint256"
				}
			],
			"stateMutability": "view",
			"type": "function"
		},
		{
			"inputs": [
				{
					"internalType": "uint256",
					"name": "blocks",
					"type": "uint256"
				}
			],
			"name": "openVoting",
			"outputs": [],
			"stateMutability": "nonpayable",
			"type": "function"
		},
		{
			"inputs": [],
			"name": "openVotingPhase",
			"outputs": [],
			"stateMutability": "nonpayable",
			"type": "function"
		},
		{
			"inputs": [],
			"name": "restaurantExist",
			"outputs": [
				{
					"internalType": "bool",
					"name": "",
					"type": "bool"
				}
			],
			"stateMutability": "view",
			"type": "function"
		},
		{
			"inputs": [
				{
					"internalType": "uint256",
					"name": "",
					"type": "uint256"
				}
			],
			"name": "restaurants",
			"outputs": [
				{
					"internalType": "string",
					"name": "",
					"type": "string"
				}
			],
			"stateMutability": "view",
			"type": "function"
		},
		{
			"inputs": [],
			"name": "setFriend",
			"outputs": [],
			"stateMutability": "nonpayable",
			"type": "function"
		},
		{
			"inputs": [],
			"name": "setFriendFailure",
			"outputs": [],
			"stateMutability": "nonpayable",
			"type": "function"
		},
		{
			"inputs": [],
			"name": "setRestaurant",
			"outputs": [],
			"stateMutability": "nonpayable",
			"type": "function"
		},
		{
			"inputs": [],
			"name": "setRestaurantFailure",
			"outputs": [],
			"stateMutability": "nonpayable",
			"type": "function"
		},
		{
			"inputs": [],
			"name": "vote",
			"outputs": [],
			"stateMutability": "nonpayable",
			"type": "function"
		},
		{
			"inputs": [],
			"name": "vote2",
			"outputs": [],
			"stateMutability": "nonpayable",
			"type": "function"
		},
		{
			"inputs": [],
			"name": "vote3",
			"outputs": [],
			"stateMutability": "nonpayable",
			"type": "function"
		},
		{
			"inputs": [],
			"name": "vote4",
			"outputs": [],
			"stateMutability": "nonpayable",
			"type": "function"
		},
		{
			"inputs": [],
			"name": "voteAfterClosedFailure",
			"outputs": [],
			"stateMutability": "nonpayable",
			"type": "function"
		},
		{
			"inputs": [],
			"name": "voteClosed",
			"outputs": [],
			"stateMutability": "nonpayable",
			"type": "function"
		},
		{
			"inputs": [],
			"name": "voteFailure",
			"outputs": [],
			"stateMutability": "nonpayable",
			"type": "function"
		},
		{
			"inputs": [],
			"name": "voteForInvalidRestaurant",
			"outputs": [],
			"stateMutability": "nonpayable",
			"type": "function"
		},
		{
			"inputs": [],
			"name": "voteOpen",
			"outputs": [
				{
					"internalType": "bool",
					"name": "",
					"type": "bool"
				}
			],
			"stateMutability": "view",
			"type": "function"
		},
		{
			"inputs": [],
			"name": "voteOpenTest",
			"outputs": [],
			"stateMutability": "nonpayable",
			"type": "function"
		},
		{
			"inputs": [],
			"name": "voteState",
			"outputs": [
				{
					"internalType": "uint256",
					"name": "",
					"type": "uint256"
				}
			],
			"stateMutability": "view",
			"type": "function"
		},
		{
			"inputs": [],
			"name": "voteTwiceFailure",
			"outputs": [],
			"stateMutability": "nonpayable",
			"type": "function"
		},
		{
			"inputs": [],
			"name": "votedRestaurant",
			"outputs": [
				{
					"internalType": "string",
					"name": "",
					"type": "string"
				}
			],
			"stateMutability": "view",
			"type": "function"
		},
		{
			"inputs": [
				{
					"internalType": "uint256",
					"name": "",
					"type": "uint256"
				}
			],
			"name": "votes",
			"outputs": [
				{
					"internalType": "address",
					"name": "voterAddress",
					"type": "address"
				},
				{
					"internalType": "uint256",
					"name": "restaurant",
					"type": "uint256"
				}
			],
			"stateMutability": "view",
			"type": "function"
		}
	]
}