{
	"contracts/LunchVenue_updated.sol": {
		"LunchVenue": {
			"abi": [
				{
					"inputs": [],
					"stateMutability": "nonpayable",
					"type": "constructor"
				},
				{
					"inputs": [
						{
							"internalType": "address",
							"name": "friendAddress",
							"type": "address"
						},
						{
							"internalType": "string",
							"name": "name",
							"type": "string"
						}
					],
					"name": "addFriend",
					"outputs": [
						{
							"internalType": "uint256",
							"name": "",
							"type": "uint256"
						}
					],
					"stateMutability": "nonpayable",
					"type": "function"
				},
				{
					"inputs": [
						{
							"internalType": "string",
							"name": "name",
							"type": "string"
						}
					],
					"name": "addRestaurant",
					"outputs": [
						{
							"internalType": "uint256",
							"name": "",
							"type": "uint256"
						}
					],
					"stateMutability": "nonpayable",
					"type": "function"
				},
				{
					"inputs": [],
					"name": "contractActive",
					"outputs": [
						{
							"internalType": "bool",
							"name": "",
							"type": "bool"
						}
					],
					"stateMutability": "view",
					"type": "function"
				},
				{
					"inputs": [],
					"name": "deactivateContract",
					"outputs": [],
					"stateMutability": "nonpayable",
					"type": "function"
				},
				{
					"inputs": [],
					"name": "deadlineBlockNumber",
					"outputs": [
						{
							"internalType": "uint256",
							"name": "",
							"type": "uint256"
						}
					],
					"stateMutability": "view",
					"type": "function"
				},
				{
					"inputs": [
						{
							"internalType": "uint256",
							"name": "restaurant",
							"type": "uint256"
						}
					],
					"name": "doVote",
					"outputs": [
						{
							"internalType": "bool",
							"name": "validVote",
							"type": "bool"
						}
					],
					"stateMutability": "nonpayable",
					"type": "function"
				},
				{
					"inputs": [
						{
							"internalType": "address",
							"name": "",
							"type": "address"
						}
					],
					"name": "friends",
					"outputs": [
						{
							"internalType": "string",
							"name": "name",
							"type": "string"
						},
						{
							"internalType": "bool",
							"name": "voted",
							"type": "bool"
						}
					],
					"stateMutability": "view",
					"type": "function"
				},
				{
					"inputs": [],
					"name": "manager",
					"outputs": [
						{
							"internalType": "address",
							"name": "",
							"type": "address"
						}
					],
					"stateMutability": "view",
					"type": "function"
				},
				{
					"inputs": [],
					"name": "numFriends",
					"outputs": [
						{
							"internalType": "uint256",
							"name": "",
							"type": "uint256"
						}
					],
					"stateMutability": "view",
					"type": "function"
				},
				{
					"inputs": [],
					"name": "numRestaurants",
					"outputs": [
						{
							"internalType": "uint256",
							"name": "",
							"type": "uint256"
						}
					],
					"stateMutability": "view",
					"type": "function"
				},
				{
					"inputs": [],
					"name": "numVotes",
					"outputs": [
						{
							"internalType": "uint256",
							"name": "",
							"type": "uint256"
						}
					],
					"stateMutability": "view",
					"type": "function"
				},
				{
					"inputs": [
						{
							"internalType": "uint256",
							"name": "blocks",
							"type": "uint256"
						}
					],
					"name": "openVoting",
					"outputs": [],
					"stateMutability": "nonpayable",
					"type": "function"
				},
				{
					"inputs": [],
					"name": "restaurantExist",
					"outputs": [
						{
							"internalType": "bool",
							"name": "",
							"type": "bool"
						}
					],
					"stateMutability": "view",
					"type": "function"
				},
				{
					"inputs": [
						{
							"internalType": "uint256",
							"name": "",
							"type": "uint256"
						}
					],
					"name": "restaurants",
					"outputs": [
						{
							"internalType": "string",
							"name": "",
							"type": "string"
						}
					],
					"stateMutability": "view",
					"type": "function"
				},
				{
					"inputs": [],
					"name": "voteOpen",
					"outputs": [
						{
							"internalType": "bool",
							"name": "",
							"type": "bool"
						}
					],
					"stateMutability": "view",
					"type": "function"
				},
				{
					"inputs": [],
					"name": "voteState",
					"outputs": [
						{
							"internalType": "uint256",
							"name": "",
							"type": "uint256"
						}
					],
					"stateMutability": "view",
					"type": "function"
				},
				{
					"inputs": [],
					"name": "votedRestaurant",
					"outputs": [
						{
							"internalType": "string",
							"name": "",
							"type": "string"
						}
					],
					"stateMutability": "view",
					"type": "function"
				},
				{
					"inputs": [
						{
							"internalType": "uint256",
							"name": "",
							"type": "uint256"
						}
					],
					"name": "votes",
					"outputs": [
						{
							"internalType": "address",
							"name": "voterAddress",
							"type": "address"
						},
						{
							"internalType": "uint256",
							"name": "restaurant",
							"type": "uint256"
						}
					],
					"stateMutability": "view",
					"type": "function"
				}
			],
			"devdoc": {
				"author": "Dilum Bandara , CSIRO ’s Data61 ISSUE SOLVED 1-7 ISSUE 1: In the doVote function, added a condition to check if a friend has voted ISSUE 2: In addFriend and addRestaurant functions, added conditions to check if the friend name or restaurant name have duplicates, if they have, ignore the addition. ISSUE 3: Added a voteState variable to keep track of the vote phase and added conditions in the doVote function to check the state variable to prevent chaos ISSUE 4: Added openVoting function to allow manager to set a timeout variable specifying how long the vote will be open before opening vote. Once the time is up, friends can no long vote and the most voted restaurant can be checked. ISSUE 5: Added a modifier-contractIsActive() and a function deactivateContract to allow the manager diabling the contract ISSUE 6, Used more simple data structures for implementation ISSUE 7, Added more test cases to improve coverage ",
				"kind": "dev",
				"methods": {
					"addFriend(address,string)": {
						"params": {
							"friendAddress": "Friend ’s account / address",
							"name": "Friend ’s name"
						},
						"returns": {
							"_0": "Number of friends added so far"
						}
					},
					"addRestaurant(string)": {
						"params": {
							"name": "Restaurant name"
						},
						"returns": {
							"_0": "Number of restaurants added so far"
						}
					},
					"constructor": {
						"details": "Set manager when contract starts"
					},
					"doVote(uint256)": {
						"params": {
							"restaurant": "Restaurant number being voted"
						},
						"returns": {
							"validVote": "Is the vote valid ? A valid vote should be from a registered end to a registered restaurant"
						}
					}
				},
				"title": "Contract to agree on the lunch venue",
				"version": 1
			},
			"evm": {
				"assembly": "    /* \"contracts/LunchVenue_updated.sol\":1083:7612  contract LunchVenue {... */\n  mstore(0x40, 0x80)\n    /* \"contracts/LunchVenue_updated.sol\":1487:1488  0 */\n  0x00\n    /* \"contracts/LunchVenue_updated.sol\":1458:1488  uint public numRestaurants = 0 */\n  0x02\n  sstore\n    /* \"contracts/LunchVenue_updated.sol\":1519:1520  0 */\n  0x00\n    /* \"contracts/LunchVenue_updated.sol\":1494:1520  uint public numFriends = 0 */\n  0x03\n  sstore\n    /* \"contracts/LunchVenue_updated.sol\":1549:1550  0 */\n  0x00\n    /* \"contracts/LunchVenue_updated.sol\":1526:1550  uint public numVotes = 0 */\n  0x04\n  sstore\n    /* \"contracts/LunchVenue_updated.sol\":1604:1638  string public votedRestaurant = \"\" */\n  mload(0x40)\n  dup1\n  0x20\n  add\n  0x40\n  mstore\n  dup1\n  0x00\n  dup2\n  mstore\n  pop\n  0x06\n  swap1\n  dup2\n  tag_1\n  swap2\n  swap1\n  tag_2\n  jump\t// in\ntag_1:\n  pop\n    /* \"contracts/LunchVenue_updated.sol\":1871:1875  true */\n  0x01\n    /* \"contracts/LunchVenue_updated.sol\":1848:1875  bool public voteOpen = true */\n  0x09\n  exp(0x0100, 0x00)\n  dup2\n  sload\n  dup2\n  0xff\n  mul\n  not\n  and\n  swap1\n  dup4\n  iszero\n  iszero\n  mul\n  or\n  swap1\n  sstore\n  pop\n    /* \"contracts/LunchVenue_updated.sol\":1923:1924  0 */\n  0x00\n    /* \"contracts/LunchVenue_updated.sol\":1899:1924  uint public voteState = 0 */\n  0x0a\n  sstore\n    /* \"contracts/LunchVenue_updated.sol\":2095:2100  false */\n  0x00\n    /* \"contracts/LunchVenue_updated.sol\":2065:2100  bool public restaurantExist = false */\n  0x0b\n  exp(0x0100, 0x00)\n  dup2\n  sload\n  dup2\n  0xff\n  mul\n  not\n  and\n  swap1\n  dup4\n  iszero\n  iszero\n  mul\n  or\n  swap1\n  sstore\n  pop\n    /* \"contracts/LunchVenue_updated.sol\":2270:2437  constructor () {... */\n  callvalue\n  dup1\n  iszero\n  tag_3\n  jumpi\n  0x00\n  dup1\n  revert\ntag_3:\n  pop\n    /* \"contracts/LunchVenue_updated.sol\":2305:2315  msg.sender */\n  caller\n    /* \"contracts/LunchVenue_updated.sol\":2295:2302  manager */\n  0x05\n  0x00\n    /* \"contracts/LunchVenue_updated.sol\":2295:2315  manager = msg.sender */\n  0x0100\n  exp\n  dup2\n  sload\n  dup2\n  0xffffffffffffffffffffffffffffffffffffffff\n  mul\n  not\n  and\n  swap1\n  dup4\n  0xffffffffffffffffffffffffffffffffffffffff\n  and\n  mul\n  or\n  swap1\n  sstore\n  pop\n    /* \"contracts/LunchVenue_updated.sol\":2377:2381  true */\n  0x01\n    /* \"contracts/LunchVenue_updated.sol\":2360:2374  contractActive */\n  0x0d\n  0x00\n    /* \"contracts/LunchVenue_updated.sol\":2360:2381  contractActive = true */\n  0x0100\n  exp\n  dup2\n  sload\n  dup2\n  0xff\n  mul\n  not\n  and\n  swap1\n  dup4\n  iszero\n  iszero\n  mul\n  or\n  swap1\n  sstore\n  pop\n    /* \"contracts/LunchVenue_updated.sol\":1083:7612  contract LunchVenue {... */\n  jump(tag_6)\n    /* \"#utility.yul\":7:106   */\ntag_7:\n    /* \"#utility.yul\":59:65   */\n  0x00\n    /* \"#utility.yul\":93:98   */\n  dup2\n    /* \"#utility.yul\":87:99   */\n  mload\n    /* \"#utility.yul\":77:99   */\n  swap1\n  pop\n    /* \"#utility.yul\":7:106   */\n  swap2\n  swap1\n  pop\n  jump\t// out\n    /* \"#utility.yul\":112:292   */\ntag_8:\n    /* \"#utility.yul\":160:237   */\n  0x4e487b7100000000000000000000000000000000000000000000000000000000\n    /* \"#utility.yul\":157:158   */\n  0x00\n    /* \"#utility.yul\":150:238   */\n  mstore\n    /* \"#utility.yul\":257:261   */\n  0x41\n    /* \"#utility.yul\":254:255   */\n  0x04\n    /* \"#utility.yul\":247:262   */\n  mstore\n    /* \"#utility.yul\":281:285   */\n  0x24\n    /* \"#utility.yul\":278:279   */\n  0x00\n    /* \"#utility.yul\":271:286   */\n  revert\n    /* \"#utility.yul\":298:478   */\ntag_9:\n    /* \"#utility.yul\":346:423   */\n  0x4e487b7100000000000000000000000000000000000000000000000000000000\n    /* \"#utility.yul\":343:344   */\n  0x00\n    /* \"#utility.yul\":336:424   */\n  mstore\n    /* \"#utility.yul\":443:447   */\n  0x22\n    /* \"#utility.yul\":440:441   */\n  0x04\n    /* \"#utility.yul\":433:448   */\n  mstore\n    /* \"#utility.yul\":467:471   */\n  0x24\n    /* \"#utility.yul\":464:465   */\n  0x00\n    /* \"#utility.yul\":457:472   */\n  revert\n    /* \"#utility.yul\":484:804   */\ntag_10:\n    /* \"#utility.yul\":528:534   */\n  0x00\n    /* \"#utility.yul\":565:566   */\n  0x02\n    /* \"#utility.yul\":559:563   */\n  dup3\n    /* \"#utility.yul\":555:567   */\n  div\n    /* \"#utility.yul\":545:567   */\n  swap1\n  pop\n    /* \"#utility.yul\":612:613   */\n  0x01\n    /* \"#utility.yul\":606:610   */\n  dup3\n    /* \"#utility.yul\":602:614   */\n  and\n    /* \"#utility.yul\":633:651   */\n  dup1\n    /* \"#utility.yul\":623:704   */\n  tag_32\n  jumpi\n    /* \"#utility.yul\":689:693   */\n  0x7f\n    /* \"#utility.yul\":681:687   */\n  dup3\n    /* \"#utility.yul\":677:694   */\n  and\n    /* \"#utility.yul\":667:694   */\n  swap2\n  pop\n    /* \"#utility.yul\":623:704   */\ntag_32:\n    /* \"#utility.yul\":751:753   */\n  0x20\n    /* \"#utility.yul\":743:749   */\n  dup3\n    /* \"#utility.yul\":740:754   */\n  lt\n    /* \"#utility.yul\":720:738   */\n  dup2\n    /* \"#utility.yul\":717:755   */\n  sub\n    /* \"#utility.yul\":714:798   */\n  tag_33\n  jumpi\n    /* \"#utility.yul\":770:788   */\n  tag_34\n  tag_9\n  jump\t// in\ntag_34:\n    /* \"#utility.yul\":714:798   */\ntag_33:\n    /* \"#utility.yul\":535:804   */\n  pop\n    /* \"#utility.yul\":484:804   */\n  swap2\n  swap1\n  pop\n  jump\t// out\n    /* \"#utility.yul\":810:951   */\ntag_11:\n    /* \"#utility.yul\":859:863   */\n  0x00\n    /* \"#utility.yul\":882:885   */\n  dup2\n    /* \"#utility.yul\":874:885   */\n  swap1\n  pop\n    /* \"#utility.yul\":905:908   */\n  dup2\n    /* \"#utility.yul\":902:903   */\n  0x00\n    /* \"#utility.yul\":895:909   */\n  mstore\n    /* \"#utility.yul\":939:943   */\n  0x20\n    /* \"#utility.yul\":936:937   */\n  0x00\n    /* \"#utility.yul\":926:944   */\n  keccak256\n    /* \"#utility.yul\":918:944   */\n  swap1\n  pop\n    /* \"#utility.yul\":810:951   */\n  swap2\n  swap1\n  pop\n  jump\t// out\n    /* \"#utility.yul\":957:1050   */\ntag_12:\n    /* \"#utility.yul\":994:1000   */\n  0x00\n    /* \"#utility.yul\":1041:1043   */\n  0x20\n    /* \"#utility.yul\":1036:1038   */\n  0x1f\n    /* \"#utility.yul\":1029:1034   */\n  dup4\n    /* \"#utility.yul\":1025:1039   */\n  add\n    /* \"#utility.yul\":1021:1044   */\n  div\n    /* \"#utility.yul\":1011:1044   */\n  swap1\n  pop\n    /* \"#utility.yul\":957:1050   */\n  swap2\n  swap1\n  pop\n  jump\t// out\n    /* \"#utility.yul\":1056:1163   */\ntag_13:\n    /* \"#utility.yul\":1100:1108   */\n  0x00\n    /* \"#utility.yul\":1150:1155   */\n  dup3\n    /* \"#utility.yul\":1144:1148   */\n  dup3\n    /* \"#utility.yul\":1140:1156   */\n  shl\n    /* \"#utility.yul\":1119:1156   */\n  swap1\n  pop\n    /* \"#utility.yul\":1056:1163   */\n  swap3\n  swap2\n  pop\n  pop\n  jump\t// out\n    /* \"#utility.yul\":1169:1562   */\ntag_14:\n    /* \"#utility.yul\":1238:1244   */\n  0x00\n    /* \"#utility.yul\":1288:1289   */\n  0x08\n    /* \"#utility.yul\":1276:1286   */\n  dup4\n    /* \"#utility.yul\":1272:1290   */\n  mul\n    /* \"#utility.yul\":1311:1408   */\n  tag_39\n    /* \"#utility.yul\":1341:1407   */\n  0xffffffffffffffffffffffffffffffffffffffffffffffffffffffffffffffff\n    /* \"#utility.yul\":1330:1339   */\n  dup3\n    /* \"#utility.yul\":1311:1408   */\n  tag_13\n  jump\t// in\ntag_39:\n    /* \"#utility.yul\":1429:1468   */\n  tag_40\n    /* \"#utility.yul\":1459:1467   */\n  dup7\n    /* \"#utility.yul\":1448:1457   */\n  dup4\n    /* \"#utility.yul\":1429:1468   */\n  tag_13\n  jump\t// in\ntag_40:\n    /* \"#utility.yul\":1417:1468   */\n  swap6\n  pop\n    /* \"#utility.yul\":1501:1505   */\n  dup1\n    /* \"#utility.yul\":1497:1506   */\n  not\n    /* \"#utility.yul\":1490:1495   */\n  dup5\n    /* \"#utility.yul\":1486:1507   */\n  and\n    /* \"#utility.yul\":1477:1507   */\n  swap4\n  pop\n    /* \"#utility.yul\":1550:1554   */\n  dup1\n    /* \"#utility.yul\":1540:1548   */\n  dup7\n    /* \"#utility.yul\":1536:1555   */\n  and\n    /* \"#utility.yul\":1529:1534   */\n  dup5\n    /* \"#utility.yul\":1526:1556   */\n  or\n    /* \"#utility.yul\":1516:1556   */\n  swap3\n  pop\n    /* \"#utility.yul\":1245:1562   */\n  pop\n  pop\n    /* \"#utility.yul\":1169:1562   */\n  swap4\n  swap3\n  pop\n  pop\n  pop\n  jump\t// out\n    /* \"#utility.yul\":1568:1645   */\ntag_15:\n    /* \"#utility.yul\":1605:1612   */\n  0x00\n    /* \"#utility.yul\":1634:1639   */\n  dup2\n    /* \"#utility.yul\":1623:1639   */\n  swap1\n  pop\n    /* \"#utility.yul\":1568:1645   */\n  swap2\n  swap1\n  pop\n  jump\t// out\n    /* \"#utility.yul\":1651:1711   */\ntag_16:\n    /* \"#utility.yul\":1679:1682   */\n  0x00\n    /* \"#utility.yul\":1700:1705   */\n  dup2\n    /* \"#utility.yul\":1693:1705   */\n  swap1\n  pop\n    /* \"#utility.yul\":1651:1711   */\n  swap2\n  swap1\n  pop\n  jump\t// out\n    /* \"#utility.yul\":1717:1859   */\ntag_17:\n    /* \"#utility.yul\":1767:1776   */\n  0x00\n    /* \"#utility.yul\":1800:1853   */\n  tag_44\n    /* \"#utility.yul\":1818:1852   */\n  tag_45\n    /* \"#utility.yul\":1827:1851   */\n  tag_46\n    /* \"#utility.yul\":1845:1850   */\n  dup5\n    /* \"#utility.yul\":1827:1851   */\n  tag_15\n  jump\t// in\ntag_46:\n    /* \"#utility.yul\":1818:1852   */\n  tag_16\n  jump\t// in\ntag_45:\n    /* \"#utility.yul\":1800:1853   */\n  tag_15\n  jump\t// in\ntag_44:\n    /* \"#utility.yul\":1787:1853   */\n  swap1\n  pop\n    /* \"#utility.yul\":1717:1859   */\n  swap2\n  swap1\n  pop\n  jump\t// out\n    /* \"#utility.yul\":1865:1940   */\ntag_18:\n    /* \"#utility.yul\":1908:1911   */\n  0x00\n    /* \"#utility.yul\":1929:1934   */\n  dup2\n    /* \"#utility.yul\":1922:1934   */\n  swap1\n  pop\n    /* \"#utility.yul\":1865:1940   */\n  swap2\n  swap1\n  pop\n  jump\t// out\n    /* \"#utility.yul\":1946:2215   */\ntag_19:\n    /* \"#utility.yul\":2056:2095   */\n  tag_49\n    /* \"#utility.yul\":2087:2094   */\n  dup4\n    /* \"#utility.yul\":2056:2095   */\n  tag_17\n  jump\t// in\ntag_49:\n    /* \"#utility.yul\":2117:2208   */\n  tag_50\n    /* \"#utility.yul\":2166:2207   */\n  tag_51\n    /* \"#utility.yul\":2190:2206   */\n  dup3\n    /* \"#utility.yul\":2166:2207   */\n  tag_18\n  jump\t// in\ntag_51:\n    /* \"#utility.yul\":2158:2164   */\n  dup5\n    /* \"#utility.yul\":2151:2155   */\n  dup5\n    /* \"#utility.yul\":2145:2156   */\n  sload\n    /* \"#utility.yul\":2117:2208   */\n  tag_14\n  jump\t// in\ntag_50:\n    /* \"#utility.yul\":2111:2115   */\n  dup3\n    /* \"#utility.yul\":2104:2209   */\n  sstore\n    /* \"#utility.yul\":2022:2215   */\n  pop\n    /* \"#utility.yul\":1946:2215   */\n  pop\n  pop\n  pop\n  jump\t// out\n    /* \"#utility.yul\":2221:2294   */\ntag_20:\n    /* \"#utility.yul\":2266:2269   */\n  0x00\n    /* \"#utility.yul\":2221:2294   */\n  swap1\n  jump\t// out\n    /* \"#utility.yul\":2300:2489   */\ntag_21:\n    /* \"#utility.yul\":2377:2409   */\n  tag_54\n  tag_20\n  jump\t// in\ntag_54:\n    /* \"#utility.yul\":2418:2483   */\n  tag_55\n    /* \"#utility.yul\":2476:2482   */\n  dup2\n    /* \"#utility.yul\":2468:2474   */\n  dup5\n    /* \"#utility.yul\":2462:2466   */\n  dup5\n    /* \"#utility.yul\":2418:2483   */\n  tag_19\n  jump\t// in\ntag_55:\n    /* \"#utility.yul\":2353:2489   */\n  pop\n    /* \"#utility.yul\":2300:2489   */\n  pop\n  pop\n  jump\t// out\n    /* \"#utility.yul\":2495:2681   */\ntag_22:\n    /* \"#utility.yul\":2555:2675   */\ntag_57:\n    /* \"#utility.yul\":2572:2575   */\n  dup2\n    /* \"#utility.yul\":2565:2570   */\n  dup2\n    /* \"#utility.yul\":2562:2576   */\n  lt\n    /* \"#utility.yul\":2555:2675   */\n  iszero\n  tag_59\n  jumpi\n    /* \"#utility.yul\":2626:2665   */\n  tag_60\n    /* \"#utility.yul\":2663:2664   */\n  0x00\n    /* \"#utility.yul\":2656:2661   */\n  dup3\n    /* \"#utility.yul\":2626:2665   */\n  tag_21\n  jump\t// in\ntag_60:\n    /* \"#utility.yul\":2599:2600   */\n  0x01\n    /* \"#utility.yul\":2592:2597   */\n  dup2\n    /* \"#utility.yul\":2588:2601   */\n  add\n    /* \"#utility.yul\":2579:2601   */\n  swap1\n  pop\n    /* \"#utility.yul\":2555:2675   */\n  jump(tag_57)\ntag_59:\n    /* \"#utility.yul\":2495:2681   */\n  pop\n  pop\n  jump\t// out\n    /* \"#utility.yul\":2687:3230   */\ntag_23:\n    /* \"#utility.yul\":2788:2790   */\n  0x1f\n    /* \"#utility.yul\":2783:2786   */\n  dup3\n    /* \"#utility.yul\":2780:2791   */\n  gt\n    /* \"#utility.yul\":2777:3223   */\n  iszero\n  tag_62\n  jumpi\n    /* \"#utility.yul\":2822:2860   */\n  tag_63\n    /* \"#utility.yul\":2854:2859   */\n  dup2\n    /* \"#utility.yul\":2822:2860   */\n  tag_11\n  jump\t// in\ntag_63:\n    /* \"#utility.yul\":2906:2935   */\n  tag_64\n    /* \"#utility.yul\":2924:2934   */\n  dup5\n    /* \"#utility.yul\":2906:2935   */\n  tag_12\n  jump\t// in\ntag_64:\n    /* \"#utility.yul\":2896:2904   */\n  dup2\n    /* \"#utility.yul\":2892:2936   */\n  add\n    /* \"#utility.yul\":3089:3091   */\n  0x20\n    /* \"#utility.yul\":3077:3087   */\n  dup6\n    /* \"#utility.yul\":3074:3092   */\n  lt\n    /* \"#utility.yul\":3071:3120   */\n  iszero\n  tag_65\n  jumpi\n    /* \"#utility.yul\":3110:3118   */\n  dup2\n    /* \"#utility.yul\":3095:3118   */\n  swap1\n  pop\n    /* \"#utility.yul\":3071:3120   */\ntag_65:\n    /* \"#utility.yul\":3133:3213   */\n  tag_66\n    /* \"#utility.yul\":3189:3211   */\n  tag_67\n    /* \"#utility.yul\":3207:3210   */\n  dup6\n    /* \"#utility.yul\":3189:3211   */\n  tag_12\n  jump\t// in\ntag_67:\n    /* \"#utility.yul\":3179:3187   */\n  dup4\n    /* \"#utility.yul\":3175:3212   */\n  add\n    /* \"#utility.yul\":3162:3173   */\n  dup3\n    /* \"#utility.yul\":3133:3213   */\n  tag_22\n  jump\t// in\ntag_66:\n    /* \"#utility.yul\":2792:3223   */\n  pop\n  pop\n    /* \"#utility.yul\":2777:3223   */\ntag_62:\n    /* \"#utility.yul\":2687:3230   */\n  pop\n  pop\n  pop\n  jump\t// out\n    /* \"#utility.yul\":3236:3353   */\ntag_24:\n    /* \"#utility.yul\":3290:3298   */\n  0x00\n    /* \"#utility.yul\":3340:3345   */\n  dup3\n    /* \"#utility.yul\":3334:3338   */\n  dup3\n    /* \"#utility.yul\":3330:3346   */\n  shr\n    /* \"#utility.yul\":3309:3346   */\n  swap1\n  pop\n    /* \"#utility.yul\":3236:3353   */\n  swap3\n  swap2\n  pop\n  pop\n  jump\t// out\n    /* \"#utility.yul\":3359:3528   */\ntag_25:\n    /* \"#utility.yul\":3403:3409   */\n  0x00\n    /* \"#utility.yul\":3436:3487   */\n  tag_70\n    /* \"#utility.yul\":3484:3485   */\n  0x00\n    /* \"#utility.yul\":3480:3486   */\n  not\n    /* \"#utility.yul\":3472:3477   */\n  dup5\n    /* \"#utility.yul\":3469:3470   */\n  0x08\n    /* \"#utility.yul\":3465:3478   */\n  mul\n    /* \"#utility.yul\":3436:3487   */\n  tag_24\n  jump\t// in\ntag_70:\n    /* \"#utility.yul\":3432:3488   */\n  not\n    /* \"#utility.yul\":3517:3521   */\n  dup1\n    /* \"#utility.yul\":3511:3515   */\n  dup4\n    /* \"#utility.yul\":3507:3522   */\n  and\n    /* \"#utility.yul\":3497:3522   */\n  swap2\n  pop\n    /* \"#utility.yul\":3410:3528   */\n  pop\n    /* \"#utility.yul\":3359:3528   */\n  swap3\n  swap2\n  pop\n  pop\n  jump\t// out\n    /* \"#utility.yul\":3533:3828   */\ntag_26:\n    /* \"#utility.yul\":3609:3613   */\n  0x00\n    /* \"#utility.yul\":3755:3784   */\n  tag_72\n    /* \"#utility.yul\":3780:3783   */\n  dup4\n    /* \"#utility.yul\":3774:3778   */\n  dup4\n    /* \"#utility.yul\":3755:3784   */\n  tag_25\n  jump\t// in\ntag_72:\n    /* \"#utility.yul\":3747:3784   */\n  swap2\n  pop\n    /* \"#utility.yul\":3817:3820   */\n  dup3\n    /* \"#utility.yul\":3814:3815   */\n  0x02\n    /* \"#utility.yul\":3810:3821   */\n  mul\n    /* \"#utility.yul\":3804:3808   */\n  dup3\n    /* \"#utility.yul\":3801:3822   */\n  or\n    /* \"#utility.yul\":3793:3822   */\n  swap1\n  pop\n    /* \"#utility.yul\":3533:3828   */\n  swap3\n  swap2\n  pop\n  pop\n  jump\t// out\n    /* \"#utility.yul\":3833:5228   */\ntag_2:\n    /* \"#utility.yul\":3950:3987   */\n  tag_74\n    /* \"#utility.yul\":3983:3986   */\n  dup3\n    /* \"#utility.yul\":3950:3987   */\n  tag_7\n  jump\t// in\ntag_74:\n    /* \"#utility.yul\":4052:4070   */\n  0xffffffffffffffff\n    /* \"#utility.yul\":4044:4050   */\n  dup2\n    /* \"#utility.yul\":4041:4071   */\n  gt\n    /* \"#utility.yul\":4038:4094   */\n  iszero\n  tag_75\n  jumpi\n    /* \"#utility.yul\":4074:4092   */\n  tag_76\n  tag_8\n  jump\t// in\ntag_76:\n    /* \"#utility.yul\":4038:4094   */\ntag_75:\n    /* \"#utility.yul\":4118:4156   */\n  tag_77\n    /* \"#utility.yul\":4150:4154   */\n  dup3\n    /* \"#utility.yul\":4144:4155   */\n  sload\n    /* \"#utility.yul\":4118:4156   */\n  tag_10\n  jump\t// in\ntag_77:\n    /* \"#utility.yul\":4203:4270   */\n  tag_78\n    /* \"#utility.yul\":4263:4269   */\n  dup3\n    /* \"#utility.yul\":4255:4261   */\n  dup3\n    /* \"#utility.yul\":4249:4253   */\n  dup6\n    /* \"#utility.yul\":4203:4270   */\n  tag_23\n  jump\t// in\ntag_78:\n    /* \"#utility.yul\":4297:4298   */\n  0x00\n    /* \"#utility.yul\":4321:4325   */\n  0x20\n    /* \"#utility.yul\":4308:4325   */\n  swap1\n  pop\n    /* \"#utility.yul\":4353:4355   */\n  0x1f\n    /* \"#utility.yul\":4345:4351   */\n  dup4\n    /* \"#utility.yul\":4342:4356   */\n  gt\n    /* \"#utility.yul\":4370:4371   */\n  0x01\n    /* \"#utility.yul\":4365:4983   */\n  dup2\n  eq\n  tag_80\n  jumpi\n    /* \"#utility.yul\":5027:5028   */\n  0x00\n    /* \"#utility.yul\":5044:5050   */\n  dup5\n    /* \"#utility.yul\":5041:5118   */\n  iszero\n  tag_81\n  jumpi\n    /* \"#utility.yul\":5093:5102   */\n  dup3\n    /* \"#utility.yul\":5088:5091   */\n  dup8\n    /* \"#utility.yul\":5084:5103   */\n  add\n    /* \"#utility.yul\":5078:5104   */\n  mload\n    /* \"#utility.yul\":5069:5104   */\n  swap1\n  pop\n    /* \"#utility.yul\":5041:5118   */\ntag_81:\n    /* \"#utility.yul\":5144:5211   */\n  tag_82\n    /* \"#utility.yul\":5204:5210   */\n  dup6\n    /* \"#utility.yul\":5197:5202   */\n  dup3\n    /* \"#utility.yul\":5144:5211   */\n  tag_26\n  jump\t// in\ntag_82:\n    /* \"#utility.yul\":5138:5142   */\n  dup7\n    /* \"#utility.yul\":5131:5212   */\n  sstore\n    /* \"#utility.yul\":5000:5222   */\n  pop\n    /* \"#utility.yul\":4335:5222   */\n  jump(tag_79)\n    /* \"#utility.yul\":4365:4983   */\ntag_80:\n    /* \"#utility.yul\":4417:4421   */\n  0x1f\n    /* \"#utility.yul\":4413:4422   */\n  not\n    /* \"#utility.yul\":4405:4411   */\n  dup5\n    /* \"#utility.yul\":4401:4423   */\n  and\n    /* \"#utility.yul\":4451:4488   */\n  tag_83\n    /* \"#utility.yul\":4483:4487   */\n  dup7\n    /* \"#utility.yul\":4451:4488   */\n  tag_11\n  jump\t// in\ntag_83:\n    /* \"#utility.yul\":4510:4511   */\n  0x00\n    /* \"#utility.yul\":4524:4732   */\ntag_84:\n    /* \"#utility.yul\":4538:4545   */\n  dup3\n    /* \"#utility.yul\":4535:4536   */\n  dup2\n    /* \"#utility.yul\":4532:4546   */\n  lt\n    /* \"#utility.yul\":4524:4732   */\n  iszero\n  tag_86\n  jumpi\n    /* \"#utility.yul\":4617:4626   */\n  dup5\n    /* \"#utility.yul\":4612:4615   */\n  dup10\n    /* \"#utility.yul\":4608:4627   */\n  add\n    /* \"#utility.yul\":4602:4628   */\n  mload\n    /* \"#utility.yul\":4594:4600   */\n  dup3\n    /* \"#utility.yul\":4587:4629   */\n  sstore\n    /* \"#utility.yul\":4668:4669   */\n  0x01\n    /* \"#utility.yul\":4660:4666   */\n  dup3\n    /* \"#utility.yul\":4656:4670   */\n  add\n    /* \"#utility.yul\":4646:4670   */\n  swap2\n  pop\n    /* \"#utility.yul\":4715:4717   */\n  0x20\n    /* \"#utility.yul\":4704:4713   */\n  dup6\n    /* \"#utility.yul\":4700:4718   */\n  add\n    /* \"#utility.yul\":4687:4718   */\n  swap5\n  pop\n    /* \"#utility.yul\":4561:4565   */\n  0x20\n    /* \"#utility.yul\":4558:4559   */\n  dup2\n    /* \"#utility.yul\":4554:4566   */\n  add\n    /* \"#utility.yul\":4549:4566   */\n  swap1\n  pop\n    /* \"#utility.yul\":4524:4732   */\n  jump(tag_84)\ntag_86:\n    /* \"#utility.yul\":4760:4766   */\n  dup7\n    /* \"#utility.yul\":4751:4758   */\n  dup4\n    /* \"#utility.yul\":4748:4767   */\n  lt\n    /* \"#utility.yul\":4745:4924   */\n  iszero\n  tag_87\n  jumpi\n    /* \"#utility.yul\":4818:4827   */\n  dup5\n    /* \"#utility.yul\":4813:4816   */\n  dup10\n    /* \"#utility.yul\":4809:4828   */\n  add\n    /* \"#utility.yul\":4803:4829   */\n  mload\n    /* \"#utility.yul\":4861:4909   */\n  tag_88\n    /* \"#utility.yul\":4903:4907   */\n  0x1f\n    /* \"#utility.yul\":4895:4901   */\n  dup10\n    /* \"#utility.yul\":4891:4908   */\n  and\n    /* \"#utility.yul\":4880:4889   */\n  dup3\n    /* \"#utility.yul\":4861:4909   */\n  tag_25\n  jump\t// in\ntag_88:\n    /* \"#utility.yul\":4853:4859   */\n  dup4\n    /* \"#utility.yul\":4846:4910   */\n  sstore\n    /* \"#utility.yul\":4768:4924   */\n  pop\n    /* \"#utility.yul\":4745:4924   */\ntag_87:\n    /* \"#utility.yul\":4970:4971   */\n  0x01\n    /* \"#utility.yul\":4966:4967   */\n  0x02\n    /* \"#utility.yul\":4958:4964   */\n  dup9\n    /* \"#utility.yul\":4954:4968   */\n  mul\n    /* \"#utility.yul\":4950:4972   */\n  add\n    /* \"#utility.yul\":4944:4948   */\n  dup9\n    /* \"#utility.yul\":4937:4973   */\n  sstore\n    /* \"#utility.yul\":4372:4983   */\n  pop\n  pop\n  pop\n    /* \"#utility.yul\":4335:5222   */\ntag_79:\n  pop\n    /* \"#utility.yul\":3925:5228   */\n  pop\n  pop\n  pop\n    /* \"#utility.yul\":3833:5228   */\n  pop\n  pop\n  jump\t// out\n    /* \"contracts/LunchVenue_updated.sol\":1083:7612  contract LunchVenue {... */\ntag_6:\n  dataSize(sub_0)\n  dup1\n  dataOffset(sub_0)\n  0x00\n  codecopy\n  0x00\n  return\nstop\n\nsub_0: assembly {\n        /* \"contracts/LunchVenue_updated.sol\":1083:7612  contract LunchVenue {... */\n      mstore(0x40, 0x80)\n      callvalue\n      dup1\n      iszero\n      tag_1\n      jumpi\n      0x00\n      dup1\n      revert\n    tag_1:\n      pop\n      jumpi(tag_2, lt(calldatasize, 0x04))\n      shr(0xe0, calldataload(0x00))\n      dup1\n      0x72181ae9\n      gt\n      tag_21\n      jumpi\n      dup1\n      0xb798867f\n      gt\n      tag_22\n      jumpi\n      dup1\n      0xb798867f\n      eq\n      tag_16\n      jumpi\n      dup1\n      0xbca353be\n      eq\n      tag_17\n      jumpi\n      dup1\n      0xbe8db3cf\n      eq\n      tag_18\n      jumpi\n      dup1\n      0xc1c16efc\n      eq\n      tag_19\n      jumpi\n      dup1\n      0xe289fcb6\n      eq\n      tag_20\n      jumpi\n      jump(tag_2)\n    tag_22:\n      dup1\n      0x72181ae9\n      eq\n      tag_12\n      jumpi\n      dup1\n      0x788d3851\n      eq\n      tag_13\n      jumpi\n      dup1\n      0xa3bef4d7\n      eq\n      tag_14\n      jumpi\n      dup1\n      0xad5461d8\n      eq\n      tag_15\n      jumpi\n      jump(tag_2)\n    tag_21:\n      dup1\n      0x481c6a75\n      gt\n      tag_23\n      jumpi\n      dup1\n      0x481c6a75\n      eq\n      tag_7\n      jumpi\n      dup1\n      0x5df81330\n      eq\n      tag_8\n      jumpi\n      dup1\n      0x5f2ba6b2\n      eq\n      tag_9\n      jumpi\n      dup1\n      0x66597e5a\n      eq\n      tag_10\n      jumpi\n      dup1\n      0x6d77bd3e\n      eq\n      tag_11\n      jumpi\n      jump(tag_2)\n    tag_23:\n      dup1\n      0x124258c6\n      eq\n      tag_3\n      jumpi\n      dup1\n      0x1ddabf7a\n      eq\n      tag_4\n      jumpi\n      dup1\n      0x3b9f708d\n      eq\n      tag_5\n      jumpi\n      dup1\n      0x47098f36\n      eq\n      tag_6\n      jumpi\n    tag_2:\n      0x00\n      dup1\n      revert\n        /* \"contracts/LunchVenue_updated.sol\":4912:6049  function doVote (uint restaurant) public votingOpen contractIsActive returns (bool validVote){... */\n    tag_3:\n      tag_24\n      0x04\n      dup1\n      calldatasize\n      sub\n      dup2\n      add\n      swap1\n      tag_25\n      swap2\n      swap1\n      tag_26\n      jump\t// in\n    tag_25:\n      tag_27\n      jump\t// in\n    tag_24:\n      mload(0x40)\n      tag_28\n      swap2\n      swap1\n      tag_29\n      jump\t// in\n    tag_28:\n      mload(0x40)\n      dup1\n      swap2\n      sub\n      swap1\n      return\n        /* \"contracts/LunchVenue_updated.sol\":1368:1412  mapping ( address => Friend ) public friends */\n    tag_4:\n      tag_30\n      0x04\n      dup1\n      calldatasize\n      sub\n      dup2\n      add\n      swap1\n      tag_31\n      swap2\n      swap1\n      tag_32\n      jump\t// in\n    tag_31:\n      tag_33\n      jump\t// in\n    tag_30:\n      mload(0x40)\n      tag_34\n      swap3\n      swap2\n      swap1\n      tag_35\n      jump\t// in\n    tag_34:\n      mload(0x40)\n      dup1\n      swap2\n      sub\n      swap1\n      return\n        /* \"contracts/LunchVenue_updated.sol\":3709:4316  function addFriend (address friendAddress, string memory name) public restricted contractIsActive... */\n    tag_5:\n      tag_36\n      0x04\n      dup1\n      calldatasize\n      sub\n      dup2\n      add\n      swap1\n      tag_37\n      swap2\n      swap1\n      tag_38\n      jump\t// in\n    tag_37:\n      tag_39\n      jump\t// in\n    tag_36:\n      mload(0x40)\n      tag_40\n      swap2\n      swap1\n      tag_41\n      jump\t// in\n    tag_40:\n      mload(0x40)\n      dup1\n      swap2\n      sub\n      swap1\n      return\n        /* \"contracts/LunchVenue_updated.sol\":1494:1520  uint public numFriends = 0 */\n    tag_6:\n      tag_42\n      tag_43\n      jump\t// in\n    tag_42:\n      mload(0x40)\n      tag_44\n      swap2\n      swap1\n      tag_41\n      jump\t// in\n    tag_44:\n      mload(0x40)\n      dup1\n      swap2\n      sub\n      swap1\n      return\n        /* \"contracts/LunchVenue_updated.sol\":1556:1578  address public manager */\n    tag_7:\n      tag_45\n      tag_46\n      jump\t// in\n    tag_45:\n      mload(0x40)\n      tag_47\n      swap2\n      swap1\n      tag_48\n      jump\t// in\n    tag_47:\n      mload(0x40)\n      dup1\n      swap2\n      sub\n      swap1\n      return\n        /* \"contracts/LunchVenue_updated.sol\":1667:1704  mapping ( uint => Vote ) public votes */\n    tag_8:\n      tag_49\n      0x04\n      dup1\n      calldatasize\n      sub\n      dup2\n      add\n      swap1\n      tag_50\n      swap2\n      swap1\n      tag_26\n      jump\t// in\n    tag_50:\n      tag_51\n      jump\t// in\n    tag_49:\n      mload(0x40)\n      tag_52\n      swap3\n      swap2\n      swap1\n      tag_53\n      jump\t// in\n    tag_52:\n      mload(0x40)\n      dup1\n      swap2\n      sub\n      swap1\n      return\n        /* \"contracts/LunchVenue_updated.sol\":4402:4678  function openVoting(uint blocks) public restricted contractIsActive{... */\n    tag_9:\n      tag_54\n      0x04\n      dup1\n      calldatasize\n      sub\n      dup2\n      add\n      swap1\n      tag_55\n      swap2\n      swap1\n      tag_26\n      jump\t// in\n    tag_55:\n      tag_56\n      jump\t// in\n    tag_54:\n      stop\n        /* \"contracts/LunchVenue_updated.sol\":1899:1924  uint public voteState = 0 */\n    tag_10:\n      tag_57\n      tag_58\n      jump\t// in\n    tag_57:\n      mload(0x40)\n      tag_59\n      swap2\n      swap1\n      tag_41\n      jump\t// in\n    tag_59:\n      mload(0x40)\n      dup1\n      swap2\n      sub\n      swap1\n      return\n        /* \"contracts/LunchVenue_updated.sol\":2718:3496  function addRestaurant (string memory name) public restricted contractIsActive... */\n    tag_11:\n      tag_60\n      0x04\n      dup1\n      calldatasize\n      sub\n      dup2\n      add\n      swap1\n      tag_61\n      swap2\n      swap1\n      tag_62\n      jump\t// in\n    tag_61:\n      tag_63\n      jump\t// in\n    tag_60:\n      mload(0x40)\n      tag_64\n      swap2\n      swap1\n      tag_41\n      jump\t// in\n    tag_64:\n      mload(0x40)\n      dup1\n      swap2\n      sub\n      swap1\n      return\n        /* \"contracts/LunchVenue_updated.sol\":2065:2100  bool public restaurantExist = false */\n    tag_12:\n      tag_65\n      tag_66\n      jump\t// in\n    tag_65:\n      mload(0x40)\n      tag_67\n      swap2\n      swap1\n      tag_29\n      jump\t// in\n    tag_67:\n      mload(0x40)\n      dup1\n      swap2\n      sub\n      swap1\n      return\n        /* \"contracts/LunchVenue_updated.sol\":1848:1875  bool public voteOpen = true */\n    tag_13:\n      tag_68\n      tag_69\n      jump\t// in\n    tag_68:\n      mload(0x40)\n      tag_70\n      swap2\n      swap1\n      tag_29\n      jump\t// in\n    tag_70:\n      mload(0x40)\n      dup1\n      swap2\n      sub\n      swap1\n      return\n        /* \"contracts/LunchVenue_updated.sol\":1526:1550  uint public numVotes = 0 */\n    tag_14:\n      tag_71\n      tag_72\n      jump\t// in\n    tag_71:\n      mload(0x40)\n      tag_73\n      swap2\n      swap1\n      tag_41\n      jump\t// in\n    tag_73:\n      mload(0x40)\n      dup1\n      swap2\n      sub\n      swap1\n      return\n        /* \"contracts/LunchVenue_updated.sol\":1269:1314  mapping ( uint => string ) public restaurants */\n    tag_15:\n      tag_74\n      0x04\n      dup1\n      calldatasize\n      sub\n      dup2\n      add\n      swap1\n      tag_75\n      swap2\n      swap1\n      tag_26\n      jump\t// in\n    tag_75:\n      tag_76\n      jump\t// in\n    tag_74:\n      mload(0x40)\n      tag_77\n      swap2\n      swap1\n      tag_78\n      jump\t// in\n    tag_77:\n      mload(0x40)\n      dup1\n      swap2\n      sub\n      swap1\n      return\n        /* \"contracts/LunchVenue_updated.sol\":1458:1488  uint public numRestaurants = 0 */\n    tag_16:\n      tag_79\n      tag_80\n      jump\t// in\n    tag_79:\n      mload(0x40)\n      tag_81\n      swap2\n      swap1\n      tag_41\n      jump\t// in\n    tag_81:\n      mload(0x40)\n      dup1\n      swap2\n      sub\n      swap1\n      return\n        /* \"contracts/LunchVenue_updated.sol\":2458:2569  function deactivateContract() public restricted {... */\n    tag_17:\n      tag_82\n      tag_83\n      jump\t// in\n    tag_82:\n      stop\n        /* \"contracts/LunchVenue_updated.sol\":2106:2137  uint public deadlineBlockNumber */\n    tag_18:\n      tag_84\n      tag_85\n      jump\t// in\n    tag_84:\n      mload(0x40)\n      tag_86\n      swap2\n      swap1\n      tag_41\n      jump\t// in\n    tag_86:\n      mload(0x40)\n      dup1\n      swap2\n      sub\n      swap1\n      return\n        /* \"contracts/LunchVenue_updated.sol\":1604:1638  string public votedRestaurant = \"\" */\n    tag_19:\n      tag_87\n      tag_88\n      jump\t// in\n    tag_87:\n      mload(0x40)\n      tag_89\n      swap2\n      swap1\n      tag_78\n      jump\t// in\n    tag_89:\n      mload(0x40)\n      dup1\n      swap2\n      sub\n      swap1\n      return\n        /* \"contracts/LunchVenue_updated.sol\":2179:2205  bool public contractActive */\n    tag_20:\n      tag_90\n      tag_91\n      jump\t// in\n    tag_90:\n      mload(0x40)\n      tag_92\n      swap2\n      swap1\n      tag_29\n      jump\t// in\n    tag_92:\n      mload(0x40)\n      dup1\n      swap2\n      sub\n      swap1\n      return\n        /* \"contracts/LunchVenue_updated.sol\":4912:6049  function doVote (uint restaurant) public votingOpen contractIsActive returns (bool validVote){... */\n    tag_27:\n        /* \"contracts/LunchVenue_updated.sol\":4990:5004  bool validVote */\n      0x00\n        /* \"contracts/LunchVenue_updated.sol\":7320:7324  true */\n      0x01\n        /* \"contracts/LunchVenue_updated.sol\":7308:7324  voteOpen == true */\n      iszero\n      iszero\n        /* \"contracts/LunchVenue_updated.sol\":7308:7316  voteOpen */\n      0x09\n      0x00\n      swap1\n      sload\n      swap1\n      0x0100\n      exp\n      swap1\n      div\n      0xff\n      and\n        /* \"contracts/LunchVenue_updated.sol\":7308:7324  voteOpen == true */\n      iszero\n      iszero\n      eq\n        /* \"contracts/LunchVenue_updated.sol\":7299:7364  require (voteOpen == true, \"Can vote only while voting is open.\") */\n      tag_94\n      jumpi\n      mload(0x40)\n      0x08c379a000000000000000000000000000000000000000000000000000000000\n      dup2\n      mstore\n      0x04\n      add\n      tag_95\n      swap1\n      tag_96\n      jump\t// in\n    tag_95:\n      mload(0x40)\n      dup1\n      swap2\n      sub\n      swap1\n      revert\n    tag_94:\n        /* \"contracts/LunchVenue_updated.sol\":7551:7555  true */\n      0x01\n        /* \"contracts/LunchVenue_updated.sol\":7533:7555  contractActive == true */\n      iszero\n      iszero\n        /* \"contracts/LunchVenue_updated.sol\":7533:7547  contractActive */\n      0x0d\n      0x00\n      swap1\n      sload\n      swap1\n      0x0100\n      exp\n      swap1\n      div\n      0xff\n      and\n        /* \"contracts/LunchVenue_updated.sol\":7533:7555  contractActive == true */\n      iszero\n      iszero\n      eq\n        /* \"contracts/LunchVenue_updated.sol\":7525:7592  require(contractActive == true, \"The contract needs to be active.\") */\n      tag_98\n      jumpi\n      mload(0x40)\n      0x08c379a000000000000000000000000000000000000000000000000000000000\n      dup2\n      mstore\n      0x04\n      add\n      tag_99\n      swap1\n      tag_100\n      jump\t// in\n    tag_99:\n      mload(0x40)\n      dup1\n      swap2\n      sub\n      swap1\n      revert\n    tag_98:\n        /* \"contracts/LunchVenue_updated.sol\":5027:5032  false */\n      0x00\n        /* \"contracts/LunchVenue_updated.sol\":5015:5032  validVote = false */\n      swap1\n      pop\n        /* \"contracts/LunchVenue_updated.sol\":5111:5112  0 */\n      0x00\n        /* \"contracts/LunchVenue_updated.sol\":5075:5082  friends */\n      0x01\n        /* \"contracts/LunchVenue_updated.sol\":5075:5094  friends[msg.sender] */\n      0x00\n        /* \"contracts/LunchVenue_updated.sol\":5083:5093  msg.sender */\n      caller\n        /* \"contracts/LunchVenue_updated.sol\":5075:5094  friends[msg.sender] */\n      0xffffffffffffffffffffffffffffffffffffffff\n      and\n      0xffffffffffffffffffffffffffffffffffffffff\n      and\n      dup2\n      mstore\n      0x20\n      add\n      swap1\n      dup2\n      mstore\n      0x20\n      add\n      0x00\n      keccak256\n        /* \"contracts/LunchVenue_updated.sol\":5075:5099  friends[msg.sender].name */\n      0x00\n      add\n        /* \"contracts/LunchVenue_updated.sol\":5069:5107  bytes(friends[msg.sender].name).length */\n      dup1\n      sload\n      tag_102\n      swap1\n      tag_103\n      jump\t// in\n    tag_102:\n      swap1\n      pop\n        /* \"contracts/LunchVenue_updated.sol\":5069:5112  bytes(friends[msg.sender].name).length != 0 */\n      eq\n      iszero\n        /* \"contracts/LunchVenue_updated.sol\":5069:5142  bytes(friends[msg.sender].name).length != 0 && !friends[msg.sender].voted */\n      dup1\n      iszero\n      tag_104\n      jumpi\n      pop\n        /* \"contracts/LunchVenue_updated.sol\":5117:5124  friends */\n      0x01\n        /* \"contracts/LunchVenue_updated.sol\":5117:5136  friends[msg.sender] */\n      0x00\n        /* \"contracts/LunchVenue_updated.sol\":5125:5135  msg.sender */\n      caller\n        /* \"contracts/LunchVenue_updated.sol\":5117:5136  friends[msg.sender] */\n      0xffffffffffffffffffffffffffffffffffffffff\n      and\n      0xffffffffffffffffffffffffffffffffffffffff\n      and\n      dup2\n      mstore\n      0x20\n      add\n      swap1\n      dup2\n      mstore\n      0x20\n      add\n      0x00\n      keccak256\n        /* \"contracts/LunchVenue_updated.sol\":5117:5142  friends[msg.sender].voted */\n      0x01\n      add\n      0x00\n      swap1\n      sload\n      swap1\n      0x0100\n      exp\n      swap1\n      div\n      0xff\n      and\n        /* \"contracts/LunchVenue_updated.sol\":5116:5142  !friends[msg.sender].voted */\n      iszero\n        /* \"contracts/LunchVenue_updated.sol\":5069:5142  bytes(friends[msg.sender].name).length != 0 && !friends[msg.sender].voted */\n    tag_104:\n        /* \"contracts/LunchVenue_updated.sol\":5069:5160  bytes(friends[msg.sender].name).length != 0 && !friends[msg.sender].voted && voteState == 1 */\n      dup1\n      iszero\n      tag_105\n      jumpi\n      pop\n        /* \"contracts/LunchVenue_updated.sol\":5159:5160  1 */\n      0x01\n        /* \"contracts/LunchVenue_updated.sol\":5146:5155  voteState */\n      sload(0x0a)\n        /* \"contracts/LunchVenue_updated.sol\":5146:5160  voteState == 1 */\n      eq\n        /* \"contracts/LunchVenue_updated.sol\":5069:5160  bytes(friends[msg.sender].name).length != 0 && !friends[msg.sender].voted && voteState == 1 */\n    tag_105:\n        /* \"contracts/LunchVenue_updated.sol\":5065:5919  if (bytes(friends[msg.sender].name).length != 0 && !friends[msg.sender].voted && voteState == 1 ) { // ISSUE 1: Ensure that the friend exists and has not voted yet... */\n      iszero\n      tag_106\n      jumpi\n        /* \"contracts/LunchVenue_updated.sol\":5286:5287  0 */\n      0x00\n        /* \"contracts/LunchVenue_updated.sol\":5251:5262  restaurants */\n      dup1\n        /* \"contracts/LunchVenue_updated.sol\":5251:5274  restaurants[restaurant] */\n      0x00\n        /* \"contracts/LunchVenue_updated.sol\":5263:5273  restaurant */\n      dup5\n        /* \"contracts/LunchVenue_updated.sol\":5251:5274  restaurants[restaurant] */\n      dup2\n      mstore\n      0x20\n      add\n      swap1\n      dup2\n      mstore\n      0x20\n      add\n      0x00\n      keccak256\n        /* \"contracts/LunchVenue_updated.sol\":5245:5282  bytes(restaurants[restaurant]).length */\n      dup1\n      sload\n      tag_107\n      swap1\n      tag_103\n      jump\t// in\n    tag_107:\n      swap1\n      pop\n        /* \"contracts/LunchVenue_updated.sol\":5245:5287  bytes(restaurants[restaurant]).length != 0 */\n      eq\n        /* \"contracts/LunchVenue_updated.sol\":5241:5909  if (bytes(restaurants[restaurant]).length != 0) { // Ensure restaurant exists... */\n      tag_108\n      jumpi\n        /* \"contracts/LunchVenue_updated.sol\":5355:5374  deadlineBlockNumber */\n      sload(0x0c)\n        /* \"contracts/LunchVenue_updated.sol\":5339:5351  block.number */\n      number\n        /* \"contracts/LunchVenue_updated.sol\":5339:5374  block.number <= deadlineBlockNumber */\n      gt\n        /* \"contracts/LunchVenue_updated.sol\":5335:5895  if (block.number <= deadlineBlockNumber) { //ISSUE 4, Only accept vote during the voting period... */\n      tag_109\n      jumpi\n        /* \"contracts/LunchVenue_updated.sol\":5463:5467  true */\n      0x01\n        /* \"contracts/LunchVenue_updated.sol\":5451:5467  validVote = true */\n      swap1\n      pop\n        /* \"contracts/LunchVenue_updated.sol\":5518:5522  true */\n      0x01\n        /* \"contracts/LunchVenue_updated.sol\":5490:5497  friends */\n      dup1\n        /* \"contracts/LunchVenue_updated.sol\":5490:5509  friends[msg.sender] */\n      0x00\n        /* \"contracts/LunchVenue_updated.sol\":5498:5508  msg.sender */\n      caller\n        /* \"contracts/LunchVenue_updated.sol\":5490:5509  friends[msg.sender] */\n      0xffffffffffffffffffffffffffffffffffffffff\n      and\n      0xffffffffffffffffffffffffffffffffffffffff\n      and\n      dup2\n      mstore\n      0x20\n      add\n      swap1\n      dup2\n      mstore\n      0x20\n      add\n      0x00\n      keccak256\n        /* \"contracts/LunchVenue_updated.sol\":5490:5515  friends[msg.sender].voted */\n      0x01\n      add\n      0x00\n        /* \"contracts/LunchVenue_updated.sol\":5490:5522  friends[msg.sender].voted = true */\n      0x0100\n      exp\n      dup2\n      sload\n      dup2\n      0xff\n      mul\n      not\n      and\n      swap1\n      dup4\n      iszero\n      iszero\n      mul\n      or\n      swap1\n      sstore\n      pop\n        /* \"contracts/LunchVenue_updated.sol\":5545:5558  Vote memory v */\n      tag_110\n      tag_111\n      jump\t// in\n    tag_110:\n        /* \"contracts/LunchVenue_updated.sol\":5597:5607  msg.sender */\n      caller\n        /* \"contracts/LunchVenue_updated.sol\":5580:5581  v */\n      dup2\n        /* \"contracts/LunchVenue_updated.sol\":5580:5594  v.voterAddress */\n      0x00\n      add\n        /* \"contracts/LunchVenue_updated.sol\":5580:5607  v.voterAddress = msg.sender */\n      swap1\n      0xffffffffffffffffffffffffffffffffffffffff\n      and\n      swap1\n      dup2\n      0xffffffffffffffffffffffffffffffffffffffff\n      and\n      dup2\n      mstore\n      pop\n      pop\n        /* \"contracts/LunchVenue_updated.sol\":5644:5654  restaurant */\n      dup3\n        /* \"contracts/LunchVenue_updated.sol\":5629:5630  v */\n      dup2\n        /* \"contracts/LunchVenue_updated.sol\":5629:5641  v.restaurant */\n      0x20\n      add\n        /* \"contracts/LunchVenue_updated.sol\":5629:5654  v.restaurant = restaurant */\n      dup2\n      dup2\n      mstore\n      pop\n      pop\n        /* \"contracts/LunchVenue_updated.sol\":5676:5684  numVotes */\n      0x04\n      0x00\n        /* \"contracts/LunchVenue_updated.sol\":5676:5686  numVotes++ */\n      dup2\n      sload\n      dup1\n      swap3\n      swap2\n      swap1\n      tag_112\n      swap1\n      tag_113\n      jump\t// in\n    tag_112:\n      swap2\n      swap1\n      pop\n      sstore\n      pop\n        /* \"contracts/LunchVenue_updated.sol\":5726:5727  v */\n      dup1\n        /* \"contracts/LunchVenue_updated.sol\":5708:5713  votes */\n      0x07\n        /* \"contracts/LunchVenue_updated.sol\":5708:5723  votes[numVotes] */\n      0x00\n        /* \"contracts/LunchVenue_updated.sol\":5714:5722  numVotes */\n      sload(0x04)\n        /* \"contracts/LunchVenue_updated.sol\":5708:5723  votes[numVotes] */\n      dup2\n      mstore\n      0x20\n      add\n      swap1\n      dup2\n      mstore\n      0x20\n      add\n      0x00\n      keccak256\n        /* \"contracts/LunchVenue_updated.sol\":5708:5727  votes[numVotes] = v */\n      0x00\n      dup3\n      add\n      mload\n      dup2\n      0x00\n      add\n      exp(0x0100, 0x00)\n      dup2\n      sload\n      dup2\n      0xffffffffffffffffffffffffffffffffffffffff\n      mul\n      not\n      and\n      swap1\n      dup4\n      0xffffffffffffffffffffffffffffffffffffffff\n      and\n      mul\n      or\n      swap1\n      sstore\n      pop\n      0x20\n      dup3\n      add\n      mload\n      dup2\n      0x01\n      add\n      sstore\n      swap1\n      pop\n      pop\n        /* \"contracts/LunchVenue_updated.sol\":5376:5746  { //ISSUE 4, Only accept vote during the voting period... */\n      pop\n        /* \"contracts/LunchVenue_updated.sol\":5335:5895  if (block.number <= deadlineBlockNumber) { //ISSUE 4, Only accept vote during the voting period... */\n      jump(tag_114)\n    tag_109:\n        /* \"contracts/LunchVenue_updated.sol\":5840:5841  2 */\n      0x02\n        /* \"contracts/LunchVenue_updated.sol\":5828:5837  voteState */\n      0x0a\n        /* \"contracts/LunchVenue_updated.sol\":5828:5841  voteState = 2 */\n      dup2\n      swap1\n      sstore\n      pop\n        /* \"contracts/LunchVenue_updated.sol\":5863:5876  finalResult() */\n      tag_115\n        /* \"contracts/LunchVenue_updated.sol\":5863:5874  finalResult */\n      tag_116\n        /* \"contracts/LunchVenue_updated.sol\":5863:5876  finalResult() */\n      jump\t// in\n    tag_115:\n        /* \"contracts/LunchVenue_updated.sol\":5335:5895  if (block.number <= deadlineBlockNumber) { //ISSUE 4, Only accept vote during the voting period... */\n    tag_114:\n        /* \"contracts/LunchVenue_updated.sol\":5241:5909  if (bytes(restaurants[restaurant]).length != 0) { // Ensure restaurant exists... */\n    tag_108:\n        /* \"contracts/LunchVenue_updated.sol\":5065:5919  if (bytes(friends[msg.sender].name).length != 0 && !friends[msg.sender].voted && voteState == 1 ) { // ISSUE 1: Ensure that the friend exists and has not voted yet... */\n    tag_106:\n        /* \"contracts/LunchVenue_updated.sol\":5959:5960  1 */\n      0x01\n        /* \"contracts/LunchVenue_updated.sol\":5955:5956  2 */\n      0x02\n        /* \"contracts/LunchVenue_updated.sol\":5944:5954  numFriends */\n      sload(0x03)\n        /* \"contracts/LunchVenue_updated.sol\":5944:5956  numFriends/2 */\n      tag_117\n      swap2\n      swap1\n      tag_118\n      jump\t// in\n    tag_117:\n        /* \"contracts/LunchVenue_updated.sol\":5944:5960  numFriends/2 + 1 */\n      tag_119\n      swap2\n      swap1\n      tag_120\n      jump\t// in\n    tag_119:\n        /* \"contracts/LunchVenue_updated.sol\":5932:5940  numVotes */\n      sload(0x04)\n        /* \"contracts/LunchVenue_updated.sol\":5932:5960  numVotes >= numFriends/2 + 1 */\n      lt\n        /* \"contracts/LunchVenue_updated.sol\":5928:6017  if (numVotes >= numFriends/2 + 1) { // Quorum is met... */\n      tag_121\n      jumpi\n        /* \"contracts/LunchVenue_updated.sol\":5993:6006  finalResult() */\n      tag_122\n        /* \"contracts/LunchVenue_updated.sol\":5993:6004  finalResult */\n      tag_116\n        /* \"contracts/LunchVenue_updated.sol\":5993:6006  finalResult() */\n      jump\t// in\n    tag_122:\n        /* \"contracts/LunchVenue_updated.sol\":5928:6017  if (numVotes >= numFriends/2 + 1) { // Quorum is met... */\n    tag_121:\n        /* \"contracts/LunchVenue_updated.sol\":4912:6049  function doVote (uint restaurant) public votingOpen contractIsActive returns (bool validVote){... */\n      swap2\n      swap1\n      pop\n      jump\t// out\n        /* \"contracts/LunchVenue_updated.sol\":1368:1412  mapping ( address => Friend ) public friends */\n    tag_33:\n      mstore(0x20, 0x01)\n      dup1\n      0x00\n      mstore\n      keccak256(0x00, 0x40)\n      0x00\n      swap2\n      pop\n      swap1\n      pop\n      dup1\n      0x00\n      add\n      dup1\n      sload\n      tag_123\n      swap1\n      tag_103\n      jump\t// in\n    tag_123:\n      dup1\n      0x1f\n      add\n      0x20\n      dup1\n      swap2\n      div\n      mul\n      0x20\n      add\n      mload(0x40)\n      swap1\n      dup2\n      add\n      0x40\n      mstore\n      dup1\n      swap3\n      swap2\n      swap1\n      dup2\n      dup2\n      mstore\n      0x20\n      add\n      dup3\n      dup1\n      sload\n      tag_124\n      swap1\n      tag_103\n      jump\t// in\n    tag_124:\n      dup1\n      iszero\n      tag_125\n      jumpi\n      dup1\n      0x1f\n      lt\n      tag_126\n      jumpi\n      0x0100\n      dup1\n      dup4\n      sload\n      div\n      mul\n      dup4\n      mstore\n      swap2\n      0x20\n      add\n      swap2\n      jump(tag_125)\n    tag_126:\n      dup3\n      add\n      swap2\n      swap1\n      0x00\n      mstore\n      keccak256(0x00, 0x20)\n      swap1\n    tag_127:\n      dup2\n      sload\n      dup2\n      mstore\n      swap1\n      0x01\n      add\n      swap1\n      0x20\n      add\n      dup1\n      dup4\n      gt\n      tag_127\n      jumpi\n      dup3\n      swap1\n      sub\n      0x1f\n      and\n      dup3\n      add\n      swap2\n    tag_125:\n      pop\n      pop\n      pop\n      pop\n      pop\n      swap1\n      dup1\n      0x01\n      add\n      0x00\n      swap1\n      sload\n      swap1\n      0x0100\n      exp\n      swap1\n      div\n      0xff\n      and\n      swap1\n      pop\n      dup3\n      jump\t// out\n        /* \"contracts/LunchVenue_updated.sol\":3709:4316  function addFriend (address friendAddress, string memory name) public restricted contractIsActive... */\n    tag_39:\n        /* \"contracts/LunchVenue_updated.sol\":3820:3824  uint */\n      0x00\n        /* \"contracts/LunchVenue_updated.sol\":7109:7116  manager */\n      0x05\n      0x00\n      swap1\n      sload\n      swap1\n      0x0100\n      exp\n      swap1\n      div\n      0xffffffffffffffffffffffffffffffffffffffff\n      and\n        /* \"contracts/LunchVenue_updated.sol\":7095:7116  msg.sender == manager */\n      0xffffffffffffffffffffffffffffffffffffffff\n      and\n        /* \"contracts/LunchVenue_updated.sol\":7095:7105  msg.sender */\n      caller\n        /* \"contracts/LunchVenue_updated.sol\":7095:7116  msg.sender == manager */\n      0xffffffffffffffffffffffffffffffffffffffff\n      and\n      eq\n        /* \"contracts/LunchVenue_updated.sol\":7087:7156  require(msg.sender == manager, \"Can only be executed by the manager\") */\n      tag_129\n      jumpi\n      mload(0x40)\n      0x08c379a000000000000000000000000000000000000000000000000000000000\n      dup2\n      mstore\n      0x04\n      add\n      tag_130\n      swap1\n      tag_131\n      jump\t// in\n    tag_130:\n      mload(0x40)\n      dup1\n      swap2\n      sub\n      swap1\n      revert\n    tag_129:\n        /* \"contracts/LunchVenue_updated.sol\":7551:7555  true */\n      0x01\n        /* \"contracts/LunchVenue_updated.sol\":7533:7555  contractActive == true */\n      iszero\n      iszero\n        /* \"contracts/LunchVenue_updated.sol\":7533:7547  contractActive */\n      0x0d\n      0x00\n      swap1\n      sload\n      swap1\n      0x0100\n      exp\n      swap1\n      div\n      0xff\n      and\n        /* \"contracts/LunchVenue_updated.sol\":7533:7555  contractActive == true */\n      iszero\n      iszero\n      eq\n        /* \"contracts/LunchVenue_updated.sol\":7525:7592  require(contractActive == true, \"The contract needs to be active.\") */\n      tag_133\n      jumpi\n      mload(0x40)\n      0x08c379a000000000000000000000000000000000000000000000000000000000\n      dup2\n      mstore\n      0x04\n      add\n      tag_134\n      swap1\n      tag_100\n      jump\t// in\n    tag_134:\n      mload(0x40)\n      dup1\n      swap2\n      sub\n      swap1\n      revert\n    tag_133:\n        /* \"contracts/LunchVenue_updated.sol\":4004:4005  0 */\n      0x00\n        /* \"contracts/LunchVenue_updated.sol\":3965:3972  friends */\n      0x01\n        /* \"contracts/LunchVenue_updated.sol\":3965:3987  friends[friendAddress] */\n      0x00\n        /* \"contracts/LunchVenue_updated.sol\":3973:3986  friendAddress */\n      dup6\n        /* \"contracts/LunchVenue_updated.sol\":3965:3987  friends[friendAddress] */\n      0xffffffffffffffffffffffffffffffffffffffff\n      and\n      0xffffffffffffffffffffffffffffffffffffffff\n      and\n      dup2\n      mstore\n      0x20\n      add\n      swap1\n      dup2\n      mstore\n      0x20\n      add\n      0x00\n      keccak256\n        /* \"contracts/LunchVenue_updated.sol\":3965:3992  friends[friendAddress].name */\n      0x00\n      add\n        /* \"contracts/LunchVenue_updated.sol\":3959:4000  bytes(friends[friendAddress].name).length */\n      dup1\n      sload\n      tag_136\n      swap1\n      tag_103\n      jump\t// in\n    tag_136:\n      swap1\n      pop\n        /* \"contracts/LunchVenue_updated.sol\":3959:4005  bytes(friends[friendAddress].name).length == 0 */\n      eq\n        /* \"contracts/LunchVenue_updated.sol\":3959:4023  bytes(friends[friendAddress].name).length == 0 && voteState == 0 */\n      dup1\n      iszero\n      tag_137\n      jumpi\n      pop\n        /* \"contracts/LunchVenue_updated.sol\":4022:4023  0 */\n      0x00\n        /* \"contracts/LunchVenue_updated.sol\":4009:4018  voteState */\n      sload(0x0a)\n        /* \"contracts/LunchVenue_updated.sol\":4009:4023  voteState == 0 */\n      eq\n        /* \"contracts/LunchVenue_updated.sol\":3959:4023  bytes(friends[friendAddress].name).length == 0 && voteState == 0 */\n    tag_137:\n        /* \"contracts/LunchVenue_updated.sol\":3956:4310  if(bytes(friends[friendAddress].name).length == 0 && voteState == 0) {... */\n      iszero\n      tag_138\n      jumpi\n        /* \"contracts/LunchVenue_updated.sol\":4039:4054  Friend memory f */\n      tag_139\n      tag_140\n      jump\t// in\n    tag_139:\n        /* \"contracts/LunchVenue_updated.sol\":4077:4081  name */\n      dup3\n        /* \"contracts/LunchVenue_updated.sol\":4068:4069  f */\n      dup2\n        /* \"contracts/LunchVenue_updated.sol\":4068:4074  f.name */\n      0x00\n      add\n        /* \"contracts/LunchVenue_updated.sol\":4068:4081  f.name = name */\n      dup2\n      swap1\n      mstore\n      pop\n        /* \"contracts/LunchVenue_updated.sol\":4105:4110  false */\n      0x00\n        /* \"contracts/LunchVenue_updated.sol\":4095:4096  f */\n      dup2\n        /* \"contracts/LunchVenue_updated.sol\":4095:4102  f.voted */\n      0x20\n      add\n        /* \"contracts/LunchVenue_updated.sol\":4095:4110  f.voted = false */\n      swap1\n      iszero\n      iszero\n      swap1\n      dup2\n      iszero\n      iszero\n      dup2\n      mstore\n      pop\n      pop\n        /* \"contracts/LunchVenue_updated.sol\":4149:4150  f */\n      dup1\n        /* \"contracts/LunchVenue_updated.sol\":4124:4131  friends */\n      0x01\n        /* \"contracts/LunchVenue_updated.sol\":4124:4146  friends[friendAddress] */\n      0x00\n        /* \"contracts/LunchVenue_updated.sol\":4132:4145  friendAddress */\n      dup7\n        /* \"contracts/LunchVenue_updated.sol\":4124:4146  friends[friendAddress] */\n      0xffffffffffffffffffffffffffffffffffffffff\n      and\n      0xffffffffffffffffffffffffffffffffffffffff\n      and\n      dup2\n      mstore\n      0x20\n      add\n      swap1\n      dup2\n      mstore\n      0x20\n      add\n      0x00\n      keccak256\n        /* \"contracts/LunchVenue_updated.sol\":4124:4150  friends[friendAddress] = f */\n      0x00\n      dup3\n      add\n      mload\n      dup2\n      0x00\n      add\n      swap1\n      dup2\n      tag_141\n      swap2\n      swap1\n      tag_142\n      jump\t// in\n    tag_141:\n      pop\n      0x20\n      dup3\n      add\n      mload\n      dup2\n      0x01\n      add\n      exp(0x0100, 0x00)\n      dup2\n      sload\n      dup2\n      0xff\n      mul\n      not\n      and\n      swap1\n      dup4\n      iszero\n      iszero\n      mul\n      or\n      swap1\n      sstore\n      pop\n      swap1\n      pop\n      pop\n        /* \"contracts/LunchVenue_updated.sol\":4164:4174  numFriends */\n      0x03\n      0x00\n        /* \"contracts/LunchVenue_updated.sol\":4164:4176  numFriends++ */\n      dup2\n      sload\n      dup1\n      swap3\n      swap2\n      swap1\n      tag_143\n      swap1\n      tag_113\n      jump\t// in\n    tag_143:\n      swap2\n      swap1\n      pop\n      sstore\n      pop\n        /* \"contracts/LunchVenue_updated.sol\":4197:4207  numFriends */\n      sload(0x03)\n        /* \"contracts/LunchVenue_updated.sol\":4190:4207  return numFriends */\n      swap2\n      pop\n      pop\n      jump(tag_135)\n        /* \"contracts/LunchVenue_updated.sol\":3956:4310  if(bytes(friends[friendAddress].name).length == 0 && voteState == 0) {... */\n    tag_138:\n        /* \"contracts/LunchVenue_updated.sol\":4289:4299  numFriends */\n      sload(0x03)\n        /* \"contracts/LunchVenue_updated.sol\":4282:4299  return numFriends */\n      swap1\n      pop\n        /* \"contracts/LunchVenue_updated.sol\":7602:7603  _ */\n    tag_135:\n        /* \"contracts/LunchVenue_updated.sol\":3709:4316  function addFriend (address friendAddress, string memory name) public restricted contractIsActive... */\n      swap3\n      swap2\n      pop\n      pop\n      jump\t// out\n        /* \"contracts/LunchVenue_updated.sol\":1494:1520  uint public numFriends = 0 */\n    tag_43:\n      sload(0x03)\n      dup2\n      jump\t// out\n        /* \"contracts/LunchVenue_updated.sol\":1556:1578  address public manager */\n    tag_46:\n      0x05\n      0x00\n      swap1\n      sload\n      swap1\n      0x0100\n      exp\n      swap1\n      div\n      0xffffffffffffffffffffffffffffffffffffffff\n      and\n      dup2\n      jump\t// out\n        /* \"contracts/LunchVenue_updated.sol\":1667:1704  mapping ( uint => Vote ) public votes */\n    tag_51:\n      mstore(0x20, 0x07)\n      dup1\n      0x00\n      mstore\n      keccak256(0x00, 0x40)\n      0x00\n      swap2\n      pop\n      swap1\n      pop\n      dup1\n      0x00\n      add\n      0x00\n      swap1\n      sload\n      swap1\n      0x0100\n      exp\n      swap1\n      div\n      0xffffffffffffffffffffffffffffffffffffffff\n      and\n      swap1\n      dup1\n      0x01\n      add\n      sload\n      swap1\n      pop\n      dup3\n      jump\t// out\n        /* \"contracts/LunchVenue_updated.sol\":4402:4678  function openVoting(uint blocks) public restricted contractIsActive{... */\n    tag_56:\n        /* \"contracts/LunchVenue_updated.sol\":7109:7116  manager */\n      0x05\n      0x00\n      swap1\n      sload\n      swap1\n      0x0100\n      exp\n      swap1\n      div\n      0xffffffffffffffffffffffffffffffffffffffff\n      and\n        /* \"contracts/LunchVenue_updated.sol\":7095:7116  msg.sender == manager */\n      0xffffffffffffffffffffffffffffffffffffffff\n      and\n        /* \"contracts/LunchVenue_updated.sol\":7095:7105  msg.sender */\n      caller\n        /* \"contracts/LunchVenue_updated.sol\":7095:7116  msg.sender == manager */\n      0xffffffffffffffffffffffffffffffffffffffff\n      and\n      eq\n        /* \"contracts/LunchVenue_updated.sol\":7087:7156  require(msg.sender == manager, \"Can only be executed by the manager\") */\n      tag_146\n      jumpi\n      mload(0x40)\n      0x08c379a000000000000000000000000000000000000000000000000000000000\n      dup2\n      mstore\n      0x04\n      add\n      tag_147\n      swap1\n      tag_131\n      jump\t// in\n    tag_147:\n      mload(0x40)\n      dup1\n      swap2\n      sub\n      swap1\n      revert\n    tag_146:\n        /* \"contracts/LunchVenue_updated.sol\":7551:7555  true */\n      0x01\n        /* \"contracts/LunchVenue_updated.sol\":7533:7555  contractActive == true */\n      iszero\n      iszero\n        /* \"contracts/LunchVenue_updated.sol\":7533:7547  contractActive */\n      0x0d\n      0x00\n      swap1\n      sload\n      swap1\n      0x0100\n      exp\n      swap1\n      div\n      0xff\n      and\n        /* \"contracts/LunchVenue_updated.sol\":7533:7555  contractActive == true */\n      iszero\n      iszero\n      eq\n        /* \"contracts/LunchVenue_updated.sol\":7525:7592  require(contractActive == true, \"The contract needs to be active.\") */\n      tag_149\n      jumpi\n      mload(0x40)\n      0x08c379a000000000000000000000000000000000000000000000000000000000\n      dup2\n      mstore\n      0x04\n      add\n      tag_150\n      swap1\n      tag_100\n      jump\t// in\n    tag_150:\n      mload(0x40)\n      dup1\n      swap2\n      sub\n      swap1\n      revert\n    tag_149:\n        /* \"contracts/LunchVenue_updated.sol\":4496:4497  0 */\n      0x00\n        /* \"contracts/LunchVenue_updated.sol\":4483:4492  voteState */\n      sload(0x0a)\n        /* \"contracts/LunchVenue_updated.sol\":4483:4497  voteState == 0 */\n      sub\n        /* \"contracts/LunchVenue_updated.sol\":4479:4672  if (voteState == 0) {// Voting can only be opened during the create phase- 0: Create... */\n      tag_152\n      jumpi\n        /* \"contracts/LunchVenue_updated.sol\":4588:4589  1 */\n      0x01\n        /* \"contracts/LunchVenue_updated.sol\":4576:4585  voteState */\n      0x0a\n        /* \"contracts/LunchVenue_updated.sol\":4576:4589  voteState = 1 */\n      dup2\n      swap1\n      sstore\n      pop\n        /* \"contracts/LunchVenue_updated.sol\":4655:4661  blocks */\n      dup1\n        /* \"contracts/LunchVenue_updated.sol\":4640:4652  block.number */\n      number\n        /* \"contracts/LunchVenue_updated.sol\":4640:4661  block.number + blocks */\n      tag_153\n      swap2\n      swap1\n      tag_120\n      jump\t// in\n    tag_153:\n        /* \"contracts/LunchVenue_updated.sol\":4618:4637  deadlineBlockNumber */\n      0x0c\n        /* \"contracts/LunchVenue_updated.sol\":4618:4661  deadlineBlockNumber = block.number + blocks */\n      dup2\n      swap1\n      sstore\n      pop\n        /* \"contracts/LunchVenue_updated.sol\":4479:4672  if (voteState == 0) {// Voting can only be opened during the create phase- 0: Create... */\n    tag_152:\n        /* \"contracts/LunchVenue_updated.sol\":4402:4678  function openVoting(uint blocks) public restricted contractIsActive{... */\n      pop\n      jump\t// out\n        /* \"contracts/LunchVenue_updated.sol\":1899:1924  uint public voteState = 0 */\n    tag_58:\n      sload(0x0a)\n      dup2\n      jump\t// out\n        /* \"contracts/LunchVenue_updated.sol\":2718:3496  function addRestaurant (string memory name) public restricted contractIsActive... */\n    tag_63:\n        /* \"contracts/LunchVenue_updated.sol\":2810:2814  uint */\n      0x00\n        /* \"contracts/LunchVenue_updated.sol\":7109:7116  manager */\n      0x05\n      0x00\n      swap1\n      sload\n      swap1\n      0x0100\n      exp\n      swap1\n      div\n      0xffffffffffffffffffffffffffffffffffffffff\n      and\n        /* \"contracts/LunchVenue_updated.sol\":7095:7116  msg.sender == manager */\n      0xffffffffffffffffffffffffffffffffffffffff\n      and\n        /* \"contracts/LunchVenue_updated.sol\":7095:7105  msg.sender */\n      caller\n        /* \"contracts/LunchVenue_updated.sol\":7095:7116  msg.sender == manager */\n      0xffffffffffffffffffffffffffffffffffffffff\n      and\n      eq\n        /* \"contracts/LunchVenue_updated.sol\":7087:7156  require(msg.sender == manager, \"Can only be executed by the manager\") */\n      tag_155\n      jumpi\n      mload(0x40)\n      0x08c379a000000000000000000000000000000000000000000000000000000000\n      dup2\n      mstore\n      0x04\n      add\n      tag_156\n      swap1\n      tag_131\n      jump\t// in\n    tag_156:\n      mload(0x40)\n      dup1\n      swap2\n      sub\n      swap1\n      revert\n    tag_155:\n        /* \"contracts/LunchVenue_updated.sol\":7551:7555  true */\n      0x01\n        /* \"contracts/LunchVenue_updated.sol\":7533:7555  contractActive == true */\n      iszero\n      iszero\n        /* \"contracts/LunchVenue_updated.sol\":7533:7547  contractActive */\n      0x0d\n      0x00\n      swap1\n      sload\n      swap1\n      0x0100\n      exp\n      swap1\n      div\n      0xff\n      and\n        /* \"contracts/LunchVenue_updated.sol\":7533:7555  contractActive == true */\n      iszero\n      iszero\n      eq\n        /* \"contracts/LunchVenue_updated.sol\":7525:7592  require(contractActive == true, \"The contract needs to be active.\") */\n      tag_158\n      jumpi\n      mload(0x40)\n      0x08c379a000000000000000000000000000000000000000000000000000000000\n      dup2\n      mstore\n      0x04\n      add\n      tag_159\n      swap1\n      tag_100\n      jump\t// in\n    tag_159:\n      mload(0x40)\n      dup1\n      swap2\n      sub\n      swap1\n      revert\n    tag_158:\n        /* \"contracts/LunchVenue_updated.sol\":2957:2963  uint i */\n      0x00\n        /* \"contracts/LunchVenue_updated.sol\":2966:2967  1 */\n      0x01\n        /* \"contracts/LunchVenue_updated.sol\":2957:2967  uint i = 1 */\n      swap1\n      pop\n        /* \"contracts/LunchVenue_updated.sol\":2953:3160  for(uint i = 1; i <= numRestaurants; i++) {... */\n    tag_161:\n        /* \"contracts/LunchVenue_updated.sol\":2974:2988  numRestaurants */\n      sload(0x02)\n        /* \"contracts/LunchVenue_updated.sol\":2969:2970  i */\n      dup2\n        /* \"contracts/LunchVenue_updated.sol\":2969:2988  i <= numRestaurants */\n      gt\n        /* \"contracts/LunchVenue_updated.sol\":2953:3160  for(uint i = 1; i <= numRestaurants; i++) {... */\n      tag_162\n      jumpi\n        /* \"contracts/LunchVenue_updated.sol\":3087:3091  name */\n      dup3\n        /* \"contracts/LunchVenue_updated.sol\":3070:3092  abi.encodePacked(name) */\n      add(0x20, mload(0x40))\n      tag_164\n      swap2\n      swap1\n      tag_165\n      jump\t// in\n    tag_164:\n      mload(0x40)\n      0x20\n      dup2\n      dup4\n      sub\n      sub\n      dup2\n      mstore\n      swap1\n      0x40\n      mstore\n        /* \"contracts/LunchVenue_updated.sol\":3060:3093  keccak256(abi.encodePacked(name)) */\n      dup1\n      mload\n      swap1\n      0x20\n      add\n      keccak256\n        /* \"contracts/LunchVenue_updated.sol\":3040:3051  restaurants */\n      0x00\n        /* \"contracts/LunchVenue_updated.sol\":3040:3054  restaurants[i] */\n      dup1\n        /* \"contracts/LunchVenue_updated.sol\":3052:3053  i */\n      dup4\n        /* \"contracts/LunchVenue_updated.sol\":3040:3054  restaurants[i] */\n      dup2\n      mstore\n      0x20\n      add\n      swap1\n      dup2\n      mstore\n      0x20\n      add\n      0x00\n      keccak256\n        /* \"contracts/LunchVenue_updated.sol\":3023:3055  abi.encodePacked(restaurants[i]) */\n      add(0x20, mload(0x40))\n      tag_166\n      swap2\n      swap1\n      tag_167\n      jump\t// in\n    tag_166:\n      mload(0x40)\n      0x20\n      dup2\n      dup4\n      sub\n      sub\n      dup2\n      mstore\n      swap1\n      0x40\n      mstore\n        /* \"contracts/LunchVenue_updated.sol\":3013:3056  keccak256(abi.encodePacked(restaurants[i])) */\n      dup1\n      mload\n      swap1\n      0x20\n      add\n      keccak256\n        /* \"contracts/LunchVenue_updated.sol\":3013:3093  keccak256(abi.encodePacked(restaurants[i])) == keccak256(abi.encodePacked(name)) */\n      sub\n        /* \"contracts/LunchVenue_updated.sol\":3009:3150  if (keccak256(abi.encodePacked(restaurants[i])) == keccak256(abi.encodePacked(name))) {... */\n      tag_168\n      jumpi\n        /* \"contracts/LunchVenue_updated.sol\":3131:3135  true */\n      0x01\n        /* \"contracts/LunchVenue_updated.sol\":3113:3128  restaurantExist */\n      0x0b\n      0x00\n        /* \"contracts/LunchVenue_updated.sol\":3113:3135  restaurantExist = true */\n      0x0100\n      exp\n      dup2\n      sload\n      dup2\n      0xff\n      mul\n      not\n      and\n      swap1\n      dup4\n      iszero\n      iszero\n      mul\n      or\n      swap1\n      sstore\n      pop\n        /* \"contracts/LunchVenue_updated.sol\":3009:3150  if (keccak256(abi.encodePacked(restaurants[i])) == keccak256(abi.encodePacked(name))) {... */\n    tag_168:\n        /* \"contracts/LunchVenue_updated.sol\":2990:2993  i++ */\n      dup1\n      dup1\n      tag_169\n      swap1\n      tag_113\n      jump\t// in\n    tag_169:\n      swap2\n      pop\n      pop\n        /* \"contracts/LunchVenue_updated.sol\":2953:3160  for(uint i = 1; i <= numRestaurants; i++) {... */\n      jump(tag_161)\n    tag_162:\n      pop\n        /* \"contracts/LunchVenue_updated.sol\":3193:3198  false */\n      0x00\n        /* \"contracts/LunchVenue_updated.sol\":3174:3198  restaurantExist == false */\n      iszero\n      iszero\n        /* \"contracts/LunchVenue_updated.sol\":3174:3189  restaurantExist */\n      0x0b\n      0x00\n      swap1\n      sload\n      swap1\n      0x0100\n      exp\n      swap1\n      div\n      0xff\n      and\n        /* \"contracts/LunchVenue_updated.sol\":3174:3198  restaurantExist == false */\n      iszero\n      iszero\n      eq\n        /* \"contracts/LunchVenue_updated.sol\":3174:3216  restaurantExist == false && voteState == 0 */\n      dup1\n      iszero\n      tag_170\n      jumpi\n      pop\n        /* \"contracts/LunchVenue_updated.sol\":3215:3216  0 */\n      0x00\n        /* \"contracts/LunchVenue_updated.sol\":3202:3211  voteState */\n      sload(0x0a)\n        /* \"contracts/LunchVenue_updated.sol\":3202:3216  voteState == 0 */\n      eq\n        /* \"contracts/LunchVenue_updated.sol\":3174:3216  restaurantExist == false && voteState == 0 */\n    tag_170:\n        /* \"contracts/LunchVenue_updated.sol\":3174:3242  restaurantExist == false && voteState == 0 && bytes(name).length > 0 */\n      dup1\n      iszero\n      tag_171\n      jumpi\n      pop\n        /* \"contracts/LunchVenue_updated.sol\":3241:3242  0 */\n      0x00\n        /* \"contracts/LunchVenue_updated.sol\":3226:3230  name */\n      dup3\n        /* \"contracts/LunchVenue_updated.sol\":3220:3238  bytes(name).length */\n      mload\n        /* \"contracts/LunchVenue_updated.sol\":3220:3242  bytes(name).length > 0 */\n      gt\n        /* \"contracts/LunchVenue_updated.sol\":3174:3242  restaurantExist == false && voteState == 0 && bytes(name).length > 0 */\n    tag_171:\n        /* \"contracts/LunchVenue_updated.sol\":3170:3425  if (restaurantExist == false && voteState == 0 && bytes(name).length > 0) { // if restaurant name doesnt exist, numRestaurants + 1, else just return the original value... */\n      iszero\n      tag_172\n      jumpi\n        /* \"contracts/LunchVenue_updated.sol\":3350:3364  numRestaurants */\n      0x02\n      0x00\n        /* \"contracts/LunchVenue_updated.sol\":3350:3366  numRestaurants++ */\n      dup2\n      sload\n      dup1\n      swap3\n      swap2\n      swap1\n      tag_173\n      swap1\n      tag_113\n      jump\t// in\n    tag_173:\n      swap2\n      swap1\n      pop\n      sstore\n      pop\n        /* \"contracts/LunchVenue_updated.sol\":3410:3414  name */\n      dup2\n        /* \"contracts/LunchVenue_updated.sol\":3380:3391  restaurants */\n      0x00\n        /* \"contracts/LunchVenue_updated.sol\":3380:3407  restaurants[numRestaurants] */\n      dup1\n        /* \"contracts/LunchVenue_updated.sol\":3392:3406  numRestaurants */\n      sload(0x02)\n        /* \"contracts/LunchVenue_updated.sol\":3380:3407  restaurants[numRestaurants] */\n      dup2\n      mstore\n      0x20\n      add\n      swap1\n      dup2\n      mstore\n      0x20\n      add\n      0x00\n      keccak256\n        /* \"contracts/LunchVenue_updated.sol\":3380:3414  restaurants[numRestaurants] = name */\n      swap1\n      dup2\n      tag_174\n      swap2\n      swap1\n      tag_142\n      jump\t// in\n    tag_174:\n      pop\n        /* \"contracts/LunchVenue_updated.sol\":3170:3425  if (restaurantExist == false && voteState == 0 && bytes(name).length > 0) { // if restaurant name doesnt exist, numRestaurants + 1, else just return the original value... */\n    tag_172:\n        /* \"contracts/LunchVenue_updated.sol\":3453:3458  false */\n      0x00\n        /* \"contracts/LunchVenue_updated.sol\":3435:3450  restaurantExist */\n      0x0b\n      0x00\n        /* \"contracts/LunchVenue_updated.sol\":3435:3458  restaurantExist = false */\n      0x0100\n      exp\n      dup2\n      sload\n      dup2\n      0xff\n      mul\n      not\n      and\n      swap1\n      dup4\n      iszero\n      iszero\n      mul\n      or\n      swap1\n      sstore\n      pop\n        /* \"contracts/LunchVenue_updated.sol\":3475:3489  numRestaurants */\n      sload(0x02)\n        /* \"contracts/LunchVenue_updated.sol\":3468:3489  return numRestaurants */\n      swap1\n      pop\n        /* \"contracts/LunchVenue_updated.sol\":2718:3496  function addRestaurant (string memory name) public restricted contractIsActive... */\n      swap2\n      swap1\n      pop\n      jump\t// out\n        /* \"contracts/LunchVenue_updated.sol\":2065:2100  bool public restaurantExist = false */\n    tag_66:\n      0x0b\n      0x00\n      swap1\n      sload\n      swap1\n      0x0100\n      exp\n      swap1\n      div\n      0xff\n      and\n      dup2\n      jump\t// out\n        /* \"contracts/LunchVenue_updated.sol\":1848:1875  bool public voteOpen = true */\n    tag_69:\n      0x09\n      0x00\n      swap1\n      sload\n      swap1\n      0x0100\n      exp\n      swap1\n      div\n      0xff\n      and\n      dup2\n      jump\t// out\n        /* \"contracts/LunchVenue_updated.sol\":1526:1550  uint public numVotes = 0 */\n    tag_72:\n      sload(0x04)\n      dup2\n      jump\t// out\n        /* \"contracts/LunchVenue_updated.sol\":1269:1314  mapping ( uint => string ) public restaurants */\n    tag_76:\n      mstore(0x20, 0x00)\n      dup1\n      0x00\n      mstore\n      keccak256(0x00, 0x40)\n      0x00\n      swap2\n      pop\n      swap1\n      pop\n      dup1\n      sload\n      tag_175\n      swap1\n      tag_103\n      jump\t// in\n    tag_175:\n      dup1\n      0x1f\n      add\n      0x20\n      dup1\n      swap2\n      div\n      mul\n      0x20\n      add\n      mload(0x40)\n      swap1\n      dup2\n      add\n      0x40\n      mstore\n      dup1\n      swap3\n      swap2\n      swap1\n      dup2\n      dup2\n      mstore\n      0x20\n      add\n      dup3\n      dup1\n      sload\n      tag_176\n      swap1\n      tag_103\n      jump\t// in\n    tag_176:\n      dup1\n      iszero\n      tag_177\n      jumpi\n      dup1\n      0x1f\n      lt\n      tag_178\n      jumpi\n      0x0100\n      dup1\n      dup4\n      sload\n      div\n      mul\n      dup4\n      mstore\n      swap2\n      0x20\n      add\n      swap2\n      jump(tag_177)\n    tag_178:\n      dup3\n      add\n      swap2\n      swap1\n      0x00\n      mstore\n      keccak256(0x00, 0x20)\n      swap1\n    tag_179:\n      dup2\n      sload\n      dup2\n      mstore\n      swap1\n      0x01\n      add\n      swap1\n      0x20\n      add\n      dup1\n      dup4\n      gt\n      tag_179\n      jumpi\n      dup3\n      swap1\n      sub\n      0x1f\n      and\n      dup3\n      add\n      swap2\n    tag_177:\n      pop\n      pop\n      pop\n      pop\n      pop\n      dup2\n      jump\t// out\n        /* \"contracts/LunchVenue_updated.sol\":1458:1488  uint public numRestaurants = 0 */\n    tag_80:\n      sload(0x02)\n      dup2\n      jump\t// out\n        /* \"contracts/LunchVenue_updated.sol\":2458:2569  function deactivateContract() public restricted {... */\n    tag_83:\n        /* \"contracts/LunchVenue_updated.sol\":7109:7116  manager */\n      0x05\n      0x00\n      swap1\n      sload\n      swap1\n      0x0100\n      exp\n      swap1\n      div\n      0xffffffffffffffffffffffffffffffffffffffff\n      and\n        /* \"contracts/LunchVenue_updated.sol\":7095:7116  msg.sender == manager */\n      0xffffffffffffffffffffffffffffffffffffffff\n      and\n        /* \"contracts/LunchVenue_updated.sol\":7095:7105  msg.sender */\n      caller\n        /* \"contracts/LunchVenue_updated.sol\":7095:7116  msg.sender == manager */\n      0xffffffffffffffffffffffffffffffffffffffff\n      and\n      eq\n        /* \"contracts/LunchVenue_updated.sol\":7087:7156  require(msg.sender == manager, \"Can only be executed by the manager\") */\n      tag_181\n      jumpi\n      mload(0x40)\n      0x08c379a000000000000000000000000000000000000000000000000000000000\n      dup2\n      mstore\n      0x04\n      add\n      tag_182\n      swap1\n      tag_131\n      jump\t// in\n    tag_182:\n      mload(0x40)\n      dup1\n      swap2\n      sub\n      swap1\n      revert\n    tag_181:\n        /* \"contracts/LunchVenue_updated.sol\":2533:2538  false */\n      0x00\n        /* \"contracts/LunchVenue_updated.sol\":2516:2530  contractActive */\n      0x0d\n      0x00\n        /* \"contracts/LunchVenue_updated.sol\":2516:2538  contractActive = false */\n      0x0100\n      exp\n      dup2\n      sload\n      dup2\n      0xff\n      mul\n      not\n      and\n      swap1\n      dup4\n      iszero\n      iszero\n      mul\n      or\n      swap1\n      sstore\n      pop\n        /* \"contracts/LunchVenue_updated.sol\":2458:2569  function deactivateContract() public restricted {... */\n      jump\t// out\n        /* \"contracts/LunchVenue_updated.sol\":2106:2137  uint public deadlineBlockNumber */\n    tag_85:\n      sload(0x0c)\n      dup2\n      jump\t// out\n        /* \"contracts/LunchVenue_updated.sol\":1604:1638  string public votedRestaurant = \"\" */\n    tag_88:\n      0x06\n      dup1\n      sload\n      tag_184\n      swap1\n      tag_103\n      jump\t// in\n    tag_184:\n      dup1\n      0x1f\n      add\n      0x20\n      dup1\n      swap2\n      div\n      mul\n      0x20\n      add\n      mload(0x40)\n      swap1\n      dup2\n      add\n      0x40\n      mstore\n      dup1\n      swap3\n      swap2\n      swap1\n      dup2\n      dup2\n      mstore\n      0x20\n      add\n      dup3\n      dup1\n      sload\n      tag_185\n      swap1\n      tag_103\n      jump\t// in\n    tag_185:\n      dup1\n      iszero\n      tag_186\n      jumpi\n      dup1\n      0x1f\n      lt\n      tag_187\n      jumpi\n      0x0100\n      dup1\n      dup4\n      sload\n      div\n      mul\n      dup4\n      mstore\n      swap2\n      0x20\n      add\n      swap2\n      jump(tag_186)\n    tag_187:\n      dup3\n      add\n      swap2\n      swap1\n      0x00\n      mstore\n      keccak256(0x00, 0x20)\n      swap1\n    tag_188:\n      dup2\n      sload\n      dup2\n      mstore\n      swap1\n      0x01\n      add\n      swap1\n      0x20\n      add\n      dup1\n      dup4\n      gt\n      tag_188\n      jumpi\n      dup3\n      swap1\n      sub\n      0x1f\n      and\n      dup3\n      add\n      swap2\n    tag_186:\n      pop\n      pop\n      pop\n      pop\n      pop\n      dup2\n      jump\t// out\n        /* \"contracts/LunchVenue_updated.sol\":2179:2205  bool public contractActive */\n    tag_91:\n      0x0d\n      0x00\n      swap1\n      sload\n      swap1\n      0x0100\n      exp\n      swap1\n      div\n      0xff\n      and\n      dup2\n      jump\t// out\n        /* \"contracts/LunchVenue_updated.sol\":6200:6977  function finalResult() private{... */\n    tag_116:\n        /* \"contracts/LunchVenue_updated.sol\":6240:6257  uint highestVotes */\n      0x00\n        /* \"contracts/LunchVenue_updated.sol\":6271:6293  uint highestRestaurant */\n      dup1\n        /* \"contracts/LunchVenue_updated.sol\":6319:6320  2 */\n      0x02\n        /* \"contracts/LunchVenue_updated.sol\":6307:6316  voteState */\n      0x0a\n        /* \"contracts/LunchVenue_updated.sol\":6307:6320  voteState = 2 */\n      dup2\n      swap1\n      sstore\n      pop\n        /* \"contracts/LunchVenue_updated.sol\":6372:6378  uint i */\n      0x00\n        /* \"contracts/LunchVenue_updated.sol\":6381:6382  1 */\n      0x01\n        /* \"contracts/LunchVenue_updated.sol\":6372:6382  uint i = 1 */\n      swap1\n      pop\n        /* \"contracts/LunchVenue_updated.sol\":6367:6842  for (uint i = 1; i <= numVotes; i++) { // For each vote... */\n    tag_190:\n        /* \"contracts/LunchVenue_updated.sol\":6389:6397  numVotes */\n      sload(0x04)\n        /* \"contracts/LunchVenue_updated.sol\":6384:6385  i */\n      dup2\n        /* \"contracts/LunchVenue_updated.sol\":6384:6397  i <= numVotes */\n      gt\n        /* \"contracts/LunchVenue_updated.sol\":6367:6842  for (uint i = 1; i <= numVotes; i++) { // For each vote... */\n      tag_191\n      jumpi\n        /* \"contracts/LunchVenue_updated.sol\":6435:6449  uint voteCount */\n      0x00\n        /* \"contracts/LunchVenue_updated.sol\":6452:6453  1 */\n      0x01\n        /* \"contracts/LunchVenue_updated.sol\":6435:6453  uint voteCount = 1 */\n      swap1\n      pop\n        /* \"contracts/LunchVenue_updated.sol\":6503:6504  0 */\n      0x00\n        /* \"contracts/LunchVenue_updated.sol\":6471:6479  _results */\n      0x08\n        /* \"contracts/LunchVenue_updated.sol\":6471:6500  _results[votes[i].restaurant] */\n      0x00\n        /* \"contracts/LunchVenue_updated.sol\":6480:6485  votes */\n      0x07\n        /* \"contracts/LunchVenue_updated.sol\":6480:6488  votes[i] */\n      0x00\n        /* \"contracts/LunchVenue_updated.sol\":6486:6487  i */\n      dup7\n        /* \"contracts/LunchVenue_updated.sol\":6480:6488  votes[i] */\n      dup2\n      mstore\n      0x20\n      add\n      swap1\n      dup2\n      mstore\n      0x20\n      add\n      0x00\n      keccak256\n        /* \"contracts/LunchVenue_updated.sol\":6480:6499  votes[i].restaurant */\n      0x01\n      add\n      sload\n        /* \"contracts/LunchVenue_updated.sol\":6471:6500  _results[votes[i].restaurant] */\n      dup2\n      mstore\n      0x20\n      add\n      swap1\n      dup2\n      mstore\n      0x20\n      add\n      0x00\n      keccak256\n      sload\n        /* \"contracts/LunchVenue_updated.sol\":6471:6504  _results[votes[i].restaurant] > 0 */\n      gt\n        /* \"contracts/LunchVenue_updated.sol\":6467:6607  if( _results[votes[i].restaurant] > 0) { // Already start counting... */\n      iszero\n      tag_193\n      jumpi\n        /* \"contracts/LunchVenue_updated.sol\":6563:6571  _results */\n      0x08\n        /* \"contracts/LunchVenue_updated.sol\":6563:6592  _results[votes[i].restaurant] */\n      0x00\n        /* \"contracts/LunchVenue_updated.sol\":6572:6577  votes */\n      0x07\n        /* \"contracts/LunchVenue_updated.sol\":6572:6580  votes[i] */\n      0x00\n        /* \"contracts/LunchVenue_updated.sol\":6578:6579  i */\n      dup6\n        /* \"contracts/LunchVenue_updated.sol\":6572:6580  votes[i] */\n      dup2\n      mstore\n      0x20\n      add\n      swap1\n      dup2\n      mstore\n      0x20\n      add\n      0x00\n      keccak256\n        /* \"contracts/LunchVenue_updated.sol\":6572:6591  votes[i].restaurant */\n      0x01\n      add\n      sload\n        /* \"contracts/LunchVenue_updated.sol\":6563:6592  _results[votes[i].restaurant] */\n      dup2\n      mstore\n      0x20\n      add\n      swap1\n      dup2\n      mstore\n      0x20\n      add\n      0x00\n      keccak256\n      sload\n        /* \"contracts/LunchVenue_updated.sol\":6550:6592  voteCount += _results[votes[i].restaurant] */\n      dup2\n      tag_194\n      swap2\n      swap1\n      tag_120\n      jump\t// in\n    tag_194:\n      swap1\n      pop\n        /* \"contracts/LunchVenue_updated.sol\":6467:6607  if( _results[votes[i].restaurant] > 0) { // Already start counting... */\n    tag_193:\n        /* \"contracts/LunchVenue_updated.sol\":6652:6661  voteCount */\n      dup1\n        /* \"contracts/LunchVenue_updated.sol\":6620:6628  _results */\n      0x08\n        /* \"contracts/LunchVenue_updated.sol\":6620:6649  _results[votes[i].restaurant] */\n      0x00\n        /* \"contracts/LunchVenue_updated.sol\":6629:6634  votes */\n      0x07\n        /* \"contracts/LunchVenue_updated.sol\":6629:6637  votes[i] */\n      0x00\n        /* \"contracts/LunchVenue_updated.sol\":6635:6636  i */\n      dup7\n        /* \"contracts/LunchVenue_updated.sol\":6629:6637  votes[i] */\n      dup2\n      mstore\n      0x20\n      add\n      swap1\n      dup2\n      mstore\n      0x20\n      add\n      0x00\n      keccak256\n        /* \"contracts/LunchVenue_updated.sol\":6629:6648  votes[i].restaurant */\n      0x01\n      add\n      sload\n        /* \"contracts/LunchVenue_updated.sol\":6620:6649  _results[votes[i].restaurant] */\n      dup2\n      mstore\n      0x20\n      add\n      swap1\n      dup2\n      mstore\n      0x20\n      add\n      0x00\n      keccak256\n        /* \"contracts/LunchVenue_updated.sol\":6620:6661  _results[votes[i].restaurant] = voteCount */\n      dup2\n      swap1\n      sstore\n      pop\n        /* \"contracts/LunchVenue_updated.sol\":6691:6703  highestVotes */\n      dup4\n        /* \"contracts/LunchVenue_updated.sol\":6679:6688  voteCount */\n      dup2\n        /* \"contracts/LunchVenue_updated.sol\":6679:6703  voteCount > highestVotes */\n      gt\n        /* \"contracts/LunchVenue_updated.sol\":6675:6832  if (voteCount > highestVotes){ // New winner... */\n      iszero\n      tag_195\n      jumpi\n        /* \"contracts/LunchVenue_updated.sol\":6751:6760  voteCount */\n      dup1\n        /* \"contracts/LunchVenue_updated.sol\":6736:6760  highestVotes = voteCount */\n      swap4\n      pop\n        /* \"contracts/LunchVenue_updated.sol\":6798:6803  votes */\n      0x07\n        /* \"contracts/LunchVenue_updated.sol\":6798:6806  votes[i] */\n      0x00\n        /* \"contracts/LunchVenue_updated.sol\":6804:6805  i */\n      dup4\n        /* \"contracts/LunchVenue_updated.sol\":6798:6806  votes[i] */\n      dup2\n      mstore\n      0x20\n      add\n      swap1\n      dup2\n      mstore\n      0x20\n      add\n      0x00\n      keccak256\n        /* \"contracts/LunchVenue_updated.sol\":6798:6817  votes[i].restaurant */\n      0x01\n      add\n      sload\n        /* \"contracts/LunchVenue_updated.sol\":6778:6817  highestRestaurant = votes[i].restaurant */\n      swap3\n      pop\n        /* \"contracts/LunchVenue_updated.sol\":6675:6832  if (voteCount > highestVotes){ // New winner... */\n    tag_195:\n        /* \"contracts/LunchVenue_updated.sol\":6404:6842  { // For each vote... */\n      pop\n        /* \"contracts/LunchVenue_updated.sol\":6399:6402  i++ */\n      dup1\n      dup1\n      tag_196\n      swap1\n      tag_113\n      jump\t// in\n    tag_196:\n      swap2\n      pop\n      pop\n        /* \"contracts/LunchVenue_updated.sol\":6367:6842  for (uint i = 1; i <= numVotes; i++) { // For each vote... */\n      jump(tag_190)\n    tag_191:\n      pop\n        /* \"contracts/LunchVenue_updated.sol\":6869:6880  restaurants */\n      0x00\n        /* \"contracts/LunchVenue_updated.sol\":6869:6899  restaurants[highestRestaurant] */\n      dup1\n        /* \"contracts/LunchVenue_updated.sol\":6881:6898  highestRestaurant */\n      dup3\n        /* \"contracts/LunchVenue_updated.sol\":6869:6899  restaurants[highestRestaurant] */\n      dup2\n      mstore\n      0x20\n      add\n      swap1\n      dup2\n      mstore\n      0x20\n      add\n      0x00\n      keccak256\n        /* \"contracts/LunchVenue_updated.sol\":6851:6866  votedRestaurant */\n      0x06\n        /* \"contracts/LunchVenue_updated.sol\":6851:6899  votedRestaurant = restaurants[highestRestaurant] */\n      swap1\n      dup2\n      tag_197\n      swap2\n      swap1\n      tag_198\n      jump\t// in\n    tag_197:\n      pop\n        /* \"contracts/LunchVenue_updated.sol\":6941:6946  false */\n      0x00\n        /* \"contracts/LunchVenue_updated.sol\":6930:6938  voteOpen */\n      0x09\n      0x00\n        /* \"contracts/LunchVenue_updated.sol\":6930:6946  voteOpen = false */\n      0x0100\n      exp\n      dup2\n      sload\n      dup2\n      0xff\n      mul\n      not\n      and\n      swap1\n      dup4\n      iszero\n      iszero\n      mul\n      or\n      swap1\n      sstore\n      pop\n        /* \"contracts/LunchVenue_updated.sol\":6230:6977  {... */\n      pop\n      pop\n        /* \"contracts/LunchVenue_updated.sol\":6200:6977  function finalResult() private{... */\n      jump\t// out\n    tag_111:\n      mload(0x40)\n      dup1\n      0x40\n      add\n      0x40\n      mstore\n      dup1\n      and(0xffffffffffffffffffffffffffffffffffffffff, 0x00)\n      dup2\n      mstore\n      0x20\n      add\n      0x00\n      dup2\n      mstore\n      pop\n      swap1\n      jump\t// out\n    tag_140:\n      mload(0x40)\n      dup1\n      0x40\n      add\n      0x40\n      mstore\n      dup1\n      0x60\n      dup2\n      mstore\n      0x20\n      add\n      iszero(iszero(0x00))\n      dup2\n      mstore\n      pop\n      swap1\n      jump\t// out\n        /* \"#utility.yul\":7:82   */\n    tag_199:\n        /* \"#utility.yul\":40:46   */\n      0x00\n        /* \"#utility.yul\":73:75   */\n      0x40\n        /* \"#utility.yul\":67:76   */\n      mload\n        /* \"#utility.yul\":57:76   */\n      swap1\n      pop\n        /* \"#utility.yul\":7:82   */\n      swap1\n      jump\t// out\n        /* \"#utility.yul\":88:205   */\n    tag_200:\n        /* \"#utility.yul\":197:198   */\n      0x00\n        /* \"#utility.yul\":194:195   */\n      dup1\n        /* \"#utility.yul\":187:199   */\n      revert\n        /* \"#utility.yul\":211:328   */\n    tag_201:\n        /* \"#utility.yul\":320:321   */\n      0x00\n        /* \"#utility.yul\":317:318   */\n      dup1\n        /* \"#utility.yul\":310:322   */\n      revert\n        /* \"#utility.yul\":334:411   */\n    tag_202:\n        /* \"#utility.yul\":371:378   */\n      0x00\n        /* \"#utility.yul\":400:405   */\n      dup2\n        /* \"#utility.yul\":389:405   */\n      swap1\n      pop\n        /* \"#utility.yul\":334:411   */\n      swap2\n      swap1\n      pop\n      jump\t// out\n        /* \"#utility.yul\":417:539   */\n    tag_203:\n        /* \"#utility.yul\":490:514   */\n      tag_262\n        /* \"#utility.yul\":508:513   */\n      dup2\n        /* \"#utility.yul\":490:514   */\n      tag_202\n      jump\t// in\n    tag_262:\n        /* \"#utility.yul\":483:488   */\n      dup2\n        /* \"#utility.yul\":480:515   */\n      eq\n        /* \"#utility.yul\":470:533   */\n      tag_263\n      jumpi\n        /* \"#utility.yul\":529:530   */\n      0x00\n        /* \"#utility.yul\":526:527   */\n      dup1\n        /* \"#utility.yul\":519:531   */\n      revert\n        /* \"#utility.yul\":470:533   */\n    tag_263:\n        /* \"#utility.yul\":417:539   */\n      pop\n      jump\t// out\n        /* \"#utility.yul\":545:684   */\n    tag_204:\n        /* \"#utility.yul\":591:596   */\n      0x00\n        /* \"#utility.yul\":629:635   */\n      dup2\n        /* \"#utility.yul\":616:636   */\n      calldataload\n        /* \"#utility.yul\":607:636   */\n      swap1\n      pop\n        /* \"#utility.yul\":645:678   */\n      tag_265\n        /* \"#utility.yul\":672:677   */\n      dup2\n        /* \"#utility.yul\":645:678   */\n      tag_203\n      jump\t// in\n    tag_265:\n        /* \"#utility.yul\":545:684   */\n      swap3\n      swap2\n      pop\n      pop\n      jump\t// out\n        /* \"#utility.yul\":690:1019   */\n    tag_26:\n        /* \"#utility.yul\":749:755   */\n      0x00\n        /* \"#utility.yul\":798:800   */\n      0x20\n        /* \"#utility.yul\":786:795   */\n      dup3\n        /* \"#utility.yul\":777:784   */\n      dup5\n        /* \"#utility.yul\":773:796   */\n      sub\n        /* \"#utility.yul\":769:801   */\n      slt\n        /* \"#utility.yul\":766:885   */\n      iszero\n      tag_267\n      jumpi\n        /* \"#utility.yul\":804:883   */\n      tag_268\n      tag_200\n      jump\t// in\n    tag_268:\n        /* \"#utility.yul\":766:885   */\n    tag_267:\n        /* \"#utility.yul\":924:925   */\n      0x00\n        /* \"#utility.yul\":949:1002   */\n      tag_269\n        /* \"#utility.yul\":994:1001   */\n      dup5\n        /* \"#utility.yul\":985:991   */\n      dup3\n        /* \"#utility.yul\":974:983   */\n      dup6\n        /* \"#utility.yul\":970:992   */\n      add\n        /* \"#utility.yul\":949:1002   */\n      tag_204\n      jump\t// in\n    tag_269:\n        /* \"#utility.yul\":939:1002   */\n      swap2\n      pop\n        /* \"#utility.yul\":895:1012   */\n      pop\n        /* \"#utility.yul\":690:1019   */\n      swap3\n      swap2\n      pop\n      pop\n      jump\t// out\n        /* \"#utility.yul\":1025:1115   */\n    tag_205:\n        /* \"#utility.yul\":1059:1066   */\n      0x00\n        /* \"#utility.yul\":1102:1107   */\n      dup2\n        /* \"#utility.yul\":1095:1108   */\n      iszero\n        /* \"#utility.yul\":1088:1109   */\n      iszero\n        /* \"#utility.yul\":1077:1109   */\n      swap1\n      pop\n        /* \"#utility.yul\":1025:1115   */\n      swap2\n      swap1\n      pop\n      jump\t// out\n        /* \"#utility.yul\":1121:1230   */\n    tag_206:\n        /* \"#utility.yul\":1202:1223   */\n      tag_272\n        /* \"#utility.yul\":1217:1222   */\n      dup2\n        /* \"#utility.yul\":1202:1223   */\n      tag_205\n      jump\t// in\n    tag_272:\n        /* \"#utility.yul\":1197:1200   */\n      dup3\n        /* \"#utility.yul\":1190:1224   */\n      mstore\n        /* \"#utility.yul\":1121:1230   */\n      pop\n      pop\n      jump\t// out\n        /* \"#utility.yul\":1236:1446   */\n    tag_29:\n        /* \"#utility.yul\":1323:1327   */\n      0x00\n        /* \"#utility.yul\":1361:1363   */\n      0x20\n        /* \"#utility.yul\":1350:1359   */\n      dup3\n        /* \"#utility.yul\":1346:1364   */\n      add\n        /* \"#utility.yul\":1338:1364   */\n      swap1\n      pop\n        /* \"#utility.yul\":1374:1439   */\n      tag_274\n        /* \"#utility.yul\":1436:1437   */\n      0x00\n        /* \"#utility.yul\":1425:1434   */\n      dup4\n        /* \"#utility.yul\":1421:1438   */\n      add\n        /* \"#utility.yul\":1412:1418   */\n      dup5\n        /* \"#utility.yul\":1374:1439   */\n      tag_206\n      jump\t// in\n    tag_274:\n        /* \"#utility.yul\":1236:1446   */\n      swap3\n      swap2\n      pop\n      pop\n      jump\t// out\n        /* \"#utility.yul\":1452:1578   */\n    tag_207:\n        /* \"#utility.yul\":1489:1496   */\n      0x00\n        /* \"#utility.yul\":1529:1571   */\n      0xffffffffffffffffffffffffffffffffffffffff\n        /* \"#utility.yul\":1522:1527   */\n      dup3\n        /* \"#utility.yul\":1518:1572   */\n      and\n        /* \"#utility.yul\":1507:1572   */\n      swap1\n      pop\n        /* \"#utility.yul\":1452:1578   */\n      swap2\n      swap1\n      pop\n      jump\t// out\n        /* \"#utility.yul\":1584:1680   */\n    tag_208:\n        /* \"#utility.yul\":1621:1628   */\n      0x00\n        /* \"#utility.yul\":1650:1674   */\n      tag_277\n        /* \"#utility.yul\":1668:1673   */\n      dup3\n        /* \"#utility.yul\":1650:1674   */\n      tag_207\n      jump\t// in\n    tag_277:\n        /* \"#utility.yul\":1639:1674   */\n      swap1\n      pop\n        /* \"#utility.yul\":1584:1680   */\n      swap2\n      swap1\n      pop\n      jump\t// out\n        /* \"#utility.yul\":1686:1808   */\n    tag_209:\n        /* \"#utility.yul\":1759:1783   */\n      tag_279\n        /* \"#utility.yul\":1777:1782   */\n      dup2\n        /* \"#utility.yul\":1759:1783   */\n      tag_208\n      jump\t// in\n    tag_279:\n        /* \"#utility.yul\":1752:1757   */\n      dup2\n        /* \"#utility.yul\":1749:1784   */\n      eq\n        /* \"#utility.yul\":1739:1802   */\n      tag_280\n      jumpi\n        /* \"#utility.yul\":1798:1799   */\n      0x00\n        /* \"#utility.yul\":1795:1796   */\n      dup1\n        /* \"#utility.yul\":1788:1800   */\n      revert\n        /* \"#utility.yul\":1739:1802   */\n    tag_280:\n        /* \"#utility.yul\":1686:1808   */\n      pop\n      jump\t// out\n        /* \"#utility.yul\":1814:1953   */\n    tag_210:\n        /* \"#utility.yul\":1860:1865   */\n      0x00\n        /* \"#utility.yul\":1898:1904   */\n      dup2\n        /* \"#utility.yul\":1885:1905   */\n      calldataload\n        /* \"#utility.yul\":1876:1905   */\n      swap1\n      pop\n        /* \"#utility.yul\":1914:1947   */\n      tag_282\n        /* \"#utility.yul\":1941:1946   */\n      dup2\n        /* \"#utility.yul\":1914:1947   */\n      tag_209\n      jump\t// in\n    tag_282:\n        /* \"#utility.yul\":1814:1953   */\n      swap3\n      swap2\n      pop\n      pop\n      jump\t// out\n        /* \"#utility.yul\":1959:2288   */\n    tag_32:\n        /* \"#utility.yul\":2018:2024   */\n      0x00\n        /* \"#utility.yul\":2067:2069   */\n      0x20\n        /* \"#utility.yul\":2055:2064   */\n      dup3\n        /* \"#utility.yul\":2046:2053   */\n      dup5\n        /* \"#utility.yul\":2042:2065   */\n      sub\n        /* \"#utility.yul\":2038:2070   */\n      slt\n        /* \"#utility.yul\":2035:2154   */\n      iszero\n      tag_284\n      jumpi\n        /* \"#utility.yul\":2073:2152   */\n      tag_285\n      tag_200\n      jump\t// in\n    tag_285:\n        /* \"#utility.yul\":2035:2154   */\n    tag_284:\n        /* \"#utility.yul\":2193:2194   */\n      0x00\n        /* \"#utility.yul\":2218:2271   */\n      tag_286\n        /* \"#utility.yul\":2263:2270   */\n      dup5\n        /* \"#utility.yul\":2254:2260   */\n      dup3\n        /* \"#utility.yul\":2243:2252   */\n      dup6\n        /* \"#utility.yul\":2239:2261   */\n      add\n        /* \"#utility.yul\":2218:2271   */\n      tag_210\n      jump\t// in\n    tag_286:\n        /* \"#utility.yul\":2208:2271   */\n      swap2\n      pop\n        /* \"#utility.yul\":2164:2281   */\n      pop\n        /* \"#utility.yul\":1959:2288   */\n      swap3\n      swap2\n      pop\n      pop\n      jump\t// out\n        /* \"#utility.yul\":2294:2393   */\n    tag_211:\n        /* \"#utility.yul\":2346:2352   */\n      0x00\n        /* \"#utility.yul\":2380:2385   */\n      dup2\n        /* \"#utility.yul\":2374:2386   */\n      mload\n        /* \"#utility.yul\":2364:2386   */\n      swap1\n      pop\n        /* \"#utility.yul\":2294:2393   */\n      swap2\n      swap1\n      pop\n      jump\t// out\n        /* \"#utility.yul\":2399:2568   */\n    tag_212:\n        /* \"#utility.yul\":2483:2494   */\n      0x00\n        /* \"#utility.yul\":2517:2523   */\n      dup3\n        /* \"#utility.yul\":2512:2515   */\n      dup3\n        /* \"#utility.yul\":2505:2524   */\n      mstore\n        /* \"#utility.yul\":2557:2561   */\n      0x20\n        /* \"#utility.yul\":2552:2555   */\n      dup3\n        /* \"#utility.yul\":2548:2562   */\n      add\n        /* \"#utility.yul\":2533:2562   */\n      swap1\n      pop\n        /* \"#utility.yul\":2399:2568   */\n      swap3\n      swap2\n      pop\n      pop\n      jump\t// out\n        /* \"#utility.yul\":2574:2820   */\n    tag_213:\n        /* \"#utility.yul\":2655:2656   */\n      0x00\n        /* \"#utility.yul\":2665:2778   */\n    tag_290:\n        /* \"#utility.yul\":2679:2685   */\n      dup4\n        /* \"#utility.yul\":2676:2677   */\n      dup2\n        /* \"#utility.yul\":2673:2686   */\n      lt\n        /* \"#utility.yul\":2665:2778   */\n      iszero\n      tag_292\n      jumpi\n        /* \"#utility.yul\":2764:2765   */\n      dup1\n        /* \"#utility.yul\":2759:2762   */\n      dup3\n        /* \"#utility.yul\":2755:2766   */\n      add\n        /* \"#utility.yul\":2749:2767   */\n      mload\n        /* \"#utility.yul\":2745:2746   */\n      dup2\n        /* \"#utility.yul\":2740:2743   */\n      dup5\n        /* \"#utility.yul\":2736:2747   */\n      add\n        /* \"#utility.yul\":2729:2768   */\n      mstore\n        /* \"#utility.yul\":2701:2703   */\n      0x20\n        /* \"#utility.yul\":2698:2699   */\n      dup2\n        /* \"#utility.yul\":2694:2704   */\n      add\n        /* \"#utility.yul\":2689:2704   */\n      swap1\n      pop\n        /* \"#utility.yul\":2665:2778   */\n      jump(tag_290)\n    tag_292:\n        /* \"#utility.yul\":2812:2813   */\n      0x00\n        /* \"#utility.yul\":2803:2809   */\n      dup5\n        /* \"#utility.yul\":2798:2801   */\n      dup5\n        /* \"#utility.yul\":2794:2810   */\n      add\n        /* \"#utility.yul\":2787:2814   */\n      mstore\n        /* \"#utility.yul\":2636:2820   */\n      pop\n        /* \"#utility.yul\":2574:2820   */\n      pop\n      pop\n      pop\n      jump\t// out\n        /* \"#utility.yul\":2826:2928   */\n    tag_214:\n        /* \"#utility.yul\":2867:2873   */\n      0x00\n        /* \"#utility.yul\":2918:2920   */\n      0x1f\n        /* \"#utility.yul\":2914:2921   */\n      not\n        /* \"#utility.yul\":2909:2911   */\n      0x1f\n        /* \"#utility.yul\":2902:2907   */\n      dup4\n        /* \"#utility.yul\":2898:2912   */\n      add\n        /* \"#utility.yul\":2894:2922   */\n      and\n        /* \"#utility.yul\":2884:2922   */\n      swap1\n      pop\n        /* \"#utility.yul\":2826:2928   */\n      swap2\n      swap1\n      pop\n      jump\t// out\n        /* \"#utility.yul\":2934:3311   */\n    tag_215:\n        /* \"#utility.yul\":3022:3025   */\n      0x00\n        /* \"#utility.yul\":3050:3089   */\n      tag_295\n        /* \"#utility.yul\":3083:3088   */\n      dup3\n        /* \"#utility.yul\":3050:3089   */\n      tag_211\n      jump\t// in\n    tag_295:\n        /* \"#utility.yul\":3105:3176   */\n      tag_296\n        /* \"#utility.yul\":3169:3175   */\n      dup2\n        /* \"#utility.yul\":3164:3167   */\n      dup6\n        /* \"#utility.yul\":3105:3176   */\n      tag_212\n      jump\t// in\n    tag_296:\n        /* \"#utility.yul\":3098:3176   */\n      swap4\n      pop\n        /* \"#utility.yul\":3185:3250   */\n      tag_297\n        /* \"#utility.yul\":3243:3249   */\n      dup2\n        /* \"#utility.yul\":3238:3241   */\n      dup6\n        /* \"#utility.yul\":3231:3235   */\n      0x20\n        /* \"#utility.yul\":3224:3229   */\n      dup7\n        /* \"#utility.yul\":3220:3236   */\n      add\n        /* \"#utility.yul\":3185:3250   */\n      tag_213\n      jump\t// in\n    tag_297:\n        /* \"#utility.yul\":3275:3304   */\n      tag_298\n        /* \"#utility.yul\":3297:3303   */\n      dup2\n        /* \"#utility.yul\":3275:3304   */\n      tag_214\n      jump\t// in\n    tag_298:\n        /* \"#utility.yul\":3270:3273   */\n      dup5\n        /* \"#utility.yul\":3266:3305   */\n      add\n        /* \"#utility.yul\":3259:3305   */\n      swap2\n      pop\n        /* \"#utility.yul\":3026:3311   */\n      pop\n        /* \"#utility.yul\":2934:3311   */\n      swap3\n      swap2\n      pop\n      pop\n      jump\t// out\n        /* \"#utility.yul\":3317:3728   */\n    tag_35:\n        /* \"#utility.yul\":3452:3456   */\n      0x00\n        /* \"#utility.yul\":3490:3492   */\n      0x40\n        /* \"#utility.yul\":3479:3488   */\n      dup3\n        /* \"#utility.yul\":3475:3493   */\n      add\n        /* \"#utility.yul\":3467:3493   */\n      swap1\n      pop\n        /* \"#utility.yul\":3539:3548   */\n      dup2\n        /* \"#utility.yul\":3533:3537   */\n      dup2\n        /* \"#utility.yul\":3529:3549   */\n      sub\n        /* \"#utility.yul\":3525:3526   */\n      0x00\n        /* \"#utility.yul\":3514:3523   */\n      dup4\n        /* \"#utility.yul\":3510:3527   */\n      add\n        /* \"#utility.yul\":3503:3550   */\n      mstore\n        /* \"#utility.yul\":3567:3645   */\n      tag_300\n        /* \"#utility.yul\":3640:3644   */\n      dup2\n        /* \"#utility.yul\":3631:3637   */\n      dup6\n        /* \"#utility.yul\":3567:3645   */\n      tag_215\n      jump\t// in\n    tag_300:\n        /* \"#utility.yul\":3559:3645   */\n      swap1\n      pop\n        /* \"#utility.yul\":3655:3721   */\n      tag_301\n        /* \"#utility.yul\":3717:3719   */\n      0x20\n        /* \"#utility.yul\":3706:3715   */\n      dup4\n        /* \"#utility.yul\":3702:3720   */\n      add\n        /* \"#utility.yul\":3693:3699   */\n      dup5\n        /* \"#utility.yul\":3655:3721   */\n      tag_206\n      jump\t// in\n    tag_301:\n        /* \"#utility.yul\":3317:3728   */\n      swap4\n      swap3\n      pop\n      pop\n      pop\n      jump\t// out\n        /* \"#utility.yul\":3734:3851   */\n    tag_216:\n        /* \"#utility.yul\":3843:3844   */\n      0x00\n        /* \"#utility.yul\":3840:3841   */\n      dup1\n        /* \"#utility.yul\":3833:3845   */\n      revert\n        /* \"#utility.yul\":3857:3974   */\n    tag_217:\n        /* \"#utility.yul\":3966:3967   */\n      0x00\n        /* \"#utility.yul\":3963:3964   */\n      dup1\n        /* \"#utility.yul\":3956:3968   */\n      revert\n        /* \"#utility.yul\":3980:4160   */\n    tag_218:\n        /* \"#utility.yul\":4028:4105   */\n      0x4e487b7100000000000000000000000000000000000000000000000000000000\n        /* \"#utility.yul\":4025:4026   */\n      0x00\n        /* \"#utility.yul\":4018:4106   */\n      mstore\n        /* \"#utility.yul\":4125:4129   */\n      0x41\n        /* \"#utility.yul\":4122:4123   */\n      0x04\n        /* \"#utility.yul\":4115:4130   */\n      mstore\n        /* \"#utility.yul\":4149:4153   */\n      0x24\n        /* \"#utility.yul\":4146:4147   */\n      0x00\n        /* \"#utility.yul\":4139:4154   */\n      revert\n        /* \"#utility.yul\":4166:4447   */\n    tag_219:\n        /* \"#utility.yul\":4249:4276   */\n      tag_306\n        /* \"#utility.yul\":4271:4275   */\n      dup3\n        /* \"#utility.yul\":4249:4276   */\n      tag_214\n      jump\t// in\n    tag_306:\n        /* \"#utility.yul\":4241:4247   */\n      dup2\n        /* \"#utility.yul\":4237:4277   */\n      add\n        /* \"#utility.yul\":4379:4385   */\n      dup2\n        /* \"#utility.yul\":4367:4377   */\n      dup2\n        /* \"#utility.yul\":4364:4386   */\n      lt\n        /* \"#utility.yul\":4343:4361   */\n      0xffffffffffffffff\n        /* \"#utility.yul\":4331:4341   */\n      dup3\n        /* \"#utility.yul\":4328:4362   */\n      gt\n        /* \"#utility.yul\":4325:4387   */\n      or\n        /* \"#utility.yul\":4322:4410   */\n      iszero\n      tag_307\n      jumpi\n        /* \"#utility.yul\":4390:4408   */\n      tag_308\n      tag_218\n      jump\t// in\n    tag_308:\n        /* \"#utility.yul\":4322:4410   */\n    tag_307:\n        /* \"#utility.yul\":4430:4440   */\n      dup1\n        /* \"#utility.yul\":4426:4428   */\n      0x40\n        /* \"#utility.yul\":4419:4441   */\n      mstore\n        /* \"#utility.yul\":4209:4447   */\n      pop\n        /* \"#utility.yul\":4166:4447   */\n      pop\n      pop\n      jump\t// out\n        /* \"#utility.yul\":4453:4582   */\n    tag_220:\n        /* \"#utility.yul\":4487:4493   */\n      0x00\n        /* \"#utility.yul\":4514:4534   */\n      tag_310\n      tag_199\n      jump\t// in\n    tag_310:\n        /* \"#utility.yul\":4504:4534   */\n      swap1\n      pop\n        /* \"#utility.yul\":4543:4576   */\n      tag_311\n        /* \"#utility.yul\":4571:4575   */\n      dup3\n        /* \"#utility.yul\":4563:4569   */\n      dup3\n        /* \"#utility.yul\":4543:4576   */\n      tag_219\n      jump\t// in\n    tag_311:\n        /* \"#utility.yul\":4453:4582   */\n      swap2\n      swap1\n      pop\n      jump\t// out\n        /* \"#utility.yul\":4588:4896   */\n    tag_221:\n        /* \"#utility.yul\":4650:4654   */\n      0x00\n        /* \"#utility.yul\":4740:4758   */\n      0xffffffffffffffff\n        /* \"#utility.yul\":4732:4738   */\n      dup3\n        /* \"#utility.yul\":4729:4759   */\n      gt\n        /* \"#utility.yul\":4726:4782   */\n      iszero\n      tag_313\n      jumpi\n        /* \"#utility.yul\":4762:4780   */\n      tag_314\n      tag_218\n      jump\t// in\n    tag_314:\n        /* \"#utility.yul\":4726:4782   */\n    tag_313:\n        /* \"#utility.yul\":4800:4829   */\n      tag_315\n        /* \"#utility.yul\":4822:4828   */\n      dup3\n        /* \"#utility.yul\":4800:4829   */\n      tag_214\n      jump\t// in\n    tag_315:\n        /* \"#utility.yul\":4792:4829   */\n      swap1\n      pop\n        /* \"#utility.yul\":4884:4888   */\n      0x20\n        /* \"#utility.yul\":4878:4882   */\n      dup2\n        /* \"#utility.yul\":4874:4889   */\n      add\n        /* \"#utility.yul\":4866:4889   */\n      swap1\n      pop\n        /* \"#utility.yul\":4588:4896   */\n      swap2\n      swap1\n      pop\n      jump\t// out\n        /* \"#utility.yul\":4902:5048   */\n    tag_222:\n        /* \"#utility.yul\":4999:5005   */\n      dup3\n        /* \"#utility.yul\":4994:4997   */\n      dup2\n        /* \"#utility.yul\":4989:4992   */\n      dup4\n        /* \"#utility.yul\":4976:5006   */\n      calldatacopy\n        /* \"#utility.yul\":5040:5041   */\n      0x00\n        /* \"#utility.yul\":5031:5037   */\n      dup4\n        /* \"#utility.yul\":5026:5029   */\n      dup4\n        /* \"#utility.yul\":5022:5038   */\n      add\n        /* \"#utility.yul\":5015:5042   */\n      mstore\n        /* \"#utility.yul\":4902:5048   */\n      pop\n      pop\n      pop\n      jump\t// out\n        /* \"#utility.yul\":5054:5479   */\n    tag_223:\n        /* \"#utility.yul\":5132:5137   */\n      0x00\n        /* \"#utility.yul\":5157:5223   */\n      tag_318\n        /* \"#utility.yul\":5173:5222   */\n      tag_319\n        /* \"#utility.yul\":5215:5221   */\n      dup5\n        /* \"#utility.yul\":5173:5222   */\n      tag_221\n      jump\t// in\n    tag_319:\n        /* \"#utility.yul\":5157:5223   */\n      tag_220\n      jump\t// in\n    tag_318:\n        /* \"#utility.yul\":5148:5223   */\n      swap1\n      pop\n        /* \"#utility.yul\":5246:5252   */\n      dup3\n        /* \"#utility.yul\":5239:5244   */\n      dup2\n        /* \"#utility.yul\":5232:5253   */\n      mstore\n        /* \"#utility.yul\":5284:5288   */\n      0x20\n        /* \"#utility.yul\":5277:5282   */\n      dup2\n        /* \"#utility.yul\":5273:5289   */\n      add\n        /* \"#utility.yul\":5322:5325   */\n      dup5\n        /* \"#utility.yul\":5313:5319   */\n      dup5\n        /* \"#utility.yul\":5308:5311   */\n      dup5\n        /* \"#utility.yul\":5304:5320   */\n      add\n        /* \"#utility.yul\":5301:5326   */\n      gt\n        /* \"#utility.yul\":5298:5410   */\n      iszero\n      tag_320\n      jumpi\n        /* \"#utility.yul\":5329:5408   */\n      tag_321\n      tag_217\n      jump\t// in\n    tag_321:\n        /* \"#utility.yul\":5298:5410   */\n    tag_320:\n        /* \"#utility.yul\":5419:5473   */\n      tag_322\n        /* \"#utility.yul\":5466:5472   */\n      dup5\n        /* \"#utility.yul\":5461:5464   */\n      dup3\n        /* \"#utility.yul\":5456:5459   */\n      dup6\n        /* \"#utility.yul\":5419:5473   */\n      tag_222\n      jump\t// in\n    tag_322:\n        /* \"#utility.yul\":5138:5479   */\n      pop\n        /* \"#utility.yul\":5054:5479   */\n      swap4\n      swap3\n      pop\n      pop\n      pop\n      jump\t// out\n        /* \"#utility.yul\":5499:5839   */\n    tag_224:\n        /* \"#utility.yul\":5555:5560   */\n      0x00\n        /* \"#utility.yul\":5604:5607   */\n      dup3\n        /* \"#utility.yul\":5597:5601   */\n      0x1f\n        /* \"#utility.yul\":5589:5595   */\n      dup4\n        /* \"#utility.yul\":5585:5602   */\n      add\n        /* \"#utility.yul\":5581:5608   */\n      slt\n        /* \"#utility.yul\":5571:5693   */\n      tag_324\n      jumpi\n        /* \"#utility.yul\":5612:5691   */\n      tag_325\n      tag_216\n      jump\t// in\n    tag_325:\n        /* \"#utility.yul\":5571:5693   */\n    tag_324:\n        /* \"#utility.yul\":5729:5735   */\n      dup2\n        /* \"#utility.yul\":5716:5736   */\n      calldataload\n        /* \"#utility.yul\":5754:5833   */\n      tag_326\n        /* \"#utility.yul\":5829:5832   */\n      dup5\n        /* \"#utility.yul\":5821:5827   */\n      dup3\n        /* \"#utility.yul\":5814:5818   */\n      0x20\n        /* \"#utility.yul\":5806:5812   */\n      dup7\n        /* \"#utility.yul\":5802:5819   */\n      add\n        /* \"#utility.yul\":5754:5833   */\n      tag_223\n      jump\t// in\n    tag_326:\n        /* \"#utility.yul\":5745:5833   */\n      swap2\n      pop\n        /* \"#utility.yul\":5561:5839   */\n      pop\n        /* \"#utility.yul\":5499:5839   */\n      swap3\n      swap2\n      pop\n      pop\n      jump\t// out\n        /* \"#utility.yul\":5845:6499   */\n    tag_38:\n        /* \"#utility.yul\":5923:5929   */\n      0x00\n        /* \"#utility.yul\":5931:5937   */\n      dup1\n        /* \"#utility.yul\":5980:5982   */\n      0x40\n        /* \"#utility.yul\":5968:5977   */\n      dup4\n        /* \"#utility.yul\":5959:5966   */\n      dup6\n        /* \"#utility.yul\":5955:5978   */\n      sub\n        /* \"#utility.yul\":5951:5983   */\n      slt\n        /* \"#utility.yul\":5948:6067   */\n      iszero\n      tag_328\n      jumpi\n        /* \"#utility.yul\":5986:6065   */\n      tag_329\n      tag_200\n      jump\t// in\n    tag_329:\n        /* \"#utility.yul\":5948:6067   */\n    tag_328:\n        /* \"#utility.yul\":6106:6107   */\n      0x00\n        /* \"#utility.yul\":6131:6184   */\n      tag_330\n        /* \"#utility.yul\":6176:6183   */\n      dup6\n        /* \"#utility.yul\":6167:6173   */\n      dup3\n        /* \"#utility.yul\":6156:6165   */\n      dup7\n        /* \"#utility.yul\":6152:6174   */\n      add\n        /* \"#utility.yul\":6131:6184   */\n      tag_210\n      jump\t// in\n    tag_330:\n        /* \"#utility.yul\":6121:6184   */\n      swap3\n      pop\n        /* \"#utility.yul\":6077:6194   */\n      pop\n        /* \"#utility.yul\":6261:6263   */\n      0x20\n        /* \"#utility.yul\":6250:6259   */\n      dup4\n        /* \"#utility.yul\":6246:6264   */\n      add\n        /* \"#utility.yul\":6233:6265   */\n      calldataload\n        /* \"#utility.yul\":6292:6310   */\n      0xffffffffffffffff\n        /* \"#utility.yul\":6284:6290   */\n      dup2\n        /* \"#utility.yul\":6281:6311   */\n      gt\n        /* \"#utility.yul\":6278:6395   */\n      iszero\n      tag_331\n      jumpi\n        /* \"#utility.yul\":6314:6393   */\n      tag_332\n      tag_201\n      jump\t// in\n    tag_332:\n        /* \"#utility.yul\":6278:6395   */\n    tag_331:\n        /* \"#utility.yul\":6419:6482   */\n      tag_333\n        /* \"#utility.yul\":6474:6481   */\n      dup6\n        /* \"#utility.yul\":6465:6471   */\n      dup3\n        /* \"#utility.yul\":6454:6463   */\n      dup7\n        /* \"#utility.yul\":6450:6472   */\n      add\n        /* \"#utility.yul\":6419:6482   */\n      tag_224\n      jump\t// in\n    tag_333:\n        /* \"#utility.yul\":6409:6482   */\n      swap2\n      pop\n        /* \"#utility.yul\":6204:6492   */\n      pop\n        /* \"#utility.yul\":5845:6499   */\n      swap3\n      pop\n      swap3\n      swap1\n      pop\n      jump\t// out\n        /* \"#utility.yul\":6505:6623   */\n    tag_225:\n        /* \"#utility.yul\":6592:6616   */\n      tag_335\n        /* \"#utility.yul\":6610:6615   */\n      dup2\n        /* \"#utility.yul\":6592:6616   */\n      tag_202\n      jump\t// in\n    tag_335:\n        /* \"#utility.yul\":6587:6590   */\n      dup3\n        /* \"#utility.yul\":6580:6617   */\n      mstore\n        /* \"#utility.yul\":6505:6623   */\n      pop\n      pop\n      jump\t// out\n        /* \"#utility.yul\":6629:6851   */\n    tag_41:\n        /* \"#utility.yul\":6722:6726   */\n      0x00\n        /* \"#utility.yul\":6760:6762   */\n      0x20\n        /* \"#utility.yul\":6749:6758   */\n      dup3\n        /* \"#utility.yul\":6745:6763   */\n      add\n        /* \"#utility.yul\":6737:6763   */\n      swap1\n      pop\n        /* \"#utility.yul\":6773:6844   */\n      tag_337\n        /* \"#utility.yul\":6841:6842   */\n      0x00\n        /* \"#utility.yul\":6830:6839   */\n      dup4\n        /* \"#utility.yul\":6826:6843   */\n      add\n        /* \"#utility.yul\":6817:6823   */\n      dup5\n        /* \"#utility.yul\":6773:6844   */\n      tag_225\n      jump\t// in\n    tag_337:\n        /* \"#utility.yul\":6629:6851   */\n      swap3\n      swap2\n      pop\n      pop\n      jump\t// out\n        /* \"#utility.yul\":6857:6975   */\n    tag_226:\n        /* \"#utility.yul\":6944:6968   */\n      tag_339\n        /* \"#utility.yul\":6962:6967   */\n      dup2\n        /* \"#utility.yul\":6944:6968   */\n      tag_208\n      jump\t// in\n    tag_339:\n        /* \"#utility.yul\":6939:6942   */\n      dup3\n        /* \"#utility.yul\":6932:6969   */\n      mstore\n        /* \"#utility.yul\":6857:6975   */\n      pop\n      pop\n      jump\t// out\n        /* \"#utility.yul\":6981:7203   */\n    tag_48:\n        /* \"#utility.yul\":7074:7078   */\n      0x00\n        /* \"#utility.yul\":7112:7114   */\n      0x20\n        /* \"#utility.yul\":7101:7110   */\n      dup3\n        /* \"#utility.yul\":7097:7115   */\n      add\n        /* \"#utility.yul\":7089:7115   */\n      swap1\n      pop\n        /* \"#utility.yul\":7125:7196   */\n      tag_341\n        /* \"#utility.yul\":7193:7194   */\n      0x00\n        /* \"#utility.yul\":7182:7191   */\n      dup4\n        /* \"#utility.yul\":7178:7195   */\n      add\n        /* \"#utility.yul\":7169:7175   */\n      dup5\n        /* \"#utility.yul\":7125:7196   */\n      tag_226\n      jump\t// in\n    tag_341:\n        /* \"#utility.yul\":6981:7203   */\n      swap3\n      swap2\n      pop\n      pop\n      jump\t// out\n        /* \"#utility.yul\":7209:7541   */\n    tag_53:\n        /* \"#utility.yul\":7330:7334   */\n      0x00\n        /* \"#utility.yul\":7368:7370   */\n      0x40\n        /* \"#utility.yul\":7357:7366   */\n      dup3\n        /* \"#utility.yul\":7353:7371   */\n      add\n        /* \"#utility.yul\":7345:7371   */\n      swap1\n      pop\n        /* \"#utility.yul\":7381:7452   */\n      tag_343\n        /* \"#utility.yul\":7449:7450   */\n      0x00\n        /* \"#utility.yul\":7438:7447   */\n      dup4\n        /* \"#utility.yul\":7434:7451   */\n      add\n        /* \"#utility.yul\":7425:7431   */\n      dup6\n        /* \"#utility.yul\":7381:7452   */\n      tag_226\n      jump\t// in\n    tag_343:\n        /* \"#utility.yul\":7462:7534   */\n      tag_344\n        /* \"#utility.yul\":7530:7532   */\n      0x20\n        /* \"#utility.yul\":7519:7528   */\n      dup4\n        /* \"#utility.yul\":7515:7533   */\n      add\n        /* \"#utility.yul\":7506:7512   */\n      dup5\n        /* \"#utility.yul\":7462:7534   */\n      tag_225\n      jump\t// in\n    tag_344:\n        /* \"#utility.yul\":7209:7541   */\n      swap4\n      swap3\n      pop\n      pop\n      pop\n      jump\t// out\n        /* \"#utility.yul\":7547:8056   */\n    tag_62:\n        /* \"#utility.yul\":7616:7622   */\n      0x00\n        /* \"#utility.yul\":7665:7667   */\n      0x20\n        /* \"#utility.yul\":7653:7662   */\n      dup3\n        /* \"#utility.yul\":7644:7651   */\n      dup5\n        /* \"#utility.yul\":7640:7663   */\n      sub\n        /* \"#utility.yul\":7636:7668   */\n      slt\n        /* \"#utility.yul\":7633:7752   */\n      iszero\n      tag_346\n      jumpi\n        /* \"#utility.yul\":7671:7750   */\n      tag_347\n      tag_200\n      jump\t// in\n    tag_347:\n        /* \"#utility.yul\":7633:7752   */\n    tag_346:\n        /* \"#utility.yul\":7819:7820   */\n      0x00\n        /* \"#utility.yul\":7808:7817   */\n      dup3\n        /* \"#utility.yul\":7804:7821   */\n      add\n        /* \"#utility.yul\":7791:7822   */\n      calldataload\n        /* \"#utility.yul\":7849:7867   */\n      0xffffffffffffffff\n        /* \"#utility.yul\":7841:7847   */\n      dup2\n        /* \"#utility.yul\":7838:7868   */\n      gt\n        /* \"#utility.yul\":7835:7952   */\n      iszero\n      tag_348\n      jumpi\n        /* \"#utility.yul\":7871:7950   */\n      tag_349\n      tag_201\n      jump\t// in\n    tag_349:\n        /* \"#utility.yul\":7835:7952   */\n    tag_348:\n        /* \"#utility.yul\":7976:8039   */\n      tag_350\n        /* \"#utility.yul\":8031:8038   */\n      dup5\n        /* \"#utility.yul\":8022:8028   */\n      dup3\n        /* \"#utility.yul\":8011:8020   */\n      dup6\n        /* \"#utility.yul\":8007:8029   */\n      add\n        /* \"#utility.yul\":7976:8039   */\n      tag_224\n      jump\t// in\n    tag_350:\n        /* \"#utility.yul\":7966:8039   */\n      swap2\n      pop\n        /* \"#utility.yul\":7762:8049   */\n      pop\n        /* \"#utility.yul\":7547:8056   */\n      swap3\n      swap2\n      pop\n      pop\n      jump\t// out\n        /* \"#utility.yul\":8062:8375   */\n    tag_78:\n        /* \"#utility.yul\":8175:8179   */\n      0x00\n        /* \"#utility.yul\":8213:8215   */\n      0x20\n        /* \"#utility.yul\":8202:8211   */\n      dup3\n        /* \"#utility.yul\":8198:8216   */\n      add\n        /* \"#utility.yul\":8190:8216   */\n      swap1\n      pop\n        /* \"#utility.yul\":8262:8271   */\n      dup2\n        /* \"#utility.yul\":8256:8260   */\n      dup2\n        /* \"#utility.yul\":8252:8272   */\n      sub\n        /* \"#utility.yul\":8248:8249   */\n      0x00\n        /* \"#utility.yul\":8237:8246   */\n      dup4\n        /* \"#utility.yul\":8233:8250   */\n      add\n        /* \"#utility.yul\":8226:8273   */\n      mstore\n        /* \"#utility.yul\":8290:8368   */\n      tag_352\n        /* \"#utility.yul\":8363:8367   */\n      dup2\n        /* \"#utility.yul\":8354:8360   */\n      dup5\n        /* \"#utility.yul\":8290:8368   */\n      tag_215\n      jump\t// in\n    tag_352:\n        /* \"#utility.yul\":8282:8368   */\n      swap1\n      pop\n        /* \"#utility.yul\":8062:8375   */\n      swap3\n      swap2\n      pop\n      pop\n      jump\t// out\n        /* \"#utility.yul\":8381:8603   */\n    tag_227:\n        /* \"#utility.yul\":8521:8555   */\n      0x43616e20766f7465206f6e6c79207768696c6520766f74696e67206973206f70\n        /* \"#utility.yul\":8517:8518   */\n      0x00\n        /* \"#utility.yul\":8509:8515   */\n      dup3\n        /* \"#utility.yul\":8505:8519   */\n      add\n        /* \"#utility.yul\":8498:8556   */\n      mstore\n        /* \"#utility.yul\":8590:8595   */\n      0x656e2e0000000000000000000000000000000000000000000000000000000000\n        /* \"#utility.yul\":8585:8587   */\n      0x20\n        /* \"#utility.yul\":8577:8583   */\n      dup3\n        /* \"#utility.yul\":8573:8588   */\n      add\n        /* \"#utility.yul\":8566:8596   */\n      mstore\n        /* \"#utility.yul\":8381:8603   */\n      pop\n      jump\t// out\n        /* \"#utility.yul\":8609:8975   */\n    tag_228:\n        /* \"#utility.yul\":8751:8754   */\n      0x00\n        /* \"#utility.yul\":8772:8839   */\n      tag_355\n        /* \"#utility.yul\":8836:8838   */\n      0x23\n        /* \"#utility.yul\":8831:8834   */\n      dup4\n        /* \"#utility.yul\":8772:8839   */\n      tag_212\n      jump\t// in\n    tag_355:\n        /* \"#utility.yul\":8765:8839   */\n      swap2\n      pop\n        /* \"#utility.yul\":8848:8941   */\n      tag_356\n        /* \"#utility.yul\":8937:8940   */\n      dup3\n        /* \"#utility.yul\":8848:8941   */\n      tag_227\n      jump\t// in\n    tag_356:\n        /* \"#utility.yul\":8966:8968   */\n      0x40\n        /* \"#utility.yul\":8961:8964   */\n      dup3\n        /* \"#utility.yul\":8957:8969   */\n      add\n        /* \"#utility.yul\":8950:8969   */\n      swap1\n      pop\n        /* \"#utility.yul\":8609:8975   */\n      swap2\n      swap1\n      pop\n      jump\t// out\n        /* \"#utility.yul\":8981:9400   */\n    tag_96:\n        /* \"#utility.yul\":9147:9151   */\n      0x00\n        /* \"#utility.yul\":9185:9187   */\n      0x20\n        /* \"#utility.yul\":9174:9183   */\n      dup3\n        /* \"#utility.yul\":9170:9188   */\n      add\n        /* \"#utility.yul\":9162:9188   */\n      swap1\n      pop\n        /* \"#utility.yul\":9234:9243   */\n      dup2\n        /* \"#utility.yul\":9228:9232   */\n      dup2\n        /* \"#utility.yul\":9224:9244   */\n      sub\n        /* \"#utility.yul\":9220:9221   */\n      0x00\n        /* \"#utility.yul\":9209:9218   */\n      dup4\n        /* \"#utility.yul\":9205:9222   */\n      add\n        /* \"#utility.yul\":9198:9245   */\n      mstore\n        /* \"#utility.yul\":9262:9393   */\n      tag_358\n        /* \"#utility.yul\":9388:9392   */\n      dup2\n        /* \"#utility.yul\":9262:9393   */\n      tag_228\n      jump\t// in\n    tag_358:\n        /* \"#utility.yul\":9254:9393   */\n      swap1\n      pop\n        /* \"#utility.yul\":8981:9400   */\n      swap2\n      swap1\n      pop\n      jump\t// out\n        /* \"#utility.yul\":9406:9588   */\n    tag_229:\n        /* \"#utility.yul\":9546:9580   */\n      0x54686520636f6e7472616374206e6565647320746f206265206163746976652e\n        /* \"#utility.yul\":9542:9543   */\n      0x00\n        /* \"#utility.yul\":9534:9540   */\n      dup3\n        /* \"#utility.yul\":9530:9544   */\n      add\n        /* \"#utility.yul\":9523:9581   */\n      mstore\n        /* \"#utility.yul\":9406:9588   */\n      pop\n      jump\t// out\n        /* \"#utility.yul\":9594:9960   */\n    tag_230:\n        /* \"#utility.yul\":9736:9739   */\n      0x00\n        /* \"#utility.yul\":9757:9824   */\n      tag_361\n        /* \"#utility.yul\":9821:9823   */\n      0x20\n        /* \"#utility.yul\":9816:9819   */\n      dup4\n        /* \"#utility.yul\":9757:9824   */\n      tag_212\n      jump\t// in\n    tag_361:\n        /* \"#utility.yul\":9750:9824   */\n      swap2\n      pop\n        /* \"#utility.yul\":9833:9926   */\n      tag_362\n        /* \"#utility.yul\":9922:9925   */\n      dup3\n        /* \"#utility.yul\":9833:9926   */\n      tag_229\n      jump\t// in\n    tag_362:\n        /* \"#utility.yul\":9951:9953   */\n      0x20\n        /* \"#utility.yul\":9946:9949   */\n      dup3\n        /* \"#utility.yul\":9942:9954   */\n      add\n        /* \"#utility.yul\":9935:9954   */\n      swap1\n      pop\n        /* \"#utility.yul\":9594:9960   */\n      swap2\n      swap1\n      pop\n      jump\t// out\n        /* \"#utility.yul\":9966:10385   */\n    tag_100:\n        /* \"#utility.yul\":10132:10136   */\n      0x00\n        /* \"#utility.yul\":10170:10172   */\n      0x20\n        /* \"#utility.yul\":10159:10168   */\n      dup3\n        /* \"#utility.yul\":10155:10173   */\n      add\n        /* \"#utility.yul\":10147:10173   */\n      swap1\n      pop\n        /* \"#utility.yul\":10219:10228   */\n      dup2\n        /* \"#utility.yul\":10213:10217   */\n      dup2\n        /* \"#utility.yul\":10209:10229   */\n      sub\n        /* \"#utility.yul\":10205:10206   */\n      0x00\n        /* \"#utility.yul\":10194:10203   */\n      dup4\n        /* \"#utility.yul\":10190:10207   */\n      add\n        /* \"#utility.yul\":10183:10230   */\n      mstore\n        /* \"#utility.yul\":10247:10378   */\n      tag_364\n        /* \"#utility.yul\":10373:10377   */\n      dup2\n        /* \"#utility.yul\":10247:10378   */\n      tag_230\n      jump\t// in\n    tag_364:\n        /* \"#utility.yul\":10239:10378   */\n      swap1\n      pop\n        /* \"#utility.yul\":9966:10385   */\n      swap2\n      swap1\n      pop\n      jump\t// out\n        /* \"#utility.yul\":10391:10571   */\n    tag_231:\n        /* \"#utility.yul\":10439:10516   */\n      0x4e487b7100000000000000000000000000000000000000000000000000000000\n        /* \"#utility.yul\":10436:10437   */\n      0x00\n        /* \"#utility.yul\":10429:10517   */\n      mstore\n        /* \"#utility.yul\":10536:10540   */\n      0x22\n        /* \"#utility.yul\":10533:10534   */\n      0x04\n        /* \"#utility.yul\":10526:10541   */\n      mstore\n        /* \"#utility.yul\":10560:10564   */\n      0x24\n        /* \"#utility.yul\":10557:10558   */\n      0x00\n        /* \"#utility.yul\":10550:10565   */\n      revert\n        /* \"#utility.yul\":10577:10897   */\n    tag_103:\n        /* \"#utility.yul\":10621:10627   */\n      0x00\n        /* \"#utility.yul\":10658:10659   */\n      0x02\n        /* \"#utility.yul\":10652:10656   */\n      dup3\n        /* \"#utility.yul\":10648:10660   */\n      div\n        /* \"#utility.yul\":10638:10660   */\n      swap1\n      pop\n        /* \"#utility.yul\":10705:10706   */\n      0x01\n        /* \"#utility.yul\":10699:10703   */\n      dup3\n        /* \"#utility.yul\":10695:10707   */\n      and\n        /* \"#utility.yul\":10726:10744   */\n      dup1\n        /* \"#utility.yul\":10716:10797   */\n      tag_367\n      jumpi\n        /* \"#utility.yul\":10782:10786   */\n      0x7f\n        /* \"#utility.yul\":10774:10780   */\n      dup3\n        /* \"#utility.yul\":10770:10787   */\n      and\n        /* \"#utility.yul\":10760:10787   */\n      swap2\n      pop\n        /* \"#utility.yul\":10716:10797   */\n    tag_367:\n        /* \"#utility.yul\":10844:10846   */\n      0x20\n        /* \"#utility.yul\":10836:10842   */\n      dup3\n        /* \"#utility.yul\":10833:10847   */\n      lt\n        /* \"#utility.yul\":10813:10831   */\n      dup2\n        /* \"#utility.yul\":10810:10848   */\n      sub\n        /* \"#utility.yul\":10807:10891   */\n      tag_368\n      jumpi\n        /* \"#utility.yul\":10863:10881   */\n      tag_369\n      tag_231\n      jump\t// in\n    tag_369:\n        /* \"#utility.yul\":10807:10891   */\n    tag_368:\n        /* \"#utility.yul\":10628:10897   */\n      pop\n        /* \"#utility.yul\":10577:10897   */\n      swap2\n      swap1\n      pop\n      jump\t// out\n        /* \"#utility.yul\":10903:11083   */\n    tag_232:\n        /* \"#utility.yul\":10951:11028   */\n      0x4e487b7100000000000000000000000000000000000000000000000000000000\n        /* \"#utility.yul\":10948:10949   */\n      0x00\n        /* \"#utility.yul\":10941:11029   */\n      mstore\n        /* \"#utility.yul\":11048:11052   */\n      0x11\n        /* \"#utility.yul\":11045:11046   */\n      0x04\n        /* \"#utility.yul\":11038:11053   */\n      mstore\n        /* \"#utility.yul\":11072:11076   */\n      0x24\n        /* \"#utility.yul\":11069:11070   */\n      0x00\n        /* \"#utility.yul\":11062:11077   */\n      revert\n        /* \"#utility.yul\":11089:11322   */\n    tag_113:\n        /* \"#utility.yul\":11128:11131   */\n      0x00\n        /* \"#utility.yul\":11151:11175   */\n      tag_372\n        /* \"#utility.yul\":11169:11174   */\n      dup3\n        /* \"#utility.yul\":11151:11175   */\n      tag_202\n      jump\t// in\n    tag_372:\n        /* \"#utility.yul\":11142:11175   */\n      swap2\n      pop\n        /* \"#utility.yul\":11197:11263   */\n      0xffffffffffffffffffffffffffffffffffffffffffffffffffffffffffffffff\n        /* \"#utility.yul\":11190:11195   */\n      dup3\n        /* \"#utility.yul\":11187:11264   */\n      sub\n        /* \"#utility.yul\":11184:11287   */\n      tag_373\n      jumpi\n        /* \"#utility.yul\":11267:11285   */\n      tag_374\n      tag_232\n      jump\t// in\n    tag_374:\n        /* \"#utility.yul\":11184:11287   */\n    tag_373:\n        /* \"#utility.yul\":11314:11315   */\n      0x01\n        /* \"#utility.yul\":11307:11312   */\n      dup3\n        /* \"#utility.yul\":11303:11316   */\n      add\n        /* \"#utility.yul\":11296:11316   */\n      swap1\n      pop\n        /* \"#utility.yul\":11089:11322   */\n      swap2\n      swap1\n      pop\n      jump\t// out\n        /* \"#utility.yul\":11328:11508   */\n    tag_233:\n        /* \"#utility.yul\":11376:11453   */\n      0x4e487b7100000000000000000000000000000000000000000000000000000000\n        /* \"#utility.yul\":11373:11374   */\n      0x00\n        /* \"#utility.yul\":11366:11454   */\n      mstore\n        /* \"#utility.yul\":11473:11477   */\n      0x12\n        /* \"#utility.yul\":11470:11471   */\n      0x04\n        /* \"#utility.yul\":11463:11478   */\n      mstore\n        /* \"#utility.yul\":11497:11501   */\n      0x24\n        /* \"#utility.yul\":11494:11495   */\n      0x00\n        /* \"#utility.yul\":11487:11502   */\n      revert\n        /* \"#utility.yul\":11514:11699   */\n    tag_118:\n        /* \"#utility.yul\":11554:11555   */\n      0x00\n        /* \"#utility.yul\":11571:11591   */\n      tag_377\n        /* \"#utility.yul\":11589:11590   */\n      dup3\n        /* \"#utility.yul\":11571:11591   */\n      tag_202\n      jump\t// in\n    tag_377:\n        /* \"#utility.yul\":11566:11591   */\n      swap2\n      pop\n        /* \"#utility.yul\":11605:11625   */\n      tag_378\n        /* \"#utility.yul\":11623:11624   */\n      dup4\n        /* \"#utility.yul\":11605:11625   */\n      tag_202\n      jump\t// in\n    tag_378:\n        /* \"#utility.yul\":11600:11625   */\n      swap3\n      pop\n        /* \"#utility.yul\":11644:11645   */\n      dup3\n        /* \"#utility.yul\":11634:11669   */\n      tag_379\n      jumpi\n        /* \"#utility.yul\":11649:11667   */\n      tag_380\n      tag_233\n      jump\t// in\n    tag_380:\n        /* \"#utility.yul\":11634:11669   */\n    tag_379:\n        /* \"#utility.yul\":11691:11692   */\n      dup3\n        /* \"#utility.yul\":11688:11689   */\n      dup3\n        /* \"#utility.yul\":11684:11693   */\n      div\n        /* \"#utility.yul\":11679:11693   */\n      swap1\n      pop\n        /* \"#utility.yul\":11514:11699   */\n      swap3\n      swap2\n      pop\n      pop\n      jump\t// out\n        /* \"#utility.yul\":11705:11896   */\n    tag_120:\n        /* \"#utility.yul\":11745:11748   */\n      0x00\n        /* \"#utility.yul\":11764:11784   */\n      tag_382\n        /* \"#utility.yul\":11782:11783   */\n      dup3\n        /* \"#utility.yul\":11764:11784   */\n      tag_202\n      jump\t// in\n    tag_382:\n        /* \"#utility.yul\":11759:11784   */\n      swap2\n      pop\n        /* \"#utility.yul\":11798:11818   */\n      tag_383\n        /* \"#utility.yul\":11816:11817   */\n      dup4\n        /* \"#utility.yul\":11798:11818   */\n      tag_202\n      jump\t// in\n    tag_383:\n        /* \"#utility.yul\":11793:11818   */\n      swap3\n      pop\n        /* \"#utility.yul\":11841:11842   */\n      dup3\n        /* \"#utility.yul\":11838:11839   */\n      dup3\n        /* \"#utility.yul\":11834:11843   */\n      add\n        /* \"#utility.yul\":11827:11843   */\n      swap1\n      pop\n        /* \"#utility.yul\":11862:11865   */\n      dup1\n        /* \"#utility.yul\":11859:11860   */\n      dup3\n        /* \"#utility.yul\":11856:11866   */\n      gt\n        /* \"#utility.yul\":11853:11889   */\n      iszero\n      tag_384\n      jumpi\n        /* \"#utility.yul\":11869:11887   */\n      tag_385\n      tag_232\n      jump\t// in\n    tag_385:\n        /* \"#utility.yul\":11853:11889   */\n    tag_384:\n        /* \"#utility.yul\":11705:11896   */\n      swap3\n      swap2\n      pop\n      pop\n      jump\t// out\n        /* \"#utility.yul\":11902:12124   */\n    tag_234:\n        /* \"#utility.yul\":12042:12076   */\n      0x43616e206f6e6c7920626520657865637574656420627920746865206d616e61\n        /* \"#utility.yul\":12038:12039   */\n      0x00\n        /* \"#utility.yul\":12030:12036   */\n      dup3\n        /* \"#utility.yul\":12026:12040   */\n      add\n        /* \"#utility.yul\":12019:12077   */\n      mstore\n        /* \"#utility.yul\":12111:12116   */\n      0x6765720000000000000000000000000000000000000000000000000000000000\n        /* \"#utility.yul\":12106:12108   */\n      0x20\n        /* \"#utility.yul\":12098:12104   */\n      dup3\n        /* \"#utility.yul\":12094:12109   */\n      add\n        /* \"#utility.yul\":12087:12117   */\n      mstore\n        /* \"#utility.yul\":11902:12124   */\n      pop\n      jump\t// out\n        /* \"#utility.yul\":12130:12496   */\n    tag_235:\n        /* \"#utility.yul\":12272:12275   */\n      0x00\n        /* \"#utility.yul\":12293:12360   */\n      tag_388\n        /* \"#utility.yul\":12357:12359   */\n      0x23\n        /* \"#utility.yul\":12352:12355   */\n      dup4\n        /* \"#utility.yul\":12293:12360   */\n      tag_212\n      jump\t// in\n    tag_388:\n        /* \"#utility.yul\":12286:12360   */\n      swap2\n      pop\n        /* \"#utility.yul\":12369:12462   */\n      tag_389\n        /* \"#utility.yul\":12458:12461   */\n      dup3\n        /* \"#utility.yul\":12369:12462   */\n      tag_234\n      jump\t// in\n    tag_389:\n        /* \"#utility.yul\":12487:12489   */\n      0x40\n        /* \"#utility.yul\":12482:12485   */\n      dup3\n        /* \"#utility.yul\":12478:12490   */\n      add\n        /* \"#utility.yul\":12471:12490   */\n      swap1\n      pop\n        /* \"#utility.yul\":12130:12496   */\n      swap2\n      swap1\n      pop\n      jump\t// out\n        /* \"#utility.yul\":12502:12921   */\n    tag_131:\n        /* \"#utility.yul\":12668:12672   */\n      0x00\n        /* \"#utility.yul\":12706:12708   */\n      0x20\n        /* \"#utility.yul\":12695:12704   */\n      dup3\n        /* \"#utility.yul\":12691:12709   */\n      add\n        /* \"#utility.yul\":12683:12709   */\n      swap1\n      pop\n        /* \"#utility.yul\":12755:12764   */\n      dup2\n        /* \"#utility.yul\":12749:12753   */\n      dup2\n        /* \"#utility.yul\":12745:12765   */\n      sub\n        /* \"#utility.yul\":12741:12742   */\n      0x00\n        /* \"#utility.yul\":12730:12739   */\n      dup4\n        /* \"#utility.yul\":12726:12743   */\n      add\n        /* \"#utility.yul\":12719:12766   */\n      mstore\n        /* \"#utility.yul\":12783:12914   */\n      tag_391\n        /* \"#utility.yul\":12909:12913   */\n      dup2\n        /* \"#utility.yul\":12783:12914   */\n      tag_235\n      jump\t// in\n    tag_391:\n        /* \"#utility.yul\":12775:12914   */\n      swap1\n      pop\n        /* \"#utility.yul\":12502:12921   */\n      swap2\n      swap1\n      pop\n      jump\t// out\n        /* \"#utility.yul\":12927:13068   */\n    tag_236:\n        /* \"#utility.yul\":12976:12980   */\n      0x00\n        /* \"#utility.yul\":12999:13002   */\n      dup2\n        /* \"#utility.yul\":12991:13002   */\n      swap1\n      pop\n        /* \"#utility.yul\":13022:13025   */\n      dup2\n        /* \"#utility.yul\":13019:13020   */\n      0x00\n        /* \"#utility.yul\":13012:13026   */\n      mstore\n        /* \"#utility.yul\":13056:13060   */\n      0x20\n        /* \"#utility.yul\":13053:13054   */\n      0x00\n        /* \"#utility.yul\":13043:13061   */\n      keccak256\n        /* \"#utility.yul\":13035:13061   */\n      swap1\n      pop\n        /* \"#utility.yul\":12927:13068   */\n      swap2\n      swap1\n      pop\n      jump\t// out\n        /* \"#utility.yul\":13074:13167   */\n    tag_237:\n        /* \"#utility.yul\":13111:13117   */\n      0x00\n        /* \"#utility.yul\":13158:13160   */\n      0x20\n        /* \"#utility.yul\":13153:13155   */\n      0x1f\n        /* \"#utility.yul\":13146:13151   */\n      dup4\n        /* \"#utility.yul\":13142:13156   */\n      add\n        /* \"#utility.yul\":13138:13161   */\n      div\n        /* \"#utility.yul\":13128:13161   */\n      swap1\n      pop\n        /* \"#utility.yul\":13074:13167   */\n      swap2\n      swap1\n      pop\n      jump\t// out\n        /* \"#utility.yul\":13173:13280   */\n    tag_238:\n        /* \"#utility.yul\":13217:13225   */\n      0x00\n        /* \"#utility.yul\":13267:13272   */\n      dup3\n        /* \"#utility.yul\":13261:13265   */\n      dup3\n        /* \"#utility.yul\":13257:13273   */\n      shl\n        /* \"#utility.yul\":13236:13273   */\n      swap1\n      pop\n        /* \"#utility.yul\":13173:13280   */\n      swap3\n      swap2\n      pop\n      pop\n      jump\t// out\n        /* \"#utility.yul\":13286:13679   */\n    tag_239:\n        /* \"#utility.yul\":13355:13361   */\n      0x00\n        /* \"#utility.yul\":13405:13406   */\n      0x08\n        /* \"#utility.yul\":13393:13403   */\n      dup4\n        /* \"#utility.yul\":13389:13407   */\n      mul\n        /* \"#utility.yul\":13428:13525   */\n      tag_396\n        /* \"#utility.yul\":13458:13524   */\n      0xffffffffffffffffffffffffffffffffffffffffffffffffffffffffffffffff\n        /* \"#utility.yul\":13447:13456   */\n      dup3\n        /* \"#utility.yul\":13428:13525   */\n      tag_238\n      jump\t// in\n    tag_396:\n        /* \"#utility.yul\":13546:13585   */\n      tag_397\n        /* \"#utility.yul\":13576:13584   */\n      dup7\n        /* \"#utility.yul\":13565:13574   */\n      dup4\n        /* \"#utility.yul\":13546:13585   */\n      tag_238\n      jump\t// in\n    tag_397:\n        /* \"#utility.yul\":13534:13585   */\n      swap6\n      pop\n        /* \"#utility.yul\":13618:13622   */\n      dup1\n        /* \"#utility.yul\":13614:13623   */\n      not\n        /* \"#utility.yul\":13607:13612   */\n      dup5\n        /* \"#utility.yul\":13603:13624   */\n      and\n        /* \"#utility.yul\":13594:13624   */\n      swap4\n      pop\n        /* \"#utility.yul\":13667:13671   */\n      dup1\n        /* \"#utility.yul\":13657:13665   */\n      dup7\n        /* \"#utility.yul\":13653:13672   */\n      and\n        /* \"#utility.yul\":13646:13651   */\n      dup5\n        /* \"#utility.yul\":13643:13673   */\n      or\n        /* \"#utility.yul\":13633:13673   */\n      swap3\n      pop\n        /* \"#utility.yul\":13362:13679   */\n      pop\n      pop\n        /* \"#utility.yul\":13286:13679   */\n      swap4\n      swap3\n      pop\n      pop\n      pop\n      jump\t// out\n        /* \"#utility.yul\":13685:13745   */\n    tag_240:\n        /* \"#utility.yul\":13713:13716   */\n      0x00\n        /* \"#utility.yul\":13734:13739   */\n      dup2\n        /* \"#utility.yul\":13727:13739   */\n      swap1\n      pop\n        /* \"#utility.yul\":13685:13745   */\n      swap2\n      swap1\n      pop\n      jump\t// out\n        /* \"#utility.yul\":13751:13893   */\n    tag_241:\n        /* \"#utility.yul\":13801:13810   */\n      0x00\n        /* \"#utility.yul\":13834:13887   */\n      tag_400\n        /* \"#utility.yul\":13852:13886   */\n      tag_401\n        /* \"#utility.yul\":13861:13885   */\n      tag_402\n        /* \"#utility.yul\":13879:13884   */\n      dup5\n        /* \"#utility.yul\":13861:13885   */\n      tag_202\n      jump\t// in\n    tag_402:\n        /* \"#utility.yul\":13852:13886   */\n      tag_240\n      jump\t// in\n    tag_401:\n        /* \"#utility.yul\":13834:13887   */\n      tag_202\n      jump\t// in\n    tag_400:\n        /* \"#utility.yul\":13821:13887   */\n      swap1\n      pop\n        /* \"#utility.yul\":13751:13893   */\n      swap2\n      swap1\n      pop\n      jump\t// out\n        /* \"#utility.yul\":13899:13974   */\n    tag_242:\n        /* \"#utility.yul\":13942:13945   */\n      0x00\n        /* \"#utility.yul\":13963:13968   */\n      dup2\n        /* \"#utility.yul\":13956:13968   */\n      swap1\n      pop\n        /* \"#utility.yul\":13899:13974   */\n      swap2\n      swap1\n      pop\n      jump\t// out\n        /* \"#utility.yul\":13980:14249   */\n    tag_243:\n        /* \"#utility.yul\":14090:14129   */\n      tag_405\n        /* \"#utility.yul\":14121:14128   */\n      dup4\n        /* \"#utility.yul\":14090:14129   */\n      tag_241\n      jump\t// in\n    tag_405:\n        /* \"#utility.yul\":14151:14242   */\n      tag_406\n        /* \"#utility.yul\":14200:14241   */\n      tag_407\n        /* \"#utility.yul\":14224:14240   */\n      dup3\n        /* \"#utility.yul\":14200:14241   */\n      tag_242\n      jump\t// in\n    tag_407:\n        /* \"#utility.yul\":14192:14198   */\n      dup5\n        /* \"#utility.yul\":14185:14189   */\n      dup5\n        /* \"#utility.yul\":14179:14190   */\n      sload\n        /* \"#utility.yul\":14151:14242   */\n      tag_239\n      jump\t// in\n    tag_406:\n        /* \"#utility.yul\":14145:14149   */\n      dup3\n        /* \"#utility.yul\":14138:14243   */\n      sstore\n        /* \"#utility.yul\":14056:14249   */\n      pop\n        /* \"#utility.yul\":13980:14249   */\n      pop\n      pop\n      pop\n      jump\t// out\n        /* \"#utility.yul\":14255:14328   */\n    tag_244:\n        /* \"#utility.yul\":14300:14303   */\n      0x00\n        /* \"#utility.yul\":14255:14328   */\n      swap1\n      jump\t// out\n        /* \"#utility.yul\":14334:14523   */\n    tag_245:\n        /* \"#utility.yul\":14411:14443   */\n      tag_410\n      tag_244\n      jump\t// in\n    tag_410:\n        /* \"#utility.yul\":14452:14517   */\n      tag_411\n        /* \"#utility.yul\":14510:14516   */\n      dup2\n        /* \"#utility.yul\":14502:14508   */\n      dup5\n        /* \"#utility.yul\":14496:14500   */\n      dup5\n        /* \"#utility.yul\":14452:14517   */\n      tag_243\n      jump\t// in\n    tag_411:\n        /* \"#utility.yul\":14387:14523   */\n      pop\n        /* \"#utility.yul\":14334:14523   */\n      pop\n      pop\n      jump\t// out\n        /* \"#utility.yul\":14529:14715   */\n    tag_246:\n        /* \"#utility.yul\":14589:14709   */\n    tag_413:\n        /* \"#utility.yul\":14606:14609   */\n      dup2\n        /* \"#utility.yul\":14599:14604   */\n      dup2\n        /* \"#utility.yul\":14596:14610   */\n      lt\n        /* \"#utility.yul\":14589:14709   */\n      iszero\n      tag_415\n      jumpi\n        /* \"#utility.yul\":14660:14699   */\n      tag_416\n        /* \"#utility.yul\":14697:14698   */\n      0x00\n        /* \"#utility.yul\":14690:14695   */\n      dup3\n        /* \"#utility.yul\":14660:14699   */\n      tag_245\n      jump\t// in\n    tag_416:\n        /* \"#utility.yul\":14633:14634   */\n      0x01\n        /* \"#utility.yul\":14626:14631   */\n      dup2\n        /* \"#utility.yul\":14622:14635   */\n      add\n        /* \"#utility.yul\":14613:14635   */\n      swap1\n      pop\n        /* \"#utility.yul\":14589:14709   */\n      jump(tag_413)\n    tag_415:\n        /* \"#utility.yul\":14529:14715   */\n      pop\n      pop\n      jump\t// out\n        /* \"#utility.yul\":14721:15264   */\n    tag_247:\n        /* \"#utility.yul\":14822:14824   */\n      0x1f\n        /* \"#utility.yul\":14817:14820   */\n      dup3\n        /* \"#utility.yul\":14814:14825   */\n      gt\n        /* \"#utility.yul\":14811:15257   */\n      iszero\n      tag_418\n      jumpi\n        /* \"#utility.yul\":14856:14894   */\n      tag_419\n        /* \"#utility.yul\":14888:14893   */\n      dup2\n        /* \"#utility.yul\":14856:14894   */\n      tag_236\n      jump\t// in\n    tag_419:\n        /* \"#utility.yul\":14940:14969   */\n      tag_420\n        /* \"#utility.yul\":14958:14968   */\n      dup5\n        /* \"#utility.yul\":14940:14969   */\n      tag_237\n      jump\t// in\n    tag_420:\n        /* \"#utility.yul\":14930:14938   */\n      dup2\n        /* \"#utility.yul\":14926:14970   */\n      add\n        /* \"#utility.yul\":15123:15125   */\n      0x20\n        /* \"#utility.yul\":15111:15121   */\n      dup6\n        /* \"#utility.yul\":15108:15126   */\n      lt\n        /* \"#utility.yul\":15105:15154   */\n      iszero\n      tag_421\n      jumpi\n        /* \"#utility.yul\":15144:15152   */\n      dup2\n        /* \"#utility.yul\":15129:15152   */\n      swap1\n      pop\n        /* \"#utility.yul\":15105:15154   */\n    tag_421:\n        /* \"#utility.yul\":15167:15247   */\n      tag_422\n        /* \"#utility.yul\":15223:15245   */\n      tag_423\n        /* \"#utility.yul\":15241:15244   */\n      dup6\n        /* \"#utility.yul\":15223:15245   */\n      tag_237\n      jump\t// in\n    tag_423:\n        /* \"#utility.yul\":15213:15221   */\n      dup4\n        /* \"#utility.yul\":15209:15246   */\n      add\n        /* \"#utility.yul\":15196:15207   */\n      dup3\n        /* \"#utility.yul\":15167:15247   */\n      tag_246\n      jump\t// in\n    tag_422:\n        /* \"#utility.yul\":14826:15257   */\n      pop\n      pop\n        /* \"#utility.yul\":14811:15257   */\n    tag_418:\n        /* \"#utility.yul\":14721:15264   */\n      pop\n      pop\n      pop\n      jump\t// out\n        /* \"#utility.yul\":15270:15387   */\n    tag_248:\n        /* \"#utility.yul\":15324:15332   */\n      0x00\n        /* \"#utility.yul\":15374:15379   */\n      dup3\n        /* \"#utility.yul\":15368:15372   */\n      dup3\n        /* \"#utility.yul\":15364:15380   */\n      shr\n        /* \"#utility.yul\":15343:15380   */\n      swap1\n      pop\n        /* \"#utility.yul\":15270:15387   */\n      swap3\n      swap2\n      pop\n      pop\n      jump\t// out\n        /* \"#utility.yul\":15393:15562   */\n    tag_249:\n        /* \"#utility.yul\":15437:15443   */\n      0x00\n        /* \"#utility.yul\":15470:15521   */\n      tag_426\n        /* \"#utility.yul\":15518:15519   */\n      0x00\n        /* \"#utility.yul\":15514:15520   */\n      not\n        /* \"#utility.yul\":15506:15511   */\n      dup5\n        /* \"#utility.yul\":15503:15504   */\n      0x08\n        /* \"#utility.yul\":15499:15512   */\n      mul\n        /* \"#utility.yul\":15470:15521   */\n      tag_248\n      jump\t// in\n    tag_426:\n        /* \"#utility.yul\":15466:15522   */\n      not\n        /* \"#utility.yul\":15551:15555   */\n      dup1\n        /* \"#utility.yul\":15545:15549   */\n      dup4\n        /* \"#utility.yul\":15541:15556   */\n      and\n        /* \"#utility.yul\":15531:15556   */\n      swap2\n      pop\n        /* \"#utility.yul\":15444:15562   */\n      pop\n        /* \"#utility.yul\":15393:15562   */\n      swap3\n      swap2\n      pop\n      pop\n      jump\t// out\n        /* \"#utility.yul\":15567:15862   */\n    tag_250:\n        /* \"#utility.yul\":15643:15647   */\n      0x00\n        /* \"#utility.yul\":15789:15818   */\n      tag_428\n        /* \"#utility.yul\":15814:15817   */\n      dup4\n        /* \"#utility.yul\":15808:15812   */\n      dup4\n        /* \"#utility.yul\":15789:15818   */\n      tag_249\n      jump\t// in\n    tag_428:\n        /* \"#utility.yul\":15781:15818   */\n      swap2\n      pop\n        /* \"#utility.yul\":15851:15854   */\n      dup3\n        /* \"#utility.yul\":15848:15849   */\n      0x02\n        /* \"#utility.yul\":15844:15855   */\n      mul\n        /* \"#utility.yul\":15838:15842   */\n      dup3\n        /* \"#utility.yul\":15835:15856   */\n      or\n        /* \"#utility.yul\":15827:15856   */\n      swap1\n      pop\n        /* \"#utility.yul\":15567:15862   */\n      swap3\n      swap2\n      pop\n      pop\n      jump\t// out\n        /* \"#utility.yul\":15867:17262   */\n    tag_142:\n        /* \"#utility.yul\":15984:16021   */\n      tag_430\n        /* \"#utility.yul\":16017:16020   */\n      dup3\n        /* \"#utility.yul\":15984:16021   */\n      tag_211\n      jump\t// in\n    tag_430:\n        /* \"#utility.yul\":16086:16104   */\n      0xffffffffffffffff\n        /* \"#utility.yul\":16078:16084   */\n      dup2\n        /* \"#utility.yul\":16075:16105   */\n      gt\n        /* \"#utility.yul\":16072:16128   */\n      iszero\n      tag_431\n      jumpi\n        /* \"#utility.yul\":16108:16126   */\n      tag_432\n      tag_218\n      jump\t// in\n    tag_432:\n        /* \"#utility.yul\":16072:16128   */\n    tag_431:\n        /* \"#utility.yul\":16152:16190   */\n      tag_433\n        /* \"#utility.yul\":16184:16188   */\n      dup3\n        /* \"#utility.yul\":16178:16189   */\n      sload\n        /* \"#utility.yul\":16152:16190   */\n      tag_103\n      jump\t// in\n    tag_433:\n        /* \"#utility.yul\":16237:16304   */\n      tag_434\n        /* \"#utility.yul\":16297:16303   */\n      dup3\n        /* \"#utility.yul\":16289:16295   */\n      dup3\n        /* \"#utility.yul\":16283:16287   */\n      dup6\n        /* \"#utility.yul\":16237:16304   */\n      tag_247\n      jump\t// in\n    tag_434:\n        /* \"#utility.yul\":16331:16332   */\n      0x00\n        /* \"#utility.yul\":16355:16359   */\n      0x20\n        /* \"#utility.yul\":16342:16359   */\n      swap1\n      pop\n        /* \"#utility.yul\":16387:16389   */\n      0x1f\n        /* \"#utility.yul\":16379:16385   */\n      dup4\n        /* \"#utility.yul\":16376:16390   */\n      gt\n        /* \"#utility.yul\":16404:16405   */\n      0x01\n        /* \"#utility.yul\":16399:17017   */\n      dup2\n      eq\n      tag_436\n      jumpi\n        /* \"#utility.yul\":17061:17062   */\n      0x00\n        /* \"#utility.yul\":17078:17084   */\n      dup5\n        /* \"#utility.yul\":17075:17152   */\n      iszero\n      tag_437\n      jumpi\n        /* \"#utility.yul\":17127:17136   */\n      dup3\n        /* \"#utility.yul\":17122:17125   */\n      dup8\n        /* \"#utility.yul\":17118:17137   */\n      add\n        /* \"#utility.yul\":17112:17138   */\n      mload\n        /* \"#utility.yul\":17103:17138   */\n      swap1\n      pop\n        /* \"#utility.yul\":17075:17152   */\n    tag_437:\n        /* \"#utility.yul\":17178:17245   */\n      tag_438\n        /* \"#utility.yul\":17238:17244   */\n      dup6\n        /* \"#utility.yul\":17231:17236   */\n      dup3\n        /* \"#utility.yul\":17178:17245   */\n      tag_250\n      jump\t// in\n    tag_438:\n        /* \"#utility.yul\":17172:17176   */\n      dup7\n        /* \"#utility.yul\":17165:17246   */\n      sstore\n        /* \"#utility.yul\":17034:17256   */\n      pop\n        /* \"#utility.yul\":16369:17256   */\n      jump(tag_435)\n        /* \"#utility.yul\":16399:17017   */\n    tag_436:\n        /* \"#utility.yul\":16451:16455   */\n      0x1f\n        /* \"#utility.yul\":16447:16456   */\n      not\n        /* \"#utility.yul\":16439:16445   */\n      dup5\n        /* \"#utility.yul\":16435:16457   */\n      and\n        /* \"#utility.yul\":16485:16522   */\n      tag_439\n        /* \"#utility.yul\":16517:16521   */\n      dup7\n        /* \"#utility.yul\":16485:16522   */\n      tag_236\n      jump\t// in\n    tag_439:\n        /* \"#utility.yul\":16544:16545   */\n      0x00\n        /* \"#utility.yul\":16558:16766   */\n    tag_440:\n        /* \"#utility.yul\":16572:16579   */\n      dup3\n        /* \"#utility.yul\":16569:16570   */\n      dup2\n        /* \"#utility.yul\":16566:16580   */\n      lt\n        /* \"#utility.yul\":16558:16766   */\n      iszero\n      tag_442\n      jumpi\n        /* \"#utility.yul\":16651:16660   */\n      dup5\n        /* \"#utility.yul\":16646:16649   */\n      dup10\n        /* \"#utility.yul\":16642:16661   */\n      add\n        /* \"#utility.yul\":16636:16662   */\n      mload\n        /* \"#utility.yul\":16628:16634   */\n      dup3\n        /* \"#utility.yul\":16621:16663   */\n      sstore\n        /* \"#utility.yul\":16702:16703   */\n      0x01\n        /* \"#utility.yul\":16694:16700   */\n      dup3\n        /* \"#utility.yul\":16690:16704   */\n      add\n        /* \"#utility.yul\":16680:16704   */\n      swap2\n      pop\n        /* \"#utility.yul\":16749:16751   */\n      0x20\n        /* \"#utility.yul\":16738:16747   */\n      dup6\n        /* \"#utility.yul\":16734:16752   */\n      add\n        /* \"#utility.yul\":16721:16752   */\n      swap5\n      pop\n        /* \"#utility.yul\":16595:16599   */\n      0x20\n        /* \"#utility.yul\":16592:16593   */\n      dup2\n        /* \"#utility.yul\":16588:16600   */\n      add\n        /* \"#utility.yul\":16583:16600   */\n      swap1\n      pop\n        /* \"#utility.yul\":16558:16766   */\n      jump(tag_440)\n    tag_442:\n        /* \"#utility.yul\":16794:16800   */\n      dup7\n        /* \"#utility.yul\":16785:16792   */\n      dup4\n        /* \"#utility.yul\":16782:16801   */\n      lt\n        /* \"#utility.yul\":16779:16958   */\n      iszero\n      tag_443\n      jumpi\n        /* \"#utility.yul\":16852:16861   */\n      dup5\n        /* \"#utility.yul\":16847:16850   */\n      dup10\n        /* \"#utility.yul\":16843:16862   */\n      add\n        /* \"#utility.yul\":16837:16863   */\n      mload\n        /* \"#utility.yul\":16895:16943   */\n      tag_444\n        /* \"#utility.yul\":16937:16941   */\n      0x1f\n        /* \"#utility.yul\":16929:16935   */\n      dup10\n        /* \"#utility.yul\":16925:16942   */\n      and\n        /* \"#utility.yul\":16914:16923   */\n      dup3\n        /* \"#utility.yul\":16895:16943   */\n      tag_249\n      jump\t// in\n    tag_444:\n        /* \"#utility.yul\":16887:16893   */\n      dup4\n        /* \"#utility.yul\":16880:16944   */\n      sstore\n        /* \"#utility.yul\":16802:16958   */\n      pop\n        /* \"#utility.yul\":16779:16958   */\n    tag_443:\n        /* \"#utility.yul\":17004:17005   */\n      0x01\n        /* \"#utility.yul\":17000:17001   */\n      0x02\n        /* \"#utility.yul\":16992:16998   */\n      dup9\n        /* \"#utility.yul\":16988:17002   */\n      mul\n        /* \"#utility.yul\":16984:17006   */\n      add\n        /* \"#utility.yul\":16978:16982   */\n      dup9\n        /* \"#utility.yul\":16971:17007   */\n      sstore\n        /* \"#utility.yul\":16406:17017   */\n      pop\n      pop\n      pop\n        /* \"#utility.yul\":16369:17256   */\n    tag_435:\n      pop\n        /* \"#utility.yul\":15959:17262   */\n      pop\n      pop\n      pop\n        /* \"#utility.yul\":15867:17262   */\n      pop\n      pop\n      jump\t// out\n        /* \"#utility.yul\":17268:17416   */\n    tag_251:\n        /* \"#utility.yul\":17370:17381   */\n      0x00\n        /* \"#utility.yul\":17407:17410   */\n      dup2\n        /* \"#utility.yul\":17392:17410   */\n      swap1\n      pop\n        /* \"#utility.yul\":17268:17416   */\n      swap3\n      swap2\n      pop\n      pop\n      jump\t// out\n        /* \"#utility.yul\":17422:17812   */\n    tag_252:\n        /* \"#utility.yul\":17528:17531   */\n      0x00\n        /* \"#utility.yul\":17556:17595   */\n      tag_447\n        /* \"#utility.yul\":17589:17594   */\n      dup3\n        /* \"#utility.yul\":17556:17595   */\n      tag_211\n      jump\t// in\n    tag_447:\n        /* \"#utility.yul\":17611:17700   */\n      tag_448\n        /* \"#utility.yul\":17693:17699   */\n      dup2\n        /* \"#utility.yul\":17688:17691   */\n      dup6\n        /* \"#utility.yul\":17611:17700   */\n      tag_251\n      jump\t// in\n    tag_448:\n        /* \"#utility.yul\":17604:17700   */\n      swap4\n      pop\n        /* \"#utility.yul\":17709:17774   */\n      tag_449\n        /* \"#utility.yul\":17767:17773   */\n      dup2\n        /* \"#utility.yul\":17762:17765   */\n      dup6\n        /* \"#utility.yul\":17755:17759   */\n      0x20\n        /* \"#utility.yul\":17748:17753   */\n      dup7\n        /* \"#utility.yul\":17744:17760   */\n      add\n        /* \"#utility.yul\":17709:17774   */\n      tag_213\n      jump\t// in\n    tag_449:\n        /* \"#utility.yul\":17799:17805   */\n      dup1\n        /* \"#utility.yul\":17794:17797   */\n      dup5\n        /* \"#utility.yul\":17790:17806   */\n      add\n        /* \"#utility.yul\":17783:17806   */\n      swap2\n      pop\n        /* \"#utility.yul\":17532:17812   */\n      pop\n        /* \"#utility.yul\":17422:17812   */\n      swap3\n      swap2\n      pop\n      pop\n      jump\t// out\n        /* \"#utility.yul\":17818:18093   */\n    tag_165:\n        /* \"#utility.yul\":17950:17953   */\n      0x00\n        /* \"#utility.yul\":17972:18067   */\n      tag_451\n        /* \"#utility.yul\":18063:18066   */\n      dup3\n        /* \"#utility.yul\":18054:18060   */\n      dup5\n        /* \"#utility.yul\":17972:18067   */\n      tag_252\n      jump\t// in\n    tag_451:\n        /* \"#utility.yul\":17965:18067   */\n      swap2\n      pop\n        /* \"#utility.yul\":18084:18087   */\n      dup2\n        /* \"#utility.yul\":18077:18087   */\n      swap1\n      pop\n        /* \"#utility.yul\":17818:18093   */\n      swap3\n      swap2\n      pop\n      pop\n      jump\t// out\n        /* \"#utility.yul\":18123:18997   */\n    tag_253:\n        /* \"#utility.yul\":18226:18229   */\n      0x00\n        /* \"#utility.yul\":18263:18268   */\n      dup2\n        /* \"#utility.yul\":18257:18269   */\n      sload\n        /* \"#utility.yul\":18292:18328   */\n      tag_453\n        /* \"#utility.yul\":18318:18327   */\n      dup2\n        /* \"#utility.yul\":18292:18328   */\n      tag_103\n      jump\t// in\n    tag_453:\n        /* \"#utility.yul\":18344:18433   */\n      tag_454\n        /* \"#utility.yul\":18426:18432   */\n      dup2\n        /* \"#utility.yul\":18421:18424   */\n      dup7\n        /* \"#utility.yul\":18344:18433   */\n      tag_251\n      jump\t// in\n    tag_454:\n        /* \"#utility.yul\":18337:18433   */\n      swap5\n      pop\n        /* \"#utility.yul\":18464:18465   */\n      0x01\n        /* \"#utility.yul\":18453:18462   */\n      dup3\n        /* \"#utility.yul\":18449:18466   */\n      and\n        /* \"#utility.yul\":18480:18481   */\n      0x00\n        /* \"#utility.yul\":18475:18641   */\n      dup2\n      eq\n      tag_456\n      jumpi\n        /* \"#utility.yul\":18655:18656   */\n      0x01\n        /* \"#utility.yul\":18650:18991   */\n      dup2\n      eq\n      tag_457\n      jumpi\n        /* \"#utility.yul\":18442:18991   */\n      jump(tag_455)\n        /* \"#utility.yul\":18475:18641   */\n    tag_456:\n        /* \"#utility.yul\":18559:18563   */\n      0xff\n        /* \"#utility.yul\":18555:18564   */\n      not\n        /* \"#utility.yul\":18544:18553   */\n      dup4\n        /* \"#utility.yul\":18540:18565   */\n      and\n        /* \"#utility.yul\":18535:18538   */\n      dup7\n        /* \"#utility.yul\":18528:18566   */\n      mstore\n        /* \"#utility.yul\":18621:18627   */\n      dup2\n        /* \"#utility.yul\":18614:18628   */\n      iszero\n        /* \"#utility.yul\":18607:18629   */\n      iszero\n        /* \"#utility.yul\":18599:18605   */\n      dup3\n        /* \"#utility.yul\":18595:18630   */\n      mul\n        /* \"#utility.yul\":18590:18593   */\n      dup7\n        /* \"#utility.yul\":18586:18631   */\n      add\n        /* \"#utility.yul\":18579:18631   */\n      swap4\n      pop\n        /* \"#utility.yul\":18475:18641   */\n      jump(tag_455)\n        /* \"#utility.yul\":18650:18991   */\n    tag_457:\n        /* \"#utility.yul\":18717:18755   */\n      tag_458\n        /* \"#utility.yul\":18749:18754   */\n      dup6\n        /* \"#utility.yul\":18717:18755   */\n      tag_236\n      jump\t// in\n    tag_458:\n        /* \"#utility.yul\":18777:18778   */\n      0x00\n        /* \"#utility.yul\":18791:18945   */\n    tag_459:\n        /* \"#utility.yul\":18805:18811   */\n      dup4\n        /* \"#utility.yul\":18802:18803   */\n      dup2\n        /* \"#utility.yul\":18799:18812   */\n      lt\n        /* \"#utility.yul\":18791:18945   */\n      iszero\n      tag_461\n      jumpi\n        /* \"#utility.yul\":18879:18886   */\n      dup2\n        /* \"#utility.yul\":18873:18887   */\n      sload\n        /* \"#utility.yul\":18869:18870   */\n      dup2\n        /* \"#utility.yul\":18864:18867   */\n      dup10\n        /* \"#utility.yul\":18860:18871   */\n      add\n        /* \"#utility.yul\":18853:18888   */\n      mstore\n        /* \"#utility.yul\":18929:18930   */\n      0x01\n        /* \"#utility.yul\":18920:18927   */\n      dup3\n        /* \"#utility.yul\":18916:18931   */\n      add\n        /* \"#utility.yul\":18905:18931   */\n      swap2\n      pop\n        /* \"#utility.yul\":18827:18831   */\n      0x20\n        /* \"#utility.yul\":18824:18825   */\n      dup2\n        /* \"#utility.yul\":18820:18832   */\n      add\n        /* \"#utility.yul\":18815:18832   */\n      swap1\n      pop\n        /* \"#utility.yul\":18791:18945   */\n      jump(tag_459)\n    tag_461:\n        /* \"#utility.yul\":18974:18980   */\n      dup4\n        /* \"#utility.yul\":18969:18972   */\n      dup9\n        /* \"#utility.yul\":18965:18981   */\n      add\n        /* \"#utility.yul\":18958:18981   */\n      swap6\n      pop\n        /* \"#utility.yul\":18657:18991   */\n      pop\n      pop\n        /* \"#utility.yul\":18442:18991   */\n    tag_455:\n      pop\n        /* \"#utility.yul\":18230:18997   */\n      pop\n      pop\n        /* \"#utility.yul\":18123:18997   */\n      swap3\n      swap2\n      pop\n      pop\n      jump\t// out\n        /* \"#utility.yul\":19003:19272   */\n    tag_167:\n        /* \"#utility.yul\":19132:19135   */\n      0x00\n        /* \"#utility.yul\":19154:19246   */\n      tag_463\n        /* \"#utility.yul\":19242:19245   */\n      dup3\n        /* \"#utility.yul\":19233:19239   */\n      dup5\n        /* \"#utility.yul\":19154:19246   */\n      tag_253\n      jump\t// in\n    tag_463:\n        /* \"#utility.yul\":19147:19246   */\n      swap2\n      pop\n        /* \"#utility.yul\":19263:19266   */\n      dup2\n        /* \"#utility.yul\":19256:19266   */\n      swap1\n      pop\n        /* \"#utility.yul\":19003:19272   */\n      swap3\n      swap2\n      pop\n      pop\n      jump\t// out\n        /* \"#utility.yul\":19278:19431   */\n    tag_254:\n        /* \"#utility.yul\":19331:19337   */\n      0x00\n        /* \"#utility.yul\":19365:19370   */\n      dup2\n        /* \"#utility.yul\":19359:19371   */\n      sload\n        /* \"#utility.yul\":19349:19371   */\n      swap1\n      pop\n        /* \"#utility.yul\":19391:19424   */\n      tag_465\n        /* \"#utility.yul\":19417:19423   */\n      dup2\n        /* \"#utility.yul\":19391:19424   */\n      tag_103\n      jump\t// in\n    tag_465:\n        /* \"#utility.yul\":19381:19424   */\n      swap1\n      pop\n        /* \"#utility.yul\":19278:19431   */\n      swap2\n      swap1\n      pop\n      jump\t// out\n        /* \"#utility.yul\":19437:19582   */\n    tag_255:\n        /* \"#utility.yul\":19490:19494   */\n      0x00\n        /* \"#utility.yul\":19513:19516   */\n      dup2\n        /* \"#utility.yul\":19505:19516   */\n      swap1\n      pop\n        /* \"#utility.yul\":19536:19539   */\n      dup2\n        /* \"#utility.yul\":19533:19534   */\n      0x00\n        /* \"#utility.yul\":19526:19540   */\n      mstore\n        /* \"#utility.yul\":19570:19574   */\n      0x20\n        /* \"#utility.yul\":19567:19568   */\n      0x00\n        /* \"#utility.yul\":19557:19575   */\n      keccak256\n        /* \"#utility.yul\":19549:19575   */\n      swap1\n      pop\n        /* \"#utility.yul\":19437:19582   */\n      swap2\n      swap1\n      pop\n      jump\t// out\n        /* \"#utility.yul\":19588:21051   */\n    tag_198:\n        /* \"#utility.yul\":19703:19706   */\n      dup2\n        /* \"#utility.yul\":19697:19701   */\n      dup2\n        /* \"#utility.yul\":19694:19707   */\n      sub\n        /* \"#utility.yul\":19691:19717   */\n      tag_468\n      jumpi\n        /* \"#utility.yul\":19710:19715   */\n      pop\n      pop\n      jump(tag_467)\n        /* \"#utility.yul\":19691:19717   */\n    tag_468:\n        /* \"#utility.yul\":19741:19779   */\n      tag_469\n        /* \"#utility.yul\":19775:19778   */\n      dup3\n        /* \"#utility.yul\":19741:19779   */\n      tag_254\n      jump\t// in\n    tag_469:\n        /* \"#utility.yul\":19844:19862   */\n      0xffffffffffffffff\n        /* \"#utility.yul\":19836:19842   */\n      dup2\n        /* \"#utility.yul\":19833:19863   */\n      gt\n        /* \"#utility.yul\":19830:19886   */\n      iszero\n      tag_470\n      jumpi\n        /* \"#utility.yul\":19866:19884   */\n      tag_471\n      tag_218\n      jump\t// in\n    tag_471:\n        /* \"#utility.yul\":19830:19886   */\n    tag_470:\n        /* \"#utility.yul\":19910:19948   */\n      tag_472\n        /* \"#utility.yul\":19942:19946   */\n      dup3\n        /* \"#utility.yul\":19936:19947   */\n      sload\n        /* \"#utility.yul\":19910:19948   */\n      tag_103\n      jump\t// in\n    tag_472:\n        /* \"#utility.yul\":19995:20062   */\n      tag_473\n        /* \"#utility.yul\":20055:20061   */\n      dup3\n        /* \"#utility.yul\":20047:20053   */\n      dup3\n        /* \"#utility.yul\":20041:20045   */\n      dup6\n        /* \"#utility.yul\":19995:20062   */\n      tag_247\n      jump\t// in\n    tag_473:\n        /* \"#utility.yul\":20089:20090   */\n      0x00\n        /* \"#utility.yul\":20118:20120   */\n      0x1f\n        /* \"#utility.yul\":20110:20116   */\n      dup4\n        /* \"#utility.yul\":20107:20121   */\n      gt\n        /* \"#utility.yul\":20135:20136   */\n      0x01\n        /* \"#utility.yul\":20130:20806   */\n      dup2\n      eq\n      tag_475\n      jumpi\n        /* \"#utility.yul\":20850:20851   */\n      0x00\n        /* \"#utility.yul\":20867:20873   */\n      dup5\n        /* \"#utility.yul\":20864:20941   */\n      iszero\n      tag_476\n      jumpi\n        /* \"#utility.yul\":20916:20925   */\n      dup3\n        /* \"#utility.yul\":20911:20914   */\n      dup8\n        /* \"#utility.yul\":20907:20926   */\n      add\n        /* \"#utility.yul\":20901:20927   */\n      sload\n        /* \"#utility.yul\":20892:20927   */\n      swap1\n      pop\n        /* \"#utility.yul\":20864:20941   */\n    tag_476:\n        /* \"#utility.yul\":20967:21034   */\n      tag_477\n        /* \"#utility.yul\":21027:21033   */\n      dup6\n        /* \"#utility.yul\":21020:21025   */\n      dup3\n        /* \"#utility.yul\":20967:21034   */\n      tag_250\n      jump\t// in\n    tag_477:\n        /* \"#utility.yul\":20961:20965   */\n      dup7\n        /* \"#utility.yul\":20954:21035   */\n      sstore\n        /* \"#utility.yul\":20823:21045   */\n      pop\n        /* \"#utility.yul\":20100:21045   */\n      jump(tag_474)\n        /* \"#utility.yul\":20130:20806   */\n    tag_475:\n        /* \"#utility.yul\":20182:20186   */\n      0x1f\n        /* \"#utility.yul\":20178:20187   */\n      not\n        /* \"#utility.yul\":20170:20176   */\n      dup5\n        /* \"#utility.yul\":20166:20188   */\n      and\n        /* \"#utility.yul\":20208:20248   */\n      tag_478\n        /* \"#utility.yul\":20244:20247   */\n      dup8\n        /* \"#utility.yul\":20208:20248   */\n      tag_255\n      jump\t// in\n    tag_478:\n        /* \"#utility.yul\":20201:20248   */\n      swap7\n      pop\n        /* \"#utility.yul\":20275:20312   */\n      tag_479\n        /* \"#utility.yul\":20307:20311   */\n      dup7\n        /* \"#utility.yul\":20275:20312   */\n      tag_236\n      jump\t// in\n    tag_479:\n        /* \"#utility.yul\":20334:20335   */\n      0x00\n        /* \"#utility.yul\":20348:20555   */\n    tag_480:\n        /* \"#utility.yul\":20362:20369   */\n      dup3\n        /* \"#utility.yul\":20359:20360   */\n      dup2\n        /* \"#utility.yul\":20356:20370   */\n      lt\n        /* \"#utility.yul\":20348:20555   */\n      iszero\n      tag_482\n      jumpi\n        /* \"#utility.yul\":20441:20450   */\n      dup5\n        /* \"#utility.yul\":20436:20439   */\n      dup10\n        /* \"#utility.yul\":20432:20451   */\n      add\n        /* \"#utility.yul\":20426:20452   */\n      sload\n        /* \"#utility.yul\":20418:20424   */\n      dup3\n        /* \"#utility.yul\":20411:20453   */\n      sstore\n        /* \"#utility.yul\":20492:20493   */\n      0x01\n        /* \"#utility.yul\":20484:20490   */\n      dup3\n        /* \"#utility.yul\":20480:20494   */\n      add\n        /* \"#utility.yul\":20470:20494   */\n      swap2\n      pop\n        /* \"#utility.yul\":20539:20540   */\n      0x01\n        /* \"#utility.yul\":20528:20537   */\n      dup6\n        /* \"#utility.yul\":20524:20541   */\n      add\n        /* \"#utility.yul\":20511:20541   */\n      swap5\n      pop\n        /* \"#utility.yul\":20385:20389   */\n      0x20\n        /* \"#utility.yul\":20382:20383   */\n      dup2\n        /* \"#utility.yul\":20378:20390   */\n      add\n        /* \"#utility.yul\":20373:20390   */\n      swap1\n      pop\n        /* \"#utility.yul\":20348:20555   */\n      jump(tag_480)\n    tag_482:\n        /* \"#utility.yul\":20583:20589   */\n      dup7\n        /* \"#utility.yul\":20574:20581   */\n      dup4\n        /* \"#utility.yul\":20571:20590   */\n      lt\n        /* \"#utility.yul\":20568:20747   */\n      iszero\n      tag_483\n      jumpi\n        /* \"#utility.yul\":20641:20650   */\n      dup5\n        /* \"#utility.yul\":20636:20639   */\n      dup10\n        /* \"#utility.yul\":20632:20651   */\n      add\n        /* \"#utility.yul\":20626:20652   */\n      sload\n        /* \"#utility.yul\":20684:20732   */\n      tag_484\n        /* \"#utility.yul\":20726:20730   */\n      0x1f\n        /* \"#utility.yul\":20718:20724   */\n      dup10\n        /* \"#utility.yul\":20714:20731   */\n      and\n        /* \"#utility.yul\":20703:20712   */\n      dup3\n        /* \"#utility.yul\":20684:20732   */\n      tag_249\n      jump\t// in\n    tag_484:\n        /* \"#utility.yul\":20676:20682   */\n      dup4\n        /* \"#utility.yul\":20669:20733   */\n      sstore\n        /* \"#utility.yul\":20591:20747   */\n      pop\n        /* \"#utility.yul\":20568:20747   */\n    tag_483:\n        /* \"#utility.yul\":20793:20794   */\n      0x01\n        /* \"#utility.yul\":20789:20790   */\n      0x02\n        /* \"#utility.yul\":20781:20787   */\n      dup9\n        /* \"#utility.yul\":20777:20791   */\n      mul\n        /* \"#utility.yul\":20773:20795   */\n      add\n        /* \"#utility.yul\":20767:20771   */\n      dup9\n        /* \"#utility.yul\":20760:20796   */\n      sstore\n        /* \"#utility.yul\":20137:20806   */\n      pop\n      pop\n      pop\n        /* \"#utility.yul\":20100:21045   */\n    tag_474:\n      pop\n        /* \"#utility.yul\":19681:21051   */\n      pop\n      pop\n      pop\n        /* \"#utility.yul\":19588:21051   */\n      pop\n      pop\n    tag_467:\n      jump\t// out\n\n    auxdata: 0xa26469706673582212201a385389c74816f6260b6614579b1e4c475710fa351f540099eb41e97bee991164736f6c63430008120033\n}\n",
				"bytecode": {
					"linkReferences": {},
					"object": "6080604052600060025560006003556000600455604051806020016040528060008152506006908162000033919062000359565b506001600960006101000a81548160ff0219169083151502179055506000600a556000600b60006101000a81548160ff0219169083151502179055503480156200007c57600080fd5b5033600560006101000a81548173ffffffffffffffffffffffffffffffffffffffff021916908373ffffffffffffffffffffffffffffffffffffffff1602179055506001600d60006101000a81548160ff02191690831515021790555062000440565b600081519050919050565b7f4e487b7100000000000000000000000000000000000000000000000000000000600052604160045260246000fd5b7f4e487b7100000000000000000000000000000000000000000000000000000000600052602260045260246000fd5b600060028204905060018216806200016157607f821691505b60208210810362000177576200017662000119565b5b50919050565b60008190508160005260206000209050919050565b60006020601f8301049050919050565b600082821b905092915050565b600060088302620001e17fffffffffffffffffffffffffffffffffffffffffffffffffffffffffffffffff82620001a2565b620001ed8683620001a2565b95508019841693508086168417925050509392505050565b6000819050919050565b6000819050919050565b60006200023a620002346200022e8462000205565b6200020f565b62000205565b9050919050565b6000819050919050565b620002568362000219565b6200026e620002658262000241565b848454620001af565b825550505050565b600090565b6200028562000276565b620002928184846200024b565b505050565b5b81811015620002ba57620002ae6000826200027b565b60018101905062000298565b5050565b601f8211156200030957620002d3816200017d565b620002de8462000192565b81016020851015620002ee578190505b62000306620002fd8562000192565b83018262000297565b50505b505050565b600082821c905092915050565b60006200032e600019846008026200030e565b1980831691505092915050565b60006200034983836200031b565b9150826002028217905092915050565b6200036482620000df565b67ffffffffffffffff81111562000380576200037f620000ea565b5b6200038c825462000148565b62000399828285620002be565b600060209050601f831160018114620003d15760008415620003bc578287015190505b620003c885826200033b565b86555062000438565b601f198416620003e1866200017d565b60005b828110156200040b57848901518255600182019150602085019450602081019050620003e4565b868310156200042b578489015162000427601f8916826200031b565b8355505b6001600288020188555050505b505050505050565b611cdf80620004506000396000f3fe608060405234801561001057600080fd5b50600436106101165760003560e01c806372181ae9116100a2578063b798867f11610071578063b798867f1461030d578063bca353be1461032b578063be8db3cf14610335578063c1c16efc14610353578063e289fcb61461037157610116565b806372181ae914610283578063788d3851146102a1578063a3bef4d7146102bf578063ad5461d8146102dd57610116565b8063481c6a75116100e9578063481c6a75146101ca5780635df81330146101e85780635f2ba6b21461021957806366597e5a146102355780636d77bd3e1461025357610116565b8063124258c61461011b5780631ddabf7a1461014b5780633b9f708d1461017c57806347098f36146101ac575b600080fd5b61013560048036038101906101309190611109565b61038f565b6040516101429190611151565b60405180910390f35b610165600480360381019061016091906111ca565b6106a3565b604051610173929190611287565b60405180910390f35b610196600480360381019061019191906113ec565b61075c565b6040516101a39190611457565b60405180910390f35b6101b4610973565b6040516101c19190611457565b60405180910390f35b6101d2610979565b6040516101df9190611481565b60405180910390f35b61020260048036038101906101fd9190611109565b61099f565b60405161021092919061149c565b60405180910390f35b610233600480360381019061022e9190611109565b6109e3565b005b61023d610af1565b60405161024a9190611457565b60405180910390f35b61026d600480360381019061026891906114c5565b610af7565b60405161027a9190611457565b60405180910390f35b61028b610d1a565b6040516102989190611151565b60405180910390f35b6102a9610d2d565b6040516102b69190611151565b60405180910390f35b6102c7610d40565b6040516102d49190611457565b60405180910390f35b6102f760048036038101906102f29190611109565b610d46565b604051610304919061150e565b60405180910390f35b610315610de6565b6040516103229190611457565b60405180910390f35b610333610dec565b005b61033d610e99565b60405161034a9190611457565b60405180910390f35b61035b610e9f565b604051610368919061150e565b60405180910390f35b610379610f2d565b6040516103869190611151565b60405180910390f35b600060011515600960009054906101000a900460ff161515146103e7576040517f08c379a00000000000000000000000000000000000000000000000000000000081526004016103de906115a2565b60405180910390fd5b60011515600d60009054906101000a900460ff1615151461043d576040517f08c379a00000000000000000000000000000000000000000000000000000000081526004016104349061160e565b60405180910390fd5b600090506000600160003373ffffffffffffffffffffffffffffffffffffffff1673ffffffffffffffffffffffffffffffffffffffff16815260200190815260200160002060000180546104909061165d565b9050141580156104ed5750600160003373ffffffffffffffffffffffffffffffffffffffff1673ffffffffffffffffffffffffffffffffffffffff16815260200190815260200160002060010160009054906101000a900460ff16155b80156104fb57506001600a54145b15610672576000806000848152602001908152602001600020805461051f9061165d565b90501461067157600c54431161065f576001905060018060003373ffffffffffffffffffffffffffffffffffffffff1673ffffffffffffffffffffffffffffffffffffffff16815260200190815260200160002060010160006101000a81548160ff021916908315150217905550610595611073565b33816000019073ffffffffffffffffffffffffffffffffffffffff16908173ffffffffffffffffffffffffffffffffffffffff168152505082816020018181525050600460008154809291906105ea906116bd565b91905055508060076000600454815260200190815260200160002060008201518160000160006101000a81548173ffffffffffffffffffffffffffffffffffffffff021916908373ffffffffffffffffffffffffffffffffffffffff1602179055506020820151816001015590505050610670565b6002600a8190555061066f610f40565b5b5b5b600160026003546106839190611734565b61068d9190611765565b6004541061069e5761069d610f40565b5b919050565b60016020528060005260406000206000915090508060000180546106c69061165d565b80601f01602080910402602001604051908101604052809291908181526020018280546106f29061165d565b801561073f5780601f106107145761010080835404028352916020019161073f565b820191906000526020600020905b81548152906001019060200180831161072257829003601f168201915b5050505050908060010160009054906101000a900460ff16905082565b6000600560009054906101000a900473ffffffffffffffffffffffffffffffffffffffff1673ffffffffffffffffffffffffffffffffffffffff163373ffffffffffffffffffffffffffffffffffffffff16146107ee576040517f08c379a00000000000000000000000000000000000000000000000000000000081526004016107e59061180b565b60405180910390fd5b60011515600d60009054906101000a900460ff16151514610844576040517f08c379a000000000000000000000000000000000000000000000000000000000815260040161083b9061160e565b60405180910390fd5b6000600160008573ffffffffffffffffffffffffffffffffffffffff1673ffffffffffffffffffffffffffffffffffffffff16815260200190815260200160002060000180546108939061165d565b90501480156108a457506000600a54145b15610967576108b16110a3565b828160000181905250600081602001901515908115158152505080600160008673ffffffffffffffffffffffffffffffffffffffff1673ffffffffffffffffffffffffffffffffffffffff168152602001908152602001600020600082015181600001908161092091906119d7565b5060208201518160010160006101000a81548160ff02191690831515021790555090505060036000815480929190610957906116bd565b919050555060035491505061096d565b60035490505b92915050565b60035481565b600560009054906101000a900473ffffffffffffffffffffffffffffffffffffffff1681565b60076020528060005260406000206000915090508060000160009054906101000a900473ffffffffffffffffffffffffffffffffffffffff16908060010154905082565b600560009054906101000a900473ffffffffffffffffffffffffffffffffffffffff1673ffffffffffffffffffffffffffffffffffffffff163373ffffffffffffffffffffffffffffffffffffffff1614610a73576040517f08c379a0000000000000000000000000000000000000000000000000000000008152600401610a6a9061180b565b60405180910390fd5b60011515600d60009054906101000a900460ff16151514610ac9576040517f08c379a0000000000000000000000000000000000000000000000000000000008152600401610ac09061160e565b60405180910390fd5b6000600a5403610aee576001600a819055508043610ae79190611765565b600c819055505b50565b600a5481565b6000600560009054906101000a900473ffffffffffffffffffffffffffffffffffffffff1673ffffffffffffffffffffffffffffffffffffffff163373ffffffffffffffffffffffffffffffffffffffff1614610b89576040517f08c379a0000000000000000000000000000000000000000000000000000000008152600401610b809061180b565b60405180910390fd5b60011515600d60009054906101000a900460ff16151514610bdf576040517f08c379a0000000000000000000000000000000000000000000000000000000008152600401610bd69061160e565b60405180910390fd5b6000600190505b6002548111610c825782604051602001610c009190611ae5565b60405160208183030381529060405280519060200120600080838152602001908152602001600020604051602001610c389190611b7f565b6040516020818303038152906040528051906020012003610c6f576001600b60006101000a81548160ff0219169083151502179055505b8080610c7a906116bd565b915050610be6565b5060001515600b60009054906101000a900460ff161515148015610ca857506000600a54145b8015610cb5575060008251115b15610cf55760026000815480929190610ccd906116bd565b91905055508160008060025481526020019081526020016000209081610cf391906119d7565b505b6000600b60006101000a81548160ff0219169083151502179055506002549050919050565b600b60009054906101000a900460ff1681565b600960009054906101000a900460ff1681565b60045481565b60006020528060005260406000206000915090508054610d659061165d565b80601f0160208091040260200160405190810160405280929190818152602001828054610d919061165d565b8015610dde5780601f10610db357610100808354040283529160200191610dde565b820191906000526020600020905b815481529060010190602001808311610dc157829003601f168201915b505050505081565b60025481565b600560009054906101000a900473ffffffffffffffffffffffffffffffffffffffff1673ffffffffffffffffffffffffffffffffffffffff163373ffffffffffffffffffffffffffffffffffffffff1614610e7c576040517f08c379a0000000000000000000000000000000000000000000000000000000008152600401610e739061180b565b60405180910390fd5b6000600d60006101000a81548160ff021916908315150217905550565b600c5481565b60068054610eac9061165d565b80601f0160208091040260200160405190810160405280929190818152602001828054610ed89061165d565b8015610f255780601f10610efa57610100808354040283529160200191610f25565b820191906000526020600020905b815481529060010190602001808311610f0857829003601f168201915b505050505081565b600d60009054906101000a900460ff1681565b6000806002600a819055506000600190505b60045481116110325760006001905060006008600060076000868152602001908152602001600020600101548152602001908152602001600020541115610fcb5760086000600760008581526020019081526020016000206001015481526020019081526020016000205481610fc89190611765565b90505b806008600060076000868152602001908152602001600020600101548152602001908152602001600020819055508381111561101e57809350600760008381526020019081526020016000206001015492505b50808061102a906116bd565b915050610f52565b50600080828152602001908152602001600020600690816110539190611bc1565b506000600960006101000a81548160ff0219169083151502179055505050565b6040518060400160405280600073ffffffffffffffffffffffffffffffffffffffff168152602001600081525090565b6040518060400160405280606081526020016000151581525090565b6000604051905090565b600080fd5b600080fd5b6000819050919050565b6110e6816110d3565b81146110f157600080fd5b50565b600081359050611103816110dd565b92915050565b60006020828403121561111f5761111e6110c9565b5b600061112d848285016110f4565b91505092915050565b60008115159050919050565b61114b81611136565b82525050565b60006020820190506111666000830184611142565b92915050565b600073ffffffffffffffffffffffffffffffffffffffff82169050919050565b60006111978261116c565b9050919050565b6111a78161118c565b81146111b257600080fd5b50565b6000813590506111c48161119e565b92915050565b6000602082840312156111e0576111df6110c9565b5b60006111ee848285016111b5565b91505092915050565b600081519050919050565b600082825260208201905092915050565b60005b83811015611231578082015181840152602081019050611216565b60008484015250505050565b6000601f19601f8301169050919050565b6000611259826111f7565b6112638185611202565b9350611273818560208601611213565b61127c8161123d565b840191505092915050565b600060408201905081810360008301526112a1818561124e565b90506112b06020830184611142565b9392505050565b600080fd5b600080fd5b7f4e487b7100000000000000000000000000000000000000000000000000000000600052604160045260246000fd5b6112f98261123d565b810181811067ffffffffffffffff82111715611318576113176112c1565b5b80604052505050565b600061132b6110bf565b905061133782826112f0565b919050565b600067ffffffffffffffff821115611357576113566112c1565b5b6113608261123d565b9050602081019050919050565b82818337600083830152505050565b600061138f61138a8461133c565b611321565b9050828152602081018484840111156113ab576113aa6112bc565b5b6113b684828561136d565b509392505050565b600082601f8301126113d3576113d26112b7565b5b81356113e384826020860161137c565b91505092915050565b60008060408385031215611403576114026110c9565b5b6000611411858286016111b5565b925050602083013567ffffffffffffffff811115611432576114316110ce565b5b61143e858286016113be565b9150509250929050565b611451816110d3565b82525050565b600060208201905061146c6000830184611448565b92915050565b61147b8161118c565b82525050565b60006020820190506114966000830184611472565b92915050565b60006040820190506114b16000830185611472565b6114be6020830184611448565b9392505050565b6000602082840312156114db576114da6110c9565b5b600082013567ffffffffffffffff8111156114f9576114f86110ce565b5b611505848285016113be565b91505092915050565b60006020820190508181036000830152611528818461124e565b905092915050565b7f43616e20766f7465206f6e6c79207768696c6520766f74696e67206973206f7060008201527f656e2e0000000000000000000000000000000000000000000000000000000000602082015250565b600061158c602383611202565b915061159782611530565b604082019050919050565b600060208201905081810360008301526115bb8161157f565b9050919050565b7f54686520636f6e7472616374206e6565647320746f206265206163746976652e600082015250565b60006115f8602083611202565b9150611603826115c2565b602082019050919050565b60006020820190508181036000830152611627816115eb565b9050919050565b7f4e487b7100000000000000000000000000000000000000000000000000000000600052602260045260246000fd5b6000600282049050600182168061167557607f821691505b6020821081036116885761168761162e565b5b50919050565b7f4e487b7100000000000000000000000000000000000000000000000000000000600052601160045260246000fd5b60006116c8826110d3565b91507fffffffffffffffffffffffffffffffffffffffffffffffffffffffffffffffff82036116fa576116f961168e565b5b600182019050919050565b7f4e487b7100000000000000000000000000000000000000000000000000000000600052601260045260246000fd5b600061173f826110d3565b915061174a836110d3565b92508261175a57611759611705565b5b828204905092915050565b6000611770826110d3565b915061177b836110d3565b92508282019050808211156117935761179261168e565b5b92915050565b7f43616e206f6e6c7920626520657865637574656420627920746865206d616e6160008201527f6765720000000000000000000000000000000000000000000000000000000000602082015250565b60006117f5602383611202565b915061180082611799565b604082019050919050565b60006020820190508181036000830152611824816117e8565b9050919050565b60008190508160005260206000209050919050565b60006020601f8301049050919050565b600082821b905092915050565b60006008830261188d7fffffffffffffffffffffffffffffffffffffffffffffffffffffffffffffffff82611850565b6118978683611850565b95508019841693508086168417925050509392505050565b6000819050919050565b60006118d46118cf6118ca846110d3565b6118af565b6110d3565b9050919050565b6000819050919050565b6118ee836118b9565b6119026118fa826118db565b84845461185d565b825550505050565b600090565b61191761190a565b6119228184846118e5565b505050565b5b818110156119465761193b60008261190f565b600181019050611928565b5050565b601f82111561198b5761195c8161182b565b61196584611840565b81016020851015611974578190505b61198861198085611840565b830182611927565b50505b505050565b600082821c905092915050565b60006119ae60001984600802611990565b1980831691505092915050565b60006119c7838361199d565b9150826002028217905092915050565b6119e0826111f7565b67ffffffffffffffff8111156119f9576119f86112c1565b5b611a03825461165d565b611a0e82828561194a565b600060209050601f831160018114611a415760008415611a2f578287015190505b611a3985826119bb565b865550611aa1565b601f198416611a4f8661182b565b60005b82811015611a7757848901518255600182019150602085019450602081019050611a52565b86831015611a945784890151611a90601f89168261199d565b8355505b6001600288020188555050505b505050505050565b600081905092915050565b6000611abf826111f7565b611ac98185611aa9565b9350611ad9818560208601611213565b80840191505092915050565b6000611af18284611ab4565b915081905092915050565b60008154611b098161165d565b611b138186611aa9565b94506001821660008114611b2e5760018114611b4357611b76565b60ff1983168652811515820286019350611b76565b611b4c8561182b565b60005b83811015611b6e57815481890152600182019150602081019050611b4f565b838801955050505b50505092915050565b6000611b8b8284611afc565b915081905092915050565b600081549050611ba58161165d565b9050919050565b60008190508160005260206000209050919050565b818103611bcf575050611ca7565b611bd882611b96565b67ffffffffffffffff811115611bf157611bf06112c1565b5b611bfb825461165d565b611c0682828561194a565b6000601f831160018114611c355760008415611c23578287015490505b611c2d85826119bb565b865550611ca0565b601f198416611c4387611bac565b9650611c4e8661182b565b60005b82811015611c7657848901548255600182019150600185019450602081019050611c51565b86831015611c935784890154611c8f601f89168261199d565b8355505b6001600288020188555050505b5050505050505b56fea26469706673582212201a385389c74816f6260b6614579b1e4c475710fa351f540099eb41e97bee991164736f6c63430008120033",
					"opcodes": "PUSH1 0x80 PUSH1 0x40 MSTORE PUSH1 0x0 PUSH1 0x2 SSTORE PUSH1 0x0 PUSH1 0x3 SSTORE PUSH1 0x0 PUSH1 0x4 SSTORE PUSH1 0x40 MLOAD DUP1 PUSH1 0x20 ADD PUSH1 0x40 MSTORE DUP1 PUSH1 0x0 DUP2 MSTORE POP PUSH1 0x6 SWAP1 DUP2 PUSH3 0x33 SWAP2 SWAP1 PUSH3 0x359 JUMP JUMPDEST POP PUSH1 0x1 PUSH1 0x9 PUSH1 0x0 PUSH2 0x100 EXP DUP2 SLOAD DUP2 PUSH1 0xFF MUL NOT AND SWAP1 DUP4 ISZERO ISZERO MUL OR SWAP1 SSTORE POP PUSH1 0x0 PUSH1 0xA SSTORE PUSH1 0x0 PUSH1 0xB PUSH1 0x0 PUSH2 0x100 EXP DUP2 SLOAD DUP2 PUSH1 0xFF MUL NOT AND SWAP1 DUP4 ISZERO ISZERO MUL OR SWAP1 SSTORE POP CALLVALUE DUP1 ISZERO PUSH3 0x7C JUMPI PUSH1 0x0 DUP1 REVERT JUMPDEST POP CALLER PUSH1 0x5 PUSH1 0x0 PUSH2 0x100 EXP DUP2 SLOAD DUP2 PUSH20 0xFFFFFFFFFFFFFFFFFFFFFFFFFFFFFFFFFFFFFFFF MUL NOT AND SWAP1 DUP4 PUSH20 0xFFFFFFFFFFFFFFFFFFFFFFFFFFFFFFFFFFFFFFFF AND MUL OR SWAP1 SSTORE POP PUSH1 0x1 PUSH1 0xD PUSH1 0x0 PUSH2 0x100 EXP DUP2 SLOAD DUP2 PUSH1 0xFF MUL NOT AND SWAP1 DUP4 ISZERO ISZERO MUL OR SWAP1 SSTORE POP PUSH3 0x440 JUMP JUMPDEST PUSH1 0x0 DUP2 MLOAD SWAP1 POP SWAP2 SWAP1 POP JUMP JUMPDEST PUSH32 0x4E487B7100000000000000000000000000000000000000000000000000000000 PUSH1 0x0 MSTORE PUSH1 0x41 PUSH1 0x4 MSTORE PUSH1 0x24 PUSH1 0x0 REVERT JUMPDEST PUSH32 0x4E487B7100000000000000000000000000000000000000000000000000000000 PUSH1 0x0 MSTORE PUSH1 0x22 PUSH1 0x4 MSTORE PUSH1 0x24 PUSH1 0x0 REVERT JUMPDEST PUSH1 0x0 PUSH1 0x2 DUP3 DIV SWAP1 POP PUSH1 0x1 DUP3 AND DUP1 PUSH3 0x161 JUMPI PUSH1 0x7F DUP3 AND SWAP2 POP JUMPDEST PUSH1 0x20 DUP3 LT DUP2 SUB PUSH3 0x177 JUMPI PUSH3 0x176 PUSH3 0x119 JUMP JUMPDEST JUMPDEST POP SWAP2 SWAP1 POP JUMP JUMPDEST PUSH1 0x0 DUP2 SWAP1 POP DUP2 PUSH1 0x0 MSTORE PUSH1 0x20 PUSH1 0x0 KECCAK256 SWAP1 POP SWAP2 SWAP1 POP JUMP JUMPDEST PUSH1 0x0 PUSH1 0x20 PUSH1 0x1F DUP4 ADD DIV SWAP1 POP SWAP2 SWAP1 POP JUMP JUMPDEST PUSH1 0x0 DUP3 DUP3 SHL SWAP1 POP SWAP3 SWAP2 POP POP JUMP JUMPDEST PUSH1 0x0 PUSH1 0x8 DUP4 MUL PUSH3 0x1E1 PUSH32 0xFFFFFFFFFFFFFFFFFFFFFFFFFFFFFFFFFFFFFFFFFFFFFFFFFFFFFFFFFFFFFFFF DUP3 PUSH3 0x1A2 JUMP JUMPDEST PUSH3 0x1ED DUP7 DUP4 PUSH3 0x1A2 JUMP JUMPDEST SWAP6 POP DUP1 NOT DUP5 AND SWAP4 POP DUP1 DUP7 AND DUP5 OR SWAP3 POP POP POP SWAP4 SWAP3 POP POP POP JUMP JUMPDEST PUSH1 0x0 DUP2 SWAP1 POP SWAP2 SWAP1 POP JUMP JUMPDEST PUSH1 0x0 DUP2 SWAP1 POP SWAP2 SWAP1 POP JUMP JUMPDEST PUSH1 0x0 PUSH3 0x23A PUSH3 0x234 PUSH3 0x22E DUP5 PUSH3 0x205 JUMP JUMPDEST PUSH3 0x20F JUMP JUMPDEST PUSH3 0x205 JUMP JUMPDEST SWAP1 POP SWAP2 SWAP1 POP JUMP JUMPDEST PUSH1 0x0 DUP2 SWAP1 POP SWAP2 SWAP1 POP JUMP JUMPDEST PUSH3 0x256 DUP4 PUSH3 0x219 JUMP JUMPDEST PUSH3 0x26E PUSH3 0x265 DUP3 PUSH3 0x241 JUMP JUMPDEST DUP5 DUP5 SLOAD PUSH3 0x1AF JUMP JUMPDEST DUP3 SSTORE POP POP POP POP JUMP JUMPDEST PUSH1 0x0 SWAP1 JUMP JUMPDEST PUSH3 0x285 PUSH3 0x276 JUMP JUMPDEST PUSH3 0x292 DUP2 DUP5 DUP5 PUSH3 0x24B JUMP JUMPDEST POP POP POP JUMP JUMPDEST JUMPDEST DUP2 DUP2 LT ISZERO PUSH3 0x2BA JUMPI PUSH3 0x2AE PUSH1 0x0 DUP3 PUSH3 0x27B JUMP JUMPDEST PUSH1 0x1 DUP2 ADD SWAP1 POP PUSH3 0x298 JUMP JUMPDEST POP POP JUMP JUMPDEST PUSH1 0x1F DUP3 GT ISZERO PUSH3 0x309 JUMPI PUSH3 0x2D3 DUP2 PUSH3 0x17D JUMP JUMPDEST PUSH3 0x2DE DUP5 PUSH3 0x192 JUMP JUMPDEST DUP2 ADD PUSH1 0x20 DUP6 LT ISZERO PUSH3 0x2EE JUMPI DUP2 SWAP1 POP JUMPDEST PUSH3 0x306 PUSH3 0x2FD DUP6 PUSH3 0x192 JUMP JUMPDEST DUP4 ADD DUP3 PUSH3 0x297 JUMP JUMPDEST POP POP JUMPDEST POP POP POP JUMP JUMPDEST PUSH1 0x0 DUP3 DUP3 SHR SWAP1 POP SWAP3 SWAP2 POP POP JUMP JUMPDEST PUSH1 0x0 PUSH3 0x32E PUSH1 0x0 NOT DUP5 PUSH1 0x8 MUL PUSH3 0x30E JUMP JUMPDEST NOT DUP1 DUP4 AND SWAP2 POP POP SWAP3 SWAP2 POP POP JUMP JUMPDEST PUSH1 0x0 PUSH3 0x349 DUP4 DUP4 PUSH3 0x31B JUMP JUMPDEST SWAP2 POP DUP3 PUSH1 0x2 MUL DUP3 OR SWAP1 POP SWAP3 SWAP2 POP POP JUMP JUMPDEST PUSH3 0x364 DUP3 PUSH3 0xDF JUMP JUMPDEST PUSH8 0xFFFFFFFFFFFFFFFF DUP2 GT ISZERO PUSH3 0x380 JUMPI PUSH3 0x37F PUSH3 0xEA JUMP JUMPDEST JUMPDEST PUSH3 0x38C DUP3 SLOAD PUSH3 0x148 JUMP JUMPDEST PUSH3 0x399 DUP3 DUP3 DUP6 PUSH3 0x2BE JUMP JUMPDEST PUSH1 0x0 PUSH1 0x20 SWAP1 POP PUSH1 0x1F DUP4 GT PUSH1 0x1 DUP2 EQ PUSH3 0x3D1 JUMPI PUSH1 0x0 DUP5 ISZERO PUSH3 0x3BC JUMPI DUP3 DUP8 ADD MLOAD SWAP1 POP JUMPDEST PUSH3 0x3C8 DUP6 DUP3 PUSH3 0x33B JUMP JUMPDEST DUP7 SSTORE POP PUSH3 0x438 JUMP JUMPDEST PUSH1 0x1F NOT DUP5 AND PUSH3 0x3E1 DUP7 PUSH3 0x17D JUMP JUMPDEST PUSH1 0x0 JUMPDEST DUP3 DUP2 LT ISZERO PUSH3 0x40B JUMPI DUP5 DUP10 ADD MLOAD DUP3 SSTORE PUSH1 0x1 DUP3 ADD SWAP2 POP PUSH1 0x20 DUP6 ADD SWAP5 POP PUSH1 0x20 DUP2 ADD SWAP1 POP PUSH3 0x3E4 JUMP JUMPDEST DUP7 DUP4 LT ISZERO PUSH3 0x42B JUMPI DUP5 DUP10 ADD MLOAD PUSH3 0x427 PUSH1 0x1F DUP10 AND DUP3 PUSH3 0x31B JUMP JUMPDEST DUP4 SSTORE POP JUMPDEST PUSH1 0x1 PUSH1 0x2 DUP9 MUL ADD DUP9 SSTORE POP POP POP JUMPDEST POP POP POP POP POP POP JUMP JUMPDEST PUSH2 0x1CDF DUP1 PUSH3 0x450 PUSH1 0x0 CODECOPY PUSH1 0x0 RETURN INVALID PUSH1 0x80 PUSH1 0x40 MSTORE CALLVALUE DUP1 ISZERO PUSH2 0x10 JUMPI PUSH1 0x0 DUP1 REVERT JUMPDEST POP PUSH1 0x4 CALLDATASIZE LT PUSH2 0x116 JUMPI PUSH1 0x0 CALLDATALOAD PUSH1 0xE0 SHR DUP1 PUSH4 0x72181AE9 GT PUSH2 0xA2 JUMPI DUP1 PUSH4 0xB798867F GT PUSH2 0x71 JUMPI DUP1 PUSH4 0xB798867F EQ PUSH2 0x30D JUMPI DUP1 PUSH4 0xBCA353BE EQ PUSH2 0x32B JUMPI DUP1 PUSH4 0xBE8DB3CF EQ PUSH2 0x335 JUMPI DUP1 PUSH4 0xC1C16EFC EQ PUSH2 0x353 JUMPI DUP1 PUSH4 0xE289FCB6 EQ PUSH2 0x371 JUMPI PUSH2 0x116 JUMP JUMPDEST DUP1 PUSH4 0x72181AE9 EQ PUSH2 0x283 JUMPI DUP1 PUSH4 0x788D3851 EQ PUSH2 0x2A1 JUMPI DUP1 PUSH4 0xA3BEF4D7 EQ PUSH2 0x2BF JUMPI DUP1 PUSH4 0xAD5461D8 EQ PUSH2 0x2DD JUMPI PUSH2 0x116 JUMP JUMPDEST DUP1 PUSH4 0x481C6A75 GT PUSH2 0xE9 JUMPI DUP1 PUSH4 0x481C6A75 EQ PUSH2 0x1CA JUMPI DUP1 PUSH4 0x5DF81330 EQ PUSH2 0x1E8 JUMPI DUP1 PUSH4 0x5F2BA6B2 EQ PUSH2 0x219 JUMPI DUP1 PUSH4 0x66597E5A EQ PUSH2 0x235 JUMPI DUP1 PUSH4 0x6D77BD3E EQ PUSH2 0x253 JUMPI PUSH2 0x116 JUMP JUMPDEST DUP1 PUSH4 0x124258C6 EQ PUSH2 0x11B JUMPI DUP1 PUSH4 0x1DDABF7A EQ PUSH2 0x14B JUMPI DUP1 PUSH4 0x3B9F708D EQ PUSH2 0x17C JUMPI DUP1 PUSH4 0x47098F36 EQ PUSH2 0x1AC JUMPI JUMPDEST PUSH1 0x0 DUP1 REVERT JUMPDEST PUSH2 0x135 PUSH1 0x4 DUP1 CALLDATASIZE SUB DUP2 ADD SWAP1 PUSH2 0x130 SWAP2 SWAP1 PUSH2 0x1109 JUMP JUMPDEST PUSH2 0x38F JUMP JUMPDEST PUSH1 0x40 MLOAD PUSH2 0x142 SWAP2 SWAP1 PUSH2 0x1151 JUMP JUMPDEST PUSH1 0x40 MLOAD DUP1 SWAP2 SUB SWAP1 RETURN JUMPDEST PUSH2 0x165 PUSH1 0x4 DUP1 CALLDATASIZE SUB DUP2 ADD SWAP1 PUSH2 0x160 SWAP2 SWAP1 PUSH2 0x11CA JUMP JUMPDEST PUSH2 0x6A3 JUMP JUMPDEST PUSH1 0x40 MLOAD PUSH2 0x173 SWAP3 SWAP2 SWAP1 PUSH2 0x1287 JUMP JUMPDEST PUSH1 0x40 MLOAD DUP1 SWAP2 SUB SWAP1 RETURN JUMPDEST PUSH2 0x196 PUSH1 0x4 DUP1 CALLDATASIZE SUB DUP2 ADD SWAP1 PUSH2 0x191 SWAP2 SWAP1 PUSH2 0x13EC JUMP JUMPDEST PUSH2 0x75C JUMP JUMPDEST PUSH1 0x40 MLOAD PUSH2 0x1A3 SWAP2 SWAP1 PUSH2 0x1457 JUMP JUMPDEST PUSH1 0x40 MLOAD DUP1 SWAP2 SUB SWAP1 RETURN JUMPDEST PUSH2 0x1B4 PUSH2 0x973 JUMP JUMPDEST PUSH1 0x40 MLOAD PUSH2 0x1C1 SWAP2 SWAP1 PUSH2 0x1457 JUMP JUMPDEST PUSH1 0x40 MLOAD DUP1 SWAP2 SUB SWAP1 RETURN JUMPDEST PUSH2 0x1D2 PUSH2 0x979 JUMP JUMPDEST PUSH1 0x40 MLOAD PUSH2 0x1DF SWAP2 SWAP1 PUSH2 0x1481 JUMP JUMPDEST PUSH1 0x40 MLOAD DUP1 SWAP2 SUB SWAP1 RETURN JUMPDEST PUSH2 0x202 PUSH1 0x4 DUP1 CALLDATASIZE SUB DUP2 ADD SWAP1 PUSH2 0x1FD SWAP2 SWAP1 PUSH2 0x1109 JUMP JUMPDEST PUSH2 0x99F JUMP JUMPDEST PUSH1 0x40 MLOAD PUSH2 0x210 SWAP3 SWAP2 SWAP1 PUSH2 0x149C JUMP JUMPDEST PUSH1 0x40 MLOAD DUP1 SWAP2 SUB SWAP1 RETURN JUMPDEST PUSH2 0x233 PUSH1 0x4 DUP1 CALLDATASIZE SUB DUP2 ADD SWAP1 PUSH2 0x22E SWAP2 SWAP1 PUSH2 0x1109 JUMP JUMPDEST PUSH2 0x9E3 JUMP JUMPDEST STOP JUMPDEST PUSH2 0x23D PUSH2 0xAF1 JUMP JUMPDEST PUSH1 0x40 MLOAD PUSH2 0x24A SWAP2 SWAP1 PUSH2 0x1457 JUMP JUMPDEST PUSH1 0x40 MLOAD DUP1 SWAP2 SUB SWAP1 RETURN JUMPDEST PUSH2 0x26D PUSH1 0x4 DUP1 CALLDATASIZE SUB DUP2 ADD SWAP1 PUSH2 0x268 SWAP2 SWAP1 PUSH2 0x14C5 JUMP JUMPDEST PUSH2 0xAF7 JUMP JUMPDEST PUSH1 0x40 MLOAD PUSH2 0x27A SWAP2 SWAP1 PUSH2 0x1457 JUMP JUMPDEST PUSH1 0x40 MLOAD DUP1 SWAP2 SUB SWAP1 RETURN JUMPDEST PUSH2 0x28B PUSH2 0xD1A JUMP JUMPDEST PUSH1 0x40 MLOAD PUSH2 0x298 SWAP2 SWAP1 PUSH2 0x1151 JUMP JUMPDEST PUSH1 0x40 MLOAD DUP1 SWAP2 SUB SWAP1 RETURN JUMPDEST PUSH2 0x2A9 PUSH2 0xD2D JUMP JUMPDEST PUSH1 0x40 MLOAD PUSH2 0x2B6 SWAP2 SWAP1 PUSH2 0x1151 JUMP JUMPDEST PUSH1 0x40 MLOAD DUP1 SWAP2 SUB SWAP1 RETURN JUMPDEST PUSH2 0x2C7 PUSH2 0xD40 JUMP JUMPDEST PUSH1 0x40 MLOAD PUSH2 0x2D4 SWAP2 SWAP1 PUSH2 0x1457 JUMP JUMPDEST PUSH1 0x40 MLOAD DUP1 SWAP2 SUB SWAP1 RETURN JUMPDEST PUSH2 0x2F7 PUSH1 0x4 DUP1 CALLDATASIZE SUB DUP2 ADD SWAP1 PUSH2 0x2F2 SWAP2 SWAP1 PUSH2 0x1109 JUMP JUMPDEST PUSH2 0xD46 JUMP JUMPDEST PUSH1 0x40 MLOAD PUSH2 0x304 SWAP2 SWAP1 PUSH2 0x150E JUMP JUMPDEST PUSH1 0x40 MLOAD DUP1 SWAP2 SUB SWAP1 RETURN JUMPDEST PUSH2 0x315 PUSH2 0xDE6 JUMP JUMPDEST PUSH1 0x40 MLOAD PUSH2 0x322 SWAP2 SWAP1 PUSH2 0x1457 JUMP JUMPDEST PUSH1 0x40 MLOAD DUP1 SWAP2 SUB SWAP1 RETURN JUMPDEST PUSH2 0x333 PUSH2 0xDEC JUMP JUMPDEST STOP JUMPDEST PUSH2 0x33D PUSH2 0xE99 JUMP JUMPDEST PUSH1 0x40 MLOAD PUSH2 0x34A SWAP2 SWAP1 PUSH2 0x1457 JUMP JUMPDEST PUSH1 0x40 MLOAD DUP1 SWAP2 SUB SWAP1 RETURN JUMPDEST PUSH2 0x35B PUSH2 0xE9F JUMP JUMPDEST PUSH1 0x40 MLOAD PUSH2 0x368 SWAP2 SWAP1 PUSH2 0x150E JUMP JUMPDEST PUSH1 0x40 MLOAD DUP1 SWAP2 SUB SWAP1 RETURN JUMPDEST PUSH2 0x379 PUSH2 0xF2D JUMP JUMPDEST PUSH1 0x40 MLOAD PUSH2 0x386 SWAP2 SWAP1 PUSH2 0x1151 JUMP JUMPDEST PUSH1 0x40 MLOAD DUP1 SWAP2 SUB SWAP1 RETURN JUMPDEST PUSH1 0x0 PUSH1 0x1 ISZERO ISZERO PUSH1 0x9 PUSH1 0x0 SWAP1 SLOAD SWAP1 PUSH2 0x100 EXP SWAP1 DIV PUSH1 0xFF AND ISZERO ISZERO EQ PUSH2 0x3E7 JUMPI PUSH1 0x40 MLOAD PUSH32 0x8C379A000000000000000000000000000000000000000000000000000000000 DUP2 MSTORE PUSH1 0x4 ADD PUSH2 0x3DE SWAP1 PUSH2 0x15A2 JUMP JUMPDEST PUSH1 0x40 MLOAD DUP1 SWAP2 SUB SWAP1 REVERT JUMPDEST PUSH1 0x1 ISZERO ISZERO PUSH1 0xD PUSH1 0x0 SWAP1 SLOAD SWAP1 PUSH2 0x100 EXP SWAP1 DIV PUSH1 0xFF AND ISZERO ISZERO EQ PUSH2 0x43D JUMPI PUSH1 0x40 MLOAD PUSH32 0x8C379A000000000000000000000000000000000000000000000000000000000 DUP2 MSTORE PUSH1 0x4 ADD PUSH2 0x434 SWAP1 PUSH2 0x160E JUMP JUMPDEST PUSH1 0x40 MLOAD DUP1 SWAP2 SUB SWAP1 REVERT JUMPDEST PUSH1 0x0 SWAP1 POP PUSH1 0x0 PUSH1 0x1 PUSH1 0x0 CALLER PUSH20 0xFFFFFFFFFFFFFFFFFFFFFFFFFFFFFFFFFFFFFFFF AND PUSH20 0xFFFFFFFFFFFFFFFFFFFFFFFFFFFFFFFFFFFFFFFF AND DUP2 MSTORE PUSH1 0x20 ADD SWAP1 DUP2 MSTORE PUSH1 0x20 ADD PUSH1 0x0 KECCAK256 PUSH1 0x0 ADD DUP1 SLOAD PUSH2 0x490 SWAP1 PUSH2 0x165D JUMP JUMPDEST SWAP1 POP EQ ISZERO DUP1 ISZERO PUSH2 0x4ED JUMPI POP PUSH1 0x1 PUSH1 0x0 CALLER PUSH20 0xFFFFFFFFFFFFFFFFFFFFFFFFFFFFFFFFFFFFFFFF AND PUSH20 0xFFFFFFFFFFFFFFFFFFFFFFFFFFFFFFFFFFFFFFFF AND DUP2 MSTORE PUSH1 0x20 ADD SWAP1 DUP2 MSTORE PUSH1 0x20 ADD PUSH1 0x0 KECCAK256 PUSH1 0x1 ADD PUSH1 0x0 SWAP1 SLOAD SWAP1 PUSH2 0x100 EXP SWAP1 DIV PUSH1 0xFF AND ISZERO JUMPDEST DUP1 ISZERO PUSH2 0x4FB JUMPI POP PUSH1 0x1 PUSH1 0xA SLOAD EQ JUMPDEST ISZERO PUSH2 0x672 JUMPI PUSH1 0x0 DUP1 PUSH1 0x0 DUP5 DUP2 MSTORE PUSH1 0x20 ADD SWAP1 DUP2 MSTORE PUSH1 0x20 ADD PUSH1 0x0 KECCAK256 DUP1 SLOAD PUSH2 0x51F SWAP1 PUSH2 0x165D JUMP JUMPDEST SWAP1 POP EQ PUSH2 0x671 JUMPI PUSH1 0xC SLOAD NUMBER GT PUSH2 0x65F JUMPI PUSH1 0x1 SWAP1 POP PUSH1 0x1 DUP1 PUSH1 0x0 CALLER PUSH20 0xFFFFFFFFFFFFFFFFFFFFFFFFFFFFFFFFFFFFFFFF AND PUSH20 0xFFFFFFFFFFFFFFFFFFFFFFFFFFFFFFFFFFFFFFFF AND DUP2 MSTORE PUSH1 0x20 ADD SWAP1 DUP2 MSTORE PUSH1 0x20 ADD PUSH1 0x0 KECCAK256 PUSH1 0x1 ADD PUSH1 0x0 PUSH2 0x100 EXP DUP2 SLOAD DUP2 PUSH1 0xFF MUL NOT AND SWAP1 DUP4 ISZERO ISZERO MUL OR SWAP1 SSTORE POP PUSH2 0x595 PUSH2 0x1073 JUMP JUMPDEST CALLER DUP2 PUSH1 0x0 ADD SWAP1 PUSH20 0xFFFFFFFFFFFFFFFFFFFFFFFFFFFFFFFFFFFFFFFF AND SWAP1 DUP2 PUSH20 0xFFFFFFFFFFFFFFFFFFFFFFFFFFFFFFFFFFFFFFFF AND DUP2 MSTORE POP POP DUP3 DUP2 PUSH1 0x20 ADD DUP2 DUP2 MSTORE POP POP PUSH1 0x4 PUSH1 0x0 DUP2 SLOAD DUP1 SWAP3 SWAP2 SWAP1 PUSH2 0x5EA SWAP1 PUSH2 0x16BD JUMP JUMPDEST SWAP2 SWAP1 POP SSTORE POP DUP1 PUSH1 0x7 PUSH1 0x0 PUSH1 0x4 SLOAD DUP2 MSTORE PUSH1 0x20 ADD SWAP1 DUP2 MSTORE PUSH1 0x20 ADD PUSH1 0x0 KECCAK256 PUSH1 0x0 DUP3 ADD MLOAD DUP2 PUSH1 0x0 ADD PUSH1 0x0 PUSH2 0x100 EXP DUP2 SLOAD DUP2 PUSH20 0xFFFFFFFFFFFFFFFFFFFFFFFFFFFFFFFFFFFFFFFF MUL NOT AND SWAP1 DUP4 PUSH20 0xFFFFFFFFFFFFFFFFFFFFFFFFFFFFFFFFFFFFFFFF AND MUL OR SWAP1 SSTORE POP PUSH1 0x20 DUP3 ADD MLOAD DUP2 PUSH1 0x1 ADD SSTORE SWAP1 POP POP POP PUSH2 0x670 JUMP JUMPDEST PUSH1 0x2 PUSH1 0xA DUP2 SWAP1 SSTORE POP PUSH2 0x66F PUSH2 0xF40 JUMP JUMPDEST JUMPDEST JUMPDEST JUMPDEST PUSH1 0x1 PUSH1 0x2 PUSH1 0x3 SLOAD PUSH2 0x683 SWAP2 SWAP1 PUSH2 0x1734 JUMP JUMPDEST PUSH2 0x68D SWAP2 SWAP1 PUSH2 0x1765 JUMP JUMPDEST PUSH1 0x4 SLOAD LT PUSH2 0x69E JUMPI PUSH2 0x69D PUSH2 0xF40 JUMP JUMPDEST JUMPDEST SWAP2 SWAP1 POP JUMP JUMPDEST PUSH1 0x1 PUSH1 0x20 MSTORE DUP1 PUSH1 0x0 MSTORE PUSH1 0x40 PUSH1 0x0 KECCAK256 PUSH1 0x0 SWAP2 POP SWAP1 POP DUP1 PUSH1 0x0 ADD DUP1 SLOAD PUSH2 0x6C6 SWAP1 PUSH2 0x165D JUMP JUMPDEST DUP1 PUSH1 0x1F ADD PUSH1 0x20 DUP1 SWAP2 DIV MUL PUSH1 0x20 ADD PUSH1 0x40 MLOAD SWAP1 DUP2 ADD PUSH1 0x40 MSTORE DUP1 SWAP3 SWAP2 SWAP1 DUP2 DUP2 MSTORE PUSH1 0x20 ADD DUP3 DUP1 SLOAD PUSH2 0x6F2 SWAP1 PUSH2 0x165D JUMP JUMPDEST DUP1 ISZERO PUSH2 0x73F JUMPI DUP1 PUSH1 0x1F LT PUSH2 0x714 JUMPI PUSH2 0x100 DUP1 DUP4 SLOAD DIV MUL DUP4 MSTORE SWAP2 PUSH1 0x20 ADD SWAP2 PUSH2 0x73F JUMP JUMPDEST DUP3 ADD SWAP2 SWAP1 PUSH1 0x0 MSTORE PUSH1 0x20 PUSH1 0x0 KECCAK256 SWAP1 JUMPDEST DUP2 SLOAD DUP2 MSTORE SWAP1 PUSH1 0x1 ADD SWAP1 PUSH1 0x20 ADD DUP1 DUP4 GT PUSH2 0x722 JUMPI DUP3 SWAP1 SUB PUSH1 0x1F AND DUP3 ADD SWAP2 JUMPDEST POP POP POP POP POP SWAP1 DUP1 PUSH1 0x1 ADD PUSH1 0x0 SWAP1 SLOAD SWAP1 PUSH2 0x100 EXP SWAP1 DIV PUSH1 0xFF AND SWAP1 POP DUP3 JUMP JUMPDEST PUSH1 0x0 PUSH1 0x5 PUSH1 0x0 SWAP1 SLOAD SWAP1 PUSH2 0x100 EXP SWAP1 DIV PUSH20 0xFFFFFFFFFFFFFFFFFFFFFFFFFFFFFFFFFFFFFFFF AND PUSH20 0xFFFFFFFFFFFFFFFFFFFFFFFFFFFFFFFFFFFFFFFF AND CALLER PUSH20 0xFFFFFFFFFFFFFFFFFFFFFFFFFFFFFFFFFFFFFFFF AND EQ PUSH2 0x7EE JUMPI PUSH1 0x40 MLOAD PUSH32 0x8C379A000000000000000000000000000000000000000000000000000000000 DUP2 MSTORE PUSH1 0x4 ADD PUSH2 0x7E5 SWAP1 PUSH2 0x180B JUMP JUMPDEST PUSH1 0x40 MLOAD DUP1 SWAP2 SUB SWAP1 REVERT JUMPDEST PUSH1 0x1 ISZERO ISZERO PUSH1 0xD PUSH1 0x0 SWAP1 SLOAD SWAP1 PUSH2 0x100 EXP SWAP1 DIV PUSH1 0xFF AND ISZERO ISZERO EQ PUSH2 0x844 JUMPI PUSH1 0x40 MLOAD PUSH32 0x8C379A000000000000000000000000000000000000000000000000000000000 DUP2 MSTORE PUSH1 0x4 ADD PUSH2 0x83B SWAP1 PUSH2 0x160E JUMP JUMPDEST PUSH1 0x40 MLOAD DUP1 SWAP2 SUB SWAP1 REVERT JUMPDEST PUSH1 0x0 PUSH1 0x1 PUSH1 0x0 DUP6 PUSH20 0xFFFFFFFFFFFFFFFFFFFFFFFFFFFFFFFFFFFFFFFF AND PUSH20 0xFFFFFFFFFFFFFFFFFFFFFFFFFFFFFFFFFFFFFFFF AND DUP2 MSTORE PUSH1 0x20 ADD SWAP1 DUP2 MSTORE PUSH1 0x20 ADD PUSH1 0x0 KECCAK256 PUSH1 0x0 ADD DUP1 SLOAD PUSH2 0x893 SWAP1 PUSH2 0x165D JUMP JUMPDEST SWAP1 POP EQ DUP1 ISZERO PUSH2 0x8A4 JUMPI POP PUSH1 0x0 PUSH1 0xA SLOAD EQ JUMPDEST ISZERO PUSH2 0x967 JUMPI PUSH2 0x8B1 PUSH2 0x10A3 JUMP JUMPDEST DUP3 DUP2 PUSH1 0x0 ADD DUP2 SWAP1 MSTORE POP PUSH1 0x0 DUP2 PUSH1 0x20 ADD SWAP1 ISZERO ISZERO SWAP1 DUP2 ISZERO ISZERO DUP2 MSTORE POP POP DUP1 PUSH1 0x1 PUSH1 0x0 DUP7 PUSH20 0xFFFFFFFFFFFFFFFFFFFFFFFFFFFFFFFFFFFFFFFF AND PUSH20 0xFFFFFFFFFFFFFFFFFFFFFFFFFFFFFFFFFFFFFFFF AND DUP2 MSTORE PUSH1 0x20 ADD SWAP1 DUP2 MSTORE PUSH1 0x20 ADD PUSH1 0x0 KECCAK256 PUSH1 0x0 DUP3 ADD MLOAD DUP2 PUSH1 0x0 ADD SWAP1 DUP2 PUSH2 0x920 SWAP2 SWAP1 PUSH2 0x19D7 JUMP JUMPDEST POP PUSH1 0x20 DUP3 ADD MLOAD DUP2 PUSH1 0x1 ADD PUSH1 0x0 PUSH2 0x100 EXP DUP2 SLOAD DUP2 PUSH1 0xFF MUL NOT AND SWAP1 DUP4 ISZERO ISZERO MUL OR SWAP1 SSTORE POP SWAP1 POP POP PUSH1 0x3 PUSH1 0x0 DUP2 SLOAD DUP1 SWAP3 SWAP2 SWAP1 PUSH2 0x957 SWAP1 PUSH2 0x16BD JUMP JUMPDEST SWAP2 SWAP1 POP SSTORE POP PUSH1 0x3 SLOAD SWAP2 POP POP PUSH2 0x96D JUMP JUMPDEST PUSH1 0x3 SLOAD SWAP1 POP JUMPDEST SWAP3 SWAP2 POP POP JUMP JUMPDEST PUSH1 0x3 SLOAD DUP2 JUMP JUMPDEST PUSH1 0x5 PUSH1 0x0 SWAP1 SLOAD SWAP1 PUSH2 0x100 EXP SWAP1 DIV PUSH20 0xFFFFFFFFFFFFFFFFFFFFFFFFFFFFFFFFFFFFFFFF AND DUP2 JUMP JUMPDEST PUSH1 0x7 PUSH1 0x20 MSTORE DUP1 PUSH1 0x0 MSTORE PUSH1 0x40 PUSH1 0x0 KECCAK256 PUSH1 0x0 SWAP2 POP SWAP1 POP DUP1 PUSH1 0x0 ADD PUSH1 0x0 SWAP1 SLOAD SWAP1 PUSH2 0x100 EXP SWAP1 DIV PUSH20 0xFFFFFFFFFFFFFFFFFFFFFFFFFFFFFFFFFFFFFFFF AND SWAP1 DUP1 PUSH1 0x1 ADD SLOAD SWAP1 POP DUP3 JUMP JUMPDEST PUSH1 0x5 PUSH1 0x0 SWAP1 SLOAD SWAP1 PUSH2 0x100 EXP SWAP1 DIV PUSH20 0xFFFFFFFFFFFFFFFFFFFFFFFFFFFFFFFFFFFFFFFF AND PUSH20 0xFFFFFFFFFFFFFFFFFFFFFFFFFFFFFFFFFFFFFFFF AND CALLER PUSH20 0xFFFFFFFFFFFFFFFFFFFFFFFFFFFFFFFFFFFFFFFF AND EQ PUSH2 0xA73 JUMPI PUSH1 0x40 MLOAD PUSH32 0x8C379A000000000000000000000000000000000000000000000000000000000 DUP2 MSTORE PUSH1 0x4 ADD PUSH2 0xA6A SWAP1 PUSH2 0x180B JUMP JUMPDEST PUSH1 0x40 MLOAD DUP1 SWAP2 SUB SWAP1 REVERT JUMPDEST PUSH1 0x1 ISZERO ISZERO PUSH1 0xD PUSH1 0x0 SWAP1 SLOAD SWAP1 PUSH2 0x100 EXP SWAP1 DIV PUSH1 0xFF AND ISZERO ISZERO EQ PUSH2 0xAC9 JUMPI PUSH1 0x40 MLOAD PUSH32 0x8C379A000000000000000000000000000000000000000000000000000000000 DUP2 MSTORE PUSH1 0x4 ADD PUSH2 0xAC0 SWAP1 PUSH2 0x160E JUMP JUMPDEST PUSH1 0x40 MLOAD DUP1 SWAP2 SUB SWAP1 REVERT JUMPDEST PUSH1 0x0 PUSH1 0xA SLOAD SUB PUSH2 0xAEE JUMPI PUSH1 0x1 PUSH1 0xA DUP2 SWAP1 SSTORE POP DUP1 NUMBER PUSH2 0xAE7 SWAP2 SWAP1 PUSH2 0x1765 JUMP JUMPDEST PUSH1 0xC DUP2 SWAP1 SSTORE POP JUMPDEST POP JUMP JUMPDEST PUSH1 0xA SLOAD DUP2 JUMP JUMPDEST PUSH1 0x0 PUSH1 0x5 PUSH1 0x0 SWAP1 SLOAD SWAP1 PUSH2 0x100 EXP SWAP1 DIV PUSH20 0xFFFFFFFFFFFFFFFFFFFFFFFFFFFFFFFFFFFFFFFF AND PUSH20 0xFFFFFFFFFFFFFFFFFFFFFFFFFFFFFFFFFFFFFFFF AND CALLER PUSH20 0xFFFFFFFFFFFFFFFFFFFFFFFFFFFFFFFFFFFFFFFF AND EQ PUSH2 0xB89 JUMPI PUSH1 0x40 MLOAD PUSH32 0x8C379A000000000000000000000000000000000000000000000000000000000 DUP2 MSTORE PUSH1 0x4 ADD PUSH2 0xB80 SWAP1 PUSH2 0x180B JUMP JUMPDEST PUSH1 0x40 MLOAD DUP1 SWAP2 SUB SWAP1 REVERT JUMPDEST PUSH1 0x1 ISZERO ISZERO PUSH1 0xD PUSH1 0x0 SWAP1 SLOAD SWAP1 PUSH2 0x100 EXP SWAP1 DIV PUSH1 0xFF AND ISZERO ISZERO EQ PUSH2 0xBDF JUMPI PUSH1 0x40 MLOAD PUSH32 0x8C379A000000000000000000000000000000000000000000000000000000000 DUP2 MSTORE PUSH1 0x4 ADD PUSH2 0xBD6 SWAP1 PUSH2 0x160E JUMP JUMPDEST PUSH1 0x40 MLOAD DUP1 SWAP2 SUB SWAP1 REVERT JUMPDEST PUSH1 0x0 PUSH1 0x1 SWAP1 POP JUMPDEST PUSH1 0x2 SLOAD DUP2 GT PUSH2 0xC82 JUMPI DUP3 PUSH1 0x40 MLOAD PUSH1 0x20 ADD PUSH2 0xC00 SWAP2 SWAP1 PUSH2 0x1AE5 JUMP JUMPDEST PUSH1 0x40 MLOAD PUSH1 0x20 DUP2 DUP4 SUB SUB DUP2 MSTORE SWAP1 PUSH1 0x40 MSTORE DUP1 MLOAD SWAP1 PUSH1 0x20 ADD KECCAK256 PUSH1 0x0 DUP1 DUP4 DUP2 MSTORE PUSH1 0x20 ADD SWAP1 DUP2 MSTORE PUSH1 0x20 ADD PUSH1 0x0 KECCAK256 PUSH1 0x40 MLOAD PUSH1 0x20 ADD PUSH2 0xC38 SWAP2 SWAP1 PUSH2 0x1B7F JUMP JUMPDEST PUSH1 0x40 MLOAD PUSH1 0x20 DUP2 DUP4 SUB SUB DUP2 MSTORE SWAP1 PUSH1 0x40 MSTORE DUP1 MLOAD SWAP1 PUSH1 0x20 ADD KECCAK256 SUB PUSH2 0xC6F JUMPI PUSH1 0x1 PUSH1 0xB PUSH1 0x0 PUSH2 0x100 EXP DUP2 SLOAD DUP2 PUSH1 0xFF MUL NOT AND SWAP1 DUP4 ISZERO ISZERO MUL OR SWAP1 SSTORE POP JUMPDEST DUP1 DUP1 PUSH2 0xC7A SWAP1 PUSH2 0x16BD JUMP JUMPDEST SWAP2 POP POP PUSH2 0xBE6 JUMP JUMPDEST POP PUSH1 0x0 ISZERO ISZERO PUSH1 0xB PUSH1 0x0 SWAP1 SLOAD SWAP1 PUSH2 0x100 EXP SWAP1 DIV PUSH1 0xFF AND ISZERO ISZERO EQ DUP1 ISZERO PUSH2 0xCA8 JUMPI POP PUSH1 0x0 PUSH1 0xA SLOAD EQ JUMPDEST DUP1 ISZERO PUSH2 0xCB5 JUMPI POP PUSH1 0x0 DUP3 MLOAD GT JUMPDEST ISZERO PUSH2 0xCF5 JUMPI PUSH1 0x2 PUSH1 0x0 DUP2 SLOAD DUP1 SWAP3 SWAP2 SWAP1 PUSH2 0xCCD SWAP1 PUSH2 0x16BD JUMP JUMPDEST SWAP2 SWAP1 POP SSTORE POP DUP2 PUSH1 0x0 DUP1 PUSH1 0x2 SLOAD DUP2 MSTORE PUSH1 0x20 ADD SWAP1 DUP2 MSTORE PUSH1 0x20 ADD PUSH1 0x0 KECCAK256 SWAP1 DUP2 PUSH2 0xCF3 SWAP2 SWAP1 PUSH2 0x19D7 JUMP JUMPDEST POP JUMPDEST PUSH1 0x0 PUSH1 0xB PUSH1 0x0 PUSH2 0x100 EXP DUP2 SLOAD DUP2 PUSH1 0xFF MUL NOT AND SWAP1 DUP4 ISZERO ISZERO MUL OR SWAP1 SSTORE POP PUSH1 0x2 SLOAD SWAP1 POP SWAP2 SWAP1 POP JUMP JUMPDEST PUSH1 0xB PUSH1 0x0 SWAP1 SLOAD SWAP1 PUSH2 0x100 EXP SWAP1 DIV PUSH1 0xFF AND DUP2 JUMP JUMPDEST PUSH1 0x9 PUSH1 0x0 SWAP1 SLOAD SWAP1 PUSH2 0x100 EXP SWAP1 DIV PUSH1 0xFF AND DUP2 JUMP JUMPDEST PUSH1 0x4 SLOAD DUP2 JUMP JUMPDEST PUSH1 0x0 PUSH1 0x20 MSTORE DUP1 PUSH1 0x0 MSTORE PUSH1 0x40 PUSH1 0x0 KECCAK256 PUSH1 0x0 SWAP2 POP SWAP1 POP DUP1 SLOAD PUSH2 0xD65 SWAP1 PUSH2 0x165D JUMP JUMPDEST DUP1 PUSH1 0x1F ADD PUSH1 0x20 DUP1 SWAP2 DIV MUL PUSH1 0x20 ADD PUSH1 0x40 MLOAD SWAP1 DUP2 ADD PUSH1 0x40 MSTORE DUP1 SWAP3 SWAP2 SWAP1 DUP2 DUP2 MSTORE PUSH1 0x20 ADD DUP3 DUP1 SLOAD PUSH2 0xD91 SWAP1 PUSH2 0x165D JUMP JUMPDEST DUP1 ISZERO PUSH2 0xDDE JUMPI DUP1 PUSH1 0x1F LT PUSH2 0xDB3 JUMPI PUSH2 0x100 DUP1 DUP4 SLOAD DIV MUL DUP4 MSTORE SWAP2 PUSH1 0x20 ADD SWAP2 PUSH2 0xDDE JUMP JUMPDEST DUP3 ADD SWAP2 SWAP1 PUSH1 0x0 MSTORE PUSH1 0x20 PUSH1 0x0 KECCAK256 SWAP1 JUMPDEST DUP2 SLOAD DUP2 MSTORE SWAP1 PUSH1 0x1 ADD SWAP1 PUSH1 0x20 ADD DUP1 DUP4 GT PUSH2 0xDC1 JUMPI DUP3 SWAP1 SUB PUSH1 0x1F AND DUP3 ADD SWAP2 JUMPDEST POP POP POP POP POP DUP2 JUMP JUMPDEST PUSH1 0x2 SLOAD DUP2 JUMP JUMPDEST PUSH1 0x5 PUSH1 0x0 SWAP1 SLOAD SWAP1 PUSH2 0x100 EXP SWAP1 DIV PUSH20 0xFFFFFFFFFFFFFFFFFFFFFFFFFFFFFFFFFFFFFFFF AND PUSH20 0xFFFFFFFFFFFFFFFFFFFFFFFFFFFFFFFFFFFFFFFF AND CALLER PUSH20 0xFFFFFFFFFFFFFFFFFFFFFFFFFFFFFFFFFFFFFFFF AND EQ PUSH2 0xE7C JUMPI PUSH1 0x40 MLOAD PUSH32 0x8C379A000000000000000000000000000000000000000000000000000000000 DUP2 MSTORE PUSH1 0x4 ADD PUSH2 0xE73 SWAP1 PUSH2 0x180B JUMP JUMPDEST PUSH1 0x40 MLOAD DUP1 SWAP2 SUB SWAP1 REVERT JUMPDEST PUSH1 0x0 PUSH1 0xD PUSH1 0x0 PUSH2 0x100 EXP DUP2 SLOAD DUP2 PUSH1 0xFF MUL NOT AND SWAP1 DUP4 ISZERO ISZERO MUL OR SWAP1 SSTORE POP JUMP JUMPDEST PUSH1 0xC SLOAD DUP2 JUMP JUMPDEST PUSH1 0x6 DUP1 SLOAD PUSH2 0xEAC SWAP1 PUSH2 0x165D JUMP JUMPDEST DUP1 PUSH1 0x1F ADD PUSH1 0x20 DUP1 SWAP2 DIV MUL PUSH1 0x20 ADD PUSH1 0x40 MLOAD SWAP1 DUP2 ADD PUSH1 0x40 MSTORE DUP1 SWAP3 SWAP2 SWAP1 DUP2 DUP2 MSTORE PUSH1 0x20 ADD DUP3 DUP1 SLOAD PUSH2 0xED8 SWAP1 PUSH2 0x165D JUMP JUMPDEST DUP1 ISZERO PUSH2 0xF25 JUMPI DUP1 PUSH1 0x1F LT PUSH2 0xEFA JUMPI PUSH2 0x100 DUP1 DUP4 SLOAD DIV MUL DUP4 MSTORE SWAP2 PUSH1 0x20 ADD SWAP2 PUSH2 0xF25 JUMP JUMPDEST DUP3 ADD SWAP2 SWAP1 PUSH1 0x0 MSTORE PUSH1 0x20 PUSH1 0x0 KECCAK256 SWAP1 JUMPDEST DUP2 SLOAD DUP2 MSTORE SWAP1 PUSH1 0x1 ADD SWAP1 PUSH1 0x20 ADD DUP1 DUP4 GT PUSH2 0xF08 JUMPI DUP3 SWAP1 SUB PUSH1 0x1F AND DUP3 ADD SWAP2 JUMPDEST POP POP POP POP POP DUP2 JUMP JUMPDEST PUSH1 0xD PUSH1 0x0 SWAP1 SLOAD SWAP1 PUSH2 0x100 EXP SWAP1 DIV PUSH1 0xFF AND DUP2 JUMP JUMPDEST PUSH1 0x0 DUP1 PUSH1 0x2 PUSH1 0xA DUP2 SWAP1 SSTORE POP PUSH1 0x0 PUSH1 0x1 SWAP1 POP JUMPDEST PUSH1 0x4 SLOAD DUP2 GT PUSH2 0x1032 JUMPI PUSH1 0x0 PUSH1 0x1 SWAP1 POP PUSH1 0x0 PUSH1 0x8 PUSH1 0x0 PUSH1 0x7 PUSH1 0x0 DUP7 DUP2 MSTORE PUSH1 0x20 ADD SWAP1 DUP2 MSTORE PUSH1 0x20 ADD PUSH1 0x0 KECCAK256 PUSH1 0x1 ADD SLOAD DUP2 MSTORE PUSH1 0x20 ADD SWAP1 DUP2 MSTORE PUSH1 0x20 ADD PUSH1 0x0 KECCAK256 SLOAD GT ISZERO PUSH2 0xFCB JUMPI PUSH1 0x8 PUSH1 0x0 PUSH1 0x7 PUSH1 0x0 DUP6 DUP2 MSTORE PUSH1 0x20 ADD SWAP1 DUP2 MSTORE PUSH1 0x20 ADD PUSH1 0x0 KECCAK256 PUSH1 0x1 ADD SLOAD DUP2 MSTORE PUSH1 0x20 ADD SWAP1 DUP2 MSTORE PUSH1 0x20 ADD PUSH1 0x0 KECCAK256 SLOAD DUP2 PUSH2 0xFC8 SWAP2 SWAP1 PUSH2 0x1765 JUMP JUMPDEST SWAP1 POP JUMPDEST DUP1 PUSH1 0x8 PUSH1 0x0 PUSH1 0x7 PUSH1 0x0 DUP7 DUP2 MSTORE PUSH1 0x20 ADD SWAP1 DUP2 MSTORE PUSH1 0x20 ADD PUSH1 0x0 KECCAK256 PUSH1 0x1 ADD SLOAD DUP2 MSTORE PUSH1 0x20 ADD SWAP1 DUP2 MSTORE PUSH1 0x20 ADD PUSH1 0x0 KECCAK256 DUP2 SWAP1 SSTORE POP DUP4 DUP2 GT ISZERO PUSH2 0x101E JUMPI DUP1 SWAP4 POP PUSH1 0x7 PUSH1 0x0 DUP4 DUP2 MSTORE PUSH1 0x20 ADD SWAP1 DUP2 MSTORE PUSH1 0x20 ADD PUSH1 0x0 KECCAK256 PUSH1 0x1 ADD SLOAD SWAP3 POP JUMPDEST POP DUP1 DUP1 PUSH2 0x102A SWAP1 PUSH2 0x16BD JUMP JUMPDEST SWAP2 POP POP PUSH2 0xF52 JUMP JUMPDEST POP PUSH1 0x0 DUP1 DUP3 DUP2 MSTORE PUSH1 0x20 ADD SWAP1 DUP2 MSTORE PUSH1 0x20 ADD PUSH1 0x0 KECCAK256 PUSH1 0x6 SWAP1 DUP2 PUSH2 0x1053 SWAP2 SWAP1 PUSH2 0x1BC1 JUMP JUMPDEST POP PUSH1 0x0 PUSH1 0x9 PUSH1 0x0 PUSH2 0x100 EXP DUP2 SLOAD DUP2 PUSH1 0xFF MUL NOT AND SWAP1 DUP4 ISZERO ISZERO MUL OR SWAP1 SSTORE POP POP POP JUMP JUMPDEST PUSH1 0x40 MLOAD DUP1 PUSH1 0x40 ADD PUSH1 0x40 MSTORE DUP1 PUSH1 0x0 PUSH20 0xFFFFFFFFFFFFFFFFFFFFFFFFFFFFFFFFFFFFFFFF AND DUP2 MSTORE PUSH1 0x20 ADD PUSH1 0x0 DUP2 MSTORE POP SWAP1 JUMP JUMPDEST PUSH1 0x40 MLOAD DUP1 PUSH1 0x40 ADD PUSH1 0x40 MSTORE DUP1 PUSH1 0x60 DUP2 MSTORE PUSH1 0x20 ADD PUSH1 0x0 ISZERO ISZERO DUP2 MSTORE POP SWAP1 JUMP JUMPDEST PUSH1 0x0 PUSH1 0x40 MLOAD SWAP1 POP SWAP1 JUMP JUMPDEST PUSH1 0x0 DUP1 REVERT JUMPDEST PUSH1 0x0 DUP1 REVERT JUMPDEST PUSH1 0x0 DUP2 SWAP1 POP SWAP2 SWAP1 POP JUMP JUMPDEST PUSH2 0x10E6 DUP2 PUSH2 0x10D3 JUMP JUMPDEST DUP2 EQ PUSH2 0x10F1 JUMPI PUSH1 0x0 DUP1 REVERT JUMPDEST POP JUMP JUMPDEST PUSH1 0x0 DUP2 CALLDATALOAD SWAP1 POP PUSH2 0x1103 DUP2 PUSH2 0x10DD JUMP JUMPDEST SWAP3 SWAP2 POP POP JUMP JUMPDEST PUSH1 0x0 PUSH1 0x20 DUP3 DUP5 SUB SLT ISZERO PUSH2 0x111F JUMPI PUSH2 0x111E PUSH2 0x10C9 JUMP JUMPDEST JUMPDEST PUSH1 0x0 PUSH2 0x112D DUP5 DUP3 DUP6 ADD PUSH2 0x10F4 JUMP JUMPDEST SWAP2 POP POP SWAP3 SWAP2 POP POP JUMP JUMPDEST PUSH1 0x0 DUP2 ISZERO ISZERO SWAP1 POP SWAP2 SWAP1 POP JUMP JUMPDEST PUSH2 0x114B DUP2 PUSH2 0x1136 JUMP JUMPDEST DUP3 MSTORE POP POP JUMP JUMPDEST PUSH1 0x0 PUSH1 0x20 DUP3 ADD SWAP1 POP PUSH2 0x1166 PUSH1 0x0 DUP4 ADD DUP5 PUSH2 0x1142 JUMP JUMPDEST SWAP3 SWAP2 POP POP JUMP JUMPDEST PUSH1 0x0 PUSH20 0xFFFFFFFFFFFFFFFFFFFFFFFFFFFFFFFFFFFFFFFF DUP3 AND SWAP1 POP SWAP2 SWAP1 POP JUMP JUMPDEST PUSH1 0x0 PUSH2 0x1197 DUP3 PUSH2 0x116C JUMP JUMPDEST SWAP1 POP SWAP2 SWAP1 POP JUMP JUMPDEST PUSH2 0x11A7 DUP2 PUSH2 0x118C JUMP JUMPDEST DUP2 EQ PUSH2 0x11B2 JUMPI PUSH1 0x0 DUP1 REVERT JUMPDEST POP JUMP JUMPDEST PUSH1 0x0 DUP2 CALLDATALOAD SWAP1 POP PUSH2 0x11C4 DUP2 PUSH2 0x119E JUMP JUMPDEST SWAP3 SWAP2 POP POP JUMP JUMPDEST PUSH1 0x0 PUSH1 0x20 DUP3 DUP5 SUB SLT ISZERO PUSH2 0x11E0 JUMPI PUSH2 0x11DF PUSH2 0x10C9 JUMP JUMPDEST JUMPDEST PUSH1 0x0 PUSH2 0x11EE DUP5 DUP3 DUP6 ADD PUSH2 0x11B5 JUMP JUMPDEST SWAP2 POP POP SWAP3 SWAP2 POP POP JUMP JUMPDEST PUSH1 0x0 DUP2 MLOAD SWAP1 POP SWAP2 SWAP1 POP JUMP JUMPDEST PUSH1 0x0 DUP3 DUP3 MSTORE PUSH1 0x20 DUP3 ADD SWAP1 POP SWAP3 SWAP2 POP POP JUMP JUMPDEST PUSH1 0x0 JUMPDEST DUP4 DUP2 LT ISZERO PUSH2 0x1231 JUMPI DUP1 DUP3 ADD MLOAD DUP2 DUP5 ADD MSTORE PUSH1 0x20 DUP2 ADD SWAP1 POP PUSH2 0x1216 JUMP JUMPDEST PUSH1 0x0 DUP5 DUP5 ADD MSTORE POP POP POP POP JUMP JUMPDEST PUSH1 0x0 PUSH1 0x1F NOT PUSH1 0x1F DUP4 ADD AND SWAP1 POP SWAP2 SWAP1 POP JUMP JUMPDEST PUSH1 0x0 PUSH2 0x1259 DUP3 PUSH2 0x11F7 JUMP JUMPDEST PUSH2 0x1263 DUP2 DUP6 PUSH2 0x1202 JUMP JUMPDEST SWAP4 POP PUSH2 0x1273 DUP2 DUP6 PUSH1 0x20 DUP7 ADD PUSH2 0x1213 JUMP JUMPDEST PUSH2 0x127C DUP2 PUSH2 0x123D JUMP JUMPDEST DUP5 ADD SWAP2 POP POP SWAP3 SWAP2 POP POP JUMP JUMPDEST PUSH1 0x0 PUSH1 0x40 DUP3 ADD SWAP1 POP DUP2 DUP2 SUB PUSH1 0x0 DUP4 ADD MSTORE PUSH2 0x12A1 DUP2 DUP6 PUSH2 0x124E JUMP JUMPDEST SWAP1 POP PUSH2 0x12B0 PUSH1 0x20 DUP4 ADD DUP5 PUSH2 0x1142 JUMP JUMPDEST SWAP4 SWAP3 POP POP POP JUMP JUMPDEST PUSH1 0x0 DUP1 REVERT JUMPDEST PUSH1 0x0 DUP1 REVERT JUMPDEST PUSH32 0x4E487B7100000000000000000000000000000000000000000000000000000000 PUSH1 0x0 MSTORE PUSH1 0x41 PUSH1 0x4 MSTORE PUSH1 0x24 PUSH1 0x0 REVERT JUMPDEST PUSH2 0x12F9 DUP3 PUSH2 0x123D JUMP JUMPDEST DUP2 ADD DUP2 DUP2 LT PUSH8 0xFFFFFFFFFFFFFFFF DUP3 GT OR ISZERO PUSH2 0x1318 JUMPI PUSH2 0x1317 PUSH2 0x12C1 JUMP JUMPDEST JUMPDEST DUP1 PUSH1 0x40 MSTORE POP POP POP JUMP JUMPDEST PUSH1 0x0 PUSH2 0x132B PUSH2 0x10BF JUMP JUMPDEST SWAP1 POP PUSH2 0x1337 DUP3 DUP3 PUSH2 0x12F0 JUMP JUMPDEST SWAP2 SWAP1 POP JUMP JUMPDEST PUSH1 0x0 PUSH8 0xFFFFFFFFFFFFFFFF DUP3 GT ISZERO PUSH2 0x1357 JUMPI PUSH2 0x1356 PUSH2 0x12C1 JUMP JUMPDEST JUMPDEST PUSH2 0x1360 DUP3 PUSH2 0x123D JUMP JUMPDEST SWAP1 POP PUSH1 0x20 DUP2 ADD SWAP1 POP SWAP2 SWAP1 POP JUMP JUMPDEST DUP3 DUP2 DUP4 CALLDATACOPY PUSH1 0x0 DUP4 DUP4 ADD MSTORE POP POP POP JUMP JUMPDEST PUSH1 0x0 PUSH2 0x138F PUSH2 0x138A DUP5 PUSH2 0x133C JUMP JUMPDEST PUSH2 0x1321 JUMP JUMPDEST SWAP1 POP DUP3 DUP2 MSTORE PUSH1 0x20 DUP2 ADD DUP5 DUP5 DUP5 ADD GT ISZERO PUSH2 0x13AB JUMPI PUSH2 0x13AA PUSH2 0x12BC JUMP JUMPDEST JUMPDEST PUSH2 0x13B6 DUP5 DUP3 DUP6 PUSH2 0x136D JUMP JUMPDEST POP SWAP4 SWAP3 POP POP POP JUMP JUMPDEST PUSH1 0x0 DUP3 PUSH1 0x1F DUP4 ADD SLT PUSH2 0x13D3 JUMPI PUSH2 0x13D2 PUSH2 0x12B7 JUMP JUMPDEST JUMPDEST DUP2 CALLDATALOAD PUSH2 0x13E3 DUP5 DUP3 PUSH1 0x20 DUP7 ADD PUSH2 0x137C JUMP JUMPDEST SWAP2 POP POP SWAP3 SWAP2 POP POP JUMP JUMPDEST PUSH1 0x0 DUP1 PUSH1 0x40 DUP4 DUP6 SUB SLT ISZERO PUSH2 0x1403 JUMPI PUSH2 0x1402 PUSH2 0x10C9 JUMP JUMPDEST JUMPDEST PUSH1 0x0 PUSH2 0x1411 DUP6 DUP3 DUP7 ADD PUSH2 0x11B5 JUMP JUMPDEST SWAP3 POP POP PUSH1 0x20 DUP4 ADD CALLDATALOAD PUSH8 0xFFFFFFFFFFFFFFFF DUP2 GT ISZERO PUSH2 0x1432 JUMPI PUSH2 0x1431 PUSH2 0x10CE JUMP JUMPDEST JUMPDEST PUSH2 0x143E DUP6 DUP3 DUP7 ADD PUSH2 0x13BE JUMP JUMPDEST SWAP2 POP POP SWAP3 POP SWAP3 SWAP1 POP JUMP JUMPDEST PUSH2 0x1451 DUP2 PUSH2 0x10D3 JUMP JUMPDEST DUP3 MSTORE POP POP JUMP JUMPDEST PUSH1 0x0 PUSH1 0x20 DUP3 ADD SWAP1 POP PUSH2 0x146C PUSH1 0x0 DUP4 ADD DUP5 PUSH2 0x1448 JUMP JUMPDEST SWAP3 SWAP2 POP POP JUMP JUMPDEST PUSH2 0x147B DUP2 PUSH2 0x118C JUMP JUMPDEST DUP3 MSTORE POP POP JUMP JUMPDEST PUSH1 0x0 PUSH1 0x20 DUP3 ADD SWAP1 POP PUSH2 0x1496 PUSH1 0x0 DUP4 ADD DUP5 PUSH2 0x1472 JUMP JUMPDEST SWAP3 SWAP2 POP POP JUMP JUMPDEST PUSH1 0x0 PUSH1 0x40 DUP3 ADD SWAP1 POP PUSH2 0x14B1 PUSH1 0x0 DUP4 ADD DUP6 PUSH2 0x1472 JUMP JUMPDEST PUSH2 0x14BE PUSH1 0x20 DUP4 ADD DUP5 PUSH2 0x1448 JUMP JUMPDEST SWAP4 SWAP3 POP POP POP JUMP JUMPDEST PUSH1 0x0 PUSH1 0x20 DUP3 DUP5 SUB SLT ISZERO PUSH2 0x14DB JUMPI PUSH2 0x14DA PUSH2 0x10C9 JUMP JUMPDEST JUMPDEST PUSH1 0x0 DUP3 ADD CALLDATALOAD PUSH8 0xFFFFFFFFFFFFFFFF DUP2 GT ISZERO PUSH2 0x14F9 JUMPI PUSH2 0x14F8 PUSH2 0x10CE JUMP JUMPDEST JUMPDEST PUSH2 0x1505 DUP5 DUP3 DUP6 ADD PUSH2 0x13BE JUMP JUMPDEST SWAP2 POP POP SWAP3 SWAP2 POP POP JUMP JUMPDEST PUSH1 0x0 PUSH1 0x20 DUP3 ADD SWAP1 POP DUP2 DUP2 SUB PUSH1 0x0 DUP4 ADD MSTORE PUSH2 0x1528 DUP2 DUP5 PUSH2 0x124E JUMP JUMPDEST SWAP1 POP SWAP3 SWAP2 POP POP JUMP JUMPDEST PUSH32 0x43616E20766F7465206F6E6C79207768696C6520766F74696E67206973206F70 PUSH1 0x0 DUP3 ADD MSTORE PUSH32 0x656E2E0000000000000000000000000000000000000000000000000000000000 PUSH1 0x20 DUP3 ADD MSTORE POP JUMP JUMPDEST PUSH1 0x0 PUSH2 0x158C PUSH1 0x23 DUP4 PUSH2 0x1202 JUMP JUMPDEST SWAP2 POP PUSH2 0x1597 DUP3 PUSH2 0x1530 JUMP JUMPDEST PUSH1 0x40 DUP3 ADD SWAP1 POP SWAP2 SWAP1 POP JUMP JUMPDEST PUSH1 0x0 PUSH1 0x20 DUP3 ADD SWAP1 POP DUP2 DUP2 SUB PUSH1 0x0 DUP4 ADD MSTORE PUSH2 0x15BB DUP2 PUSH2 0x157F JUMP JUMPDEST SWAP1 POP SWAP2 SWAP1 POP JUMP JUMPDEST PUSH32 0x54686520636F6E7472616374206E6565647320746F206265206163746976652E PUSH1 0x0 DUP3 ADD MSTORE POP JUMP JUMPDEST PUSH1 0x0 PUSH2 0x15F8 PUSH1 0x20 DUP4 PUSH2 0x1202 JUMP JUMPDEST SWAP2 POP PUSH2 0x1603 DUP3 PUSH2 0x15C2 JUMP JUMPDEST PUSH1 0x20 DUP3 ADD SWAP1 POP SWAP2 SWAP1 POP JUMP JUMPDEST PUSH1 0x0 PUSH1 0x20 DUP3 ADD SWAP1 POP DUP2 DUP2 SUB PUSH1 0x0 DUP4 ADD MSTORE PUSH2 0x1627 DUP2 PUSH2 0x15EB JUMP JUMPDEST SWAP1 POP SWAP2 SWAP1 POP JUMP JUMPDEST PUSH32 0x4E487B7100000000000000000000000000000000000000000000000000000000 PUSH1 0x0 MSTORE PUSH1 0x22 PUSH1 0x4 MSTORE PUSH1 0x24 PUSH1 0x0 REVERT JUMPDEST PUSH1 0x0 PUSH1 0x2 DUP3 DIV SWAP1 POP PUSH1 0x1 DUP3 AND DUP1 PUSH2 0x1675 JUMPI PUSH1 0x7F DUP3 AND SWAP2 POP JUMPDEST PUSH1 0x20 DUP3 LT DUP2 SUB PUSH2 0x1688 JUMPI PUSH2 0x1687 PUSH2 0x162E JUMP JUMPDEST JUMPDEST POP SWAP2 SWAP1 POP JUMP JUMPDEST PUSH32 0x4E487B7100000000000000000000000000000000000000000000000000000000 PUSH1 0x0 MSTORE PUSH1 0x11 PUSH1 0x4 MSTORE PUSH1 0x24 PUSH1 0x0 REVERT JUMPDEST PUSH1 0x0 PUSH2 0x16C8 DUP3 PUSH2 0x10D3 JUMP JUMPDEST SWAP2 POP PUSH32 0xFFFFFFFFFFFFFFFFFFFFFFFFFFFFFFFFFFFFFFFFFFFFFFFFFFFFFFFFFFFFFFFF DUP3 SUB PUSH2 0x16FA JUMPI PUSH2 0x16F9 PUSH2 0x168E JUMP JUMPDEST JUMPDEST PUSH1 0x1 DUP3 ADD SWAP1 POP SWAP2 SWAP1 POP JUMP JUMPDEST PUSH32 0x4E487B7100000000000000000000000000000000000000000000000000000000 PUSH1 0x0 MSTORE PUSH1 0x12 PUSH1 0x4 MSTORE PUSH1 0x24 PUSH1 0x0 REVERT JUMPDEST PUSH1 0x0 PUSH2 0x173F DUP3 PUSH2 0x10D3 JUMP JUMPDEST SWAP2 POP PUSH2 0x174A DUP4 PUSH2 0x10D3 JUMP JUMPDEST SWAP3 POP DUP3 PUSH2 0x175A JUMPI PUSH2 0x1759 PUSH2 0x1705 JUMP JUMPDEST JUMPDEST DUP3 DUP3 DIV SWAP1 POP SWAP3 SWAP2 POP POP JUMP JUMPDEST PUSH1 0x0 PUSH2 0x1770 DUP3 PUSH2 0x10D3 JUMP JUMPDEST SWAP2 POP PUSH2 0x177B DUP4 PUSH2 0x10D3 JUMP JUMPDEST SWAP3 POP DUP3 DUP3 ADD SWAP1 POP DUP1 DUP3 GT ISZERO PUSH2 0x1793 JUMPI PUSH2 0x1792 PUSH2 0x168E JUMP JUMPDEST JUMPDEST SWAP3 SWAP2 POP POP JUMP JUMPDEST PUSH32 0x43616E206F6E6C7920626520657865637574656420627920746865206D616E61 PUSH1 0x0 DUP3 ADD MSTORE PUSH32 0x6765720000000000000000000000000000000000000000000000000000000000 PUSH1 0x20 DUP3 ADD MSTORE POP JUMP JUMPDEST PUSH1 0x0 PUSH2 0x17F5 PUSH1 0x23 DUP4 PUSH2 0x1202 JUMP JUMPDEST SWAP2 POP PUSH2 0x1800 DUP3 PUSH2 0x1799 JUMP JUMPDEST PUSH1 0x40 DUP3 ADD SWAP1 POP SWAP2 SWAP1 POP JUMP JUMPDEST PUSH1 0x0 PUSH1 0x20 DUP3 ADD SWAP1 POP DUP2 DUP2 SUB PUSH1 0x0 DUP4 ADD MSTORE PUSH2 0x1824 DUP2 PUSH2 0x17E8 JUMP JUMPDEST SWAP1 POP SWAP2 SWAP1 POP JUMP JUMPDEST PUSH1 0x0 DUP2 SWAP1 POP DUP2 PUSH1 0x0 MSTORE PUSH1 0x20 PUSH1 0x0 KECCAK256 SWAP1 POP SWAP2 SWAP1 POP JUMP JUMPDEST PUSH1 0x0 PUSH1 0x20 PUSH1 0x1F DUP4 ADD DIV SWAP1 POP SWAP2 SWAP1 POP JUMP JUMPDEST PUSH1 0x0 DUP3 DUP3 SHL SWAP1 POP SWAP3 SWAP2 POP POP JUMP JUMPDEST PUSH1 0x0 PUSH1 0x8 DUP4 MUL PUSH2 0x188D PUSH32 0xFFFFFFFFFFFFFFFFFFFFFFFFFFFFFFFFFFFFFFFFFFFFFFFFFFFFFFFFFFFFFFFF DUP3 PUSH2 0x1850 JUMP JUMPDEST PUSH2 0x1897 DUP7 DUP4 PUSH2 0x1850 JUMP JUMPDEST SWAP6 POP DUP1 NOT DUP5 AND SWAP4 POP DUP1 DUP7 AND DUP5 OR SWAP3 POP POP POP SWAP4 SWAP3 POP POP POP JUMP JUMPDEST PUSH1 0x0 DUP2 SWAP1 POP SWAP2 SWAP1 POP JUMP JUMPDEST PUSH1 0x0 PUSH2 0x18D4 PUSH2 0x18CF PUSH2 0x18CA DUP5 PUSH2 0x10D3 JUMP JUMPDEST PUSH2 0x18AF JUMP JUMPDEST PUSH2 0x10D3 JUMP JUMPDEST SWAP1 POP SWAP2 SWAP1 POP JUMP JUMPDEST PUSH1 0x0 DUP2 SWAP1 POP SWAP2 SWAP1 POP JUMP JUMPDEST PUSH2 0x18EE DUP4 PUSH2 0x18B9 JUMP JUMPDEST PUSH2 0x1902 PUSH2 0x18FA DUP3 PUSH2 0x18DB JUMP JUMPDEST DUP5 DUP5 SLOAD PUSH2 0x185D JUMP JUMPDEST DUP3 SSTORE POP POP POP POP JUMP JUMPDEST PUSH1 0x0 SWAP1 JUMP JUMPDEST PUSH2 0x1917 PUSH2 0x190A JUMP JUMPDEST PUSH2 0x1922 DUP2 DUP5 DUP5 PUSH2 0x18E5 JUMP JUMPDEST POP POP POP JUMP JUMPDEST JUMPDEST DUP2 DUP2 LT ISZERO PUSH2 0x1946 JUMPI PUSH2 0x193B PUSH1 0x0 DUP3 PUSH2 0x190F JUMP JUMPDEST PUSH1 0x1 DUP2 ADD SWAP1 POP PUSH2 0x1928 JUMP JUMPDEST POP POP JUMP JUMPDEST PUSH1 0x1F DUP3 GT ISZERO PUSH2 0x198B JUMPI PUSH2 0x195C DUP2 PUSH2 0x182B JUMP JUMPDEST PUSH2 0x1965 DUP5 PUSH2 0x1840 JUMP JUMPDEST DUP2 ADD PUSH1 0x20 DUP6 LT ISZERO PUSH2 0x1974 JUMPI DUP2 SWAP1 POP JUMPDEST PUSH2 0x1988 PUSH2 0x1980 DUP6 PUSH2 0x1840 JUMP JUMPDEST DUP4 ADD DUP3 PUSH2 0x1927 JUMP JUMPDEST POP POP JUMPDEST POP POP POP JUMP JUMPDEST PUSH1 0x0 DUP3 DUP3 SHR SWAP1 POP SWAP3 SWAP2 POP POP JUMP JUMPDEST PUSH1 0x0 PUSH2 0x19AE PUSH1 0x0 NOT DUP5 PUSH1 0x8 MUL PUSH2 0x1990 JUMP JUMPDEST NOT DUP1 DUP4 AND SWAP2 POP POP SWAP3 SWAP2 POP POP JUMP JUMPDEST PUSH1 0x0 PUSH2 0x19C7 DUP4 DUP4 PUSH2 0x199D JUMP JUMPDEST SWAP2 POP DUP3 PUSH1 0x2 MUL DUP3 OR SWAP1 POP SWAP3 SWAP2 POP POP JUMP JUMPDEST PUSH2 0x19E0 DUP3 PUSH2 0x11F7 JUMP JUMPDEST PUSH8 0xFFFFFFFFFFFFFFFF DUP2 GT ISZERO PUSH2 0x19F9 JUMPI PUSH2 0x19F8 PUSH2 0x12C1 JUMP JUMPDEST JUMPDEST PUSH2 0x1A03 DUP3 SLOAD PUSH2 0x165D JUMP JUMPDEST PUSH2 0x1A0E DUP3 DUP3 DUP6 PUSH2 0x194A JUMP JUMPDEST PUSH1 0x0 PUSH1 0x20 SWAP1 POP PUSH1 0x1F DUP4 GT PUSH1 0x1 DUP2 EQ PUSH2 0x1A41 JUMPI PUSH1 0x0 DUP5 ISZERO PUSH2 0x1A2F JUMPI DUP3 DUP8 ADD MLOAD SWAP1 POP JUMPDEST PUSH2 0x1A39 DUP6 DUP3 PUSH2 0x19BB JUMP JUMPDEST DUP7 SSTORE POP PUSH2 0x1AA1 JUMP JUMPDEST PUSH1 0x1F NOT DUP5 AND PUSH2 0x1A4F DUP7 PUSH2 0x182B JUMP JUMPDEST PUSH1 0x0 JUMPDEST DUP3 DUP2 LT ISZERO PUSH2 0x1A77 JUMPI DUP5 DUP10 ADD MLOAD DUP3 SSTORE PUSH1 0x1 DUP3 ADD SWAP2 POP PUSH1 0x20 DUP6 ADD SWAP5 POP PUSH1 0x20 DUP2 ADD SWAP1 POP PUSH2 0x1A52 JUMP JUMPDEST DUP7 DUP4 LT ISZERO PUSH2 0x1A94 JUMPI DUP5 DUP10 ADD MLOAD PUSH2 0x1A90 PUSH1 0x1F DUP10 AND DUP3 PUSH2 0x199D JUMP JUMPDEST DUP4 SSTORE POP JUMPDEST PUSH1 0x1 PUSH1 0x2 DUP9 MUL ADD DUP9 SSTORE POP POP POP JUMPDEST POP POP POP POP POP POP JUMP JUMPDEST PUSH1 0x0 DUP2 SWAP1 POP SWAP3 SWAP2 POP POP JUMP JUMPDEST PUSH1 0x0 PUSH2 0x1ABF DUP3 PUSH2 0x11F7 JUMP JUMPDEST PUSH2 0x1AC9 DUP2 DUP6 PUSH2 0x1AA9 JUMP JUMPDEST SWAP4 POP PUSH2 0x1AD9 DUP2 DUP6 PUSH1 0x20 DUP7 ADD PUSH2 0x1213 JUMP JUMPDEST DUP1 DUP5 ADD SWAP2 POP POP SWAP3 SWAP2 POP POP JUMP JUMPDEST PUSH1 0x0 PUSH2 0x1AF1 DUP3 DUP5 PUSH2 0x1AB4 JUMP JUMPDEST SWAP2 POP DUP2 SWAP1 POP SWAP3 SWAP2 POP POP JUMP JUMPDEST PUSH1 0x0 DUP2 SLOAD PUSH2 0x1B09 DUP2 PUSH2 0x165D JUMP JUMPDEST PUSH2 0x1B13 DUP2 DUP7 PUSH2 0x1AA9 JUMP JUMPDEST SWAP5 POP PUSH1 0x1 DUP3 AND PUSH1 0x0 DUP2 EQ PUSH2 0x1B2E JUMPI PUSH1 0x1 DUP2 EQ PUSH2 0x1B43 JUMPI PUSH2 0x1B76 JUMP JUMPDEST PUSH1 0xFF NOT DUP4 AND DUP7 MSTORE DUP2 ISZERO ISZERO DUP3 MUL DUP7 ADD SWAP4 POP PUSH2 0x1B76 JUMP JUMPDEST PUSH2 0x1B4C DUP6 PUSH2 0x182B JUMP JUMPDEST PUSH1 0x0 JUMPDEST DUP4 DUP2 LT ISZERO PUSH2 0x1B6E JUMPI DUP2 SLOAD DUP2 DUP10 ADD MSTORE PUSH1 0x1 DUP3 ADD SWAP2 POP PUSH1 0x20 DUP2 ADD SWAP1 POP PUSH2 0x1B4F JUMP JUMPDEST DUP4 DUP9 ADD SWAP6 POP POP POP JUMPDEST POP POP POP SWAP3 SWAP2 POP POP JUMP JUMPDEST PUSH1 0x0 PUSH2 0x1B8B DUP3 DUP5 PUSH2 0x1AFC JUMP JUMPDEST SWAP2 POP DUP2 SWAP1 POP SWAP3 SWAP2 POP POP JUMP JUMPDEST PUSH1 0x0 DUP2 SLOAD SWAP1 POP PUSH2 0x1BA5 DUP2 PUSH2 0x165D JUMP JUMPDEST SWAP1 POP SWAP2 SWAP1 POP JUMP JUMPDEST PUSH1 0x0 DUP2 SWAP1 POP DUP2 PUSH1 0x0 MSTORE PUSH1 0x20 PUSH1 0x0 KECCAK256 SWAP1 POP SWAP2 SWAP1 POP JUMP JUMPDEST DUP2 DUP2 SUB PUSH2 0x1BCF JUMPI POP POP PUSH2 0x1CA7 JUMP JUMPDEST PUSH2 0x1BD8 DUP3 PUSH2 0x1B96 JUMP JUMPDEST PUSH8 0xFFFFFFFFFFFFFFFF DUP2 GT ISZERO PUSH2 0x1BF1 JUMPI PUSH2 0x1BF0 PUSH2 0x12C1 JUMP JUMPDEST JUMPDEST PUSH2 0x1BFB DUP3 SLOAD PUSH2 0x165D JUMP JUMPDEST PUSH2 0x1C06 DUP3 DUP3 DUP6 PUSH2 0x194A JUMP JUMPDEST PUSH1 0x0 PUSH1 0x1F DUP4 GT PUSH1 0x1 DUP2 EQ PUSH2 0x1C35 JUMPI PUSH1 0x0 DUP5 ISZERO PUSH2 0x1C23 JUMPI DUP3 DUP8 ADD SLOAD SWAP1 POP JUMPDEST PUSH2 0x1C2D DUP6 DUP3 PUSH2 0x19BB JUMP JUMPDEST DUP7 SSTORE POP PUSH2 0x1CA0 JUMP JUMPDEST PUSH1 0x1F NOT DUP5 AND PUSH2 0x1C43 DUP8 PUSH2 0x1BAC JUMP JUMPDEST SWAP7 POP PUSH2 0x1C4E DUP7 PUSH2 0x182B JUMP JUMPDEST PUSH1 0x0 JUMPDEST DUP3 DUP2 LT ISZERO PUSH2 0x1C76 JUMPI DUP5 DUP10 ADD SLOAD DUP3 SSTORE PUSH1 0x1 DUP3 ADD SWAP2 POP PUSH1 0x1 DUP6 ADD SWAP5 POP PUSH1 0x20 DUP2 ADD SWAP1 POP PUSH2 0x1C51 JUMP JUMPDEST DUP7 DUP4 LT ISZERO PUSH2 0x1C93 JUMPI DUP5 DUP10 ADD SLOAD PUSH2 0x1C8F PUSH1 0x1F DUP10 AND DUP3 PUSH2 0x199D JUMP JUMPDEST DUP4 SSTORE POP JUMPDEST PUSH1 0x1 PUSH1 0x2 DUP9 MUL ADD DUP9 SSTORE POP POP POP JUMPDEST POP POP POP POP POP POP JUMPDEST JUMP INVALID LOG2 PUSH5 0x6970667358 0x22 SLT KECCAK256 BYTE CODESIZE MSTORE8 DUP10 0xC7 BASEFEE AND 0xF6 0x26 SIGNEXTEND PUSH7 0x14579B1E4C4757 LT STATICCALL CALLDATALOAD 0x1F SLOAD STOP SWAP10 0xEB COINBASE 0xE9 PUSH28 0xEE991164736F6C634300081200330000000000000000000000000000 "
				},
				"gasEstimates": {
					"creation": {
						"codeDepositCost": "1478200",
						"executionCost": "infinite",
						"totalCost": "infinite"
					},
					"external": {
						"addFriend(address,string)": "infinite",
						"addRestaurant(string)": "infinite",
						"contractActive()": "2581",
						"deactivateContract()": "26625",
						"deadlineBlockNumber()": "2495",
						"doVote(uint256)": "infinite",
						"friends(address)": "infinite",
						"manager()": "2537",
						"numFriends()": "2519",
						"numRestaurants()": "2451",
						"numVotes()": "2496",
						"openVoting(uint256)": "infinite",
						"restaurantExist()": "2494",
						"restaurants(uint256)": "infinite",
						"voteOpen()": "2516",
						"voteState()": "2518",
						"votedRestaurant()": "infinite",
						"votes(uint256)": "infinite"
					},
					"internal": {
						"finalResult()": "infinite"
					}
				},
				"methodIdentifiers": {
					"addFriend(address,string)": "3b9f708d",
					"addRestaurant(string)": "6d77bd3e",
					"contractActive()": "e289fcb6",
					"deactivateContract()": "bca353be",
					"deadlineBlockNumber()": "be8db3cf",
					"doVote(uint256)": "124258c6",
					"friends(address)": "1ddabf7a",
					"manager()": "481c6a75",
					"numFriends()": "47098f36",
					"numRestaurants()": "b798867f",
					"numVotes()": "a3bef4d7",
					"openVoting(uint256)": "5f2ba6b2",
					"restaurantExist()": "72181ae9",
					"restaurants(uint256)": "ad5461d8",
					"voteOpen()": "788d3851",
					"voteState()": "66597e5a",
					"votedRestaurant()": "c1c16efc",
					"votes(uint256)": "5df81330"
				}
			},
			"storageLayout": {
				"storage": [
					{
						"astId": 16,
						"contract": "contracts/LunchVenue_updated.sol:LunchVenue",
						"label": "restaurants",
						"offset": 0,
						"slot": "0",
						"type": "t_mapping(t_uint256,t_string_storage)"
					},
					{
						"astId": 21,
						"contract": "contracts/LunchVenue_updated.sol:LunchVenue",
						"label": "friends",
						"offset": 0,
						"slot": "1",
						"type": "t_mapping(t_address,t_struct(Friend)7_storage)"
					},
					{
						"astId": 24,
						"contract": "contracts/LunchVenue_updated.sol:LunchVenue",
						"label": "numRestaurants",
						"offset": 0,
						"slot": "2",
						"type": "t_uint256"
					},
					{
						"astId": 27,
						"contract": "contracts/LunchVenue_updated.sol:LunchVenue",
						"label": "numFriends",
						"offset": 0,
						"slot": "3",
						"type": "t_uint256"
					},
					{
						"astId": 30,
						"contract": "contracts/LunchVenue_updated.sol:LunchVenue",
						"label": "numVotes",
						"offset": 0,
						"slot": "4",
						"type": "t_uint256"
					},
					{
						"astId": 32,
						"contract": "contracts/LunchVenue_updated.sol:LunchVenue",
						"label": "manager",
						"offset": 0,
						"slot": "5",
						"type": "t_address"
					},
					{
						"astId": 35,
						"contract": "contracts/LunchVenue_updated.sol:LunchVenue",
						"label": "votedRestaurant",
						"offset": 0,
						"slot": "6",
						"type": "t_string_storage"
					},
					{
						"astId": 40,
						"contract": "contracts/LunchVenue_updated.sol:LunchVenue",
						"label": "votes",
						"offset": 0,
						"slot": "7",
						"type": "t_mapping(t_uint256,t_struct(Vote)12_storage)"
					},
					{
						"astId": 44,
						"contract": "contracts/LunchVenue_updated.sol:LunchVenue",
						"label": "_results",
						"offset": 0,
						"slot": "8",
						"type": "t_mapping(t_uint256,t_uint256)"
					},
					{
						"astId": 47,
						"contract": "contracts/LunchVenue_updated.sol:LunchVenue",
						"label": "voteOpen",
						"offset": 0,
						"slot": "9",
						"type": "t_bool"
					},
					{
						"astId": 50,
						"contract": "contracts/LunchVenue_updated.sol:LunchVenue",
						"label": "voteState",
						"offset": 0,
						"slot": "10",
						"type": "t_uint256"
					},
					{
						"astId": 53,
						"contract": "contracts/LunchVenue_updated.sol:LunchVenue",
						"label": "restaurantExist",
						"offset": 0,
						"slot": "11",
						"type": "t_bool"
					},
					{
						"astId": 55,
						"contract": "contracts/LunchVenue_updated.sol:LunchVenue",
						"label": "deadlineBlockNumber",
						"offset": 0,
						"slot": "12",
						"type": "t_uint256"
					},
					{
						"astId": 57,
						"contract": "contracts/LunchVenue_updated.sol:LunchVenue",
						"label": "contractActive",
						"offset": 0,
						"slot": "13",
						"type": "t_bool"
					}
				],
				"types": {
					"t_address": {
						"encoding": "inplace",
						"label": "address",
						"numberOfBytes": "20"
					},
					"t_bool": {
						"encoding": "inplace",
						"label": "bool",
						"numberOfBytes": "1"
					},
					"t_mapping(t_address,t_struct(Friend)7_storage)": {
						"encoding": "mapping",
						"key": "t_address",
						"label": "mapping(address => struct LunchVenue.Friend)",
						"numberOfBytes": "32",
						"value": "t_struct(Friend)7_storage"
					},
					"t_mapping(t_uint256,t_string_storage)": {
						"encoding": "mapping",
						"key": "t_uint256",
						"label": "mapping(uint256 => string)",
						"numberOfBytes": "32",
						"value": "t_string_storage"
					},
					"t_mapping(t_uint256,t_struct(Vote)12_storage)": {
						"encoding": "mapping",
						"key": "t_uint256",
						"label": "mapping(uint256 => struct LunchVenue.Vote)",
						"numberOfBytes": "32",
						"value": "t_struct(Vote)12_storage"
					},
					"t_mapping(t_uint256,t_uint256)": {
						"encoding": "mapping",
						"key": "t_uint256",
						"label": "mapping(uint256 => uint256)",
						"numberOfBytes": "32",
						"value": "t_uint256"
					},
					"t_string_storage": {
						"encoding": "bytes",
						"label": "string",
						"numberOfBytes": "32"
					},
					"t_struct(Friend)7_storage": {
						"encoding": "inplace",
						"label": "struct LunchVenue.Friend",
						"members": [
							{
								"astId": 4,
								"contract": "contracts/LunchVenue_updated.sol:LunchVenue",
								"label": "name",
								"offset": 0,
								"slot": "0",
								"type": "t_string_storage"
							},
							{
								"astId": 6,
								"contract": "contracts/LunchVenue_updated.sol:LunchVenue",
								"label": "voted",
								"offset": 0,
								"slot": "1",
								"type": "t_bool"
							}
						],
						"numberOfBytes": "64"
					},
					"t_struct(Vote)12_storage": {
						"encoding": "inplace",
						"label": "struct LunchVenue.Vote",
						"members": [
							{
								"astId": 9,
								"contract": "contracts/LunchVenue_updated.sol:LunchVenue",
								"label": "voterAddress",
								"offset": 0,
								"slot": "0",
								"type": "t_address"
							},
							{
								"astId": 11,
								"contract": "contracts/LunchVenue_updated.sol:LunchVenue",
								"label": "restaurant",
								"offset": 0,
								"slot": "1",
								"type": "t_uint256"
							}
						],
						"numberOfBytes": "64"
					},
					"t_uint256": {
						"encoding": "inplace",
						"label": "uint256",
						"numberOfBytes": "32"
					}
				}
			},
			"userdoc": {
				"kind": "user",
				"methods": {
					"addFriend(address,string)": {
						"notice": "Add a new friend to voter list"
					},
					"addRestaurant(string)": {
						"notice": "Add a new restaurant"
					},
					"doVote(uint256)": {
						"notice": "Vote for a restaurant"
					}
				},
				"version": 1
			}
		}
	}
}